{
  "_format": "hh-sol-artifact-1",
  "contractName": "customToken",
  "sourceName": "contracts/customToken.sol",
  "abi": [
    {
      "inputs": [
        {
          "internalType": "uint256",
          "name": "_initialSupply",
          "type": "uint256"
        }
      ],
      "stateMutability": "nonpayable",
      "type": "constructor"
    },
    {
      "anonymous": false,
      "inputs": [
        {
          "indexed": true,
          "internalType": "address",
          "name": "owner",
          "type": "address"
        },
        {
          "indexed": true,
          "internalType": "address",
          "name": "spender",
          "type": "address"
        },
        {
          "indexed": false,
          "internalType": "uint256",
          "name": "value",
          "type": "uint256"
        }
      ],
      "name": "Approval",
      "type": "event"
    },
    {
      "anonymous": false,
      "inputs": [
        {
          "indexed": true,
          "internalType": "address",
          "name": "from",
          "type": "address"
        },
        {
          "indexed": true,
          "internalType": "address",
          "name": "to",
          "type": "address"
        },
        {
          "indexed": false,
          "internalType": "uint256",
          "name": "value",
          "type": "uint256"
        }
      ],
      "name": "Transfer",
      "type": "event"
    },
    {
      "inputs": [
        {
          "internalType": "address",
          "name": "owner",
          "type": "address"
        },
        {
          "internalType": "address",
          "name": "spender",
          "type": "address"
        }
      ],
      "name": "allowance",
      "outputs": [
        {
          "internalType": "uint256",
          "name": "",
          "type": "uint256"
        }
      ],
      "stateMutability": "view",
      "type": "function"
    },
    {
      "inputs": [
        {
          "internalType": "address",
          "name": "spender",
          "type": "address"
        },
        {
          "internalType": "uint256",
          "name": "amount",
          "type": "uint256"
        }
      ],
      "name": "approve",
      "outputs": [
        {
          "internalType": "bool",
          "name": "",
          "type": "bool"
        }
      ],
      "stateMutability": "nonpayable",
      "type": "function"
    },
    {
      "inputs": [
        {
          "internalType": "address",
          "name": "_owner",
          "type": "address"
        },
        {
          "internalType": "address",
          "name": "_spender",
          "type": "address"
        },
        {
          "internalType": "uint256",
          "name": "_amount",
          "type": "uint256"
        }
      ],
      "name": "approve",
      "outputs": [],
      "stateMutability": "nonpayable",
      "type": "function"
    },
    {
      "inputs": [
        {
          "internalType": "address",
          "name": "account",
          "type": "address"
        }
      ],
      "name": "balanceOf",
      "outputs": [
        {
          "internalType": "uint256",
          "name": "",
          "type": "uint256"
        }
      ],
      "stateMutability": "view",
      "type": "function"
    },
    {
      "inputs": [
        {
          "internalType": "uint256",
          "name": "_numberOfTokens",
          "type": "uint256"
        }
      ],
      "name": "buyTokens",
      "outputs": [],
      "stateMutability": "payable",
      "type": "function"
    },
    {
      "inputs": [],
      "name": "decimals",
      "outputs": [
        {
          "internalType": "uint8",
          "name": "",
          "type": "uint8"
        }
      ],
      "stateMutability": "pure",
      "type": "function"
    },
    {
      "inputs": [
        {
          "internalType": "address",
          "name": "spender",
          "type": "address"
        },
        {
          "internalType": "uint256",
          "name": "subtractedValue",
          "type": "uint256"
        }
      ],
      "name": "decreaseAllowance",
      "outputs": [
        {
          "internalType": "bool",
          "name": "",
          "type": "bool"
        }
      ],
      "stateMutability": "nonpayable",
      "type": "function"
    },
    {
      "inputs": [],
      "name": "getOwner",
      "outputs": [
        {
          "internalType": "address",
          "name": "",
          "type": "address"
        }
      ],
      "stateMutability": "view",
      "type": "function"
    },
    {
      "inputs": [],
      "name": "getTokenPrice",
      "outputs": [
        {
          "internalType": "uint256",
          "name": "",
          "type": "uint256"
        }
      ],
      "stateMutability": "view",
      "type": "function"
    },
    {
      "inputs": [],
      "name": "getTotalSupply",
      "outputs": [
        {
          "internalType": "uint256",
          "name": "",
          "type": "uint256"
        }
      ],
      "stateMutability": "view",
      "type": "function"
    },
    {
      "inputs": [
        {
          "internalType": "address",
          "name": "spender",
          "type": "address"
        },
        {
          "internalType": "uint256",
          "name": "addedValue",
          "type": "uint256"
        }
      ],
      "name": "increaseAllowance",
      "outputs": [
        {
          "internalType": "bool",
          "name": "",
          "type": "bool"
        }
      ],
      "stateMutability": "nonpayable",
      "type": "function"
    },
    {
      "inputs": [],
      "name": "name",
      "outputs": [
        {
          "internalType": "string",
          "name": "",
          "type": "string"
        }
      ],
      "stateMutability": "view",
      "type": "function"
    },
    {
      "inputs": [
        {
          "internalType": "uint256",
          "name": "articleid",
          "type": "uint256"
        },
        {
          "internalType": "uint256",
          "name": "amount",
          "type": "uint256"
        }
      ],
      "name": "sendTip",
      "outputs": [],
      "stateMutability": "payable",
      "type": "function"
    },
    {
      "inputs": [],
      "name": "symbol",
      "outputs": [
        {
          "internalType": "string",
          "name": "",
          "type": "string"
        }
      ],
      "stateMutability": "view",
      "type": "function"
    },
    {
      "inputs": [],
      "name": "totalSupply",
      "outputs": [
        {
          "internalType": "uint256",
          "name": "",
          "type": "uint256"
        }
      ],
      "stateMutability": "view",
      "type": "function"
    },
    {
      "inputs": [
        {
          "internalType": "address",
          "name": "to",
          "type": "address"
        },
        {
          "internalType": "uint256",
          "name": "amount",
          "type": "uint256"
        }
      ],
      "name": "transfer",
      "outputs": [
        {
          "internalType": "bool",
          "name": "",
          "type": "bool"
        }
      ],
      "stateMutability": "nonpayable",
      "type": "function"
    },
    {
      "inputs": [
        {
          "internalType": "address",
          "name": "from",
          "type": "address"
        },
        {
          "internalType": "address",
          "name": "to",
          "type": "address"
        },
        {
          "internalType": "uint256",
          "name": "amount",
          "type": "uint256"
        }
      ],
      "name": "transferFrom",
      "outputs": [
        {
          "internalType": "bool",
          "name": "",
          "type": "bool"
        }
      ],
      "stateMutability": "nonpayable",
      "type": "function"
    },
    {
      "inputs": [
        {
          "internalType": "address",
          "name": "_sender",
          "type": "address"
        },
        {
          "internalType": "address",
          "name": "_recipient",
          "type": "address"
        },
        {
          "internalType": "uint256",
          "name": "_amount",
          "type": "uint256"
        }
      ],
      "name": "transferr",
      "outputs": [
        {
          "internalType": "bool",
          "name": "",
          "type": "bool"
        }
      ],
      "stateMutability": "nonpayable",
      "type": "function"
    }
  ],
  "bytecode": "0x60806040526509184e72a00060075573f43b5d563a452e3be1607c1934f5616a86288616600860006101000a81548173ffffffffffffffffffffffffffffffffffffffff021916908373ffffffffffffffffffffffffffffffffffffffff1602179055503480156200007057600080fd5b50604051620022e2380380620022e2833981810160405281019062000096919062000403565b6040518060400160405280600e81526020017f41534b325745423320546f6b656e0000000000000000000000000000000000008152506040518060400160405280600381526020017f41534b000000000000000000000000000000000000000000000000000000000081525081600390805190602001906200011a9291906200033c565b508060049080519060200190620001339291906200033c565b50505033600560006101000a81548173ffffffffffffffffffffffffffffffffffffffff021916908373ffffffffffffffffffffffffffffffffffffffff160217905550620001ab600560009054906101000a900473ffffffffffffffffffffffffffffffffffffffff1682620001b960201b60201c565b8060068190555050620005f5565b600073ffffffffffffffffffffffffffffffffffffffff168273ffffffffffffffffffffffffffffffffffffffff1614156200022c576040517f08c379a0000000000000000000000000000000000000000000000000000000008152600401620002239062000467565b60405180910390fd5b62000240600083836200033260201b60201c565b8060026000828254620002549190620004b7565b92505081905550806000808473ffffffffffffffffffffffffffffffffffffffff1673ffffffffffffffffffffffffffffffffffffffff1681526020019081526020016000206000828254620002ab9190620004b7565b925050819055508173ffffffffffffffffffffffffffffffffffffffff16600073ffffffffffffffffffffffffffffffffffffffff167fddf252ad1be2c89b69c2b068fc378daa952ba7f163c4a11628f55a4df523b3ef8360405162000312919062000489565b60405180910390a36200032e600083836200033760201b60201c565b5050565b505050565b505050565b8280546200034a906200051e565b90600052602060002090601f0160209004810192826200036e5760008555620003ba565b82601f106200038957805160ff1916838001178555620003ba565b82800160010185558215620003ba579182015b82811115620003b95782518255916020019190600101906200039c565b5b509050620003c99190620003cd565b5090565b5b80821115620003e8576000816000905550600101620003ce565b5090565b600081519050620003fd81620005db565b92915050565b6000602082840312156200041657600080fd5b60006200042684828501620003ec565b91505092915050565b60006200043e601f83620004a6565b91506200044b82620005b2565b602082019050919050565b620004618162000514565b82525050565b6000602082019050818103600083015262000482816200042f565b9050919050565b6000602082019050620004a0600083018462000456565b92915050565b600082825260208201905092915050565b6000620004c48262000514565b9150620004d18362000514565b9250827fffffffffffffffffffffffffffffffffffffffffffffffffffffffffffffffff0382111562000509576200050862000554565b5b828201905092915050565b6000819050919050565b600060028204905060018216806200053757607f821691505b602082108114156200054e576200054d62000583565b5b50919050565b7f4e487b7100000000000000000000000000000000000000000000000000000000600052601160045260246000fd5b7f4e487b7100000000000000000000000000000000000000000000000000000000600052602260045260246000fd5b7f45524332303a206d696e7420746f20746865207a65726f206164647265737300600082015250565b620005e68162000514565b8114620005f257600080fd5b50565b611cdd80620006056000396000f3fe6080604052600436106101095760003560e01c806370a0823111610095578063a9059cbb11610064578063a9059cbb14610379578063c4e41b22146103b6578063c8834914146103e1578063dd62ed3e1461041e578063e1f21c671461045b57610109565b806370a08231146102a9578063893d20e8146102e657806395d89b4114610311578063a457c2d71461033c57610109565b8063313ce567116100dc578063313ce567146101de5780633610724e1461020957806339509351146102255780634b94f50e146102625780635ca3484b1461028d57610109565b806306fdde031461010e578063095ea7b31461013957806318160ddd1461017657806323b872dd146101a1575b600080fd5b34801561011a57600080fd5b50610123610484565b604051610130919061168e565b60405180910390f35b34801561014557600080fd5b50610160600480360381019061015b91906113b5565b610516565b60405161016d9190611673565b60405180910390f35b34801561018257600080fd5b5061018b610539565b60405161019891906117d0565b60405180910390f35b3480156101ad57600080fd5b506101c860048036038101906101c39190611366565b610543565b6040516101d59190611673565b60405180910390f35b3480156101ea57600080fd5b506101f3610572565b6040516102009190611814565b60405180910390f35b610223600480360381019061021e91906113f1565b610577565b005b34801561023157600080fd5b5061024c600480360381019061024791906113b5565b6107a9565b6040516102599190611673565b60405180910390f35b34801561026e57600080fd5b506102776107e0565b60405161028491906117d0565b60405180910390f35b6102a760048036038101906102a29190611443565b6107ea565b005b3480156102b557600080fd5b506102d060048036038101906102cb91906112d8565b610b43565b6040516102dd91906117d0565b60405180910390f35b3480156102f257600080fd5b506102fb610b8b565b604051610308919061162f565b60405180910390f35b34801561031d57600080fd5b50610326610bb5565b604051610333919061168e565b60405180910390f35b34801561034857600080fd5b50610363600480360381019061035e91906113b5565b610c47565b6040516103709190611673565b60405180910390f35b34801561038557600080fd5b506103a0600480360381019061039b91906113b5565b610cbe565b6040516103ad9190611673565b60405180910390f35b3480156103c257600080fd5b506103cb610ce1565b6040516103d891906117d0565b60405180910390f35b3480156103ed57600080fd5b5061040860048036038101906104039190611366565b610ceb565b6040516104159190611673565b60405180910390f35b34801561042a57600080fd5b506104456004803603810190610440919061132a565b610d03565b60405161045291906117d0565b60405180910390f35b34801561046757600080fd5b50610482600480360381019061047d9190611366565b610d8a565b005b60606003805461049390611983565b80601f01602080910402602001604051908101604052809291908181526020018280546104bf90611983565b801561050c5780601f106104e15761010080835404028352916020019161050c565b820191906000526020600020905b8154815290600101906020018083116104ef57829003601f168201915b5050505050905090565b600080610521610d9a565b905061052e818585610da2565b600191505092915050565b6000600254905090565b60008061054e610d9a565b905061055b858285610f6d565b610566858585610ff9565b60019150509392505050565b600090565b61057f6107e0565b8161058a91906118a1565b34146105cb576040517f08c379a00000000000000000000000000000000000000000000000000000000081526004016105c290611790565b60405180910390fd5b806105f7600560009054906101000a900473ffffffffffffffffffffffffffffffffffffffff16610b43565b1015610638576040517f08c379a000000000000000000000000000000000000000000000000000000000815260040161062f906116f0565b60405180910390fd5b610665600560009054906101000a900473ffffffffffffffffffffffffffffffffffffffff163383610ceb565b506000600860009054906101000a900473ffffffffffffffffffffffffffffffffffffffff1673ffffffffffffffffffffffffffffffffffffffff1663ee7c0db06040518163ffffffff1660e01b815260040160206040518083038186803b1580156106d057600080fd5b505afa1580156106e4573d6000803e3d6000fd5b505050506040513d601f19601f82011682018060405250810190610708919061141a565b90508181610716919061184b565b9050600860009054906101000a900473ffffffffffffffffffffffffffffffffffffffff1673ffffffffffffffffffffffffffffffffffffffff16637efe7939826040518263ffffffff1660e01b815260040161077391906117d0565b600060405180830381600087803b15801561078d57600080fd5b505af11580156107a1573d6000803e3d6000fd5b505050505050565b6000806107b4610d9a565b90506107d58185856107c68589610d03565b6107d0919061184b565b610da2565b600191505092915050565b6000600754905090565b6000600860009054906101000a900473ffffffffffffffffffffffffffffffffffffffff1673ffffffffffffffffffffffffffffffffffffffff1663e6bb0c39846040518263ffffffff1660e01b815260040161084791906117d0565b60206040518083038186803b15801561085f57600080fd5b505afa158015610873573d6000803e3d6000fd5b505050506040513d601f19601f820116820180604052508101906108979190611301565b90506000600860009054906101000a900473ffffffffffffffffffffffffffffffffffffffff1673ffffffffffffffffffffffffffffffffffffffff1663d075d4a6856040518263ffffffff1660e01b81526004016108f691906117d0565b60206040518083038186803b15801561090e57600080fd5b505afa158015610922573d6000803e3d6000fd5b505050506040513d601f19601f82011682018060405250810190610946919061141a565b90508281610954919061184b565b9050600860009054906101000a900473ffffffffffffffffffffffffffffffffffffffff1673ffffffffffffffffffffffffffffffffffffffff1663ce9e793b85836040518363ffffffff1660e01b81526004016109b39291906117eb565b600060405180830381600087803b1580156109cd57600080fd5b505af11580156109e1573d6000803e3d6000fd5b505050506000600860009054906101000a900473ffffffffffffffffffffffffffffffffffffffff1673ffffffffffffffffffffffffffffffffffffffff16633e8f032d846040518263ffffffff1660e01b8152600401610a42919061162f565b60206040518083038186803b158015610a5a57600080fd5b505afa158015610a6e573d6000803e3d6000fd5b505050506040513d601f19601f82011682018060405250810190610a92919061141a565b90508381610aa0919061184b565b9050600860009054906101000a900473ffffffffffffffffffffffffffffffffffffffff1673ffffffffffffffffffffffffffffffffffffffff1663f989128c84836040518363ffffffff1660e01b8152600401610aff92919061164a565b600060405180830381600087803b158015610b1957600080fd5b505af1158015610b2d573d6000803e3d6000fd5b50505050610b3b8385610cbe565b505050505050565b60008060008373ffffffffffffffffffffffffffffffffffffffff1673ffffffffffffffffffffffffffffffffffffffff168152602001908152602001600020549050919050565b6000600560009054906101000a900473ffffffffffffffffffffffffffffffffffffffff16905090565b606060048054610bc490611983565b80601f0160208091040260200160405190810160405280929190818152602001828054610bf090611983565b8015610c3d5780601f10610c1257610100808354040283529160200191610c3d565b820191906000526020600020905b815481529060010190602001808311610c2057829003601f168201915b5050505050905090565b600080610c52610d9a565b90506000610c608286610d03565b905083811015610ca5576040517f08c379a0000000000000000000000000000000000000000000000000000000008152600401610c9c906117b0565b60405180910390fd5b610cb28286868403610da2565b60019250505092915050565b600080610cc9610d9a565b9050610cd6818585610ff9565b600191505092915050565b6000600654905090565b6000610cf8848484610ff9565b600190509392505050565b6000600160008473ffffffffffffffffffffffffffffffffffffffff1673ffffffffffffffffffffffffffffffffffffffff16815260200190815260200160002060008373ffffffffffffffffffffffffffffffffffffffff1673ffffffffffffffffffffffffffffffffffffffff16815260200190815260200160002054905092915050565b610d95838383610da2565b505050565b600033905090565b600073ffffffffffffffffffffffffffffffffffffffff168373ffffffffffffffffffffffffffffffffffffffff161415610e12576040517f08c379a0000000000000000000000000000000000000000000000000000000008152600401610e0990611770565b60405180910390fd5b600073ffffffffffffffffffffffffffffffffffffffff168273ffffffffffffffffffffffffffffffffffffffff161415610e82576040517f08c379a0000000000000000000000000000000000000000000000000000000008152600401610e79906116d0565b60405180910390fd5b80600160008573ffffffffffffffffffffffffffffffffffffffff1673ffffffffffffffffffffffffffffffffffffffff16815260200190815260200160002060008473ffffffffffffffffffffffffffffffffffffffff1673ffffffffffffffffffffffffffffffffffffffff168152602001908152602001600020819055508173ffffffffffffffffffffffffffffffffffffffff168373ffffffffffffffffffffffffffffffffffffffff167f8c5be1e5ebec7d5bd14f71427d1e84f3dd0314c0f7b2291e5b200ac8c7c3b92583604051610f6091906117d0565b60405180910390a3505050565b6000610f798484610d03565b90507fffffffffffffffffffffffffffffffffffffffffffffffffffffffffffffffff8114610ff35781811015610fe5576040517f08c379a0000000000000000000000000000000000000000000000000000000008152600401610fdc90611710565b60405180910390fd5b610ff28484848403610da2565b5b50505050565b600073ffffffffffffffffffffffffffffffffffffffff168373ffffffffffffffffffffffffffffffffffffffff161415611069576040517f08c379a000000000000000000000000000000000000000000000000000000000815260040161106090611750565b60405180910390fd5b600073ffffffffffffffffffffffffffffffffffffffff168273ffffffffffffffffffffffffffffffffffffffff1614156110d9576040517f08c379a00000000000000000000000000000000000000000000000000000000081526004016110d0906116b0565b60405180910390fd5b6110e483838361127a565b60008060008573ffffffffffffffffffffffffffffffffffffffff1673ffffffffffffffffffffffffffffffffffffffff1681526020019081526020016000205490508181101561116a576040517f08c379a000000000000000000000000000000000000000000000000000000000815260040161116190611730565b60405180910390fd5b8181036000808673ffffffffffffffffffffffffffffffffffffffff1673ffffffffffffffffffffffffffffffffffffffff16815260200190815260200160002081905550816000808573ffffffffffffffffffffffffffffffffffffffff1673ffffffffffffffffffffffffffffffffffffffff16815260200190815260200160002060008282546111fd919061184b565b925050819055508273ffffffffffffffffffffffffffffffffffffffff168473ffffffffffffffffffffffffffffffffffffffff167fddf252ad1be2c89b69c2b068fc378daa952ba7f163c4a11628f55a4df523b3ef8460405161126191906117d0565b60405180910390a361127484848461127f565b50505050565b505050565b505050565b60008135905061129381611c79565b92915050565b6000815190506112a881611c79565b92915050565b6000813590506112bd81611c90565b92915050565b6000815190506112d281611c90565b92915050565b6000602082840312156112ea57600080fd5b60006112f884828501611284565b91505092915050565b60006020828403121561131357600080fd5b600061132184828501611299565b91505092915050565b6000806040838503121561133d57600080fd5b600061134b85828601611284565b925050602061135c85828601611284565b9150509250929050565b60008060006060848603121561137b57600080fd5b600061138986828701611284565b935050602061139a86828701611284565b92505060406113ab868287016112ae565b9150509250925092565b600080604083850312156113c857600080fd5b60006113d685828601611284565b92505060206113e7858286016112ae565b9150509250929050565b60006020828403121561140357600080fd5b6000611411848285016112ae565b91505092915050565b60006020828403121561142c57600080fd5b600061143a848285016112c3565b91505092915050565b6000806040838503121561145657600080fd5b6000611464858286016112ae565b9250506020611475858286016112ae565b9150509250929050565b611488816118fb565b82525050565b6114978161190d565b82525050565b60006114a88261182f565b6114b2818561183a565b93506114c2818560208601611950565b6114cb81611a13565b840191505092915050565b60006114e360238361183a565b91506114ee82611a24565b604082019050919050565b600061150660228361183a565b915061151182611a73565b604082019050919050565b600061152960108361183a565b915061153482611ac2565b602082019050919050565b600061154c601d8361183a565b915061155782611aeb565b602082019050919050565b600061156f60268361183a565b915061157a82611b14565b604082019050919050565b600061159260258361183a565b915061159d82611b63565b604082019050919050565b60006115b560248361183a565b91506115c082611bb2565b604082019050919050565b60006115d860108361183a565b91506115e382611c01565b602082019050919050565b60006115fb60258361183a565b915061160682611c2a565b604082019050919050565b61161a81611939565b82525050565b61162981611943565b82525050565b6000602082019050611644600083018461147f565b92915050565b600060408201905061165f600083018561147f565b61166c6020830184611611565b9392505050565b6000602082019050611688600083018461148e565b92915050565b600060208201905081810360008301526116a8818461149d565b905092915050565b600060208201905081810360008301526116c9816114d6565b9050919050565b600060208201905081810360008301526116e9816114f9565b9050919050565b600060208201905081810360008301526117098161151c565b9050919050565b600060208201905081810360008301526117298161153f565b9050919050565b6000602082019050818103600083015261174981611562565b9050919050565b6000602082019050818103600083015261176981611585565b9050919050565b60006020820190508181036000830152611789816115a8565b9050919050565b600060208201905081810360008301526117a9816115cb565b9050919050565b600060208201905081810360008301526117c9816115ee565b9050919050565b60006020820190506117e56000830184611611565b92915050565b60006040820190506118006000830185611611565b61180d6020830184611611565b9392505050565b60006020820190506118296000830184611620565b92915050565b600081519050919050565b600082825260208201905092915050565b600061185682611939565b915061186183611939565b9250827fffffffffffffffffffffffffffffffffffffffffffffffffffffffffffffffff03821115611896576118956119b5565b5b828201905092915050565b60006118ac82611939565b91506118b783611939565b9250817fffffffffffffffffffffffffffffffffffffffffffffffffffffffffffffffff04831182151516156118f0576118ef6119b5565b5b828202905092915050565b600061190682611919565b9050919050565b60008115159050919050565b600073ffffffffffffffffffffffffffffffffffffffff82169050919050565b6000819050919050565b600060ff82169050919050565b60005b8381101561196e578082015181840152602081019050611953565b8381111561197d576000848401525b50505050565b6000600282049050600182168061199b57607f821691505b602082108114156119af576119ae6119e4565b5b50919050565b7f4e487b7100000000000000000000000000000000000000000000000000000000600052601160045260246000fd5b7f4e487b7100000000000000000000000000000000000000000000000000000000600052602260045260246000fd5b6000601f19601f8301169050919050565b7f45524332303a207472616e7366657220746f20746865207a65726f206164647260008201527f6573730000000000000000000000000000000000000000000000000000000000602082015250565b7f45524332303a20617070726f766520746f20746865207a65726f20616464726560008201527f7373000000000000000000000000000000000000000000000000000000000000602082015250565b7f6e6f7420656e6f75676820746f6b656e00000000000000000000000000000000600082015250565b7f45524332303a20696e73756666696369656e7420616c6c6f77616e6365000000600082015250565b7f45524332303a207472616e7366657220616d6f756e742065786365656473206260008201527f616c616e63650000000000000000000000000000000000000000000000000000602082015250565b7f45524332303a207472616e736665722066726f6d20746865207a65726f20616460008201527f6472657373000000000000000000000000000000000000000000000000000000602082015250565b7f45524332303a20617070726f76652066726f6d20746865207a65726f2061646460008201527f7265737300000000000000000000000000000000000000000000000000000000602082015250565b7f6e6f7420656e6f7567682076616c756500000000000000000000000000000000600082015250565b7f45524332303a2064656372656173656420616c6c6f77616e63652062656c6f7760008201527f207a65726f000000000000000000000000000000000000000000000000000000602082015250565b611c82816118fb565b8114611c8d57600080fd5b50565b611c9981611939565b8114611ca457600080fd5b5056fea26469706673582212207b5733175d7d5f6dc4b3b76f2630b2496d86add9dc0568cff694082840fb1e7264736f6c63430008040033",
  "linkReferences": {},
  "deployedLinkReferences": {}
}