{
  "_format": "hh-sol-artifact-1",
  "contractName": "Stack",
  "sourceName": "contracts/Stack.sol",
  "abi": [
    {
      "inputs": [],
      "stateMutability": "nonpayable",
      "type": "constructor"
    },
    {
      "inputs": [
        {
          "internalType": "uint256",
          "name": "aid",
          "type": "uint256"
        }
      ],
      "name": "a_downvote",
      "outputs": [],
      "stateMutability": "nonpayable",
      "type": "function"
    },
    {
      "inputs": [],
      "name": "a_id",
      "outputs": [
        {
          "internalType": "uint256",
          "name": "",
          "type": "uint256"
        }
      ],
      "stateMutability": "view",
      "type": "function"
    },
    {
      "inputs": [
        {
          "internalType": "uint256",
          "name": "aid",
          "type": "uint256"
        }
      ],
      "name": "a_upVote",
      "outputs": [],
      "stateMutability": "nonpayable",
      "type": "function"
    },
    {
      "inputs": [
        {
          "internalType": "uint256",
          "name": "qid",
          "type": "uint256"
        },
        {
          "internalType": "string",
          "name": "a_cid",
          "type": "string"
        }
      ],
      "name": "addAnswer",
      "outputs": [],
      "stateMutability": "nonpayable",
      "type": "function"
    },
    {
      "inputs": [
        {
          "internalType": "string",
          "name": "article_cid",
          "type": "string"
        },
        {
          "internalType": "string",
          "name": "image_cid",
          "type": "string"
        },
        {
          "internalType": "string[]",
          "name": "tag_name",
          "type": "string[]"
        }
      ],
      "name": "addArticle",
      "outputs": [],
      "stateMutability": "nonpayable",
      "type": "function"
    },
    {
      "inputs": [
        {
          "internalType": "uint256",
          "name": "articleid",
          "type": "uint256"
        }
      ],
      "name": "addLike",
      "outputs": [],
      "stateMutability": "nonpayable",
      "type": "function"
    },
    {
      "inputs": [
        {
          "internalType": "string",
          "name": "q_cid",
          "type": "string"
        },
        {
          "internalType": "string[]",
          "name": "tag_name",
          "type": "string[]"
        }
      ],
      "name": "addQuestion",
      "outputs": [],
      "stateMutability": "nonpayable",
      "type": "function"
    },
    {
      "inputs": [
        {
          "internalType": "address",
          "name": "",
          "type": "address"
        },
        {
          "internalType": "string",
          "name": "",
          "type": "string"
        }
      ],
      "name": "addressToTagToScore",
      "outputs": [
        {
          "internalType": "uint256",
          "name": "",
          "type": "uint256"
        }
      ],
      "stateMutability": "view",
      "type": "function"
    },
    {
      "inputs": [
        {
          "internalType": "address",
          "name": "",
          "type": "address"
        }
      ],
      "name": "addressToUserInfo",
      "outputs": [
        {
          "internalType": "address",
          "name": "user",
          "type": "address"
        },
        {
          "internalType": "uint256",
          "name": "noOfQuestions",
          "type": "uint256"
        },
        {
          "internalType": "uint256",
          "name": "noOfAnswers",
          "type": "uint256"
        },
        {
          "internalType": "uint256",
          "name": "noOfArticles",
          "type": "uint256"
        },
        {
          "internalType": "uint256",
          "name": "totalScore",
          "type": "uint256"
        },
        {
          "internalType": "uint256",
          "name": "reputationScore",
          "type": "uint256"
        },
        {
          "internalType": "uint256",
          "name": "totalReward",
          "type": "uint256"
        },
        {
          "internalType": "uint256",
          "name": "totalRedeem",
          "type": "uint256"
        },
        {
          "internalType": "uint256",
          "name": "totalTip",
          "type": "uint256"
        },
        {
          "internalType": "uint256",
          "name": "expertFeesEarned",
          "type": "uint256"
        }
      ],
      "stateMutability": "view",
      "type": "function"
    },
    {
      "inputs": [
        {
          "internalType": "address",
          "name": "",
          "type": "address"
        }
      ],
      "name": "addressToUserProfileInfo",
      "outputs": [
        {
          "internalType": "address",
          "name": "user",
          "type": "address"
        },
        {
          "internalType": "string",
          "name": "name",
          "type": "string"
        },
        {
          "internalType": "string",
          "name": "userImageCID",
          "type": "string"
        },
        {
          "internalType": "string",
          "name": "email",
          "type": "string"
        },
        {
          "internalType": "string",
          "name": "designation",
          "type": "string"
        },
        {
          "internalType": "string",
          "name": "aboutUSer",
          "type": "string"
        },
        {
          "internalType": "uint256",
          "name": "expertFees",
          "type": "uint256"
        }
      ],
      "stateMutability": "view",
      "type": "function"
    },
    {
      "inputs": [
        {
          "internalType": "uint256",
          "name": "aid",
          "type": "uint256"
        }
      ],
      "name": "approve",
      "outputs": [],
      "stateMutability": "nonpayable",
      "type": "function"
    },
    {
      "inputs": [],
      "name": "article_id",
      "outputs": [
        {
          "internalType": "uint256",
          "name": "",
          "type": "uint256"
        }
      ],
      "stateMutability": "view",
      "type": "function"
    },
    {
      "inputs": [
        {
          "internalType": "string",
          "name": "name",
          "type": "string"
        },
        {
          "internalType": "string",
          "name": "cid",
          "type": "string"
        },
        {
          "internalType": "string",
          "name": "email",
          "type": "string"
        },
        {
          "internalType": "string",
          "name": "designation",
          "type": "string"
        },
        {
          "internalType": "string",
          "name": "aboutUser",
          "type": "string"
        },
        {
          "internalType": "uint256",
          "name": "fees",
          "type": "uint256"
        },
        {
          "internalType": "string[]",
          "name": "listOfTags",
          "type": "string[]"
        }
      ],
      "name": "createProfile",
      "outputs": [],
      "stateMutability": "nonpayable",
      "type": "function"
    },
    {
      "inputs": [],
      "name": "getAllUserAnswersId",
      "outputs": [
        {
          "internalType": "uint256[]",
          "name": "",
          "type": "uint256[]"
        }
      ],
      "stateMutability": "view",
      "type": "function"
    },
    {
      "inputs": [],
      "name": "getAllUserArticlesId",
      "outputs": [
        {
          "internalType": "uint256[]",
          "name": "",
          "type": "uint256[]"
        }
      ],
      "stateMutability": "view",
      "type": "function"
    },
    {
      "inputs": [],
      "name": "getAllUserQuestionsId",
      "outputs": [
        {
          "internalType": "uint256[]",
          "name": "",
          "type": "uint256[]"
        }
      ],
      "stateMutability": "view",
      "type": "function"
    },
    {
      "inputs": [],
      "name": "getAllUsers",
      "outputs": [
        {
          "internalType": "address[]",
          "name": "",
          "type": "address[]"
        }
      ],
      "stateMutability": "view",
      "type": "function"
    },
    {
      "inputs": [
        {
          "internalType": "uint256",
          "name": "aid",
          "type": "uint256"
        }
      ],
      "name": "getAnswer",
      "outputs": [
        {
          "components": [
            {
              "internalType": "uint256",
              "name": "a_id",
              "type": "uint256"
            },
            {
              "internalType": "address",
              "name": "user",
              "type": "address"
            },
            {
              "internalType": "string",
              "name": "a_cid",
              "type": "string"
            },
            {
              "internalType": "uint256",
              "name": "a_upvote",
              "type": "uint256"
            },
            {
              "internalType": "uint256",
              "name": "a_downvote",
              "type": "uint256"
            },
            {
              "internalType": "bool",
              "name": "isApproved",
              "type": "bool"
            }
          ],
          "internalType": "struct Stack.AnswerInfo",
          "name": "",
          "type": "tuple"
        }
      ],
      "stateMutability": "view",
      "type": "function"
    },
    {
      "inputs": [
        {
          "internalType": "uint256",
          "name": "articleid",
          "type": "uint256"
        }
      ],
      "name": "getArticle",
      "outputs": [
        {
          "components": [
            {
              "internalType": "uint256",
              "name": "article_id",
              "type": "uint256"
            },
            {
              "internalType": "address",
              "name": "user",
              "type": "address"
            },
            {
              "internalType": "string",
              "name": "article_cid",
              "type": "string"
            },
            {
              "internalType": "string",
              "name": "article_image_cid",
              "type": "string"
            },
            {
              "internalType": "uint256",
              "name": "noOfLikes",
              "type": "uint256"
            },
            {
              "internalType": "uint256",
              "name": "tip",
              "type": "uint256"
            }
          ],
          "internalType": "struct Stack.ArticleInfo",
          "name": "",
          "type": "tuple"
        }
      ],
      "stateMutability": "view",
      "type": "function"
    },
    {
      "inputs": [
        {
          "internalType": "address",
          "name": "user",
          "type": "address"
        }
      ],
      "name": "getExpertFees",
      "outputs": [
        {
          "internalType": "uint256",
          "name": "",
          "type": "uint256"
        }
      ],
      "stateMutability": "view",
      "type": "function"
    },
    {
      "inputs": [
        {
          "internalType": "address",
          "name": "user",
          "type": "address"
        }
      ],
      "name": "getExpertFeesEarned",
      "outputs": [
        {
          "internalType": "uint256",
          "name": "",
          "type": "uint256"
        }
      ],
      "stateMutability": "view",
      "type": "function"
    },
    {
      "inputs": [
        {
          "internalType": "uint256",
          "name": "qid",
          "type": "uint256"
        }
      ],
      "name": "getQuestion",
      "outputs": [
        {
          "components": [
            {
              "internalType": "uint256",
              "name": "q_id",
              "type": "uint256"
            },
            {
              "internalType": "address",
              "name": "user",
              "type": "address"
            },
            {
              "internalType": "string",
              "name": "q_cid",
              "type": "string"
            },
            {
              "internalType": "uint256",
              "name": "q_upvote",
              "type": "uint256"
            },
            {
              "internalType": "uint256",
              "name": "q_downvote",
              "type": "uint256"
            },
            {
              "internalType": "uint256[]",
              "name": "ans_id",
              "type": "uint256[]"
            }
          ],
          "internalType": "struct Stack.QuestionInfo",
          "name": "",
          "type": "tuple"
        }
      ],
      "stateMutability": "view",
      "type": "function"
    },
    {
      "inputs": [
        {
          "internalType": "uint256",
          "name": "articleid",
          "type": "uint256"
        }
      ],
      "name": "getTipFromArticleId",
      "outputs": [
        {
          "internalType": "uint256",
          "name": "",
          "type": "uint256"
        }
      ],
      "stateMutability": "view",
      "type": "function"
    },
    {
      "inputs": [],
      "name": "getTokensSold",
      "outputs": [
        {
          "internalType": "uint256",
          "name": "",
          "type": "uint256"
        }
      ],
      "stateMutability": "view",
      "type": "function"
    },
    {
      "inputs": [
        {
          "internalType": "address",
          "name": "user",
          "type": "address"
        }
      ],
      "name": "getTotalRedeem",
      "outputs": [
        {
          "internalType": "uint256",
          "name": "",
          "type": "uint256"
        }
      ],
      "stateMutability": "view",
      "type": "function"
    },
    {
      "inputs": [
        {
          "internalType": "address",
          "name": "user",
          "type": "address"
        }
      ],
      "name": "getTotalScore",
      "outputs": [
        {
          "internalType": "uint256",
          "name": "",
          "type": "uint256"
        }
      ],
      "stateMutability": "view",
      "type": "function"
    },
    {
      "inputs": [
        {
          "internalType": "address",
          "name": "user",
          "type": "address"
        }
      ],
      "name": "getUserDescription",
      "outputs": [
        {
          "internalType": "string",
          "name": "",
          "type": "string"
        }
      ],
      "stateMutability": "view",
      "type": "function"
    },
    {
      "inputs": [
        {
          "internalType": "address",
          "name": "user",
          "type": "address"
        }
      ],
      "name": "getUserDesignation",
      "outputs": [
        {
          "internalType": "string",
          "name": "",
          "type": "string"
        }
      ],
      "stateMutability": "view",
      "type": "function"
    },
    {
      "inputs": [
        {
          "internalType": "address",
          "name": "user",
          "type": "address"
        }
      ],
      "name": "getUserEmail",
      "outputs": [
        {
          "internalType": "string",
          "name": "",
          "type": "string"
        }
      ],
      "stateMutability": "view",
      "type": "function"
    },
    {
      "inputs": [
        {
          "internalType": "uint256",
          "name": "articleid",
          "type": "uint256"
        }
      ],
      "name": "getUserFromArticleId",
      "outputs": [
        {
          "internalType": "address",
          "name": "",
          "type": "address"
        }
      ],
      "stateMutability": "view",
      "type": "function"
    },
    {
      "inputs": [
        {
          "internalType": "address",
          "name": "user",
          "type": "address"
        }
      ],
      "name": "getUserName",
      "outputs": [
        {
          "internalType": "string",
          "name": "",
          "type": "string"
        }
      ],
      "stateMutability": "view",
      "type": "function"
    },
    {
      "inputs": [
        {
          "internalType": "address",
          "name": "user",
          "type": "address"
        }
      ],
      "name": "getUserNoOfAnswers",
      "outputs": [
        {
          "internalType": "uint256",
          "name": "",
          "type": "uint256"
        }
      ],
      "stateMutability": "view",
      "type": "function"
    },
    {
      "inputs": [
        {
          "internalType": "address",
          "name": "user",
          "type": "address"
        }
      ],
      "name": "getUserNoOfArticles",
      "outputs": [
        {
          "internalType": "uint256",
          "name": "",
          "type": "uint256"
        }
      ],
      "stateMutability": "view",
      "type": "function"
    },
    {
      "inputs": [
        {
          "internalType": "address",
          "name": "user",
          "type": "address"
        }
      ],
      "name": "getUserNoOfQuestions",
      "outputs": [
        {
          "internalType": "uint256",
          "name": "",
          "type": "uint256"
        }
      ],
      "stateMutability": "view",
      "type": "function"
    },
    {
      "inputs": [
        {
          "internalType": "address",
          "name": "user",
          "type": "address"
        }
      ],
      "name": "getUserReputation",
      "outputs": [
        {
          "internalType": "uint256",
          "name": "",
          "type": "uint256"
        }
      ],
      "stateMutability": "view",
      "type": "function"
    },
    {
      "inputs": [
        {
          "internalType": "address",
          "name": "user",
          "type": "address"
        }
      ],
      "name": "getUserReward",
      "outputs": [
        {
          "internalType": "uint256",
          "name": "",
          "type": "uint256"
        }
      ],
      "stateMutability": "view",
      "type": "function"
    },
    {
      "inputs": [],
      "name": "getUserTage",
      "outputs": [
        {
          "internalType": "string[]",
          "name": "",
          "type": "string[]"
        }
      ],
      "stateMutability": "view",
      "type": "function"
    },
    {
      "inputs": [
        {
          "internalType": "address",
          "name": "user",
          "type": "address"
        }
      ],
      "name": "getUserTags",
      "outputs": [
        {
          "internalType": "string[]",
          "name": "",
          "type": "string[]"
        }
      ],
      "stateMutability": "view",
      "type": "function"
    },
    {
      "inputs": [
        {
          "internalType": "address",
          "name": "user",
          "type": "address"
        }
      ],
      "name": "getUserTotalTip",
      "outputs": [
        {
          "internalType": "uint256",
          "name": "",
          "type": "uint256"
        }
      ],
      "stateMutability": "view",
      "type": "function"
    },
    {
      "inputs": [
        {
          "internalType": "uint256",
          "name": "",
          "type": "uint256"
        }
      ],
      "name": "idToAnswer",
      "outputs": [
        {
          "internalType": "uint256",
          "name": "a_id",
          "type": "uint256"
        },
        {
          "internalType": "address",
          "name": "user",
          "type": "address"
        },
        {
          "internalType": "string",
          "name": "a_cid",
          "type": "string"
        },
        {
          "internalType": "uint256",
          "name": "a_upvote",
          "type": "uint256"
        },
        {
          "internalType": "uint256",
          "name": "a_downvote",
          "type": "uint256"
        },
        {
          "internalType": "bool",
          "name": "isApproved",
          "type": "bool"
        }
      ],
      "stateMutability": "view",
      "type": "function"
    },
    {
      "inputs": [
        {
          "internalType": "uint256",
          "name": "",
          "type": "uint256"
        }
      ],
      "name": "idToArticle",
      "outputs": [
        {
          "internalType": "uint256",
          "name": "article_id",
          "type": "uint256"
        },
        {
          "internalType": "address",
          "name": "user",
          "type": "address"
        },
        {
          "internalType": "string",
          "name": "article_cid",
          "type": "string"
        },
        {
          "internalType": "string",
          "name": "article_image_cid",
          "type": "string"
        },
        {
          "internalType": "uint256",
          "name": "noOfLikes",
          "type": "uint256"
        },
        {
          "internalType": "uint256",
          "name": "tip",
          "type": "uint256"
        }
      ],
      "stateMutability": "view",
      "type": "function"
    },
    {
      "inputs": [
        {
          "internalType": "uint256",
          "name": "",
          "type": "uint256"
        }
      ],
      "name": "idToQuestion",
      "outputs": [
        {
          "internalType": "uint256",
          "name": "q_id",
          "type": "uint256"
        },
        {
          "internalType": "address",
          "name": "user",
          "type": "address"
        },
        {
          "internalType": "string",
          "name": "q_cid",
          "type": "string"
        },
        {
          "internalType": "uint256",
          "name": "q_upvote",
          "type": "uint256"
        },
        {
          "internalType": "uint256",
          "name": "q_downvote",
          "type": "uint256"
        }
      ],
      "stateMutability": "view",
      "type": "function"
    },
    {
      "inputs": [
        {
          "internalType": "uint256",
          "name": "qid",
          "type": "uint256"
        },
        {
          "internalType": "address",
          "name": "user",
          "type": "address"
        }
      ],
      "name": "isDownUpvotedAnswer",
      "outputs": [
        {
          "internalType": "bool",
          "name": "",
          "type": "bool"
        }
      ],
      "stateMutability": "view",
      "type": "function"
    },
    {
      "inputs": [
        {
          "internalType": "uint256",
          "name": "qid",
          "type": "uint256"
        },
        {
          "internalType": "address",
          "name": "user",
          "type": "address"
        }
      ],
      "name": "isDownUpvotedQuestion",
      "outputs": [
        {
          "internalType": "bool",
          "name": "",
          "type": "bool"
        }
      ],
      "stateMutability": "view",
      "type": "function"
    },
    {
      "inputs": [
        {
          "internalType": "uint256",
          "name": "",
          "type": "uint256"
        },
        {
          "internalType": "address",
          "name": "",
          "type": "address"
        }
      ],
      "name": "isDownVotedAnswer",
      "outputs": [
        {
          "internalType": "bool",
          "name": "",
          "type": "bool"
        }
      ],
      "stateMutability": "view",
      "type": "function"
    },
    {
      "inputs": [
        {
          "internalType": "uint256",
          "name": "",
          "type": "uint256"
        },
        {
          "internalType": "address",
          "name": "",
          "type": "address"
        }
      ],
      "name": "isDownVotedQuestion",
      "outputs": [
        {
          "internalType": "bool",
          "name": "",
          "type": "bool"
        }
      ],
      "stateMutability": "view",
      "type": "function"
    },
    {
      "inputs": [
        {
          "internalType": "uint256",
          "name": "",
          "type": "uint256"
        },
        {
          "internalType": "address",
          "name": "",
          "type": "address"
        }
      ],
      "name": "isUpVotedAnswer",
      "outputs": [
        {
          "internalType": "bool",
          "name": "",
          "type": "bool"
        }
      ],
      "stateMutability": "view",
      "type": "function"
    },
    {
      "inputs": [
        {
          "internalType": "uint256",
          "name": "",
          "type": "uint256"
        },
        {
          "internalType": "address",
          "name": "",
          "type": "address"
        }
      ],
      "name": "isUpVotedQuestion",
      "outputs": [
        {
          "internalType": "bool",
          "name": "",
          "type": "bool"
        }
      ],
      "stateMutability": "view",
      "type": "function"
    },
    {
      "inputs": [
        {
          "internalType": "uint256",
          "name": "qid",
          "type": "uint256"
        },
        {
          "internalType": "address",
          "name": "user",
          "type": "address"
        }
      ],
      "name": "isUserLikedArticle",
      "outputs": [
        {
          "internalType": "bool",
          "name": "",
          "type": "bool"
        }
      ],
      "stateMutability": "view",
      "type": "function"
    },
    {
      "inputs": [
        {
          "internalType": "uint256",
          "name": "",
          "type": "uint256"
        },
        {
          "internalType": "address",
          "name": "",
          "type": "address"
        }
      ],
      "name": "isUserLikedIt",
      "outputs": [
        {
          "internalType": "bool",
          "name": "",
          "type": "bool"
        }
      ],
      "stateMutability": "view",
      "type": "function"
    },
    {
      "inputs": [
        {
          "internalType": "uint256",
          "name": "qid",
          "type": "uint256"
        },
        {
          "internalType": "address",
          "name": "user",
          "type": "address"
        }
      ],
      "name": "isUserUpvotedAnswer",
      "outputs": [
        {
          "internalType": "bool",
          "name": "",
          "type": "bool"
        }
      ],
      "stateMutability": "view",
      "type": "function"
    },
    {
      "inputs": [
        {
          "internalType": "uint256",
          "name": "qid",
          "type": "uint256"
        },
        {
          "internalType": "address",
          "name": "user",
          "type": "address"
        }
      ],
      "name": "isUserUpvotedQuestion",
      "outputs": [
        {
          "internalType": "bool",
          "name": "",
          "type": "bool"
        }
      ],
      "stateMutability": "view",
      "type": "function"
    },
    {
      "inputs": [],
      "name": "owner",
      "outputs": [
        {
          "internalType": "address",
          "name": "",
          "type": "address"
        }
      ],
      "stateMutability": "view",
      "type": "function"
    },
    {
      "inputs": [
        {
          "internalType": "uint256",
          "name": "qid",
          "type": "uint256"
        }
      ],
      "name": "q_downvote",
      "outputs": [],
      "stateMutability": "nonpayable",
      "type": "function"
    },
    {
      "inputs": [],
      "name": "q_id",
      "outputs": [
        {
          "internalType": "uint256",
          "name": "",
          "type": "uint256"
        }
      ],
      "stateMutability": "view",
      "type": "function"
    },
    {
      "inputs": [
        {
          "internalType": "uint256",
          "name": "qid",
          "type": "uint256"
        }
      ],
      "name": "q_upVote",
      "outputs": [],
      "stateMutability": "nonpayable",
      "type": "function"
    },
    {
      "inputs": [
        {
          "internalType": "address",
          "name": "user",
          "type": "address"
        },
        {
          "internalType": "uint256",
          "name": "fee",
          "type": "uint256"
        }
      ],
      "name": "setExpertFeesEarned",
      "outputs": [],
      "stateMutability": "nonpayable",
      "type": "function"
    },
    {
      "inputs": [
        {
          "internalType": "uint256",
          "name": "articleid",
          "type": "uint256"
        },
        {
          "internalType": "uint256",
          "name": "tip",
          "type": "uint256"
        }
      ],
      "name": "setTipFromArticleId",
      "outputs": [],
      "stateMutability": "nonpayable",
      "type": "function"
    },
    {
      "inputs": [
        {
          "internalType": "uint256",
          "name": "tokei",
          "type": "uint256"
        }
      ],
      "name": "setTokenSold",
      "outputs": [],
      "stateMutability": "nonpayable",
      "type": "function"
    },
    {
      "inputs": [
        {
          "internalType": "address",
          "name": "user",
          "type": "address"
        },
        {
          "internalType": "uint256",
          "name": "redeem",
          "type": "uint256"
        }
      ],
      "name": "setTotalRedeem",
      "outputs": [],
      "stateMutability": "nonpayable",
      "type": "function"
    },
    {
      "inputs": [
        {
          "internalType": "address",
          "name": "user",
          "type": "address"
        },
        {
          "internalType": "uint256",
          "name": "score",
          "type": "uint256"
        }
      ],
      "name": "setTotalScore",
      "outputs": [],
      "stateMutability": "nonpayable",
      "type": "function"
    },
    {
      "inputs": [
        {
          "internalType": "address",
          "name": "user",
          "type": "address"
        },
        {
          "internalType": "uint256",
          "name": "totaltip",
          "type": "uint256"
        }
      ],
      "name": "setUserTotalTip",
      "outputs": [],
      "stateMutability": "nonpayable",
      "type": "function"
    },
    {
      "inputs": [],
      "name": "tokensSold",
      "outputs": [
        {
          "internalType": "uint256",
          "name": "",
          "type": "uint256"
        }
      ],
      "stateMutability": "view",
      "type": "function"
    },
    {
      "inputs": [
        {
          "internalType": "address",
          "name": "",
          "type": "address"
        },
        {
          "internalType": "uint256",
          "name": "",
          "type": "uint256"
        }
      ],
      "name": "userToAnswers",
      "outputs": [
        {
          "internalType": "uint256",
          "name": "",
          "type": "uint256"
        }
      ],
      "stateMutability": "view",
      "type": "function"
    },
    {
      "inputs": [
        {
          "internalType": "address",
          "name": "",
          "type": "address"
        },
        {
          "internalType": "uint256",
          "name": "",
          "type": "uint256"
        }
      ],
      "name": "userToArticle",
      "outputs": [
        {
          "internalType": "uint256",
          "name": "",
          "type": "uint256"
        }
      ],
      "stateMutability": "view",
      "type": "function"
    },
    {
      "inputs": [
        {
          "internalType": "address",
          "name": "",
          "type": "address"
        },
        {
          "internalType": "uint256",
          "name": "",
          "type": "uint256"
        }
      ],
      "name": "userToQuestions",
      "outputs": [
        {
          "internalType": "uint256",
          "name": "",
          "type": "uint256"
        }
      ],
      "stateMutability": "view",
      "type": "function"
    },
    {
      "inputs": [
        {
          "internalType": "uint256",
          "name": "",
          "type": "uint256"
        }
      ],
      "name": "users",
      "outputs": [
        {
          "internalType": "address",
          "name": "",
          "type": "address"
        }
      ],
      "stateMutability": "view",
      "type": "function"
    }
  ],
  "bytecode": "0x60806040526064601455600060155534801561001a57600080fd5b50336000806101000a81548173ffffffffffffffffffffffffffffffffffffffff021916908373ffffffffffffffffffffffffffffffffffffffff160217905550615ff0806200006b6000396000f3fe608060405234801561001057600080fd5b50600436106103f05760003560e01c80638da5cb5b11610215578063ce9e793b11610125578063e6df3381116100b8578063f4891ec411610087578063f4891ec414610dd4578063f65f580614610e04578063f824333a14610e34578063f989128c14610e50578063fad99ff014610e6c576103f0565b8063e6df338114610d31578063e9513a6514610d6a578063e9bf0fad14610d9a578063ee7c0db014610db6576103f0565b8063d84f55ee116100f4578063d84f55ee14610c83578063db88176f14610cb3578063e2842d7914610ce3578063e6bb0c3914610d01576103f0565b8063ce9e793b14610beb578063d075d4a614610c07578063d14083fd14610c37578063d283b3c514610c53576103f0565b8063b759f954116101a8578063bd85d86711610177578063bd85d86714610b21578063c51f4f4114610b51578063c757d53c14610b81578063c75ebb8214610b9f578063ca6205ad14610bcf576103f0565b8063b759f95414610a89578063baccbfdb14610aa5578063bb70cb0d14610ad5578063bc08bdfe14610af1576103f0565b806399d4e3b5116101e457806399d4e3b5146109c95780639f9eeb68146109f9578063a1697ba614610a29578063b5ab58dc14610a59576103f0565b80638da5cb5b1461091b5780639480e9481461093957806395a7c4b214610969578063974871c414610999576103f0565b80633e8f032d116103105780636e1467ed116102a35780637ca490dc116102725780637ca490dc1461084f5780637efe79391461088357806380acf04f1461089f57806382cb06ee146108bb57806386eeed0f146108eb576103f0565b80636e1467ed146107985780637491995a146107cd57806377e997b9146107e957806379589dad14610819576103f0565b8063518ab2a8116102df578063518ab2a814610724578063619d40c014610742578063649c8638146107605780636ae2ab601461077c576103f0565b80633e8f032d1461065f5780633fcdbb831461068f57806348500abc146106bf57806349bcfaa9146106f4576103f0565b80632101ca8711610388578063365b98b211610357578063365b98b2146105b3578063378a35cd146105e35780633a21cfb5146105ff5780633da19f8b1461062f576103f0565b80632101ca8714610529578063213dcba2146105475780632b35b5ae146105775780633393490714610595576103f0565b8063165acb58116103c4578063165acb58146104a35780631967accc146104c15780631c14d723146104dd57806320405979146104f9576103f0565b8062f2efa0146103f557806301cb3e63146104255780630b43f7c51461044357806314b8c15614610473575b600080fd5b61040f600480360381019061040a9190614fab565b610e9c565b60405161041c9190615985565b60405180910390f35b61042d610fb7565b60405161043a91906159a7565b60405180910390f35b61045d60048036038101906104589190614fd4565b61104c565b60405161046a9190615a6c565b60405180910390f35b61048d60048036038101906104889190614fab565b611087565b60405161049a9190615a6c565b60405180910390f35b6104ab6110d3565b6040516104b891906159a7565b60405180910390f35b6104db60048036038101906104d69190615295565b611168565b005b6104f760048036038101906104f29190615167565b61135d565b005b610513600480360381019061050e9190615028565b611a06565b6040516105209190615a6c565b60405180910390f35b610531611a37565b60405161053e9190615a6c565b60405180910390f35b610561600480360381019061055c91906152be565b611a3d565b60405161056e91906159c9565b60405180910390f35b61057f611a6c565b60405161058c91906159a7565b60405180910390f35b61059d611b01565b6040516105aa9190615a6c565b60405180910390f35b6105cd60048036038101906105c89190615295565b611b07565b6040516105da919061581a565b60405180910390f35b6105fd60048036038101906105f89190615295565b611b46565b005b61061960048036038101906106149190614fab565b611c4f565b60405161062691906159e4565b60405180910390f35b61064960048036038101906106449190614fab565b611d23565b6040516106569190615a6c565b60405180910390f35b61067960048036038101906106749190614fab565b611d6f565b6040516106869190615a6c565b60405180910390f35b6106a960048036038101906106a491906152be565b611dbb565b6040516106b691906159c9565b60405180910390f35b6106d960048036038101906106d49190615295565b611dea565b6040516106eb96959493929190615a87565b60405180910390f35b61070e600480360381019061070991906152be565b611f56565b60405161071b91906159c9565b60405180910390f35b61072c611fbe565b6040516107399190615a6c565b60405180910390f35b61074a611fc4565b6040516107579190615985565b60405180910390f35b61077a60048036038101906107759190615064565b6120dd565b005b610796600480360381019061079191906150d0565b6127ab565b005b6107b260048036038101906107ad9190615295565b612da0565b6040516107c496959493929190615b50565b60405180910390f35b6107e760048036038101906107e291906152fa565b612e91565b005b61080360048036038101906107fe9190614fab565b61323e565b60405161081091906159e4565b60405180910390f35b610833600480360381019061082e9190614fab565b613312565b6040516108469796959493929190615835565b60405180910390f35b61086960048036038101906108649190615295565b61361c565b60405161087a959493929190615af6565b60405180910390f35b61089d60048036038101906108989190615295565b6136fa565b005b6108b960048036038101906108b49190615295565b613704565b005b6108d560048036038101906108d091906152be565b6138f9565b6040516108e291906159c9565b60405180910390f35b61090560048036038101906109009190615028565b613961565b6040516109129190615a6c565b60405180910390f35b610923613992565b604051610930919061581a565b60405180910390f35b610953600480360381019061094e9190614fab565b6139b6565b60405161096091906159e4565b60405180910390f35b610983600480360381019061097e9190614fab565b613a8a565b6040516109909190615a6c565b60405180910390f35b6109b360048036038101906109ae9190614fab565b613ad6565b6040516109c09190615a6c565b60405180910390f35b6109e360048036038101906109de91906152be565b613b22565b6040516109f091906159c9565b60405180910390f35b610a136004803603810190610a0e91906152be565b613b51565b604051610a2091906159c9565b60405180910390f35b610a436004803603810190610a3e9190614fab565b613b80565b604051610a509190615a6c565b60405180910390f35b610a736004803603810190610a6e9190615295565b613bcc565b604051610a809190615a06565b60405180910390f35b610aa36004803603810190610a9e9190615295565b613d1a565b005b610abf6004803603810190610aba9190614fab565b613e3c565b604051610acc9190615a6c565b60405180910390f35b610aef6004803603810190610aea9190615028565b613e88565b005b610b0b6004803603810190610b069190615028565b613ed3565b604051610b189190615a6c565b60405180910390f35b610b3b6004803603810190610b369190615295565b613f04565b604051610b489190615a28565b60405180910390f35b610b6b6004803603810190610b6691906152be565b6140c9565b604051610b7891906159c9565b60405180910390f35b610b89614131565b604051610b969190615a6c565b60405180910390f35b610bb96004803603810190610bb49190614fab565b614137565b604051610bc69190615a6c565b60405180910390f35b610be96004803603810190610be49190615028565b614183565b005b610c056004803603810190610c00919061534e565b6141ce565b005b610c216004803603810190610c1c9190615295565b6141ed565b604051610c2e9190615a6c565b60405180910390f35b610c516004803603810190610c4c9190615295565b61420d565b005b610c6d6004803603810190610c689190614fab565b614402565b604051610c7a9190615a6c565b60405180910390f35b610c9d6004803603810190610c989190614fab565b61444e565b604051610caa91906159e4565b60405180910390f35b610ccd6004803603810190610cc89190615295565b614522565b604051610cda9190615a4a565b60405180910390f35b610ceb6146ad565b604051610cf89190615963565b60405180910390f35b610d1b6004803603810190610d169190615295565b61473b565b604051610d28919061581a565b60405180910390f35b610d4b6004803603810190610d469190614fab565b61477b565b604051610d619a999897969594939291906158c7565b60405180910390f35b610d846004803603810190610d7f91906152be565b6147ef565b604051610d9191906159c9565b60405180910390f35b610db46004803603810190610daf9190615028565b61481e565b005b610dbe614869565b604051610dcb9190615a6c565b60405180910390f35b610dee6004803603810190610de991906152be565b614873565b604051610dfb91906159c9565b60405180910390f35b610e1e6004803603810190610e199190614fab565b6148db565b604051610e2b9190615a6c565b60405180910390f35b610e4e6004803603810190610e499190615295565b614927565b005b610e6a6004803603810190610e659190615028565b614b1c565b005b610e866004803603810190610e8191906152be565b614b67565b604051610e9391906159c9565b60405180910390f35b6060601160008373ffffffffffffffffffffffffffffffffffffffff1673ffffffffffffffffffffffffffffffffffffffff168152602001908152602001600020600701805480602002602001604051908101604052809291908181526020016000905b82821015610fac578382906000526020600020018054610f1f90615e42565b80601f0160208091040260200160405190810160405280929190818152602001828054610f4b90615e42565b8015610f985780601f10610f6d57610100808354040283529160200191610f98565b820191906000526020600020905b815481529060010190602001808311610f7b57829003601f168201915b505050505081526020019060010190610f00565b505050509050919050565b6060600b60003373ffffffffffffffffffffffffffffffffffffffff1673ffffffffffffffffffffffffffffffffffffffff16815260200190815260200160002080548060200260200160405190810160405280929190818152602001828054801561104257602002820191906000526020600020905b81548152602001906001019080831161102e575b5050505050905090565b601360205281600052604060002081805160208101820180518482526020830160208501208183528095505050505050600091509150505481565b6000601260008373ffffffffffffffffffffffffffffffffffffffff1673ffffffffffffffffffffffffffffffffffffffff168152602001908152602001600020600101549050919050565b6060600760003373ffffffffffffffffffffffffffffffffffffffff1673ffffffffffffffffffffffffffffffffffffffff16815260200190815260200160002080548060200260200160405190810160405280929190818152602001828054801561115e57602002820191906000526020600020905b81548152602001906001019080831161114a575b5050505050905090565b60001515600c600083815260200190815260200160002060003373ffffffffffffffffffffffffffffffffffffffff1673ffffffffffffffffffffffffffffffffffffffff16815260200190815260200160002060009054906101000a900460ff161515141561135a576001600a600083815260200190815260200160002060030160008282546111f99190615d2e565b925050819055506000600a600083815260200190815260200160002060010160009054906101000a900473ffffffffffffffffffffffffffffffffffffffff1690506005601260008373ffffffffffffffffffffffffffffffffffffffff1673ffffffffffffffffffffffffffffffffffffffff168152602001908152602001600020600401600082825461128e9190615d2e565b925050819055506005601260003373ffffffffffffffffffffffffffffffffffffffff1673ffffffffffffffffffffffffffffffffffffffff16815260200190815260200160002060050160008282546112e89190615d2e565b925050819055506001600c600084815260200190815260200160002060003373ffffffffffffffffffffffffffffffffffffffff1673ffffffffffffffffffffffffffffffffffffffff16815260200190815260200160002060006101000a81548160ff021916908315150217905550505b50565b600260003373ffffffffffffffffffffffffffffffffffffffff1673ffffffffffffffffffffffffffffffffffffffff16815260200190815260200160002060009054906101000a900460ff1661146a576001339080600181540180825580915050600190039060005260206000200160009091909190916101000a81548173ffffffffffffffffffffffffffffffffffffffff021916908373ffffffffffffffffffffffffffffffffffffffff1602179055506001600260003373ffffffffffffffffffffffffffffffffffffffff1673ffffffffffffffffffffffffffffffffffffffff16815260200190815260200160002060006101000a81548160ff0219169083151502179055505b33601160003373ffffffffffffffffffffffffffffffffffffffff1673ffffffffffffffffffffffffffffffffffffffff16815260200190815260200160002060000160006101000a81548173ffffffffffffffffffffffffffffffffffffffff021916908373ffffffffffffffffffffffffffffffffffffffff16021790555086601160003373ffffffffffffffffffffffffffffffffffffffff1673ffffffffffffffffffffffffffffffffffffffff1681526020019081526020016000206001019080519060200190611541929190614bcf565b5085601160003373ffffffffffffffffffffffffffffffffffffffff1673ffffffffffffffffffffffffffffffffffffffff1681526020019081526020016000206002019080519060200190611598929190614bcf565b5084601160003373ffffffffffffffffffffffffffffffffffffffff1673ffffffffffffffffffffffffffffffffffffffff16815260200190815260200160002060030190805190602001906115ef929190614bcf565b5083601160003373ffffffffffffffffffffffffffffffffffffffff1673ffffffffffffffffffffffffffffffffffffffff1681526020019081526020016000206004019080519060200190611646929190614bcf565b5082601160003373ffffffffffffffffffffffffffffffffffffffff1673ffffffffffffffffffffffffffffffffffffffff168152602001908152602001600020600501908051906020019061169d929190614bcf565b5081601160003373ffffffffffffffffffffffffffffffffffffffff1673ffffffffffffffffffffffffffffffffffffffff1681526020019081526020016000206006018190555080601160003373ffffffffffffffffffffffffffffffffffffffff1673ffffffffffffffffffffffffffffffffffffffff168152602001908152602001600020600701908051906020019061173b929190614c55565b5033601260003373ffffffffffffffffffffffffffffffffffffffff1673ffffffffffffffffffffffffffffffffffffffff16815260200190815260200160002060000160006101000a81548173ffffffffffffffffffffffffffffffffffffffff021916908373ffffffffffffffffffffffffffffffffffffffff1602179055506000601260003373ffffffffffffffffffffffffffffffffffffffff1673ffffffffffffffffffffffffffffffffffffffff168152602001908152602001600020600101819055506000601260003373ffffffffffffffffffffffffffffffffffffffff1673ffffffffffffffffffffffffffffffffffffffff168152602001908152602001600020600201819055506000601260003373ffffffffffffffffffffffffffffffffffffffff1673ffffffffffffffffffffffffffffffffffffffff168152602001908152602001600020600401819055506000601260003373ffffffffffffffffffffffffffffffffffffffff1673ffffffffffffffffffffffffffffffffffffffff168152602001908152602001600020600501819055506000601260003373ffffffffffffffffffffffffffffffffffffffff1673ffffffffffffffffffffffffffffffffffffffff168152602001908152602001600020600601819055506000601260003373ffffffffffffffffffffffffffffffffffffffff1673ffffffffffffffffffffffffffffffffffffffff168152602001908152602001600020600701819055506000601260003373ffffffffffffffffffffffffffffffffffffffff1673ffffffffffffffffffffffffffffffffffffffff168152602001908152602001600020600801819055506000601260003373ffffffffffffffffffffffffffffffffffffffff1673ffffffffffffffffffffffffffffffffffffffff1681526020019081526020016000206009018190555050505050505050565b60076020528160005260406000208181548110611a2257600080fd5b90600052602060002001600091509150505481565b60045481565b60096020528160005260406000206020528060005260406000206000915091509054906101000a900460ff1681565b6060600f60003373ffffffffffffffffffffffffffffffffffffffff1673ffffffffffffffffffffffffffffffffffffffff168152602001908152602001600020805480602002602001604051908101604052809291908181526020018280548015611af757602002820191906000526020600020905b815481526020019060010190808311611ae3575b5050505050905090565b60035481565b60018181548110611b1757600080fd5b906000526020600020016000915054906101000a900473ffffffffffffffffffffffffffffffffffffffff1681565b6000151560106000600554815260200190815260200160002060003373ffffffffffffffffffffffffffffffffffffffff1673ffffffffffffffffffffffffffffffffffffffff16815260200190815260200160002060009054906101000a900460ff1615151415611c4c576001600e60008381526020019081526020016000206004016000828254611bd99190615d2e565b92505081905550600160106000600554815260200190815260200160002060003373ffffffffffffffffffffffffffffffffffffffff1673ffffffffffffffffffffffffffffffffffffffff16815260200190815260200160002060006101000a81548160ff0219169083151502179055505b50565b6060601160008373ffffffffffffffffffffffffffffffffffffffff1673ffffffffffffffffffffffffffffffffffffffff1681526020019081526020016000206005018054611c9e90615e42565b80601f0160208091040260200160405190810160405280929190818152602001828054611cca90615e42565b8015611d175780601f10611cec57610100808354040283529160200191611d17565b820191906000526020600020905b815481529060010190602001808311611cfa57829003601f168201915b50505050509050919050565b6000601260008373ffffffffffffffffffffffffffffffffffffffff1673ffffffffffffffffffffffffffffffffffffffff168152602001908152602001600020600301549050919050565b6000601260008373ffffffffffffffffffffffffffffffffffffffff1673ffffffffffffffffffffffffffffffffffffffff168152602001908152602001600020600801549050919050565b600d6020528160005260406000206020528060005260406000206000915091509054906101000a900460ff1681565b600e6020528060005260406000206000915090508060000154908060010160009054906101000a900473ffffffffffffffffffffffffffffffffffffffff1690806002018054611e3990615e42565b80601f0160208091040260200160405190810160405280929190818152602001828054611e6590615e42565b8015611eb25780601f10611e8757610100808354040283529160200191611eb2565b820191906000526020600020905b815481529060010190602001808311611e9557829003601f168201915b505050505090806003018054611ec790615e42565b80601f0160208091040260200160405190810160405280929190818152602001828054611ef390615e42565b8015611f405780601f10611f1557610100808354040283529160200191611f40565b820191906000526020600020905b815481529060010190602001808311611f2357829003601f168201915b5050505050908060040154908060050154905086565b60006008600084815260200190815260200160002060008373ffffffffffffffffffffffffffffffffffffffff1673ffffffffffffffffffffffffffffffffffffffff16815260200190815260200160002060009054906101000a900460ff16905092915050565b60155481565b6060601160003373ffffffffffffffffffffffffffffffffffffffff1673ffffffffffffffffffffffffffffffffffffffff168152602001908152602001600020600701805480602002602001604051908101604052809291908181526020016000905b828210156120d457838290600052602060002001805461204790615e42565b80601f016020809104026020016040519081016040528092919081815260200182805461207390615e42565b80156120c05780601f10612095576101008083540402835291602001916120c0565b820191906000526020600020905b8154815290600101906020018083116120a357829003601f168201915b505050505081526020019060010190612028565b50505050905090565b6001600360008282546120f09190615d2e565b925050819055506040518060c0016040528060035481526020013373ffffffffffffffffffffffffffffffffffffffff1681526020018381526020016000815260200160008152602001600067ffffffffffffffff81111561217b577f4e487b7100000000000000000000000000000000000000000000000000000000600052604160045260246000fd5b6040519080825280602002602001820160405280156121a95781602001602082028036833780820191505090505b508152506006600060035481526020019081526020016000206000820151816000015560208201518160010160006101000a81548173ffffffffffffffffffffffffffffffffffffffff021916908373ffffffffffffffffffffffffffffffffffffffff160217905550604082015181600201908051906020019061222f929190614bcf565b50606082015181600301556080820151816004015560a0820151816005019080519060200190612260929190614cb5565b50905050600760003373ffffffffffffffffffffffffffffffffffffffff1673ffffffffffffffffffffffffffffffffffffffff16815260200190815260200160002060035490806001815401808255809150506001900390600052602060002001600090919091909150556001601260003373ffffffffffffffffffffffffffffffffffffffff1673ffffffffffffffffffffffffffffffffffffffff168152602001908152602001600020600101600082825461231f9190615d2e565b925050819055506005601260003373ffffffffffffffffffffffffffffffffffffffff1673ffffffffffffffffffffffffffffffffffffffff16815260200190815260200160002060040160008282546123799190615d2e565b925050819055506005601260003373ffffffffffffffffffffffffffffffffffffffff1673ffffffffffffffffffffffffffffffffffffffff16815260200190815260200160002060050160008282546123d39190615d2e565b92505081905550600060086000600354815260200190815260200160002060003373ffffffffffffffffffffffffffffffffffffffff1673ffffffffffffffffffffffffffffffffffffffff16815260200190815260200160002060006101000a81548160ff021916908315150217905550600060096000600354815260200190815260200160002060003373ffffffffffffffffffffffffffffffffffffffff1673ffffffffffffffffffffffffffffffffffffffff16815260200190815260200160002060006101000a81548160ff02191690831515021790555060005b81518110156127a6576005601360003373ffffffffffffffffffffffffffffffffffffffff1673ffffffffffffffffffffffffffffffffffffffff168152602001908152602001600020838381518110612536577f4e487b7100000000000000000000000000000000000000000000000000000000600052603260045260246000fd5b602002602001015160405161254b9190615803565b908152602001604051809103902060008282546125689190615d2e565b9250508190555060001515601160003373ffffffffffffffffffffffffffffffffffffffff1673ffffffffffffffffffffffffffffffffffffffff1681526020019081526020016000206008018383815181106125ee577f4e487b7100000000000000000000000000000000000000000000000000000000600052603260045260246000fd5b60200260200101516040516126039190615803565b908152602001604051809103902060009054906101000a900460ff161515141561279357601160003373ffffffffffffffffffffffffffffffffffffffff1673ffffffffffffffffffffffffffffffffffffffff1681526020019081526020016000206007018282815181106126a2577f4e487b7100000000000000000000000000000000000000000000000000000000600052603260045260246000fd5b60200260200101519080600181540180825580915050600190039060005260206000200160009091909190915090805190602001906126e2929190614bcf565b5060011515601160003373ffffffffffffffffffffffffffffffffffffffff1673ffffffffffffffffffffffffffffffffffffffff168152602001908152602001600020600801838381518110612762577f4e487b7100000000000000000000000000000000000000000000000000000000600052603260045260246000fd5b60200260200101516040516127779190615803565b908152602001604051809103902060009054906101000a905050505b808061279e90615ea5565b9150506124b3565b505050565b6001600560008282546127be9190615d2e565b925050819055506040518060c0016040528060055481526020013373ffffffffffffffffffffffffffffffffffffffff168152602001848152602001838152602001600081526020016000815250600e600060055481526020019081526020016000206000820151816000015560208201518160010160006101000a81548173ffffffffffffffffffffffffffffffffffffffff021916908373ffffffffffffffffffffffffffffffffffffffff160217905550604082015181600201908051906020019061288e929190614bcf565b5060608201518160030190805190602001906128ab929190614bcf565b506080820151816004015560a08201518160050155905050600f60003373ffffffffffffffffffffffffffffffffffffffff1673ffffffffffffffffffffffffffffffffffffffff16815260200190815260200160002060055490806001815401808255809150506001900390600052602060002001600090919091909150556001601260003373ffffffffffffffffffffffffffffffffffffffff1673ffffffffffffffffffffffffffffffffffffffff168152602001908152602001600020600301600082825461297e9190615d2e565b925050819055506005601260003373ffffffffffffffffffffffffffffffffffffffff1673ffffffffffffffffffffffffffffffffffffffff16815260200190815260200160002060040160008282546129d89190615d2e565b925050819055506005601260003373ffffffffffffffffffffffffffffffffffffffff1673ffffffffffffffffffffffffffffffffffffffff1681526020019081526020016000206005016000828254612a329190615d2e565b92505081905550600060106000600554815260200190815260200160002060003373ffffffffffffffffffffffffffffffffffffffff1673ffffffffffffffffffffffffffffffffffffffff16815260200190815260200160002060006101000a81548160ff02191690831515021790555060005b8151811015612d9a576005601360003373ffffffffffffffffffffffffffffffffffffffff1673ffffffffffffffffffffffffffffffffffffffff168152602001908152602001600020838381518110612b2a577f4e487b7100000000000000000000000000000000000000000000000000000000600052603260045260246000fd5b6020026020010151604051612b3f9190615803565b90815260200160405180910390206000828254612b5c9190615d2e565b9250508190555060001515601160003373ffffffffffffffffffffffffffffffffffffffff1673ffffffffffffffffffffffffffffffffffffffff168152602001908152602001600020600801838381518110612be2577f4e487b7100000000000000000000000000000000000000000000000000000000600052603260045260246000fd5b6020026020010151604051612bf79190615803565b908152602001604051809103902060009054906101000a900460ff1615151415612d8757601160003373ffffffffffffffffffffffffffffffffffffffff1673ffffffffffffffffffffffffffffffffffffffff168152602001908152602001600020600701828281518110612c96577f4e487b7100000000000000000000000000000000000000000000000000000000600052603260045260246000fd5b6020026020010151908060018154018082558091505060019003906000526020600020016000909190919091509080519060200190612cd6929190614bcf565b5060011515601160003373ffffffffffffffffffffffffffffffffffffffff1673ffffffffffffffffffffffffffffffffffffffff168152602001908152602001600020600801838381518110612d56577f4e487b7100000000000000000000000000000000000000000000000000000000600052603260045260246000fd5b6020026020010151604051612d6b9190615803565b908152602001604051809103902060009054906101000a905050505b8080612d9290615ea5565b915050612aa7565b50505050565b600a6020528060005260406000206000915090508060000154908060010160009054906101000a900473ffffffffffffffffffffffffffffffffffffffff1690806002018054612def90615e42565b80601f0160208091040260200160405190810160405280929190818152602001828054612e1b90615e42565b8015612e685780601f10612e3d57610100808354040283529160200191612e68565b820191906000526020600020905b815481529060010190602001808311612e4b57829003601f168201915b5050505050908060030154908060040154908060050160009054906101000a900460ff16905086565b600160046000828254612ea49190615d2e565b925050819055506040518060c0016040528060045481526020013373ffffffffffffffffffffffffffffffffffffffff168152602001828152602001600081526020016000815260200160001515815250600a600060045481526020019081526020016000206000820151816000015560208201518160010160006101000a81548173ffffffffffffffffffffffffffffffffffffffff021916908373ffffffffffffffffffffffffffffffffffffffff1602179055506040820151816002019080519060200190612f77929190614bcf565b50606082015181600301556080820151816004015560a08201518160050160006101000a81548160ff021916908315150217905550905050600b60003373ffffffffffffffffffffffffffffffffffffffff1673ffffffffffffffffffffffffffffffffffffffff16815260200190815260200160002060045490806001815401808255809150506001900390600052602060002001600090919091909150556006600083815260200190815260200160002060050160045490806001815401808255809150506001900390600052602060002001600090919091909150556001601260003373ffffffffffffffffffffffffffffffffffffffff1673ffffffffffffffffffffffffffffffffffffffff16815260200190815260200160002060020160008282546130a99190615d2e565b925050819055506005601260003373ffffffffffffffffffffffffffffffffffffffff1673ffffffffffffffffffffffffffffffffffffffff16815260200190815260200160002060040160008282546131039190615d2e565b925050819055506005601260003373ffffffffffffffffffffffffffffffffffffffff1673ffffffffffffffffffffffffffffffffffffffff168152602001908152602001600020600501600082825461315d9190615d2e565b925050819055506000600c6000600354815260200190815260200160002060003373ffffffffffffffffffffffffffffffffffffffff1673ffffffffffffffffffffffffffffffffffffffff16815260200190815260200160002060006101000a81548160ff0219169083151502179055506000600d6000600354815260200190815260200160002060003373ffffffffffffffffffffffffffffffffffffffff1673ffffffffffffffffffffffffffffffffffffffff16815260200190815260200160002060006101000a81548160ff0219169083151502179055505050565b6060601160008373ffffffffffffffffffffffffffffffffffffffff1673ffffffffffffffffffffffffffffffffffffffff168152602001908152602001600020600401805461328d90615e42565b80601f01602080910402602001604051908101604052809291908181526020018280546132b990615e42565b80156133065780601f106132db57610100808354040283529160200191613306565b820191906000526020600020905b8154815290600101906020018083116132e957829003601f168201915b50505050509050919050565b60116020528060005260406000206000915090508060000160009054906101000a900473ffffffffffffffffffffffffffffffffffffffff169080600101805461335b90615e42565b80601f016020809104026020016040519081016040528092919081815260200182805461338790615e42565b80156133d45780601f106133a9576101008083540402835291602001916133d4565b820191906000526020600020905b8154815290600101906020018083116133b757829003601f168201915b5050505050908060020180546133e990615e42565b80601f016020809104026020016040519081016040528092919081815260200182805461341590615e42565b80156134625780601f1061343757610100808354040283529160200191613462565b820191906000526020600020905b81548152906001019060200180831161344557829003601f168201915b50505050509080600301805461347790615e42565b80601f01602080910402602001604051908101604052809291908181526020018280546134a390615e42565b80156134f05780601f106134c5576101008083540402835291602001916134f0565b820191906000526020600020905b8154815290600101906020018083116134d357829003601f168201915b50505050509080600401805461350590615e42565b80601f016020809104026020016040519081016040528092919081815260200182805461353190615e42565b801561357e5780601f106135535761010080835404028352916020019161357e565b820191906000526020600020905b81548152906001019060200180831161356157829003601f168201915b50505050509080600501805461359390615e42565b80601f01602080910402602001604051908101604052809291908181526020018280546135bf90615e42565b801561360c5780601f106135e15761010080835404028352916020019161360c565b820191906000526020600020905b8154815290600101906020018083116135ef57829003601f168201915b5050505050908060060154905087565b60066020528060005260406000206000915090508060000154908060010160009054906101000a900473ffffffffffffffffffffffffffffffffffffffff169080600201805461366b90615e42565b80601f016020809104026020016040519081016040528092919081815260200182805461369790615e42565b80156136e45780601f106136b9576101008083540402835291602001916136e4565b820191906000526020600020905b8154815290600101906020018083116136c757829003601f168201915b5050505050908060030154908060040154905085565b8060158190555050565b600015156008600083815260200190815260200160002060003373ffffffffffffffffffffffffffffffffffffffff1673ffffffffffffffffffffffffffffffffffffffff16815260200190815260200160002060009054906101000a900460ff16151514156138f65760016006600083815260200190815260200160002060030160008282546137959190615d2e565b9250508190555060006006600083815260200190815260200160002060010160009054906101000a900473ffffffffffffffffffffffffffffffffffffffff1690506005601260008373ffffffffffffffffffffffffffffffffffffffff1673ffffffffffffffffffffffffffffffffffffffff168152602001908152602001600020600401600082825461382a9190615d2e565b925050819055506005601260003373ffffffffffffffffffffffffffffffffffffffff1673ffffffffffffffffffffffffffffffffffffffff16815260200190815260200160002060050160008282546138849190615d2e565b9250508190555060016008600084815260200190815260200160002060003373ffffffffffffffffffffffffffffffffffffffff1673ffffffffffffffffffffffffffffffffffffffff16815260200190815260200160002060006101000a81548160ff021916908315150217905550505b50565b60006009600084815260200190815260200160002060008373ffffffffffffffffffffffffffffffffffffffff1673ffffffffffffffffffffffffffffffffffffffff16815260200190815260200160002060009054906101000a900460ff16905092915050565b600f602052816000526040600020818154811061397d57600080fd5b90600052602060002001600091509150505481565b60008054906101000a900473ffffffffffffffffffffffffffffffffffffffff1681565b6060601160008373ffffffffffffffffffffffffffffffffffffffff1673ffffffffffffffffffffffffffffffffffffffff1681526020019081526020016000206003018054613a0590615e42565b80601f0160208091040260200160405190810160405280929190818152602001828054613a3190615e42565b8015613a7e5780601f10613a5357610100808354040283529160200191613a7e565b820191906000526020600020905b815481529060010190602001808311613a6157829003601f168201915b50505050509050919050565b6000601260008373ffffffffffffffffffffffffffffffffffffffff1673ffffffffffffffffffffffffffffffffffffffff168152602001908152602001600020600701549050919050565b6000601260008373ffffffffffffffffffffffffffffffffffffffff1673ffffffffffffffffffffffffffffffffffffffff168152602001908152602001600020600901549050919050565b600c6020528160005260406000206020528060005260406000206000915091509054906101000a900460ff1681565b60106020528160005260406000206020528060005260406000206000915091509054906101000a900460ff1681565b6000601160008373ffffffffffffffffffffffffffffffffffffffff1673ffffffffffffffffffffffffffffffffffffffff168152602001908152602001600020600601549050919050565b613bd4614d02565b600a60008381526020019081526020016000206040518060c0016040529081600082015481526020016001820160009054906101000a900473ffffffffffffffffffffffffffffffffffffffff1673ffffffffffffffffffffffffffffffffffffffff1673ffffffffffffffffffffffffffffffffffffffff168152602001600282018054613c6290615e42565b80601f0160208091040260200160405190810160405280929190818152602001828054613c8e90615e42565b8015613cdb5780601f10613cb057610100808354040283529160200191613cdb565b820191906000526020600020905b815481529060010190602001808311613cbe57829003601f168201915b5050505050815260200160038201548152602001600482015481526020016005820160009054906101000a900460ff1615151515815250509050919050565b6000600a600083815260200190815260200160002060010160009054906101000a900473ffffffffffffffffffffffffffffffffffffffff1690506001600a600084815260200190815260200160002060050160006101000a81548160ff0219169083151502179055506005601260008373ffffffffffffffffffffffffffffffffffffffff1673ffffffffffffffffffffffffffffffffffffffff1681526020019081526020016000206004016000828254613dd79190615d2e565b925050819055506005601260003373ffffffffffffffffffffffffffffffffffffffff1673ffffffffffffffffffffffffffffffffffffffff1681526020019081526020016000206005016000828254613e319190615d2e565b925050819055505050565b6000601260008373ffffffffffffffffffffffffffffffffffffffff1673ffffffffffffffffffffffffffffffffffffffff168152602001908152602001600020600501549050919050565b80601260008473ffffffffffffffffffffffffffffffffffffffff1673ffffffffffffffffffffffffffffffffffffffff168152602001908152602001600020600901819055505050565b600b6020528160005260406000208181548110613eef57600080fd5b90600052602060002001600091509150505481565b613f0c614d50565b600e60008381526020019081526020016000206040518060c0016040529081600082015481526020016001820160009054906101000a900473ffffffffffffffffffffffffffffffffffffffff1673ffffffffffffffffffffffffffffffffffffffff1673ffffffffffffffffffffffffffffffffffffffff168152602001600282018054613f9a90615e42565b80601f0160208091040260200160405190810160405280929190818152602001828054613fc690615e42565b80156140135780601f10613fe857610100808354040283529160200191614013565b820191906000526020600020905b815481529060010190602001808311613ff657829003601f168201915b5050505050815260200160038201805461402c90615e42565b80601f016020809104026020016040519081016040528092919081815260200182805461405890615e42565b80156140a55780601f1061407a576101008083540402835291602001916140a5565b820191906000526020600020905b81548152906001019060200180831161408857829003601f168201915b50505050508152602001600482015481526020016005820154815250509050919050565b6000600c600084815260200190815260200160002060008373ffffffffffffffffffffffffffffffffffffffff1673ffffffffffffffffffffffffffffffffffffffff16815260200190815260200160002060009054906101000a900460ff16905092915050565b60055481565b6000601260008373ffffffffffffffffffffffffffffffffffffffff1673ffffffffffffffffffffffffffffffffffffffff168152602001908152602001600020600601549050919050565b80601260008473ffffffffffffffffffffffffffffffffffffffff1673ffffffffffffffffffffffffffffffffffffffff168152602001908152602001600020600701819055505050565b80600e6000848152602001908152602001600020600501819055505050565b6000600e6000838152602001908152602001600020600501549050919050565b60001515600d600083815260200190815260200160002060003373ffffffffffffffffffffffffffffffffffffffff1673ffffffffffffffffffffffffffffffffffffffff16815260200190815260200160002060009054906101000a900460ff16151514156143ff576001600a6000838152602001908152602001600020600401600082825461429e9190615d2e565b925050819055506000600a600083815260200190815260200160002060010160009054906101000a900473ffffffffffffffffffffffffffffffffffffffff1690506005601260008373ffffffffffffffffffffffffffffffffffffffff1673ffffffffffffffffffffffffffffffffffffffff16815260200190815260200160002060040160008282546143339190615d84565b925050819055506005601260003373ffffffffffffffffffffffffffffffffffffffff1673ffffffffffffffffffffffffffffffffffffffff168152602001908152602001600020600501600082825461438d9190615d84565b925050819055506001600d600084815260200190815260200160002060003373ffffffffffffffffffffffffffffffffffffffff1673ffffffffffffffffffffffffffffffffffffffff16815260200190815260200160002060006101000a81548160ff021916908315150217905550505b50565b6000601260008373ffffffffffffffffffffffffffffffffffffffff1673ffffffffffffffffffffffffffffffffffffffff168152602001908152602001600020600401549050919050565b6060601160008373ffffffffffffffffffffffffffffffffffffffff1673ffffffffffffffffffffffffffffffffffffffff168152602001908152602001600020600101805461449d90615e42565b80601f01602080910402602001604051908101604052809291908181526020018280546144c990615e42565b80156145165780601f106144eb57610100808354040283529160200191614516565b820191906000526020600020905b8154815290600101906020018083116144f957829003601f168201915b50505050509050919050565b61452a614d9c565b600660008381526020019081526020016000206040518060c0016040529081600082015481526020016001820160009054906101000a900473ffffffffffffffffffffffffffffffffffffffff1673ffffffffffffffffffffffffffffffffffffffff1673ffffffffffffffffffffffffffffffffffffffff1681526020016002820180546145b890615e42565b80601f01602080910402602001604051908101604052809291908181526020018280546145e490615e42565b80156146315780601f1061460657610100808354040283529160200191614631565b820191906000526020600020905b81548152906001019060200180831161461457829003601f168201915b5050505050815260200160038201548152602001600482015481526020016005820180548060200260200160405190810160405280929190818152602001828054801561469d57602002820191906000526020600020905b815481526020019060010190808311614689575b5050505050815250509050919050565b6060600180548060200260200160405190810160405280929190818152602001828054801561473157602002820191906000526020600020905b8160009054906101000a900473ffffffffffffffffffffffffffffffffffffffff1673ffffffffffffffffffffffffffffffffffffffff16815260200190600101908083116146e7575b5050505050905090565b6000600e600083815260200190815260200160002060010160009054906101000a900473ffffffffffffffffffffffffffffffffffffffff169050919050565b60126020528060005260406000206000915090508060000160009054906101000a900473ffffffffffffffffffffffffffffffffffffffff1690806001015490806002015490806003015490806004015490806005015490806006015490806007015490806008015490806009015490508a565b60086020528160005260406000206020528060005260406000206000915091509054906101000a900460ff1681565b80601260008473ffffffffffffffffffffffffffffffffffffffff1673ffffffffffffffffffffffffffffffffffffffff168152602001908152602001600020600401819055505050565b6000601554905090565b60006010600084815260200190815260200160002060008373ffffffffffffffffffffffffffffffffffffffff1673ffffffffffffffffffffffffffffffffffffffff16815260200190815260200160002060009054906101000a900460ff16905092915050565b6000601260008373ffffffffffffffffffffffffffffffffffffffff1673ffffffffffffffffffffffffffffffffffffffff168152602001908152602001600020600201549050919050565b600015156009600083815260200190815260200160002060003373ffffffffffffffffffffffffffffffffffffffff1673ffffffffffffffffffffffffffffffffffffffff16815260200190815260200160002060009054906101000a900460ff16151514156149c05760016006600083815260200190815260200160002060040160008282546149b89190615d2e565b925050819055505b60006006600083815260200190815260200160002060010160009054906101000a900473ffffffffffffffffffffffffffffffffffffffff1690506005601260008373ffffffffffffffffffffffffffffffffffffffff1673ffffffffffffffffffffffffffffffffffffffff1681526020019081526020016000206004016000828254614a4e9190615d84565b925050819055506005601260003373ffffffffffffffffffffffffffffffffffffffff1673ffffffffffffffffffffffffffffffffffffffff1681526020019081526020016000206005016000828254614aa89190615d84565b9250508190555060016009600084815260200190815260200160002060003373ffffffffffffffffffffffffffffffffffffffff1673ffffffffffffffffffffffffffffffffffffffff16815260200190815260200160002060006101000a81548160ff0219169083151502179055505050565b80601260008473ffffffffffffffffffffffffffffffffffffffff1673ffffffffffffffffffffffffffffffffffffffff168152602001908152602001600020600801819055505050565b6000600c600084815260200190815260200160002060008373ffffffffffffffffffffffffffffffffffffffff1673ffffffffffffffffffffffffffffffffffffffff16815260200190815260200160002060009054906101000a900460ff16905092915050565b828054614bdb90615e42565b90600052602060002090601f016020900481019282614bfd5760008555614c44565b82601f10614c1657805160ff1916838001178555614c44565b82800160010185558215614c44579182015b82811115614c43578251825591602001919060010190614c28565b5b509050614c519190614de8565b5090565b828054828255906000526020600020908101928215614ca4579160200282015b82811115614ca3578251829080519060200190614c93929190614bcf565b5091602001919060010190614c75565b5b509050614cb19190614e05565b5090565b828054828255906000526020600020908101928215614cf1579160200282015b82811115614cf0578251825591602001919060010190614cd5565b5b509050614cfe9190614de8565b5090565b6040518060c0016040528060008152602001600073ffffffffffffffffffffffffffffffffffffffff1681526020016060815260200160008152602001600081526020016000151581525090565b6040518060c0016040528060008152602001600073ffffffffffffffffffffffffffffffffffffffff168152602001606081526020016060815260200160008152602001600081525090565b6040518060c0016040528060008152602001600073ffffffffffffffffffffffffffffffffffffffff168152602001606081526020016000815260200160008152602001606081525090565b5b80821115614e01576000816000905550600101614de9565b5090565b5b80821115614e255760008181614e1c9190614e29565b50600101614e06565b5090565b508054614e3590615e42565b6000825580601f10614e475750614e66565b601f016020900490600052602060002090810190614e659190614de8565b5b50565b6000614e7c614e7784615bdd565b615bb8565b90508083825260208201905082856020860282011115614e9b57600080fd5b60005b85811015614ee557813567ffffffffffffffff811115614ebd57600080fd5b808601614eca8982614f6c565b85526020850194506020840193505050600181019050614e9e565b5050509392505050565b6000614f02614efd84615c09565b615bb8565b905082815260208101848484011115614f1a57600080fd5b614f25848285615e00565b509392505050565b600081359050614f3c81615f8c565b92915050565b600082601f830112614f5357600080fd5b8135614f63848260208601614e69565b91505092915050565b600082601f830112614f7d57600080fd5b8135614f8d848260208601614eef565b91505092915050565b600081359050614fa581615fa3565b92915050565b600060208284031215614fbd57600080fd5b6000614fcb84828501614f2d565b91505092915050565b60008060408385031215614fe757600080fd5b6000614ff585828601614f2d565b925050602083013567ffffffffffffffff81111561501257600080fd5b61501e85828601614f6c565b9150509250929050565b6000806040838503121561503b57600080fd5b600061504985828601614f2d565b925050602061505a85828601614f96565b9150509250929050565b6000806040838503121561507757600080fd5b600083013567ffffffffffffffff81111561509157600080fd5b61509d85828601614f6c565b925050602083013567ffffffffffffffff8111156150ba57600080fd5b6150c685828601614f42565b9150509250929050565b6000806000606084860312156150e557600080fd5b600084013567ffffffffffffffff8111156150ff57600080fd5b61510b86828701614f6c565b935050602084013567ffffffffffffffff81111561512857600080fd5b61513486828701614f6c565b925050604084013567ffffffffffffffff81111561515157600080fd5b61515d86828701614f42565b9150509250925092565b600080600080600080600060e0888a03121561518257600080fd5b600088013567ffffffffffffffff81111561519c57600080fd5b6151a88a828b01614f6c565b975050602088013567ffffffffffffffff8111156151c557600080fd5b6151d18a828b01614f6c565b965050604088013567ffffffffffffffff8111156151ee57600080fd5b6151fa8a828b01614f6c565b955050606088013567ffffffffffffffff81111561521757600080fd5b6152238a828b01614f6c565b945050608088013567ffffffffffffffff81111561524057600080fd5b61524c8a828b01614f6c565b93505060a061525d8a828b01614f96565b92505060c088013567ffffffffffffffff81111561527a57600080fd5b6152868a828b01614f42565b91505092959891949750929550565b6000602082840312156152a757600080fd5b60006152b584828501614f96565b91505092915050565b600080604083850312156152d157600080fd5b60006152df85828601614f96565b92505060206152f085828601614f2d565b9150509250929050565b6000806040838503121561530d57600080fd5b600061531b85828601614f96565b925050602083013567ffffffffffffffff81111561533857600080fd5b61534485828601614f6c565b9150509250929050565b6000806040838503121561536157600080fd5b600061536f85828601614f96565b925050602061538085828601614f96565b9150509250929050565b600061539683836153ce565b60208301905092915050565b60006153ae8383615599565b905092915050565b60006153c283836157e5565b60208301905092915050565b6153d781615db8565b82525050565b6153e681615db8565b82525050565b60006153f782615c6a565b6154018185615cbd565b935061540c83615c3a565b8060005b8381101561543d578151615424888261538a565b975061542f83615c96565b925050600181019050615410565b5085935050505092915050565b600061545582615c75565b61545f8185615cce565b93508360208202850161547185615c4a565b8060005b858110156154ad578484038952815161548e85826153a2565b945061549983615ca3565b925060208a01995050600181019050615475565b50829750879550505050505092915050565b60006154ca82615c80565b6154d48185615cdf565b93506154df83615c5a565b8060005b838110156155105781516154f788826153b6565b975061550283615cb0565b9250506001810190506154e3565b5085935050505092915050565b600061552882615c80565b6155328185615cf0565b935061553d83615c5a565b8060005b8381101561556e57815161555588826153b6565b975061556083615cb0565b925050600181019050615541565b5085935050505092915050565b61558481615dca565b82525050565b61559381615dca565b82525050565b60006155a482615c8b565b6155ae8185615d01565b93506155be818560208601615e0f565b6155c781615f7b565b840191505092915050565b60006155dd82615c8b565b6155e78185615d12565b93506155f7818560208601615e0f565b61560081615f7b565b840191505092915050565b600061561682615c8b565b6156208185615d23565b9350615630818560208601615e0f565b80840191505092915050565b600060c08301600083015161565460008601826157e5565b50602083015161566760208601826153ce565b506040830151848203604086015261567f8282615599565b915050606083015161569460608601826157e5565b5060808301516156a760808601826157e5565b5060a08301516156ba60a086018261557b565b508091505092915050565b600060c0830160008301516156dd60008601826157e5565b5060208301516156f060208601826153ce565b50604083015184820360408601526157088282615599565b915050606083015184820360608601526157228282615599565b915050608083015161573760808601826157e5565b5060a083015161574a60a08601826157e5565b508091505092915050565b600060c08301600083015161576d60008601826157e5565b50602083015161578060208601826153ce565b50604083015184820360408601526157988282615599565b91505060608301516157ad60608601826157e5565b5060808301516157c060808601826157e5565b5060a083015184820360a08601526157d882826154bf565b9150508091505092915050565b6157ee81615df6565b82525050565b6157fd81615df6565b82525050565b600061580f828461560b565b915081905092915050565b600060208201905061582f60008301846153dd565b92915050565b600060e08201905061584a600083018a6153dd565b818103602083015261585c81896155d2565b9050818103604083015261587081886155d2565b9050818103606083015261588481876155d2565b9050818103608083015261589881866155d2565b905081810360a08301526158ac81856155d2565b90506158bb60c08301846157f4565b98975050505050505050565b6000610140820190506158dd600083018d6153dd565b6158ea602083018c6157f4565b6158f7604083018b6157f4565b615904606083018a6157f4565b61591160808301896157f4565b61591e60a08301886157f4565b61592b60c08301876157f4565b61593860e08301866157f4565b6159466101008301856157f4565b6159546101208301846157f4565b9b9a5050505050505050505050565b6000602082019050818103600083015261597d81846153ec565b905092915050565b6000602082019050818103600083015261599f818461544a565b905092915050565b600060208201905081810360008301526159c1818461551d565b905092915050565b60006020820190506159de600083018461558a565b92915050565b600060208201905081810360008301526159fe81846155d2565b905092915050565b60006020820190508181036000830152615a20818461563c565b905092915050565b60006020820190508181036000830152615a4281846156c5565b905092915050565b60006020820190508181036000830152615a648184615755565b905092915050565b6000602082019050615a8160008301846157f4565b92915050565b600060c082019050615a9c60008301896157f4565b615aa960208301886153dd565b8181036040830152615abb81876155d2565b90508181036060830152615acf81866155d2565b9050615ade60808301856157f4565b615aeb60a08301846157f4565b979650505050505050565b600060a082019050615b0b60008301886157f4565b615b1860208301876153dd565b8181036040830152615b2a81866155d2565b9050615b3960608301856157f4565b615b4660808301846157f4565b9695505050505050565b600060c082019050615b6560008301896157f4565b615b7260208301886153dd565b8181036040830152615b8481876155d2565b9050615b9360608301866157f4565b615ba060808301856157f4565b615bad60a083018461558a565b979650505050505050565b6000615bc2615bd3565b9050615bce8282615e74565b919050565b6000604051905090565b600067ffffffffffffffff821115615bf857615bf7615f4c565b5b602082029050602081019050919050565b600067ffffffffffffffff821115615c2457615c23615f4c565b5b615c2d82615f7b565b9050602081019050919050565b6000819050602082019050919050565b6000819050602082019050919050565b6000819050602082019050919050565b600081519050919050565b600081519050919050565b600081519050919050565b600081519050919050565b6000602082019050919050565b6000602082019050919050565b6000602082019050919050565b600082825260208201905092915050565b600082825260208201905092915050565b600082825260208201905092915050565b600082825260208201905092915050565b600082825260208201905092915050565b600082825260208201905092915050565b600081905092915050565b6000615d3982615df6565b9150615d4483615df6565b9250827fffffffffffffffffffffffffffffffffffffffffffffffffffffffffffffffff03821115615d7957615d78615eee565b5b828201905092915050565b6000615d8f82615df6565b9150615d9a83615df6565b925082821015615dad57615dac615eee565b5b828203905092915050565b6000615dc382615dd6565b9050919050565b60008115159050919050565b600073ffffffffffffffffffffffffffffffffffffffff82169050919050565b6000819050919050565b82818337600083830152505050565b60005b83811015615e2d578082015181840152602081019050615e12565b83811115615e3c576000848401525b50505050565b60006002820490506001821680615e5a57607f821691505b60208210811415615e6e57615e6d615f1d565b5b50919050565b615e7d82615f7b565b810181811067ffffffffffffffff82111715615e9c57615e9b615f4c565b5b80604052505050565b6000615eb082615df6565b91507fffffffffffffffffffffffffffffffffffffffffffffffffffffffffffffffff821415615ee357615ee2615eee565b5b600182019050919050565b7f4e487b7100000000000000000000000000000000000000000000000000000000600052601160045260246000fd5b7f4e487b7100000000000000000000000000000000000000000000000000000000600052602260045260246000fd5b7f4e487b7100000000000000000000000000000000000000000000000000000000600052604160045260246000fd5b6000601f19601f8301169050919050565b615f9581615db8565b8114615fa057600080fd5b50565b615fac81615df6565b8114615fb757600080fd5b5056fea26469706673582212205d2afcb4f194c7632e1ee0886a15a160677cdedab527d8753a83f86da2b0babb64736f6c63430008040033",
  "linkReferences": {},
  "deployedLinkReferences": {}
}