{
  "_format": "hh-sol-artifact-1",
  "contractName": "Stack",
  "sourceName": "contracts/Stack.sol",
  "abi": [
    {
      "inputs": [],
      "stateMutability": "nonpayable",
      "type": "constructor"
    },
    {
      "inputs": [
        {
          "internalType": "uint256",
          "name": "aid",
          "type": "uint256"
        }
      ],
      "name": "a_downvote",
      "outputs": [],
      "stateMutability": "nonpayable",
      "type": "function"
    },
    {
      "inputs": [],
      "name": "a_id",
      "outputs": [
        {
          "internalType": "uint256",
          "name": "",
          "type": "uint256"
        }
      ],
      "stateMutability": "view",
      "type": "function"
    },
    {
      "inputs": [
        {
          "internalType": "uint256",
          "name": "aid",
          "type": "uint256"
        }
      ],
      "name": "a_upVote",
      "outputs": [],
      "stateMutability": "nonpayable",
      "type": "function"
    },
    {
      "inputs": [
        {
          "internalType": "uint256",
          "name": "qid",
          "type": "uint256"
        },
        {
          "internalType": "string",
          "name": "a_cid",
          "type": "string"
        }
      ],
      "name": "addAnswer",
      "outputs": [],
      "stateMutability": "nonpayable",
      "type": "function"
    },
    {
      "inputs": [
        {
          "internalType": "string",
          "name": "article_cid",
          "type": "string"
        },
        {
          "internalType": "string[]",
          "name": "tag_name",
          "type": "string[]"
        }
      ],
      "name": "addArticle",
      "outputs": [],
      "stateMutability": "nonpayable",
      "type": "function"
    },
    {
      "inputs": [
        {
          "internalType": "uint256",
          "name": "articleid",
          "type": "uint256"
        }
      ],
      "name": "addLike",
      "outputs": [],
      "stateMutability": "nonpayable",
      "type": "function"
    },
    {
      "inputs": [
        {
          "internalType": "string",
          "name": "q_cid",
          "type": "string"
        },
        {
          "internalType": "string[]",
          "name": "tag_name",
          "type": "string[]"
        }
      ],
      "name": "addQuestion",
      "outputs": [],
      "stateMutability": "nonpayable",
      "type": "function"
    },
    {
      "inputs": [
        {
          "internalType": "address",
          "name": "",
          "type": "address"
        },
        {
          "internalType": "string",
          "name": "",
          "type": "string"
        }
      ],
      "name": "addressToTagToScore",
      "outputs": [
        {
          "internalType": "uint256",
          "name": "",
          "type": "uint256"
        }
      ],
      "stateMutability": "view",
      "type": "function"
    },
    {
      "inputs": [
        {
          "internalType": "address",
          "name": "",
          "type": "address"
        }
      ],
      "name": "addressToUserInfo",
      "outputs": [
        {
          "internalType": "address",
          "name": "user",
          "type": "address"
        },
        {
          "internalType": "uint256",
          "name": "noOfQuestions",
          "type": "uint256"
        },
        {
          "internalType": "uint256",
          "name": "noOfAnswers",
          "type": "uint256"
        },
        {
          "internalType": "uint256",
          "name": "noOfArticles",
          "type": "uint256"
        },
        {
          "internalType": "uint256",
          "name": "totalScore",
          "type": "uint256"
        },
        {
          "internalType": "uint256",
          "name": "reputationScore",
          "type": "uint256"
        },
        {
          "internalType": "uint256",
          "name": "totalReward",
          "type": "uint256"
        },
        {
          "internalType": "uint256",
          "name": "totalRedeem",
          "type": "uint256"
        },
        {
          "internalType": "uint256",
          "name": "totalTip",
          "type": "uint256"
        },
        {
          "internalType": "uint256",
          "name": "expertFeesEarned",
          "type": "uint256"
        }
      ],
      "stateMutability": "view",
      "type": "function"
    },
    {
      "inputs": [
        {
          "internalType": "address",
          "name": "",
          "type": "address"
        }
      ],
      "name": "addressToUserProfileInfo",
      "outputs": [
        {
          "internalType": "address",
          "name": "user",
          "type": "address"
        },
        {
          "internalType": "string",
          "name": "name",
          "type": "string"
        },
        {
          "internalType": "string",
          "name": "userImageCID",
          "type": "string"
        },
        {
          "internalType": "string",
          "name": "email",
          "type": "string"
        },
        {
          "internalType": "string",
          "name": "designation",
          "type": "string"
        },
        {
          "internalType": "string",
          "name": "aboutUSer",
          "type": "string"
        },
        {
          "internalType": "uint256",
          "name": "expertFees",
          "type": "uint256"
        }
      ],
      "stateMutability": "view",
      "type": "function"
    },
    {
      "inputs": [
        {
          "internalType": "uint256",
          "name": "aid",
          "type": "uint256"
        }
      ],
      "name": "approve",
      "outputs": [],
      "stateMutability": "nonpayable",
      "type": "function"
    },
    {
      "inputs": [],
      "name": "article_id",
      "outputs": [
        {
          "internalType": "uint256",
          "name": "",
          "type": "uint256"
        }
      ],
      "stateMutability": "view",
      "type": "function"
    },
    {
      "inputs": [
        {
          "internalType": "string",
          "name": "name",
          "type": "string"
        },
        {
          "internalType": "string",
          "name": "cid",
          "type": "string"
        },
        {
          "internalType": "string",
          "name": "email",
          "type": "string"
        },
        {
          "internalType": "string",
          "name": "designation",
          "type": "string"
        },
        {
          "internalType": "string",
          "name": "aboutUser",
          "type": "string"
        },
        {
          "internalType": "uint256",
          "name": "fees",
          "type": "uint256"
        },
        {
          "internalType": "string[]",
          "name": "listOfTags",
          "type": "string[]"
        }
      ],
      "name": "createProfile",
      "outputs": [],
      "stateMutability": "nonpayable",
      "type": "function"
    },
    {
      "inputs": [],
      "name": "getAllUserAnswersId",
      "outputs": [
        {
          "internalType": "uint256[]",
          "name": "",
          "type": "uint256[]"
        }
      ],
      "stateMutability": "view",
      "type": "function"
    },
    {
      "inputs": [],
      "name": "getAllUserArticlesId",
      "outputs": [
        {
          "internalType": "uint256[]",
          "name": "",
          "type": "uint256[]"
        }
      ],
      "stateMutability": "view",
      "type": "function"
    },
    {
      "inputs": [],
      "name": "getAllUserQuestionsId",
      "outputs": [
        {
          "internalType": "uint256[]",
          "name": "",
          "type": "uint256[]"
        }
      ],
      "stateMutability": "view",
      "type": "function"
    },
    {
      "inputs": [],
      "name": "getAllUsers",
      "outputs": [
        {
          "internalType": "address[]",
          "name": "",
          "type": "address[]"
        }
      ],
      "stateMutability": "view",
      "type": "function"
    },
    {
      "inputs": [
        {
          "internalType": "uint256",
          "name": "aid",
          "type": "uint256"
        }
      ],
      "name": "getAnswer",
      "outputs": [
        {
          "components": [
            {
              "internalType": "uint256",
              "name": "a_id",
              "type": "uint256"
            },
            {
              "internalType": "address",
              "name": "user",
              "type": "address"
            },
            {
              "internalType": "string",
              "name": "a_cid",
              "type": "string"
            },
            {
              "internalType": "uint256",
              "name": "a_upvote",
              "type": "uint256"
            },
            {
              "internalType": "uint256",
              "name": "a_downvote",
              "type": "uint256"
            },
            {
              "internalType": "bool",
              "name": "isApproved",
              "type": "bool"
            }
          ],
          "internalType": "struct Stack.AnswerInfo",
          "name": "",
          "type": "tuple"
        }
      ],
      "stateMutability": "view",
      "type": "function"
    },
    {
      "inputs": [
        {
          "internalType": "uint256",
          "name": "articleid",
          "type": "uint256"
        }
      ],
      "name": "getArticle",
      "outputs": [
        {
          "components": [
            {
              "internalType": "uint256",
              "name": "article_id",
              "type": "uint256"
            },
            {
              "internalType": "address",
              "name": "user",
              "type": "address"
            },
            {
              "internalType": "string",
              "name": "article_cid",
              "type": "string"
            },
            {
              "internalType": "uint256",
              "name": "noOfLikes",
              "type": "uint256"
            },
            {
              "internalType": "uint256",
              "name": "tip",
              "type": "uint256"
            }
          ],
          "internalType": "struct Stack.ArticleInfo",
          "name": "",
          "type": "tuple"
        }
      ],
      "stateMutability": "view",
      "type": "function"
    },
    {
      "inputs": [
        {
          "internalType": "address",
          "name": "user",
          "type": "address"
        }
      ],
      "name": "getExpertFees",
      "outputs": [
        {
          "internalType": "uint256",
          "name": "",
          "type": "uint256"
        }
      ],
      "stateMutability": "view",
      "type": "function"
    },
    {
      "inputs": [
        {
          "internalType": "address",
          "name": "user",
          "type": "address"
        }
      ],
      "name": "getExpertFeesEarned",
      "outputs": [
        {
          "internalType": "uint256",
          "name": "",
          "type": "uint256"
        }
      ],
      "stateMutability": "view",
      "type": "function"
    },
    {
      "inputs": [
        {
          "internalType": "uint256",
          "name": "qid",
          "type": "uint256"
        }
      ],
      "name": "getQuestion",
      "outputs": [
        {
          "components": [
            {
              "internalType": "uint256",
              "name": "q_id",
              "type": "uint256"
            },
            {
              "internalType": "address",
              "name": "user",
              "type": "address"
            },
            {
              "internalType": "string",
              "name": "q_cid",
              "type": "string"
            },
            {
              "internalType": "uint256",
              "name": "q_upvote",
              "type": "uint256"
            },
            {
              "internalType": "uint256",
              "name": "q_downvote",
              "type": "uint256"
            },
            {
              "internalType": "uint256[]",
              "name": "ans_id",
              "type": "uint256[]"
            }
          ],
          "internalType": "struct Stack.QuestionInfo",
          "name": "",
          "type": "tuple"
        }
      ],
      "stateMutability": "view",
      "type": "function"
    },
    {
      "inputs": [
        {
          "internalType": "uint256",
          "name": "articleid",
          "type": "uint256"
        }
      ],
      "name": "getTipFromArticleId",
      "outputs": [
        {
          "internalType": "uint256",
          "name": "",
          "type": "uint256"
        }
      ],
      "stateMutability": "view",
      "type": "function"
    },
    {
      "inputs": [],
      "name": "getTokensSold",
      "outputs": [
        {
          "internalType": "uint256",
          "name": "",
          "type": "uint256"
        }
      ],
      "stateMutability": "view",
      "type": "function"
    },
    {
      "inputs": [
        {
          "internalType": "address",
          "name": "user",
          "type": "address"
        }
      ],
      "name": "getTotalRedeem",
      "outputs": [
        {
          "internalType": "uint256",
          "name": "",
          "type": "uint256"
        }
      ],
      "stateMutability": "view",
      "type": "function"
    },
    {
      "inputs": [
        {
          "internalType": "address",
          "name": "user",
          "type": "address"
        }
      ],
      "name": "getTotalScore",
      "outputs": [
        {
          "internalType": "uint256",
          "name": "",
          "type": "uint256"
        }
      ],
      "stateMutability": "view",
      "type": "function"
    },
    {
      "inputs": [
        {
          "internalType": "address",
          "name": "user",
          "type": "address"
        }
      ],
      "name": "getUserDescription",
      "outputs": [
        {
          "internalType": "string",
          "name": "",
          "type": "string"
        }
      ],
      "stateMutability": "view",
      "type": "function"
    },
    {
      "inputs": [
        {
          "internalType": "address",
          "name": "user",
          "type": "address"
        }
      ],
      "name": "getUserDesignation",
      "outputs": [
        {
          "internalType": "string",
          "name": "",
          "type": "string"
        }
      ],
      "stateMutability": "view",
      "type": "function"
    },
    {
      "inputs": [
        {
          "internalType": "address",
          "name": "user",
          "type": "address"
        }
      ],
      "name": "getUserEmail",
      "outputs": [
        {
          "internalType": "string",
          "name": "",
          "type": "string"
        }
      ],
      "stateMutability": "view",
      "type": "function"
    },
    {
      "inputs": [
        {
          "internalType": "uint256",
          "name": "articleid",
          "type": "uint256"
        }
      ],
      "name": "getUserFromArticleId",
      "outputs": [
        {
          "internalType": "address",
          "name": "",
          "type": "address"
        }
      ],
      "stateMutability": "view",
      "type": "function"
    },
    {
      "inputs": [
        {
          "internalType": "address",
          "name": "user",
          "type": "address"
        }
      ],
      "name": "getUserName",
      "outputs": [
        {
          "internalType": "string",
          "name": "",
          "type": "string"
        }
      ],
      "stateMutability": "view",
      "type": "function"
    },
    {
      "inputs": [
        {
          "internalType": "address",
          "name": "user",
          "type": "address"
        }
      ],
      "name": "getUserNoOfAnswers",
      "outputs": [
        {
          "internalType": "uint256",
          "name": "",
          "type": "uint256"
        }
      ],
      "stateMutability": "view",
      "type": "function"
    },
    {
      "inputs": [
        {
          "internalType": "address",
          "name": "user",
          "type": "address"
        }
      ],
      "name": "getUserNoOfArticles",
      "outputs": [
        {
          "internalType": "uint256",
          "name": "",
          "type": "uint256"
        }
      ],
      "stateMutability": "view",
      "type": "function"
    },
    {
      "inputs": [
        {
          "internalType": "address",
          "name": "user",
          "type": "address"
        }
      ],
      "name": "getUserNoOfQuestions",
      "outputs": [
        {
          "internalType": "uint256",
          "name": "",
          "type": "uint256"
        }
      ],
      "stateMutability": "view",
      "type": "function"
    },
    {
      "inputs": [
        {
          "internalType": "address",
          "name": "user",
          "type": "address"
        }
      ],
      "name": "getUserReputation",
      "outputs": [
        {
          "internalType": "uint256",
          "name": "",
          "type": "uint256"
        }
      ],
      "stateMutability": "view",
      "type": "function"
    },
    {
      "inputs": [
        {
          "internalType": "address",
          "name": "user",
          "type": "address"
        }
      ],
      "name": "getUserReward",
      "outputs": [
        {
          "internalType": "uint256",
          "name": "",
          "type": "uint256"
        }
      ],
      "stateMutability": "view",
      "type": "function"
    },
    {
      "inputs": [],
      "name": "getUserTage",
      "outputs": [
        {
          "internalType": "string[]",
          "name": "",
          "type": "string[]"
        }
      ],
      "stateMutability": "view",
      "type": "function"
    },
    {
      "inputs": [
        {
          "internalType": "address",
          "name": "user",
          "type": "address"
        }
      ],
      "name": "getUserTags",
      "outputs": [
        {
          "internalType": "string[]",
          "name": "",
          "type": "string[]"
        }
      ],
      "stateMutability": "view",
      "type": "function"
    },
    {
      "inputs": [
        {
          "internalType": "address",
          "name": "user",
          "type": "address"
        }
      ],
      "name": "getUserTotalTip",
      "outputs": [
        {
          "internalType": "uint256",
          "name": "",
          "type": "uint256"
        }
      ],
      "stateMutability": "view",
      "type": "function"
    },
    {
      "inputs": [
        {
          "internalType": "uint256",
          "name": "",
          "type": "uint256"
        }
      ],
      "name": "idToAnswer",
      "outputs": [
        {
          "internalType": "uint256",
          "name": "a_id",
          "type": "uint256"
        },
        {
          "internalType": "address",
          "name": "user",
          "type": "address"
        },
        {
          "internalType": "string",
          "name": "a_cid",
          "type": "string"
        },
        {
          "internalType": "uint256",
          "name": "a_upvote",
          "type": "uint256"
        },
        {
          "internalType": "uint256",
          "name": "a_downvote",
          "type": "uint256"
        },
        {
          "internalType": "bool",
          "name": "isApproved",
          "type": "bool"
        }
      ],
      "stateMutability": "view",
      "type": "function"
    },
    {
      "inputs": [
        {
          "internalType": "uint256",
          "name": "",
          "type": "uint256"
        }
      ],
      "name": "idToArticle",
      "outputs": [
        {
          "internalType": "uint256",
          "name": "article_id",
          "type": "uint256"
        },
        {
          "internalType": "address",
          "name": "user",
          "type": "address"
        },
        {
          "internalType": "string",
          "name": "article_cid",
          "type": "string"
        },
        {
          "internalType": "uint256",
          "name": "noOfLikes",
          "type": "uint256"
        },
        {
          "internalType": "uint256",
          "name": "tip",
          "type": "uint256"
        }
      ],
      "stateMutability": "view",
      "type": "function"
    },
    {
      "inputs": [
        {
          "internalType": "uint256",
          "name": "",
          "type": "uint256"
        }
      ],
      "name": "idToQuestion",
      "outputs": [
        {
          "internalType": "uint256",
          "name": "q_id",
          "type": "uint256"
        },
        {
          "internalType": "address",
          "name": "user",
          "type": "address"
        },
        {
          "internalType": "string",
          "name": "q_cid",
          "type": "string"
        },
        {
          "internalType": "uint256",
          "name": "q_upvote",
          "type": "uint256"
        },
        {
          "internalType": "uint256",
          "name": "q_downvote",
          "type": "uint256"
        }
      ],
      "stateMutability": "view",
      "type": "function"
    },
    {
      "inputs": [
        {
          "internalType": "uint256",
          "name": "qid",
          "type": "uint256"
        },
        {
          "internalType": "address",
          "name": "user",
          "type": "address"
        }
      ],
      "name": "isDownUpvotedAnswer",
      "outputs": [
        {
          "internalType": "bool",
          "name": "",
          "type": "bool"
        }
      ],
      "stateMutability": "view",
      "type": "function"
    },
    {
      "inputs": [
        {
          "internalType": "uint256",
          "name": "qid",
          "type": "uint256"
        },
        {
          "internalType": "address",
          "name": "user",
          "type": "address"
        }
      ],
      "name": "isDownUpvotedQuestion",
      "outputs": [
        {
          "internalType": "bool",
          "name": "",
          "type": "bool"
        }
      ],
      "stateMutability": "view",
      "type": "function"
    },
    {
      "inputs": [
        {
          "internalType": "uint256",
          "name": "",
          "type": "uint256"
        },
        {
          "internalType": "address",
          "name": "",
          "type": "address"
        }
      ],
      "name": "isDownVotedAnswer",
      "outputs": [
        {
          "internalType": "bool",
          "name": "",
          "type": "bool"
        }
      ],
      "stateMutability": "view",
      "type": "function"
    },
    {
      "inputs": [
        {
          "internalType": "uint256",
          "name": "",
          "type": "uint256"
        },
        {
          "internalType": "address",
          "name": "",
          "type": "address"
        }
      ],
      "name": "isDownVotedQuestion",
      "outputs": [
        {
          "internalType": "bool",
          "name": "",
          "type": "bool"
        }
      ],
      "stateMutability": "view",
      "type": "function"
    },
    {
      "inputs": [
        {
          "internalType": "uint256",
          "name": "",
          "type": "uint256"
        },
        {
          "internalType": "address",
          "name": "",
          "type": "address"
        }
      ],
      "name": "isUpVotedAnswer",
      "outputs": [
        {
          "internalType": "bool",
          "name": "",
          "type": "bool"
        }
      ],
      "stateMutability": "view",
      "type": "function"
    },
    {
      "inputs": [
        {
          "internalType": "uint256",
          "name": "",
          "type": "uint256"
        },
        {
          "internalType": "address",
          "name": "",
          "type": "address"
        }
      ],
      "name": "isUpVotedQuestion",
      "outputs": [
        {
          "internalType": "bool",
          "name": "",
          "type": "bool"
        }
      ],
      "stateMutability": "view",
      "type": "function"
    },
    {
      "inputs": [
        {
          "internalType": "uint256",
          "name": "qid",
          "type": "uint256"
        },
        {
          "internalType": "address",
          "name": "user",
          "type": "address"
        }
      ],
      "name": "isUserLikedArticle",
      "outputs": [
        {
          "internalType": "bool",
          "name": "",
          "type": "bool"
        }
      ],
      "stateMutability": "view",
      "type": "function"
    },
    {
      "inputs": [
        {
          "internalType": "uint256",
          "name": "",
          "type": "uint256"
        },
        {
          "internalType": "address",
          "name": "",
          "type": "address"
        }
      ],
      "name": "isUserLikedIt",
      "outputs": [
        {
          "internalType": "bool",
          "name": "",
          "type": "bool"
        }
      ],
      "stateMutability": "view",
      "type": "function"
    },
    {
      "inputs": [
        {
          "internalType": "uint256",
          "name": "qid",
          "type": "uint256"
        },
        {
          "internalType": "address",
          "name": "user",
          "type": "address"
        }
      ],
      "name": "isUserUpvotedAnswer",
      "outputs": [
        {
          "internalType": "bool",
          "name": "",
          "type": "bool"
        }
      ],
      "stateMutability": "view",
      "type": "function"
    },
    {
      "inputs": [
        {
          "internalType": "uint256",
          "name": "qid",
          "type": "uint256"
        },
        {
          "internalType": "address",
          "name": "user",
          "type": "address"
        }
      ],
      "name": "isUserUpvotedQuestion",
      "outputs": [
        {
          "internalType": "bool",
          "name": "",
          "type": "bool"
        }
      ],
      "stateMutability": "view",
      "type": "function"
    },
    {
      "inputs": [],
      "name": "owner",
      "outputs": [
        {
          "internalType": "address",
          "name": "",
          "type": "address"
        }
      ],
      "stateMutability": "view",
      "type": "function"
    },
    {
      "inputs": [
        {
          "internalType": "uint256",
          "name": "qid",
          "type": "uint256"
        }
      ],
      "name": "q_downvote",
      "outputs": [],
      "stateMutability": "nonpayable",
      "type": "function"
    },
    {
      "inputs": [],
      "name": "q_id",
      "outputs": [
        {
          "internalType": "uint256",
          "name": "",
          "type": "uint256"
        }
      ],
      "stateMutability": "view",
      "type": "function"
    },
    {
      "inputs": [
        {
          "internalType": "uint256",
          "name": "qid",
          "type": "uint256"
        }
      ],
      "name": "q_upVote",
      "outputs": [],
      "stateMutability": "nonpayable",
      "type": "function"
    },
    {
      "inputs": [
        {
          "internalType": "address",
          "name": "user",
          "type": "address"
        },
        {
          "internalType": "uint256",
          "name": "fee",
          "type": "uint256"
        }
      ],
      "name": "setExpertFeesEarned",
      "outputs": [],
      "stateMutability": "nonpayable",
      "type": "function"
    },
    {
      "inputs": [
        {
          "internalType": "uint256",
          "name": "articleid",
          "type": "uint256"
        },
        {
          "internalType": "uint256",
          "name": "tip",
          "type": "uint256"
        }
      ],
      "name": "setTipFromArticleId",
      "outputs": [],
      "stateMutability": "nonpayable",
      "type": "function"
    },
    {
      "inputs": [
        {
          "internalType": "uint256",
          "name": "tokei",
          "type": "uint256"
        }
      ],
      "name": "setTokenSold",
      "outputs": [],
      "stateMutability": "nonpayable",
      "type": "function"
    },
    {
      "inputs": [
        {
          "internalType": "address",
          "name": "user",
          "type": "address"
        },
        {
          "internalType": "uint256",
          "name": "redeem",
          "type": "uint256"
        }
      ],
      "name": "setTotalRedeem",
      "outputs": [],
      "stateMutability": "nonpayable",
      "type": "function"
    },
    {
      "inputs": [
        {
          "internalType": "address",
          "name": "user",
          "type": "address"
        },
        {
          "internalType": "uint256",
          "name": "score",
          "type": "uint256"
        }
      ],
      "name": "setTotalScore",
      "outputs": [],
      "stateMutability": "nonpayable",
      "type": "function"
    },
    {
      "inputs": [
        {
          "internalType": "address",
          "name": "user",
          "type": "address"
        },
        {
          "internalType": "uint256",
          "name": "totaltip",
          "type": "uint256"
        }
      ],
      "name": "setUserTotalTip",
      "outputs": [],
      "stateMutability": "nonpayable",
      "type": "function"
    },
    {
      "inputs": [],
      "name": "tokensSold",
      "outputs": [
        {
          "internalType": "uint256",
          "name": "",
          "type": "uint256"
        }
      ],
      "stateMutability": "view",
      "type": "function"
    },
    {
      "inputs": [
        {
          "internalType": "address",
          "name": "",
          "type": "address"
        },
        {
          "internalType": "uint256",
          "name": "",
          "type": "uint256"
        }
      ],
      "name": "userToAnswers",
      "outputs": [
        {
          "internalType": "uint256",
          "name": "",
          "type": "uint256"
        }
      ],
      "stateMutability": "view",
      "type": "function"
    },
    {
      "inputs": [
        {
          "internalType": "address",
          "name": "",
          "type": "address"
        },
        {
          "internalType": "uint256",
          "name": "",
          "type": "uint256"
        }
      ],
      "name": "userToArticle",
      "outputs": [
        {
          "internalType": "uint256",
          "name": "",
          "type": "uint256"
        }
      ],
      "stateMutability": "view",
      "type": "function"
    },
    {
      "inputs": [
        {
          "internalType": "address",
          "name": "",
          "type": "address"
        },
        {
          "internalType": "uint256",
          "name": "",
          "type": "uint256"
        }
      ],
      "name": "userToQuestions",
      "outputs": [
        {
          "internalType": "uint256",
          "name": "",
          "type": "uint256"
        }
      ],
      "stateMutability": "view",
      "type": "function"
    },
    {
      "inputs": [
        {
          "internalType": "uint256",
          "name": "",
          "type": "uint256"
        }
      ],
      "name": "users",
      "outputs": [
        {
          "internalType": "address",
          "name": "",
          "type": "address"
        }
      ],
      "stateMutability": "view",
      "type": "function"
    }
  ],
  "bytecode": "0x60806040526064601455600060155534801561001a57600080fd5b50336000806101000a81548173ffffffffffffffffffffffffffffffffffffffff021916908373ffffffffffffffffffffffffffffffffffffffff160217905550615d84806200006b6000396000f3fe608060405234801561001057600080fd5b50600436106103f05760003560e01c80638da5cb5b11610215578063ce9e793b11610125578063e6df3381116100b8578063f4891ec411610087578063f4891ec414610dd3578063f65f580614610e03578063f824333a14610e33578063f989128c14610e4f578063fad99ff014610e6b576103f0565b8063e6df338114610d30578063e9513a6514610d69578063e9bf0fad14610d99578063ee7c0db014610db5576103f0565b8063d84f55ee116100f4578063d84f55ee14610c82578063db88176f14610cb2578063e2842d7914610ce2578063e6bb0c3914610d00576103f0565b8063ce9e793b14610bea578063d075d4a614610c06578063d14083fd14610c36578063d283b3c514610c52576103f0565b8063b759f954116101a8578063bd85d86711610177578063bd85d86714610b20578063c51f4f4114610b50578063c757d53c14610b80578063c75ebb8214610b9e578063ca6205ad14610bce576103f0565b8063b759f95414610a88578063baccbfdb14610aa4578063bb70cb0d14610ad4578063bc08bdfe14610af0576103f0565b806399d4e3b5116101e457806399d4e3b5146109c85780639f9eeb68146109f8578063a1697ba614610a28578063b5ab58dc14610a58576103f0565b80638da5cb5b1461091a5780639480e9481461093857806395a7c4b214610968578063974871c414610998576103f0565b80633e8f032d116103105780636e1467ed116102a35780637ca490dc116102725780637ca490dc1461084e5780637efe79391461088257806380acf04f1461089e57806382cb06ee146108ba57806386eeed0f146108ea576103f0565b80636e1467ed146107975780637491995a146107cc57806377e997b9146107e857806379589dad14610818576103f0565b806349bcfaa9116102df57806349bcfaa91461070f578063518ab2a81461073f578063619d40c01461075d578063649c86381461077b576103f0565b80633e8f032d1461065f5780633fcdbb831461068f57806341adc183146106bf57806348500abc146106db576103f0565b80632101ca8711610388578063365b98b211610357578063365b98b2146105b3578063378a35cd146105e35780633a21cfb5146105ff5780633da19f8b1461062f576103f0565b80632101ca8714610529578063213dcba2146105475780632b35b5ae146105775780633393490714610595576103f0565b8063165acb58116103c4578063165acb58146104a35780631967accc146104c15780631c14d723146104dd57806320405979146104f9576103f0565b8062f2efa0146103f557806301cb3e63146104255780630b43f7c51461044357806314b8c15614610473575b600080fd5b61040f600480360381019061040a9190614e5f565b610e9b565b60405161041c9190615788565b60405180910390f35b61042d610fb6565b60405161043a91906157aa565b60405180910390f35b61045d60048036038101906104589190614e88565b61104b565b60405161046a919061586f565b60405180910390f35b61048d60048036038101906104889190614e5f565b611086565b60405161049a919061586f565b60405180910390f35b6104ab6110d2565b6040516104b891906157aa565b60405180910390f35b6104db60048036038101906104d691906150b2565b611167565b005b6104f760048036038101906104f29190614f84565b61135c565b005b610513600480360381019061050e9190614edc565b611a05565b604051610520919061586f565b60405180910390f35b610531611a36565b60405161053e919061586f565b60405180910390f35b610561600480360381019061055c91906150db565b611a3c565b60405161056e91906157cc565b60405180910390f35b61057f611a6b565b60405161058c91906157aa565b60405180910390f35b61059d611b00565b6040516105aa919061586f565b60405180910390f35b6105cd60048036038101906105c891906150b2565b611b06565b6040516105da919061561d565b60405180910390f35b6105fd60048036038101906105f891906150b2565b611b45565b005b61061960048036038101906106149190614e5f565b611c4e565b60405161062691906157e7565b60405180910390f35b61064960048036038101906106449190614e5f565b611d22565b604051610656919061586f565b60405180910390f35b61067960048036038101906106749190614e5f565b611d6e565b604051610686919061586f565b60405180910390f35b6106a960048036038101906106a491906150db565b611dba565b6040516106b691906157cc565b60405180910390f35b6106d960048036038101906106d49190614f18565b611de9565b005b6106f560048036038101906106f091906150b2565b6123ba565b60405161070695949392919061588a565b60405180910390f35b610729600480360381019061072491906150db565b612498565b60405161073691906157cc565b60405180910390f35b610747612500565b604051610754919061586f565b60405180910390f35b610765612506565b6040516107729190615788565b60405180910390f35b61079560048036038101906107909190614f18565b61261f565b005b6107b160048036038101906107ac91906150b2565b612ced565b6040516107c3969594939291906158e4565b60405180910390f35b6107e660048036038101906107e19190615117565b612dde565b005b61080260048036038101906107fd9190614e5f565b61318b565b60405161080f91906157e7565b60405180910390f35b610832600480360381019061082d9190614e5f565b61325f565b6040516108459796959493929190615638565b60405180910390f35b610868600480360381019061086391906150b2565b613569565b60405161087995949392919061588a565b60405180910390f35b61089c600480360381019061089791906150b2565b613647565b005b6108b860048036038101906108b391906150b2565b613651565b005b6108d460048036038101906108cf91906150db565b613846565b6040516108e191906157cc565b60405180910390f35b61090460048036038101906108ff9190614edc565b6138ae565b604051610911919061586f565b60405180910390f35b6109226138df565b60405161092f919061561d565b60405180910390f35b610952600480360381019061094d9190614e5f565b613903565b60405161095f91906157e7565b60405180910390f35b610982600480360381019061097d9190614e5f565b6139d7565b60405161098f919061586f565b60405180910390f35b6109b260048036038101906109ad9190614e5f565b613a23565b6040516109bf919061586f565b60405180910390f35b6109e260048036038101906109dd91906150db565b613a6f565b6040516109ef91906157cc565b60405180910390f35b610a126004803603810190610a0d91906150db565b613a9e565b604051610a1f91906157cc565b60405180910390f35b610a426004803603810190610a3d9190614e5f565b613acd565b604051610a4f919061586f565b60405180910390f35b610a726004803603810190610a6d91906150b2565b613b19565b604051610a7f9190615809565b60405180910390f35b610aa26004803603810190610a9d91906150b2565b613c67565b005b610abe6004803603810190610ab99190614e5f565b613d89565b604051610acb919061586f565b60405180910390f35b610aee6004803603810190610ae99190614edc565b613dd5565b005b610b0a6004803603810190610b059190614edc565b613e20565b604051610b17919061586f565b60405180910390f35b610b3a6004803603810190610b3591906150b2565b613e51565b604051610b47919061582b565b60405180910390f35b610b6a6004803603810190610b6591906150db565b613f84565b604051610b7791906157cc565b60405180910390f35b610b88613fec565b604051610b95919061586f565b60405180910390f35b610bb86004803603810190610bb39190614e5f565b613ff2565b604051610bc5919061586f565b60405180910390f35b610be86004803603810190610be39190614edc565b61403e565b005b610c046004803603810190610bff919061516b565b614089565b005b610c206004803603810190610c1b91906150b2565b6140a8565b604051610c2d919061586f565b60405180910390f35b610c506004803603810190610c4b91906150b2565b6140c8565b005b610c6c6004803603810190610c679190614e5f565b6142bd565b604051610c79919061586f565b60405180910390f35b610c9c6004803603810190610c979190614e5f565b614309565b604051610ca991906157e7565b60405180910390f35b610ccc6004803603810190610cc791906150b2565b6143dd565b604051610cd9919061584d565b60405180910390f35b610cea614568565b604051610cf79190615766565b60405180910390f35b610d1a6004803603810190610d1591906150b2565b6145f6565b604051610d27919061561d565b60405180910390f35b610d4a6004803603810190610d459190614e5f565b614636565b604051610d609a999897969594939291906156ca565b60405180910390f35b610d836004803603810190610d7e91906150db565b6146aa565b604051610d9091906157cc565b60405180910390f35b610db36004803603810190610dae9190614edc565b6146d9565b005b610dbd614724565b604051610dca919061586f565b60405180910390f35b610ded6004803603810190610de891906150db565b61472e565b604051610dfa91906157cc565b60405180910390f35b610e1d6004803603810190610e189190614e5f565b614796565b604051610e2a919061586f565b60405180910390f35b610e4d6004803603810190610e4891906150b2565b6147e2565b005b610e696004803603810190610e649190614edc565b6149d7565b005b610e856004803603810190610e8091906150db565b614a22565b604051610e9291906157cc565b60405180910390f35b6060601160008373ffffffffffffffffffffffffffffffffffffffff1673ffffffffffffffffffffffffffffffffffffffff168152602001908152602001600020600701805480602002602001604051908101604052809291908181526020016000905b82821015610fab578382906000526020600020018054610f1e90615bd6565b80601f0160208091040260200160405190810160405280929190818152602001828054610f4a90615bd6565b8015610f975780601f10610f6c57610100808354040283529160200191610f97565b820191906000526020600020905b815481529060010190602001808311610f7a57829003601f168201915b505050505081526020019060010190610eff565b505050509050919050565b6060600b60003373ffffffffffffffffffffffffffffffffffffffff1673ffffffffffffffffffffffffffffffffffffffff16815260200190815260200160002080548060200260200160405190810160405280929190818152602001828054801561104157602002820191906000526020600020905b81548152602001906001019080831161102d575b5050505050905090565b601360205281600052604060002081805160208101820180518482526020830160208501208183528095505050505050600091509150505481565b6000601260008373ffffffffffffffffffffffffffffffffffffffff1673ffffffffffffffffffffffffffffffffffffffff168152602001908152602001600020600101549050919050565b6060600760003373ffffffffffffffffffffffffffffffffffffffff1673ffffffffffffffffffffffffffffffffffffffff16815260200190815260200160002080548060200260200160405190810160405280929190818152602001828054801561115d57602002820191906000526020600020905b815481526020019060010190808311611149575b5050505050905090565b60001515600c600083815260200190815260200160002060003373ffffffffffffffffffffffffffffffffffffffff1673ffffffffffffffffffffffffffffffffffffffff16815260200190815260200160002060009054906101000a900460ff1615151415611359576001600a600083815260200190815260200160002060030160008282546111f89190615ac2565b925050819055506000600a600083815260200190815260200160002060010160009054906101000a900473ffffffffffffffffffffffffffffffffffffffff1690506005601260008373ffffffffffffffffffffffffffffffffffffffff1673ffffffffffffffffffffffffffffffffffffffff168152602001908152602001600020600401600082825461128d9190615ac2565b925050819055506005601260003373ffffffffffffffffffffffffffffffffffffffff1673ffffffffffffffffffffffffffffffffffffffff16815260200190815260200160002060050160008282546112e79190615ac2565b925050819055506001600c600084815260200190815260200160002060003373ffffffffffffffffffffffffffffffffffffffff1673ffffffffffffffffffffffffffffffffffffffff16815260200190815260200160002060006101000a81548160ff021916908315150217905550505b50565b600260003373ffffffffffffffffffffffffffffffffffffffff1673ffffffffffffffffffffffffffffffffffffffff16815260200190815260200160002060009054906101000a900460ff16611469576001339080600181540180825580915050600190039060005260206000200160009091909190916101000a81548173ffffffffffffffffffffffffffffffffffffffff021916908373ffffffffffffffffffffffffffffffffffffffff1602179055506001600260003373ffffffffffffffffffffffffffffffffffffffff1673ffffffffffffffffffffffffffffffffffffffff16815260200190815260200160002060006101000a81548160ff0219169083151502179055505b33601160003373ffffffffffffffffffffffffffffffffffffffff1673ffffffffffffffffffffffffffffffffffffffff16815260200190815260200160002060000160006101000a81548173ffffffffffffffffffffffffffffffffffffffff021916908373ffffffffffffffffffffffffffffffffffffffff16021790555086601160003373ffffffffffffffffffffffffffffffffffffffff1673ffffffffffffffffffffffffffffffffffffffff1681526020019081526020016000206001019080519060200190611540929190614a8a565b5085601160003373ffffffffffffffffffffffffffffffffffffffff1673ffffffffffffffffffffffffffffffffffffffff1681526020019081526020016000206002019080519060200190611597929190614a8a565b5084601160003373ffffffffffffffffffffffffffffffffffffffff1673ffffffffffffffffffffffffffffffffffffffff16815260200190815260200160002060030190805190602001906115ee929190614a8a565b5083601160003373ffffffffffffffffffffffffffffffffffffffff1673ffffffffffffffffffffffffffffffffffffffff1681526020019081526020016000206004019080519060200190611645929190614a8a565b5082601160003373ffffffffffffffffffffffffffffffffffffffff1673ffffffffffffffffffffffffffffffffffffffff168152602001908152602001600020600501908051906020019061169c929190614a8a565b5081601160003373ffffffffffffffffffffffffffffffffffffffff1673ffffffffffffffffffffffffffffffffffffffff1681526020019081526020016000206006018190555080601160003373ffffffffffffffffffffffffffffffffffffffff1673ffffffffffffffffffffffffffffffffffffffff168152602001908152602001600020600701908051906020019061173a929190614b10565b5033601260003373ffffffffffffffffffffffffffffffffffffffff1673ffffffffffffffffffffffffffffffffffffffff16815260200190815260200160002060000160006101000a81548173ffffffffffffffffffffffffffffffffffffffff021916908373ffffffffffffffffffffffffffffffffffffffff1602179055506000601260003373ffffffffffffffffffffffffffffffffffffffff1673ffffffffffffffffffffffffffffffffffffffff168152602001908152602001600020600101819055506000601260003373ffffffffffffffffffffffffffffffffffffffff1673ffffffffffffffffffffffffffffffffffffffff168152602001908152602001600020600201819055506000601260003373ffffffffffffffffffffffffffffffffffffffff1673ffffffffffffffffffffffffffffffffffffffff168152602001908152602001600020600401819055506000601260003373ffffffffffffffffffffffffffffffffffffffff1673ffffffffffffffffffffffffffffffffffffffff168152602001908152602001600020600501819055506000601260003373ffffffffffffffffffffffffffffffffffffffff1673ffffffffffffffffffffffffffffffffffffffff168152602001908152602001600020600601819055506000601260003373ffffffffffffffffffffffffffffffffffffffff1673ffffffffffffffffffffffffffffffffffffffff168152602001908152602001600020600701819055506000601260003373ffffffffffffffffffffffffffffffffffffffff1673ffffffffffffffffffffffffffffffffffffffff168152602001908152602001600020600801819055506000601260003373ffffffffffffffffffffffffffffffffffffffff1673ffffffffffffffffffffffffffffffffffffffff1681526020019081526020016000206009018190555050505050505050565b60076020528160005260406000208181548110611a2157600080fd5b90600052602060002001600091509150505481565b60045481565b60096020528160005260406000206020528060005260406000206000915091509054906101000a900460ff1681565b6060600f60003373ffffffffffffffffffffffffffffffffffffffff1673ffffffffffffffffffffffffffffffffffffffff168152602001908152602001600020805480602002602001604051908101604052809291908181526020018280548015611af657602002820191906000526020600020905b815481526020019060010190808311611ae2575b5050505050905090565b60035481565b60018181548110611b1657600080fd5b906000526020600020016000915054906101000a900473ffffffffffffffffffffffffffffffffffffffff1681565b6000151560106000600554815260200190815260200160002060003373ffffffffffffffffffffffffffffffffffffffff1673ffffffffffffffffffffffffffffffffffffffff16815260200190815260200160002060009054906101000a900460ff1615151415611c4b576001600e60008381526020019081526020016000206003016000828254611bd89190615ac2565b92505081905550600160106000600554815260200190815260200160002060003373ffffffffffffffffffffffffffffffffffffffff1673ffffffffffffffffffffffffffffffffffffffff16815260200190815260200160002060006101000a81548160ff0219169083151502179055505b50565b6060601160008373ffffffffffffffffffffffffffffffffffffffff1673ffffffffffffffffffffffffffffffffffffffff1681526020019081526020016000206005018054611c9d90615bd6565b80601f0160208091040260200160405190810160405280929190818152602001828054611cc990615bd6565b8015611d165780601f10611ceb57610100808354040283529160200191611d16565b820191906000526020600020905b815481529060010190602001808311611cf957829003601f168201915b50505050509050919050565b6000601260008373ffffffffffffffffffffffffffffffffffffffff1673ffffffffffffffffffffffffffffffffffffffff168152602001908152602001600020600301549050919050565b6000601260008373ffffffffffffffffffffffffffffffffffffffff1673ffffffffffffffffffffffffffffffffffffffff168152602001908152602001600020600801549050919050565b600d6020528160005260406000206020528060005260406000206000915091509054906101000a900460ff1681565b600160056000828254611dfc9190615ac2565b925050819055506040518060a0016040528060055481526020013373ffffffffffffffffffffffffffffffffffffffff168152602001838152602001600081526020016000815250600e600060055481526020019081526020016000206000820151816000015560208201518160010160006101000a81548173ffffffffffffffffffffffffffffffffffffffff021916908373ffffffffffffffffffffffffffffffffffffffff1602179055506040820151816002019080519060200190611ec6929190614a8a565b506060820151816003015560808201518160040155905050600f60003373ffffffffffffffffffffffffffffffffffffffff1673ffffffffffffffffffffffffffffffffffffffff16815260200190815260200160002060055490806001815401808255809150506001900390600052602060002001600090919091909150556001601260003373ffffffffffffffffffffffffffffffffffffffff1673ffffffffffffffffffffffffffffffffffffffff1681526020019081526020016000206003016000828254611f999190615ac2565b925050819055506005601260003373ffffffffffffffffffffffffffffffffffffffff1673ffffffffffffffffffffffffffffffffffffffff1681526020019081526020016000206004016000828254611ff39190615ac2565b925050819055506005601260003373ffffffffffffffffffffffffffffffffffffffff1673ffffffffffffffffffffffffffffffffffffffff168152602001908152602001600020600501600082825461204d9190615ac2565b92505081905550600060106000600554815260200190815260200160002060003373ffffffffffffffffffffffffffffffffffffffff1673ffffffffffffffffffffffffffffffffffffffff16815260200190815260200160002060006101000a81548160ff02191690831515021790555060005b81518110156123b5576005601360003373ffffffffffffffffffffffffffffffffffffffff1673ffffffffffffffffffffffffffffffffffffffff168152602001908152602001600020838381518110612145577f4e487b7100000000000000000000000000000000000000000000000000000000600052603260045260246000fd5b602002602001015160405161215a9190615606565b908152602001604051809103902060008282546121779190615ac2565b9250508190555060001515601160003373ffffffffffffffffffffffffffffffffffffffff1673ffffffffffffffffffffffffffffffffffffffff1681526020019081526020016000206008018383815181106121fd577f4e487b7100000000000000000000000000000000000000000000000000000000600052603260045260246000fd5b60200260200101516040516122129190615606565b908152602001604051809103902060009054906101000a900460ff16151514156123a257601160003373ffffffffffffffffffffffffffffffffffffffff1673ffffffffffffffffffffffffffffffffffffffff1681526020019081526020016000206007018282815181106122b1577f4e487b7100000000000000000000000000000000000000000000000000000000600052603260045260246000fd5b60200260200101519080600181540180825580915050600190039060005260206000200160009091909190915090805190602001906122f1929190614a8a565b5060011515601160003373ffffffffffffffffffffffffffffffffffffffff1673ffffffffffffffffffffffffffffffffffffffff168152602001908152602001600020600801838381518110612371577f4e487b7100000000000000000000000000000000000000000000000000000000600052603260045260246000fd5b60200260200101516040516123869190615606565b908152602001604051809103902060009054906101000a905050505b80806123ad90615c39565b9150506120c2565b505050565b600e6020528060005260406000206000915090508060000154908060010160009054906101000a900473ffffffffffffffffffffffffffffffffffffffff169080600201805461240990615bd6565b80601f016020809104026020016040519081016040528092919081815260200182805461243590615bd6565b80156124825780601f1061245757610100808354040283529160200191612482565b820191906000526020600020905b81548152906001019060200180831161246557829003601f168201915b5050505050908060030154908060040154905085565b60006008600084815260200190815260200160002060008373ffffffffffffffffffffffffffffffffffffffff1673ffffffffffffffffffffffffffffffffffffffff16815260200190815260200160002060009054906101000a900460ff16905092915050565b60155481565b6060601160003373ffffffffffffffffffffffffffffffffffffffff1673ffffffffffffffffffffffffffffffffffffffff168152602001908152602001600020600701805480602002602001604051908101604052809291908181526020016000905b8282101561261657838290600052602060002001805461258990615bd6565b80601f01602080910402602001604051908101604052809291908181526020018280546125b590615bd6565b80156126025780601f106125d757610100808354040283529160200191612602565b820191906000526020600020905b8154815290600101906020018083116125e557829003601f168201915b50505050508152602001906001019061256a565b50505050905090565b6001600360008282546126329190615ac2565b925050819055506040518060c0016040528060035481526020013373ffffffffffffffffffffffffffffffffffffffff1681526020018381526020016000815260200160008152602001600067ffffffffffffffff8111156126bd577f4e487b7100000000000000000000000000000000000000000000000000000000600052604160045260246000fd5b6040519080825280602002602001820160405280156126eb5781602001602082028036833780820191505090505b508152506006600060035481526020019081526020016000206000820151816000015560208201518160010160006101000a81548173ffffffffffffffffffffffffffffffffffffffff021916908373ffffffffffffffffffffffffffffffffffffffff1602179055506040820151816002019080519060200190612771929190614a8a565b50606082015181600301556080820151816004015560a08201518160050190805190602001906127a2929190614b70565b50905050600760003373ffffffffffffffffffffffffffffffffffffffff1673ffffffffffffffffffffffffffffffffffffffff16815260200190815260200160002060035490806001815401808255809150506001900390600052602060002001600090919091909150556001601260003373ffffffffffffffffffffffffffffffffffffffff1673ffffffffffffffffffffffffffffffffffffffff16815260200190815260200160002060010160008282546128619190615ac2565b925050819055506005601260003373ffffffffffffffffffffffffffffffffffffffff1673ffffffffffffffffffffffffffffffffffffffff16815260200190815260200160002060040160008282546128bb9190615ac2565b925050819055506005601260003373ffffffffffffffffffffffffffffffffffffffff1673ffffffffffffffffffffffffffffffffffffffff16815260200190815260200160002060050160008282546129159190615ac2565b92505081905550600060086000600354815260200190815260200160002060003373ffffffffffffffffffffffffffffffffffffffff1673ffffffffffffffffffffffffffffffffffffffff16815260200190815260200160002060006101000a81548160ff021916908315150217905550600060096000600354815260200190815260200160002060003373ffffffffffffffffffffffffffffffffffffffff1673ffffffffffffffffffffffffffffffffffffffff16815260200190815260200160002060006101000a81548160ff02191690831515021790555060005b8151811015612ce8576005601360003373ffffffffffffffffffffffffffffffffffffffff1673ffffffffffffffffffffffffffffffffffffffff168152602001908152602001600020838381518110612a78577f4e487b7100000000000000000000000000000000000000000000000000000000600052603260045260246000fd5b6020026020010151604051612a8d9190615606565b90815260200160405180910390206000828254612aaa9190615ac2565b9250508190555060001515601160003373ffffffffffffffffffffffffffffffffffffffff1673ffffffffffffffffffffffffffffffffffffffff168152602001908152602001600020600801838381518110612b30577f4e487b7100000000000000000000000000000000000000000000000000000000600052603260045260246000fd5b6020026020010151604051612b459190615606565b908152602001604051809103902060009054906101000a900460ff1615151415612cd557601160003373ffffffffffffffffffffffffffffffffffffffff1673ffffffffffffffffffffffffffffffffffffffff168152602001908152602001600020600701828281518110612be4577f4e487b7100000000000000000000000000000000000000000000000000000000600052603260045260246000fd5b6020026020010151908060018154018082558091505060019003906000526020600020016000909190919091509080519060200190612c24929190614a8a565b5060011515601160003373ffffffffffffffffffffffffffffffffffffffff1673ffffffffffffffffffffffffffffffffffffffff168152602001908152602001600020600801838381518110612ca4577f4e487b7100000000000000000000000000000000000000000000000000000000600052603260045260246000fd5b6020026020010151604051612cb99190615606565b908152602001604051809103902060009054906101000a905050505b8080612ce090615c39565b9150506129f5565b505050565b600a6020528060005260406000206000915090508060000154908060010160009054906101000a900473ffffffffffffffffffffffffffffffffffffffff1690806002018054612d3c90615bd6565b80601f0160208091040260200160405190810160405280929190818152602001828054612d6890615bd6565b8015612db55780601f10612d8a57610100808354040283529160200191612db5565b820191906000526020600020905b815481529060010190602001808311612d9857829003601f168201915b5050505050908060030154908060040154908060050160009054906101000a900460ff16905086565b600160046000828254612df19190615ac2565b925050819055506040518060c0016040528060045481526020013373ffffffffffffffffffffffffffffffffffffffff168152602001828152602001600081526020016000815260200160001515815250600a600060045481526020019081526020016000206000820151816000015560208201518160010160006101000a81548173ffffffffffffffffffffffffffffffffffffffff021916908373ffffffffffffffffffffffffffffffffffffffff1602179055506040820151816002019080519060200190612ec4929190614a8a565b50606082015181600301556080820151816004015560a08201518160050160006101000a81548160ff021916908315150217905550905050600b60003373ffffffffffffffffffffffffffffffffffffffff1673ffffffffffffffffffffffffffffffffffffffff16815260200190815260200160002060045490806001815401808255809150506001900390600052602060002001600090919091909150556006600083815260200190815260200160002060050160045490806001815401808255809150506001900390600052602060002001600090919091909150556001601260003373ffffffffffffffffffffffffffffffffffffffff1673ffffffffffffffffffffffffffffffffffffffff1681526020019081526020016000206002016000828254612ff69190615ac2565b925050819055506005601260003373ffffffffffffffffffffffffffffffffffffffff1673ffffffffffffffffffffffffffffffffffffffff16815260200190815260200160002060040160008282546130509190615ac2565b925050819055506005601260003373ffffffffffffffffffffffffffffffffffffffff1673ffffffffffffffffffffffffffffffffffffffff16815260200190815260200160002060050160008282546130aa9190615ac2565b925050819055506000600c6000600354815260200190815260200160002060003373ffffffffffffffffffffffffffffffffffffffff1673ffffffffffffffffffffffffffffffffffffffff16815260200190815260200160002060006101000a81548160ff0219169083151502179055506000600d6000600354815260200190815260200160002060003373ffffffffffffffffffffffffffffffffffffffff1673ffffffffffffffffffffffffffffffffffffffff16815260200190815260200160002060006101000a81548160ff0219169083151502179055505050565b6060601160008373ffffffffffffffffffffffffffffffffffffffff1673ffffffffffffffffffffffffffffffffffffffff16815260200190815260200160002060040180546131da90615bd6565b80601f016020809104026020016040519081016040528092919081815260200182805461320690615bd6565b80156132535780601f1061322857610100808354040283529160200191613253565b820191906000526020600020905b81548152906001019060200180831161323657829003601f168201915b50505050509050919050565b60116020528060005260406000206000915090508060000160009054906101000a900473ffffffffffffffffffffffffffffffffffffffff16908060010180546132a890615bd6565b80601f01602080910402602001604051908101604052809291908181526020018280546132d490615bd6565b80156133215780601f106132f657610100808354040283529160200191613321565b820191906000526020600020905b81548152906001019060200180831161330457829003601f168201915b50505050509080600201805461333690615bd6565b80601f016020809104026020016040519081016040528092919081815260200182805461336290615bd6565b80156133af5780601f10613384576101008083540402835291602001916133af565b820191906000526020600020905b81548152906001019060200180831161339257829003601f168201915b5050505050908060030180546133c490615bd6565b80601f01602080910402602001604051908101604052809291908181526020018280546133f090615bd6565b801561343d5780601f106134125761010080835404028352916020019161343d565b820191906000526020600020905b81548152906001019060200180831161342057829003601f168201915b50505050509080600401805461345290615bd6565b80601f016020809104026020016040519081016040528092919081815260200182805461347e90615bd6565b80156134cb5780601f106134a0576101008083540402835291602001916134cb565b820191906000526020600020905b8154815290600101906020018083116134ae57829003601f168201915b5050505050908060050180546134e090615bd6565b80601f016020809104026020016040519081016040528092919081815260200182805461350c90615bd6565b80156135595780601f1061352e57610100808354040283529160200191613559565b820191906000526020600020905b81548152906001019060200180831161353c57829003601f168201915b5050505050908060060154905087565b60066020528060005260406000206000915090508060000154908060010160009054906101000a900473ffffffffffffffffffffffffffffffffffffffff16908060020180546135b890615bd6565b80601f01602080910402602001604051908101604052809291908181526020018280546135e490615bd6565b80156136315780601f1061360657610100808354040283529160200191613631565b820191906000526020600020905b81548152906001019060200180831161361457829003601f168201915b5050505050908060030154908060040154905085565b8060158190555050565b600015156008600083815260200190815260200160002060003373ffffffffffffffffffffffffffffffffffffffff1673ffffffffffffffffffffffffffffffffffffffff16815260200190815260200160002060009054906101000a900460ff16151514156138435760016006600083815260200190815260200160002060030160008282546136e29190615ac2565b9250508190555060006006600083815260200190815260200160002060010160009054906101000a900473ffffffffffffffffffffffffffffffffffffffff1690506005601260008373ffffffffffffffffffffffffffffffffffffffff1673ffffffffffffffffffffffffffffffffffffffff16815260200190815260200160002060040160008282546137779190615ac2565b925050819055506005601260003373ffffffffffffffffffffffffffffffffffffffff1673ffffffffffffffffffffffffffffffffffffffff16815260200190815260200160002060050160008282546137d19190615ac2565b9250508190555060016008600084815260200190815260200160002060003373ffffffffffffffffffffffffffffffffffffffff1673ffffffffffffffffffffffffffffffffffffffff16815260200190815260200160002060006101000a81548160ff021916908315150217905550505b50565b60006009600084815260200190815260200160002060008373ffffffffffffffffffffffffffffffffffffffff1673ffffffffffffffffffffffffffffffffffffffff16815260200190815260200160002060009054906101000a900460ff16905092915050565b600f60205281600052604060002081815481106138ca57600080fd5b90600052602060002001600091509150505481565b60008054906101000a900473ffffffffffffffffffffffffffffffffffffffff1681565b6060601160008373ffffffffffffffffffffffffffffffffffffffff1673ffffffffffffffffffffffffffffffffffffffff168152602001908152602001600020600301805461395290615bd6565b80601f016020809104026020016040519081016040528092919081815260200182805461397e90615bd6565b80156139cb5780601f106139a0576101008083540402835291602001916139cb565b820191906000526020600020905b8154815290600101906020018083116139ae57829003601f168201915b50505050509050919050565b6000601260008373ffffffffffffffffffffffffffffffffffffffff1673ffffffffffffffffffffffffffffffffffffffff168152602001908152602001600020600701549050919050565b6000601260008373ffffffffffffffffffffffffffffffffffffffff1673ffffffffffffffffffffffffffffffffffffffff168152602001908152602001600020600901549050919050565b600c6020528160005260406000206020528060005260406000206000915091509054906101000a900460ff1681565b60106020528160005260406000206020528060005260406000206000915091509054906101000a900460ff1681565b6000601160008373ffffffffffffffffffffffffffffffffffffffff1673ffffffffffffffffffffffffffffffffffffffff168152602001908152602001600020600601549050919050565b613b21614bbd565b600a60008381526020019081526020016000206040518060c0016040529081600082015481526020016001820160009054906101000a900473ffffffffffffffffffffffffffffffffffffffff1673ffffffffffffffffffffffffffffffffffffffff1673ffffffffffffffffffffffffffffffffffffffff168152602001600282018054613baf90615bd6565b80601f0160208091040260200160405190810160405280929190818152602001828054613bdb90615bd6565b8015613c285780601f10613bfd57610100808354040283529160200191613c28565b820191906000526020600020905b815481529060010190602001808311613c0b57829003601f168201915b5050505050815260200160038201548152602001600482015481526020016005820160009054906101000a900460ff1615151515815250509050919050565b6000600a600083815260200190815260200160002060010160009054906101000a900473ffffffffffffffffffffffffffffffffffffffff1690506001600a600084815260200190815260200160002060050160006101000a81548160ff0219169083151502179055506005601260008373ffffffffffffffffffffffffffffffffffffffff1673ffffffffffffffffffffffffffffffffffffffff1681526020019081526020016000206004016000828254613d249190615ac2565b925050819055506005601260003373ffffffffffffffffffffffffffffffffffffffff1673ffffffffffffffffffffffffffffffffffffffff1681526020019081526020016000206005016000828254613d7e9190615ac2565b925050819055505050565b6000601260008373ffffffffffffffffffffffffffffffffffffffff1673ffffffffffffffffffffffffffffffffffffffff168152602001908152602001600020600501549050919050565b80601260008473ffffffffffffffffffffffffffffffffffffffff1673ffffffffffffffffffffffffffffffffffffffff168152602001908152602001600020600901819055505050565b600b6020528160005260406000208181548110613e3c57600080fd5b90600052602060002001600091509150505481565b613e59614c0b565b600e60008381526020019081526020016000206040518060a0016040529081600082015481526020016001820160009054906101000a900473ffffffffffffffffffffffffffffffffffffffff1673ffffffffffffffffffffffffffffffffffffffff1673ffffffffffffffffffffffffffffffffffffffff168152602001600282018054613ee790615bd6565b80601f0160208091040260200160405190810160405280929190818152602001828054613f1390615bd6565b8015613f605780601f10613f3557610100808354040283529160200191613f60565b820191906000526020600020905b815481529060010190602001808311613f4357829003601f168201915b50505050508152602001600382015481526020016004820154815250509050919050565b6000600c600084815260200190815260200160002060008373ffffffffffffffffffffffffffffffffffffffff1673ffffffffffffffffffffffffffffffffffffffff16815260200190815260200160002060009054906101000a900460ff16905092915050565b60055481565b6000601260008373ffffffffffffffffffffffffffffffffffffffff1673ffffffffffffffffffffffffffffffffffffffff168152602001908152602001600020600601549050919050565b80601260008473ffffffffffffffffffffffffffffffffffffffff1673ffffffffffffffffffffffffffffffffffffffff168152602001908152602001600020600701819055505050565b80600e6000848152602001908152602001600020600401819055505050565b6000600e6000838152602001908152602001600020600401549050919050565b60001515600d600083815260200190815260200160002060003373ffffffffffffffffffffffffffffffffffffffff1673ffffffffffffffffffffffffffffffffffffffff16815260200190815260200160002060009054906101000a900460ff16151514156142ba576001600a600083815260200190815260200160002060040160008282546141599190615ac2565b925050819055506000600a600083815260200190815260200160002060010160009054906101000a900473ffffffffffffffffffffffffffffffffffffffff1690506005601260008373ffffffffffffffffffffffffffffffffffffffff1673ffffffffffffffffffffffffffffffffffffffff16815260200190815260200160002060040160008282546141ee9190615b18565b925050819055506005601260003373ffffffffffffffffffffffffffffffffffffffff1673ffffffffffffffffffffffffffffffffffffffff16815260200190815260200160002060050160008282546142489190615b18565b925050819055506001600d600084815260200190815260200160002060003373ffffffffffffffffffffffffffffffffffffffff1673ffffffffffffffffffffffffffffffffffffffff16815260200190815260200160002060006101000a81548160ff021916908315150217905550505b50565b6000601260008373ffffffffffffffffffffffffffffffffffffffff1673ffffffffffffffffffffffffffffffffffffffff168152602001908152602001600020600401549050919050565b6060601160008373ffffffffffffffffffffffffffffffffffffffff1673ffffffffffffffffffffffffffffffffffffffff168152602001908152602001600020600101805461435890615bd6565b80601f016020809104026020016040519081016040528092919081815260200182805461438490615bd6565b80156143d15780601f106143a6576101008083540402835291602001916143d1565b820191906000526020600020905b8154815290600101906020018083116143b457829003601f168201915b50505050509050919050565b6143e5614c50565b600660008381526020019081526020016000206040518060c0016040529081600082015481526020016001820160009054906101000a900473ffffffffffffffffffffffffffffffffffffffff1673ffffffffffffffffffffffffffffffffffffffff1673ffffffffffffffffffffffffffffffffffffffff16815260200160028201805461447390615bd6565b80601f016020809104026020016040519081016040528092919081815260200182805461449f90615bd6565b80156144ec5780601f106144c1576101008083540402835291602001916144ec565b820191906000526020600020905b8154815290600101906020018083116144cf57829003601f168201915b5050505050815260200160038201548152602001600482015481526020016005820180548060200260200160405190810160405280929190818152602001828054801561455857602002820191906000526020600020905b815481526020019060010190808311614544575b5050505050815250509050919050565b606060018054806020026020016040519081016040528092919081815260200182805480156145ec57602002820191906000526020600020905b8160009054906101000a900473ffffffffffffffffffffffffffffffffffffffff1673ffffffffffffffffffffffffffffffffffffffff16815260200190600101908083116145a2575b5050505050905090565b6000600e600083815260200190815260200160002060010160009054906101000a900473ffffffffffffffffffffffffffffffffffffffff169050919050565b60126020528060005260406000206000915090508060000160009054906101000a900473ffffffffffffffffffffffffffffffffffffffff1690806001015490806002015490806003015490806004015490806005015490806006015490806007015490806008015490806009015490508a565b60086020528160005260406000206020528060005260406000206000915091509054906101000a900460ff1681565b80601260008473ffffffffffffffffffffffffffffffffffffffff1673ffffffffffffffffffffffffffffffffffffffff168152602001908152602001600020600401819055505050565b6000601554905090565b60006010600084815260200190815260200160002060008373ffffffffffffffffffffffffffffffffffffffff1673ffffffffffffffffffffffffffffffffffffffff16815260200190815260200160002060009054906101000a900460ff16905092915050565b6000601260008373ffffffffffffffffffffffffffffffffffffffff1673ffffffffffffffffffffffffffffffffffffffff168152602001908152602001600020600201549050919050565b600015156009600083815260200190815260200160002060003373ffffffffffffffffffffffffffffffffffffffff1673ffffffffffffffffffffffffffffffffffffffff16815260200190815260200160002060009054906101000a900460ff161515141561487b5760016006600083815260200190815260200160002060040160008282546148739190615ac2565b925050819055505b60006006600083815260200190815260200160002060010160009054906101000a900473ffffffffffffffffffffffffffffffffffffffff1690506005601260008373ffffffffffffffffffffffffffffffffffffffff1673ffffffffffffffffffffffffffffffffffffffff16815260200190815260200160002060040160008282546149099190615b18565b925050819055506005601260003373ffffffffffffffffffffffffffffffffffffffff1673ffffffffffffffffffffffffffffffffffffffff16815260200190815260200160002060050160008282546149639190615b18565b9250508190555060016009600084815260200190815260200160002060003373ffffffffffffffffffffffffffffffffffffffff1673ffffffffffffffffffffffffffffffffffffffff16815260200190815260200160002060006101000a81548160ff0219169083151502179055505050565b80601260008473ffffffffffffffffffffffffffffffffffffffff1673ffffffffffffffffffffffffffffffffffffffff168152602001908152602001600020600801819055505050565b6000600c600084815260200190815260200160002060008373ffffffffffffffffffffffffffffffffffffffff1673ffffffffffffffffffffffffffffffffffffffff16815260200190815260200160002060009054906101000a900460ff16905092915050565b828054614a9690615bd6565b90600052602060002090601f016020900481019282614ab85760008555614aff565b82601f10614ad157805160ff1916838001178555614aff565b82800160010185558215614aff579182015b82811115614afe578251825591602001919060010190614ae3565b5b509050614b0c9190614c9c565b5090565b828054828255906000526020600020908101928215614b5f579160200282015b82811115614b5e578251829080519060200190614b4e929190614a8a565b5091602001919060010190614b30565b5b509050614b6c9190614cb9565b5090565b828054828255906000526020600020908101928215614bac579160200282015b82811115614bab578251825591602001919060010190614b90565b5b509050614bb99190614c9c565b5090565b6040518060c0016040528060008152602001600073ffffffffffffffffffffffffffffffffffffffff1681526020016060815260200160008152602001600081526020016000151581525090565b6040518060a0016040528060008152602001600073ffffffffffffffffffffffffffffffffffffffff1681526020016060815260200160008152602001600081525090565b6040518060c0016040528060008152602001600073ffffffffffffffffffffffffffffffffffffffff168152602001606081526020016000815260200160008152602001606081525090565b5b80821115614cb5576000816000905550600101614c9d565b5090565b5b80821115614cd95760008181614cd09190614cdd565b50600101614cba565b5090565b508054614ce990615bd6565b6000825580601f10614cfb5750614d1a565b601f016020900490600052602060002090810190614d199190614c9c565b5b50565b6000614d30614d2b84615971565b61594c565b90508083825260208201905082856020860282011115614d4f57600080fd5b60005b85811015614d9957813567ffffffffffffffff811115614d7157600080fd5b808601614d7e8982614e20565b85526020850194506020840193505050600181019050614d52565b5050509392505050565b6000614db6614db18461599d565b61594c565b905082815260208101848484011115614dce57600080fd5b614dd9848285615b94565b509392505050565b600081359050614df081615d20565b92915050565b600082601f830112614e0757600080fd5b8135614e17848260208601614d1d565b91505092915050565b600082601f830112614e3157600080fd5b8135614e41848260208601614da3565b91505092915050565b600081359050614e5981615d37565b92915050565b600060208284031215614e7157600080fd5b6000614e7f84828501614de1565b91505092915050565b60008060408385031215614e9b57600080fd5b6000614ea985828601614de1565b925050602083013567ffffffffffffffff811115614ec657600080fd5b614ed285828601614e20565b9150509250929050565b60008060408385031215614eef57600080fd5b6000614efd85828601614de1565b9250506020614f0e85828601614e4a565b9150509250929050565b60008060408385031215614f2b57600080fd5b600083013567ffffffffffffffff811115614f4557600080fd5b614f5185828601614e20565b925050602083013567ffffffffffffffff811115614f6e57600080fd5b614f7a85828601614df6565b9150509250929050565b600080600080600080600060e0888a031215614f9f57600080fd5b600088013567ffffffffffffffff811115614fb957600080fd5b614fc58a828b01614e20565b975050602088013567ffffffffffffffff811115614fe257600080fd5b614fee8a828b01614e20565b965050604088013567ffffffffffffffff81111561500b57600080fd5b6150178a828b01614e20565b955050606088013567ffffffffffffffff81111561503457600080fd5b6150408a828b01614e20565b945050608088013567ffffffffffffffff81111561505d57600080fd5b6150698a828b01614e20565b93505060a061507a8a828b01614e4a565b92505060c088013567ffffffffffffffff81111561509757600080fd5b6150a38a828b01614df6565b91505092959891949750929550565b6000602082840312156150c457600080fd5b60006150d284828501614e4a565b91505092915050565b600080604083850312156150ee57600080fd5b60006150fc85828601614e4a565b925050602061510d85828601614de1565b9150509250929050565b6000806040838503121561512a57600080fd5b600061513885828601614e4a565b925050602083013567ffffffffffffffff81111561515557600080fd5b61516185828601614e20565b9150509250929050565b6000806040838503121561517e57600080fd5b600061518c85828601614e4a565b925050602061519d85828601614e4a565b9150509250929050565b60006151b383836151eb565b60208301905092915050565b60006151cb83836153b6565b905092915050565b60006151df83836155e8565b60208301905092915050565b6151f481615b4c565b82525050565b61520381615b4c565b82525050565b6000615214826159fe565b61521e8185615a51565b9350615229836159ce565b8060005b8381101561525a57815161524188826151a7565b975061524c83615a2a565b92505060018101905061522d565b5085935050505092915050565b600061527282615a09565b61527c8185615a62565b93508360208202850161528e856159de565b8060005b858110156152ca57848403895281516152ab85826151bf565b94506152b683615a37565b925060208a01995050600181019050615292565b50829750879550505050505092915050565b60006152e782615a14565b6152f18185615a73565b93506152fc836159ee565b8060005b8381101561532d57815161531488826151d3565b975061531f83615a44565b925050600181019050615300565b5085935050505092915050565b600061534582615a14565b61534f8185615a84565b935061535a836159ee565b8060005b8381101561538b57815161537288826151d3565b975061537d83615a44565b92505060018101905061535e565b5085935050505092915050565b6153a181615b5e565b82525050565b6153b081615b5e565b82525050565b60006153c182615a1f565b6153cb8185615a95565b93506153db818560208601615ba3565b6153e481615d0f565b840191505092915050565b60006153fa82615a1f565b6154048185615aa6565b9350615414818560208601615ba3565b61541d81615d0f565b840191505092915050565b600061543382615a1f565b61543d8185615ab7565b935061544d818560208601615ba3565b80840191505092915050565b600060c08301600083015161547160008601826155e8565b50602083015161548460208601826151eb565b506040830151848203604086015261549c82826153b6565b91505060608301516154b160608601826155e8565b5060808301516154c460808601826155e8565b5060a08301516154d760a0860182615398565b508091505092915050565b600060a0830160008301516154fa60008601826155e8565b50602083015161550d60208601826151eb565b506040830151848203604086015261552582826153b6565b915050606083015161553a60608601826155e8565b50608083015161554d60808601826155e8565b508091505092915050565b600060c08301600083015161557060008601826155e8565b50602083015161558360208601826151eb565b506040830151848203604086015261559b82826153b6565b91505060608301516155b060608601826155e8565b5060808301516155c360808601826155e8565b5060a083015184820360a08601526155db82826152dc565b9150508091505092915050565b6155f181615b8a565b82525050565b61560081615b8a565b82525050565b60006156128284615428565b915081905092915050565b600060208201905061563260008301846151fa565b92915050565b600060e08201905061564d600083018a6151fa565b818103602083015261565f81896153ef565b9050818103604083015261567381886153ef565b9050818103606083015261568781876153ef565b9050818103608083015261569b81866153ef565b905081810360a08301526156af81856153ef565b90506156be60c08301846155f7565b98975050505050505050565b6000610140820190506156e0600083018d6151fa565b6156ed602083018c6155f7565b6156fa604083018b6155f7565b615707606083018a6155f7565b61571460808301896155f7565b61572160a08301886155f7565b61572e60c08301876155f7565b61573b60e08301866155f7565b6157496101008301856155f7565b6157576101208301846155f7565b9b9a5050505050505050505050565b600060208201905081810360008301526157808184615209565b905092915050565b600060208201905081810360008301526157a28184615267565b905092915050565b600060208201905081810360008301526157c4818461533a565b905092915050565b60006020820190506157e160008301846153a7565b92915050565b6000602082019050818103600083015261580181846153ef565b905092915050565b600060208201905081810360008301526158238184615459565b905092915050565b6000602082019050818103600083015261584581846154e2565b905092915050565b600060208201905081810360008301526158678184615558565b905092915050565b600060208201905061588460008301846155f7565b92915050565b600060a08201905061589f60008301886155f7565b6158ac60208301876151fa565b81810360408301526158be81866153ef565b90506158cd60608301856155f7565b6158da60808301846155f7565b9695505050505050565b600060c0820190506158f960008301896155f7565b61590660208301886151fa565b818103604083015261591881876153ef565b905061592760608301866155f7565b61593460808301856155f7565b61594160a08301846153a7565b979650505050505050565b6000615956615967565b90506159628282615c08565b919050565b6000604051905090565b600067ffffffffffffffff82111561598c5761598b615ce0565b5b602082029050602081019050919050565b600067ffffffffffffffff8211156159b8576159b7615ce0565b5b6159c182615d0f565b9050602081019050919050565b6000819050602082019050919050565b6000819050602082019050919050565b6000819050602082019050919050565b600081519050919050565b600081519050919050565b600081519050919050565b600081519050919050565b6000602082019050919050565b6000602082019050919050565b6000602082019050919050565b600082825260208201905092915050565b600082825260208201905092915050565b600082825260208201905092915050565b600082825260208201905092915050565b600082825260208201905092915050565b600082825260208201905092915050565b600081905092915050565b6000615acd82615b8a565b9150615ad883615b8a565b9250827fffffffffffffffffffffffffffffffffffffffffffffffffffffffffffffffff03821115615b0d57615b0c615c82565b5b828201905092915050565b6000615b2382615b8a565b9150615b2e83615b8a565b925082821015615b4157615b40615c82565b5b828203905092915050565b6000615b5782615b6a565b9050919050565b60008115159050919050565b600073ffffffffffffffffffffffffffffffffffffffff82169050919050565b6000819050919050565b82818337600083830152505050565b60005b83811015615bc1578082015181840152602081019050615ba6565b83811115615bd0576000848401525b50505050565b60006002820490506001821680615bee57607f821691505b60208210811415615c0257615c01615cb1565b5b50919050565b615c1182615d0f565b810181811067ffffffffffffffff82111715615c3057615c2f615ce0565b5b80604052505050565b6000615c4482615b8a565b91507fffffffffffffffffffffffffffffffffffffffffffffffffffffffffffffffff821415615c7757615c76615c82565b5b600182019050919050565b7f4e487b7100000000000000000000000000000000000000000000000000000000600052601160045260246000fd5b7f4e487b7100000000000000000000000000000000000000000000000000000000600052602260045260246000fd5b7f4e487b7100000000000000000000000000000000000000000000000000000000600052604160045260246000fd5b6000601f19601f8301169050919050565b615d2981615b4c565b8114615d3457600080fd5b50565b615d4081615b8a565b8114615d4b57600080fd5b5056fea2646970667358221220d605cbcb3a007a37bad7ac769db59973898eaf2a0f277e6dfe0d884975a77fe964736f6c63430008040033",
  "linkReferences": {},
  "deployedLinkReferences": {}
}