{
  "_format": "hh-sol-artifact-1",
  "contractName": "Stack",
  "sourceName": "contracts/Stack.sol",
  "abi": [
    {
      "inputs": [],
      "stateMutability": "nonpayable",
      "type": "constructor"
    },
    {
      "inputs": [
        {
          "internalType": "uint256",
          "name": "aid",
          "type": "uint256"
        }
      ],
      "name": "a_downvote",
      "outputs": [],
      "stateMutability": "nonpayable",
      "type": "function"
    },
    {
      "inputs": [],
      "name": "a_id",
      "outputs": [
        {
          "internalType": "uint256",
          "name": "",
          "type": "uint256"
        }
      ],
      "stateMutability": "view",
      "type": "function"
    },
    {
      "inputs": [
        {
          "internalType": "uint256",
          "name": "aid",
          "type": "uint256"
        }
      ],
      "name": "a_upVote",
      "outputs": [],
      "stateMutability": "nonpayable",
      "type": "function"
    },
    {
      "inputs": [
        {
          "internalType": "uint256",
          "name": "qid",
          "type": "uint256"
        },
        {
          "internalType": "string",
          "name": "a_cid",
          "type": "string"
        }
      ],
      "name": "addAnswer",
      "outputs": [],
      "stateMutability": "nonpayable",
      "type": "function"
    },
    {
      "inputs": [
        {
          "internalType": "string",
          "name": "article_cid",
          "type": "string"
        },
        {
          "internalType": "string[]",
          "name": "tag_name",
          "type": "string[]"
        }
      ],
      "name": "addArticle",
      "outputs": [],
      "stateMutability": "nonpayable",
      "type": "function"
    },
    {
      "inputs": [
        {
          "internalType": "uint256",
          "name": "articleid",
          "type": "uint256"
        }
      ],
      "name": "addLike",
      "outputs": [],
      "stateMutability": "nonpayable",
      "type": "function"
    },
    {
      "inputs": [
        {
          "internalType": "string",
          "name": "q_cid",
          "type": "string"
        },
        {
          "internalType": "string[]",
          "name": "tag_name",
          "type": "string[]"
        }
      ],
      "name": "addQuestion",
      "outputs": [],
      "stateMutability": "nonpayable",
      "type": "function"
    },
    {
      "inputs": [
        {
          "internalType": "address",
          "name": "",
          "type": "address"
        },
        {
          "internalType": "string",
          "name": "",
          "type": "string"
        }
      ],
      "name": "addressToTagToScore",
      "outputs": [
        {
          "internalType": "uint256",
          "name": "",
          "type": "uint256"
        }
      ],
      "stateMutability": "view",
      "type": "function"
    },
    {
      "inputs": [
        {
          "internalType": "address",
          "name": "",
          "type": "address"
        }
      ],
      "name": "addressToUserInfo",
      "outputs": [
        {
          "internalType": "address",
          "name": "user",
          "type": "address"
        },
        {
          "internalType": "uint256",
          "name": "noOfQuestions",
          "type": "uint256"
        },
        {
          "internalType": "uint256",
          "name": "noOfAnswers",
          "type": "uint256"
        },
        {
          "internalType": "uint256",
          "name": "noOfArticles",
          "type": "uint256"
        },
        {
          "internalType": "uint256",
          "name": "totalScore",
          "type": "uint256"
        },
        {
          "internalType": "uint256",
          "name": "reputationScore",
          "type": "uint256"
        },
        {
          "internalType": "uint256",
          "name": "totalReward",
          "type": "uint256"
        },
        {
          "internalType": "uint256",
          "name": "totalRedeem",
          "type": "uint256"
        },
        {
          "internalType": "uint256",
          "name": "totalTip",
          "type": "uint256"
        }
      ],
      "stateMutability": "view",
      "type": "function"
    },
    {
      "inputs": [
        {
          "internalType": "address",
          "name": "",
          "type": "address"
        }
      ],
      "name": "addressToUserProfileInfo",
      "outputs": [
        {
          "internalType": "address",
          "name": "user",
          "type": "address"
        },
        {
          "internalType": "string",
          "name": "name",
          "type": "string"
        },
        {
          "internalType": "string",
          "name": "userImageCID",
          "type": "string"
        },
        {
          "internalType": "string",
          "name": "email",
          "type": "string"
        },
        {
          "internalType": "string",
          "name": "designation",
          "type": "string"
        },
        {
          "internalType": "string",
          "name": "aboutUSer",
          "type": "string"
        }
      ],
      "stateMutability": "view",
      "type": "function"
    },
    {
      "inputs": [
        {
          "internalType": "uint256",
          "name": "aid",
          "type": "uint256"
        }
      ],
      "name": "approve",
      "outputs": [],
      "stateMutability": "nonpayable",
      "type": "function"
    },
    {
      "inputs": [],
      "name": "article_id",
      "outputs": [
        {
          "internalType": "uint256",
          "name": "",
          "type": "uint256"
        }
      ],
      "stateMutability": "view",
      "type": "function"
    },
    {
      "inputs": [
        {
          "internalType": "string",
          "name": "name",
          "type": "string"
        },
        {
          "internalType": "string",
          "name": "cid",
          "type": "string"
        },
        {
          "internalType": "string",
          "name": "email",
          "type": "string"
        },
        {
          "internalType": "string",
          "name": "designation",
          "type": "string"
        },
        {
          "internalType": "string",
          "name": "aboutUser",
          "type": "string"
        },
        {
          "internalType": "string[]",
          "name": "listOfTags",
          "type": "string[]"
        }
      ],
      "name": "createProfile",
      "outputs": [],
      "stateMutability": "nonpayable",
      "type": "function"
    },
    {
      "inputs": [],
      "name": "getAllUserAnswersId",
      "outputs": [
        {
          "internalType": "uint256[]",
          "name": "",
          "type": "uint256[]"
        }
      ],
      "stateMutability": "view",
      "type": "function"
    },
    {
      "inputs": [],
      "name": "getAllUserArticlesId",
      "outputs": [
        {
          "internalType": "uint256[]",
          "name": "",
          "type": "uint256[]"
        }
      ],
      "stateMutability": "view",
      "type": "function"
    },
    {
      "inputs": [],
      "name": "getAllUserQuestionsId",
      "outputs": [
        {
          "internalType": "uint256[]",
          "name": "",
          "type": "uint256[]"
        }
      ],
      "stateMutability": "view",
      "type": "function"
    },
    {
      "inputs": [],
      "name": "getAllUsers",
      "outputs": [
        {
          "internalType": "address[]",
          "name": "",
          "type": "address[]"
        }
      ],
      "stateMutability": "view",
      "type": "function"
    },
    {
      "inputs": [
        {
          "internalType": "uint256",
          "name": "aid",
          "type": "uint256"
        }
      ],
      "name": "getAnswer",
      "outputs": [
        {
          "components": [
            {
              "internalType": "uint256",
              "name": "a_id",
              "type": "uint256"
            },
            {
              "internalType": "address",
              "name": "user",
              "type": "address"
            },
            {
              "internalType": "string",
              "name": "a_cid",
              "type": "string"
            },
            {
              "internalType": "uint256",
              "name": "a_upvote",
              "type": "uint256"
            },
            {
              "internalType": "uint256",
              "name": "a_downvote",
              "type": "uint256"
            },
            {
              "internalType": "bool",
              "name": "isApproved",
              "type": "bool"
            }
          ],
          "internalType": "struct Stack.AnswerInfo",
          "name": "",
          "type": "tuple"
        }
      ],
      "stateMutability": "view",
      "type": "function"
    },
    {
      "inputs": [
        {
          "internalType": "uint256",
          "name": "articleid",
          "type": "uint256"
        }
      ],
      "name": "getArticle",
      "outputs": [
        {
          "components": [
            {
              "internalType": "uint256",
              "name": "article_id",
              "type": "uint256"
            },
            {
              "internalType": "address",
              "name": "user",
              "type": "address"
            },
            {
              "internalType": "string",
              "name": "article_cid",
              "type": "string"
            },
            {
              "internalType": "uint256",
              "name": "noOfLikes",
              "type": "uint256"
            },
            {
              "internalType": "uint256",
              "name": "tip",
              "type": "uint256"
            }
          ],
          "internalType": "struct Stack.ArticleInfo",
          "name": "",
          "type": "tuple"
        }
      ],
      "stateMutability": "view",
      "type": "function"
    },
    {
      "inputs": [
        {
          "internalType": "uint256",
          "name": "qid",
          "type": "uint256"
        }
      ],
      "name": "getQuestion",
      "outputs": [
        {
          "components": [
            {
              "internalType": "uint256",
              "name": "q_id",
              "type": "uint256"
            },
            {
              "internalType": "address",
              "name": "user",
              "type": "address"
            },
            {
              "internalType": "string",
              "name": "q_cid",
              "type": "string"
            },
            {
              "internalType": "uint256",
              "name": "q_upvote",
              "type": "uint256"
            },
            {
              "internalType": "uint256",
              "name": "q_downvote",
              "type": "uint256"
            },
            {
              "internalType": "uint256[]",
              "name": "ans_id",
              "type": "uint256[]"
            }
          ],
          "internalType": "struct Stack.QuestionInfo",
          "name": "",
          "type": "tuple"
        }
      ],
      "stateMutability": "view",
      "type": "function"
    },
    {
      "inputs": [
        {
          "internalType": "uint256",
          "name": "articleid",
          "type": "uint256"
        }
      ],
      "name": "getTipFromArticleId",
      "outputs": [
        {
          "internalType": "uint256",
          "name": "",
          "type": "uint256"
        }
      ],
      "stateMutability": "view",
      "type": "function"
    },
    {
      "inputs": [],
      "name": "getTokensSold",
      "outputs": [
        {
          "internalType": "uint256",
          "name": "",
          "type": "uint256"
        }
      ],
      "stateMutability": "view",
      "type": "function"
    },
    {
      "inputs": [
        {
          "internalType": "address",
          "name": "user",
          "type": "address"
        }
      ],
      "name": "getTotalRedeem",
      "outputs": [
        {
          "internalType": "uint256",
          "name": "",
          "type": "uint256"
        }
      ],
      "stateMutability": "view",
      "type": "function"
    },
    {
      "inputs": [
        {
          "internalType": "address",
          "name": "user",
          "type": "address"
        }
      ],
      "name": "getTotalScore",
      "outputs": [
        {
          "internalType": "uint256",
          "name": "",
          "type": "uint256"
        }
      ],
      "stateMutability": "view",
      "type": "function"
    },
    {
      "inputs": [
        {
          "internalType": "address",
          "name": "user",
          "type": "address"
        }
      ],
      "name": "getUserDescription",
      "outputs": [
        {
          "internalType": "string",
          "name": "",
          "type": "string"
        }
      ],
      "stateMutability": "view",
      "type": "function"
    },
    {
      "inputs": [
        {
          "internalType": "address",
          "name": "user",
          "type": "address"
        }
      ],
      "name": "getUserDesignation",
      "outputs": [
        {
          "internalType": "string",
          "name": "",
          "type": "string"
        }
      ],
      "stateMutability": "view",
      "type": "function"
    },
    {
      "inputs": [
        {
          "internalType": "address",
          "name": "user",
          "type": "address"
        }
      ],
      "name": "getUserEmail",
      "outputs": [
        {
          "internalType": "string",
          "name": "",
          "type": "string"
        }
      ],
      "stateMutability": "view",
      "type": "function"
    },
    {
      "inputs": [
        {
          "internalType": "uint256",
          "name": "articleid",
          "type": "uint256"
        }
      ],
      "name": "getUserFromArticleId",
      "outputs": [
        {
          "internalType": "address",
          "name": "",
          "type": "address"
        }
      ],
      "stateMutability": "view",
      "type": "function"
    },
    {
      "inputs": [
        {
          "internalType": "address",
          "name": "user",
          "type": "address"
        }
      ],
      "name": "getUserName",
      "outputs": [
        {
          "internalType": "string",
          "name": "",
          "type": "string"
        }
      ],
      "stateMutability": "view",
      "type": "function"
    },
    {
      "inputs": [
        {
          "internalType": "address",
          "name": "user",
          "type": "address"
        }
      ],
      "name": "getUserNoOfAnswers",
      "outputs": [
        {
          "internalType": "uint256",
          "name": "",
          "type": "uint256"
        }
      ],
      "stateMutability": "view",
      "type": "function"
    },
    {
      "inputs": [
        {
          "internalType": "address",
          "name": "user",
          "type": "address"
        }
      ],
      "name": "getUserNoOfArticles",
      "outputs": [
        {
          "internalType": "uint256",
          "name": "",
          "type": "uint256"
        }
      ],
      "stateMutability": "view",
      "type": "function"
    },
    {
      "inputs": [
        {
          "internalType": "address",
          "name": "user",
          "type": "address"
        }
      ],
      "name": "getUserNoOfQuestions",
      "outputs": [
        {
          "internalType": "uint256",
          "name": "",
          "type": "uint256"
        }
      ],
      "stateMutability": "view",
      "type": "function"
    },
    {
      "inputs": [
        {
          "internalType": "address",
          "name": "user",
          "type": "address"
        }
      ],
      "name": "getUserReputation",
      "outputs": [
        {
          "internalType": "uint256",
          "name": "",
          "type": "uint256"
        }
      ],
      "stateMutability": "view",
      "type": "function"
    },
    {
      "inputs": [
        {
          "internalType": "address",
          "name": "user",
          "type": "address"
        }
      ],
      "name": "getUserReward",
      "outputs": [
        {
          "internalType": "uint256",
          "name": "",
          "type": "uint256"
        }
      ],
      "stateMutability": "view",
      "type": "function"
    },
    {
      "inputs": [],
      "name": "getUserTage",
      "outputs": [
        {
          "internalType": "string[]",
          "name": "",
          "type": "string[]"
        }
      ],
      "stateMutability": "view",
      "type": "function"
    },
    {
      "inputs": [
        {
          "internalType": "address",
          "name": "user",
          "type": "address"
        }
      ],
      "name": "getUserTags",
      "outputs": [
        {
          "internalType": "string[]",
          "name": "",
          "type": "string[]"
        }
      ],
      "stateMutability": "view",
      "type": "function"
    },
    {
      "inputs": [
        {
          "internalType": "address",
          "name": "user",
          "type": "address"
        }
      ],
      "name": "getUserTotalTip",
      "outputs": [
        {
          "internalType": "uint256",
          "name": "",
          "type": "uint256"
        }
      ],
      "stateMutability": "view",
      "type": "function"
    },
    {
      "inputs": [
        {
          "internalType": "uint256",
          "name": "",
          "type": "uint256"
        }
      ],
      "name": "idToAnswer",
      "outputs": [
        {
          "internalType": "uint256",
          "name": "a_id",
          "type": "uint256"
        },
        {
          "internalType": "address",
          "name": "user",
          "type": "address"
        },
        {
          "internalType": "string",
          "name": "a_cid",
          "type": "string"
        },
        {
          "internalType": "uint256",
          "name": "a_upvote",
          "type": "uint256"
        },
        {
          "internalType": "uint256",
          "name": "a_downvote",
          "type": "uint256"
        },
        {
          "internalType": "bool",
          "name": "isApproved",
          "type": "bool"
        }
      ],
      "stateMutability": "view",
      "type": "function"
    },
    {
      "inputs": [
        {
          "internalType": "uint256",
          "name": "",
          "type": "uint256"
        }
      ],
      "name": "idToArticle",
      "outputs": [
        {
          "internalType": "uint256",
          "name": "article_id",
          "type": "uint256"
        },
        {
          "internalType": "address",
          "name": "user",
          "type": "address"
        },
        {
          "internalType": "string",
          "name": "article_cid",
          "type": "string"
        },
        {
          "internalType": "uint256",
          "name": "noOfLikes",
          "type": "uint256"
        },
        {
          "internalType": "uint256",
          "name": "tip",
          "type": "uint256"
        }
      ],
      "stateMutability": "view",
      "type": "function"
    },
    {
      "inputs": [
        {
          "internalType": "uint256",
          "name": "",
          "type": "uint256"
        }
      ],
      "name": "idToQuestion",
      "outputs": [
        {
          "internalType": "uint256",
          "name": "q_id",
          "type": "uint256"
        },
        {
          "internalType": "address",
          "name": "user",
          "type": "address"
        },
        {
          "internalType": "string",
          "name": "q_cid",
          "type": "string"
        },
        {
          "internalType": "uint256",
          "name": "q_upvote",
          "type": "uint256"
        },
        {
          "internalType": "uint256",
          "name": "q_downvote",
          "type": "uint256"
        }
      ],
      "stateMutability": "view",
      "type": "function"
    },
    {
      "inputs": [],
      "name": "owner",
      "outputs": [
        {
          "internalType": "address",
          "name": "",
          "type": "address"
        }
      ],
      "stateMutability": "view",
      "type": "function"
    },
    {
      "inputs": [
        {
          "internalType": "uint256",
          "name": "qid",
          "type": "uint256"
        }
      ],
      "name": "q_downvote",
      "outputs": [],
      "stateMutability": "nonpayable",
      "type": "function"
    },
    {
      "inputs": [],
      "name": "q_id",
      "outputs": [
        {
          "internalType": "uint256",
          "name": "",
          "type": "uint256"
        }
      ],
      "stateMutability": "view",
      "type": "function"
    },
    {
      "inputs": [
        {
          "internalType": "uint256",
          "name": "qid",
          "type": "uint256"
        }
      ],
      "name": "q_upVote",
      "outputs": [],
      "stateMutability": "nonpayable",
      "type": "function"
    },
    {
      "inputs": [
        {
          "internalType": "uint256",
          "name": "articleid",
          "type": "uint256"
        },
        {
          "internalType": "uint256",
          "name": "tip",
          "type": "uint256"
        }
      ],
      "name": "setTipFromArticleId",
      "outputs": [],
      "stateMutability": "nonpayable",
      "type": "function"
    },
    {
      "inputs": [
        {
          "internalType": "uint256",
          "name": "tokei",
          "type": "uint256"
        }
      ],
      "name": "setTokenSold",
      "outputs": [],
      "stateMutability": "nonpayable",
      "type": "function"
    },
    {
      "inputs": [
        {
          "internalType": "address",
          "name": "user",
          "type": "address"
        },
        {
          "internalType": "uint256",
          "name": "redeem",
          "type": "uint256"
        }
      ],
      "name": "setTotalRedeem",
      "outputs": [],
      "stateMutability": "nonpayable",
      "type": "function"
    },
    {
      "inputs": [
        {
          "internalType": "address",
          "name": "user",
          "type": "address"
        },
        {
          "internalType": "uint256",
          "name": "score",
          "type": "uint256"
        }
      ],
      "name": "setTotalScore",
      "outputs": [],
      "stateMutability": "nonpayable",
      "type": "function"
    },
    {
      "inputs": [
        {
          "internalType": "address",
          "name": "user",
          "type": "address"
        },
        {
          "internalType": "uint256",
          "name": "totaltip",
          "type": "uint256"
        }
      ],
      "name": "setUserTotalTip",
      "outputs": [],
      "stateMutability": "nonpayable",
      "type": "function"
    },
    {
      "inputs": [],
      "name": "tokensSold",
      "outputs": [
        {
          "internalType": "uint256",
          "name": "",
          "type": "uint256"
        }
      ],
      "stateMutability": "view",
      "type": "function"
    },
    {
      "inputs": [
        {
          "internalType": "address",
          "name": "",
          "type": "address"
        },
        {
          "internalType": "uint256",
          "name": "",
          "type": "uint256"
        }
      ],
      "name": "userToAnswers",
      "outputs": [
        {
          "internalType": "uint256",
          "name": "",
          "type": "uint256"
        }
      ],
      "stateMutability": "view",
      "type": "function"
    },
    {
      "inputs": [
        {
          "internalType": "address",
          "name": "",
          "type": "address"
        },
        {
          "internalType": "uint256",
          "name": "",
          "type": "uint256"
        }
      ],
      "name": "userToArticle",
      "outputs": [
        {
          "internalType": "uint256",
          "name": "",
          "type": "uint256"
        }
      ],
      "stateMutability": "view",
      "type": "function"
    },
    {
      "inputs": [
        {
          "internalType": "address",
          "name": "",
          "type": "address"
        },
        {
          "internalType": "uint256",
          "name": "",
          "type": "uint256"
        }
      ],
      "name": "userToQuestions",
      "outputs": [
        {
          "internalType": "uint256",
          "name": "",
          "type": "uint256"
        }
      ],
      "stateMutability": "view",
      "type": "function"
    },
    {
      "inputs": [
        {
          "internalType": "uint256",
          "name": "",
          "type": "uint256"
        }
      ],
      "name": "users",
      "outputs": [
        {
          "internalType": "address",
          "name": "",
          "type": "address"
        }
      ],
      "stateMutability": "view",
      "type": "function"
    }
  ],
  "bytecode": "0x60806040526064600f55600060105534801561001a57600080fd5b50336000806101000a81548173ffffffffffffffffffffffffffffffffffffffff021916908373ffffffffffffffffffffffffffffffffffffffff160217905550614f4f8061006a6000396000f3fe608060405234801561001057600080fd5b50600436106103415760003560e01c806386eeed0f116101b8578063d075d4a611610104578063e6df3381116100a2578063ee7c0db01161007c578063ee7c0db014610b08578063f65f580614610b26578063f824333a14610b56578063f989128c14610b7257610341565b8063e6df338114610a98578063e935075314610ad0578063e9bf0fad14610aec57610341565b8063d84f55ee116100de578063d84f55ee146109ea578063db88176f14610a1a578063e2842d7914610a4a578063e6bb0c3914610a6857610341565b8063d075d4a61461096e578063d14083fd1461099e578063d283b3c5146109ba57610341565b8063baccbfdb11610171578063c757d53c1161014b578063c757d53c146108e8578063c75ebb8214610906578063ca6205ad14610936578063ce9e793b1461095257610341565b8063baccbfdb14610858578063bc08bdfe14610888578063bd85d867146108b857610341565b806386eeed0f1461075e5780638da5cb5b1461078e5780639480e948146107ac57806395a7c4b2146107dc578063b5ab58dc1461080c578063b759f9541461083c57610341565b80633da19f8b116102925780636e1467ed1161023057806379589dad1161020a57806379589dad146106bd5780637ca490dc146106f25780637efe79391461072657806380acf04f1461074257610341565b80636e1467ed1461063c5780637491995a1461067157806377e997b91461068d57610341565b806348500abc1161026c57806348500abc146105b0578063518ab2a8146105e4578063619d40c014610602578063649c86381461062057610341565b80633da19f8b146105345780633e8f032d1461056457806341adc1831461059457610341565b806320405979116102ff57806333934907116102d9578063339349071461049a578063365b98b2146104b8578063378a35cd146104e85780633a21cfb51461050457610341565b8063204059791461042e5780632101ca871461045e5780632b35b5ae1461047c57610341565b8062f2efa01461034657806301cb3e63146103765780630b43f7c51461039457806314b8c156146103c4578063165acb58146103f45780631967accc14610412575b600080fd5b610360600480360381019061035b91906140b3565b610b8e565b60405161036d919061496e565b60405180910390f35b61037e610ca9565b60405161038b9190614990565b60405180910390f35b6103ae60048036038101906103a991906140dc565b610d3e565b6040516103bb9190614a3a565b60405180910390f35b6103de60048036038101906103d991906140b3565b610d79565b6040516103eb9190614a3a565b60405180910390f35b6103fc610dc5565b6040516104099190614990565b60405180910390f35b61042c600480360381019061042791906142f1565b610e5a565b005b61044860048036038101906104439190614130565b610f7b565b6040516104559190614a3a565b60405180910390f35b610466610fac565b6040516104739190614a3a565b60405180910390f35b610484610fb2565b6040516104919190614990565b60405180910390f35b6104a2611047565b6040516104af9190614a3a565b60405180910390f35b6104d260048036038101906104cd91906142f1565b61104d565b6040516104df9190614820565b60405180910390f35b61050260048036038101906104fd91906142f1565b61108c565b005b61051e600480360381019061051991906140b3565b6110bd565b60405161052b91906149b2565b60405180910390f35b61054e600480360381019061054991906140b3565b611191565b60405161055b9190614a3a565b60405180910390f35b61057e600480360381019061057991906140b3565b6111dd565b60405161058b9190614a3a565b60405180910390f35b6105ae60048036038101906105a9919061416c565b611229565b005b6105ca60048036038101906105c591906142f1565b61178f565b6040516105db959493929190614a55565b60405180910390f35b6105ec61186d565b6040516105f99190614a3a565b60405180910390f35b61060a611873565b604051610617919061496e565b60405180910390f35b61063a6004803603810190610635919061416c565b61198c565b005b610656600480360381019061065191906142f1565b611f84565b60405161066896959493929190614aaf565b60405180910390f35b61068b6004803603810190610686919061431a565b612075565b005b6106a760048036038101906106a291906140b3565b61234c565b6040516106b491906149b2565b60405180910390f35b6106d760048036038101906106d291906140b3565b612420565b6040516106e99695949392919061483b565b60405180910390f35b61070c600480360381019061070791906142f1565b612724565b60405161071d959493929190614a55565b60405180910390f35b610740600480360381019061073b91906142f1565b612802565b005b61075c600480360381019061075791906142f1565b61280c565b005b61077860048036038101906107739190614130565b61292d565b6040516107859190614a3a565b60405180910390f35b61079661295e565b6040516107a39190614820565b60405180910390f35b6107c660048036038101906107c191906140b3565b612982565b6040516107d391906149b2565b60405180910390f35b6107f660048036038101906107f191906140b3565b612a56565b6040516108039190614a3a565b60405180910390f35b610826600480360381019061082191906142f1565b612aa2565b60405161083391906149d4565b60405180910390f35b610856600480360381019061085191906142f1565b612bf0565b005b610872600480360381019061086d91906140b3565b612d12565b60405161087f9190614a3a565b60405180910390f35b6108a2600480360381019061089d9190614130565b612d5e565b6040516108af9190614a3a565b60405180910390f35b6108d260048036038101906108cd91906142f1565b612d8f565b6040516108df91906149f6565b60405180910390f35b6108f0612ec2565b6040516108fd9190614a3a565b60405180910390f35b610920600480360381019061091b91906140b3565b612ec8565b60405161092d9190614a3a565b60405180910390f35b610950600480360381019061094b9190614130565b612f14565b005b61096c6004803603810190610967919061436e565b612f71565b005b610988600480360381019061098391906142f1565b612f90565b6040516109959190614a3a565b60405180910390f35b6109b860048036038101906109b391906142f1565b612fb0565b005b6109d460048036038101906109cf91906140b3565b6130d1565b6040516109e19190614a3a565b60405180910390f35b610a0460048036038101906109ff91906140b3565b61311d565b604051610a1191906149b2565b60405180910390f35b610a346004803603810190610a2f91906142f1565b6131f1565b604051610a419190614a18565b60405180910390f35b610a5261337c565b604051610a5f919061494c565b60405180910390f35b610a826004803603810190610a7d91906142f1565b61340a565b604051610a8f9190614820565b60405180910390f35b610ab26004803603810190610aad91906140b3565b61344a565b604051610ac7999897969594939291906148bf565b60405180910390f35b610aea6004803603810190610ae591906141d8565b6134b8565b005b610b066004803603810190610b019190614130565b613ad1565b005b610b10613b1c565b604051610b1d9190614a3a565b60405180910390f35b610b406004803603810190610b3b91906140b3565b613b26565b604051610b4d9190614a3a565b60405180910390f35b610b706004803603810190610b6b91906142f1565b613b72565b005b610b8c6004803603810190610b879190614130565b613c93565b005b6060600c60008373ffffffffffffffffffffffffffffffffffffffff1673ffffffffffffffffffffffffffffffffffffffff168152602001908152602001600020600601805480602002602001604051908101604052809291908181526020016000905b82821015610c9e578382906000526020600020018054610c1190614da1565b80601f0160208091040260200160405190810160405280929190818152602001828054610c3d90614da1565b8015610c8a5780601f10610c5f57610100808354040283529160200191610c8a565b820191906000526020600020905b815481529060010190602001808311610c6d57829003601f168201915b505050505081526020019060010190610bf2565b505050509050919050565b6060600960003373ffffffffffffffffffffffffffffffffffffffff1673ffffffffffffffffffffffffffffffffffffffff168152602001908152602001600020805480602002602001604051908101604052809291908181526020018280548015610d3457602002820191906000526020600020905b815481526020019060010190808311610d20575b5050505050905090565b600e60205281600052604060002081805160208101820180518482526020830160208501208183528095505050505050600091509150505481565b6000600d60008373ffffffffffffffffffffffffffffffffffffffff1673ffffffffffffffffffffffffffffffffffffffff168152602001908152602001600020600101549050919050565b6060600760003373ffffffffffffffffffffffffffffffffffffffff1673ffffffffffffffffffffffffffffffffffffffff168152602001908152602001600020805480602002602001604051908101604052809291908181526020018280548015610e5057602002820191906000526020600020905b815481526020019060010190808311610e3c575b5050505050905090565b6001600860008381526020019081526020016000206003016000828254610e819190614c8d565b9250508190555060006008600083815260200190815260200160002060010160009054906101000a900473ffffffffffffffffffffffffffffffffffffffff1690506005600d60008373ffffffffffffffffffffffffffffffffffffffff1673ffffffffffffffffffffffffffffffffffffffff1681526020019081526020016000206004016000828254610f169190614c8d565b925050819055506005600d60003373ffffffffffffffffffffffffffffffffffffffff1673ffffffffffffffffffffffffffffffffffffffff1681526020019081526020016000206005016000828254610f709190614c8d565b925050819055505050565b60076020528160005260406000208181548110610f9757600080fd5b90600052602060002001600091509150505481565b60045481565b6060600b60003373ffffffffffffffffffffffffffffffffffffffff1673ffffffffffffffffffffffffffffffffffffffff16815260200190815260200160002080548060200260200160405190810160405280929190818152602001828054801561103d57602002820191906000526020600020905b815481526020019060010190808311611029575b5050505050905090565b60035481565b6001818154811061105d57600080fd5b906000526020600020016000915054906101000a900473ffffffffffffffffffffffffffffffffffffffff1681565b6001600a600083815260200190815260200160002060030160008282546110b39190614c8d565b9250508190555050565b6060600c60008373ffffffffffffffffffffffffffffffffffffffff1673ffffffffffffffffffffffffffffffffffffffff168152602001908152602001600020600501805461110c90614da1565b80601f016020809104026020016040519081016040528092919081815260200182805461113890614da1565b80156111855780601f1061115a57610100808354040283529160200191611185565b820191906000526020600020905b81548152906001019060200180831161116857829003601f168201915b50505050509050919050565b6000600d60008373ffffffffffffffffffffffffffffffffffffffff1673ffffffffffffffffffffffffffffffffffffffff168152602001908152602001600020600301549050919050565b6000600d60008373ffffffffffffffffffffffffffffffffffffffff1673ffffffffffffffffffffffffffffffffffffffff168152602001908152602001600020600801549050919050565b60016005600082825461123c9190614c8d565b925050819055506040518060a0016040528060055481526020013373ffffffffffffffffffffffffffffffffffffffff168152602001838152602001600081526020016000815250600a600060055481526020019081526020016000206000820151816000015560208201518160010160006101000a81548173ffffffffffffffffffffffffffffffffffffffff021916908373ffffffffffffffffffffffffffffffffffffffff1602179055506040820151816002019080519060200190611306929190613cde565b506060820151816003015560808201518160040155905050600b60003373ffffffffffffffffffffffffffffffffffffffff1673ffffffffffffffffffffffffffffffffffffffff16815260200190815260200160002060055490806001815401808255809150506001900390600052602060002001600090919091909150556001600d60003373ffffffffffffffffffffffffffffffffffffffff1673ffffffffffffffffffffffffffffffffffffffff16815260200190815260200160002060030160008282546113d99190614c8d565b925050819055506005600d60003373ffffffffffffffffffffffffffffffffffffffff1673ffffffffffffffffffffffffffffffffffffffff16815260200190815260200160002060040160008282546114339190614c8d565b925050819055506005600d60003373ffffffffffffffffffffffffffffffffffffffff1673ffffffffffffffffffffffffffffffffffffffff168152602001908152602001600020600501600082825461148d9190614c8d565b9250508190555060005b815181101561178a576005600e60003373ffffffffffffffffffffffffffffffffffffffff1673ffffffffffffffffffffffffffffffffffffffff16815260200190815260200160002083838151811061151a577f4e487b7100000000000000000000000000000000000000000000000000000000600052603260045260246000fd5b602002602001015160405161152f9190614809565b9081526020016040518091039020600082825461154c9190614c8d565b9250508190555060001515600c60003373ffffffffffffffffffffffffffffffffffffffff1673ffffffffffffffffffffffffffffffffffffffff1681526020019081526020016000206007018383815181106115d2577f4e487b7100000000000000000000000000000000000000000000000000000000600052603260045260246000fd5b60200260200101516040516115e79190614809565b908152602001604051809103902060009054906101000a900460ff161515141561177757600c60003373ffffffffffffffffffffffffffffffffffffffff1673ffffffffffffffffffffffffffffffffffffffff168152602001908152602001600020600601828281518110611686577f4e487b7100000000000000000000000000000000000000000000000000000000600052603260045260246000fd5b60200260200101519080600181540180825580915050600190039060005260206000200160009091909190915090805190602001906116c6929190613cde565b5060011515600c60003373ffffffffffffffffffffffffffffffffffffffff1673ffffffffffffffffffffffffffffffffffffffff168152602001908152602001600020600701838381518110611746577f4e487b7100000000000000000000000000000000000000000000000000000000600052603260045260246000fd5b602002602001015160405161175b9190614809565b908152602001604051809103902060009054906101000a905050505b808061178290614e04565b915050611497565b505050565b600a6020528060005260406000206000915090508060000154908060010160009054906101000a900473ffffffffffffffffffffffffffffffffffffffff16908060020180546117de90614da1565b80601f016020809104026020016040519081016040528092919081815260200182805461180a90614da1565b80156118575780601f1061182c57610100808354040283529160200191611857565b820191906000526020600020905b81548152906001019060200180831161183a57829003601f168201915b5050505050908060030154908060040154905085565b60105481565b6060600c60003373ffffffffffffffffffffffffffffffffffffffff1673ffffffffffffffffffffffffffffffffffffffff168152602001908152602001600020600601805480602002602001604051908101604052809291908181526020016000905b828210156119835783829060005260206000200180546118f690614da1565b80601f016020809104026020016040519081016040528092919081815260200182805461192290614da1565b801561196f5780601f106119445761010080835404028352916020019161196f565b820191906000526020600020905b81548152906001019060200180831161195257829003601f168201915b5050505050815260200190600101906118d7565b50505050905090565b60016003600082825461199f9190614c8d565b925050819055506040518060c0016040528060035481526020013373ffffffffffffffffffffffffffffffffffffffff1681526020018381526020016000815260200160008152602001600067ffffffffffffffff811115611a2a577f4e487b7100000000000000000000000000000000000000000000000000000000600052604160045260246000fd5b604051908082528060200260200182016040528015611a585781602001602082028036833780820191505090505b508152506006600060035481526020019081526020016000206000820151816000015560208201518160010160006101000a81548173ffffffffffffffffffffffffffffffffffffffff021916908373ffffffffffffffffffffffffffffffffffffffff1602179055506040820151816002019080519060200190611ade929190613cde565b50606082015181600301556080820151816004015560a0820151816005019080519060200190611b0f929190613d64565b50905050600760003373ffffffffffffffffffffffffffffffffffffffff1673ffffffffffffffffffffffffffffffffffffffff16815260200190815260200160002060035490806001815401808255809150506001900390600052602060002001600090919091909150556001600d60003373ffffffffffffffffffffffffffffffffffffffff1673ffffffffffffffffffffffffffffffffffffffff1681526020019081526020016000206001016000828254611bce9190614c8d565b925050819055506005600d60003373ffffffffffffffffffffffffffffffffffffffff1673ffffffffffffffffffffffffffffffffffffffff1681526020019081526020016000206004016000828254611c289190614c8d565b925050819055506005600d60003373ffffffffffffffffffffffffffffffffffffffff1673ffffffffffffffffffffffffffffffffffffffff1681526020019081526020016000206005016000828254611c829190614c8d565b9250508190555060005b8151811015611f7f576005600e60003373ffffffffffffffffffffffffffffffffffffffff1673ffffffffffffffffffffffffffffffffffffffff168152602001908152602001600020838381518110611d0f577f4e487b7100000000000000000000000000000000000000000000000000000000600052603260045260246000fd5b6020026020010151604051611d249190614809565b90815260200160405180910390206000828254611d419190614c8d565b9250508190555060001515600c60003373ffffffffffffffffffffffffffffffffffffffff1673ffffffffffffffffffffffffffffffffffffffff168152602001908152602001600020600701838381518110611dc7577f4e487b7100000000000000000000000000000000000000000000000000000000600052603260045260246000fd5b6020026020010151604051611ddc9190614809565b908152602001604051809103902060009054906101000a900460ff1615151415611f6c57600c60003373ffffffffffffffffffffffffffffffffffffffff1673ffffffffffffffffffffffffffffffffffffffff168152602001908152602001600020600601828281518110611e7b577f4e487b7100000000000000000000000000000000000000000000000000000000600052603260045260246000fd5b6020026020010151908060018154018082558091505060019003906000526020600020016000909190919091509080519060200190611ebb929190613cde565b5060011515600c60003373ffffffffffffffffffffffffffffffffffffffff1673ffffffffffffffffffffffffffffffffffffffff168152602001908152602001600020600701838381518110611f3b577f4e487b7100000000000000000000000000000000000000000000000000000000600052603260045260246000fd5b6020026020010151604051611f509190614809565b908152602001604051809103902060009054906101000a905050505b8080611f7790614e04565b915050611c8c565b505050565b60086020528060005260406000206000915090508060000154908060010160009054906101000a900473ffffffffffffffffffffffffffffffffffffffff1690806002018054611fd390614da1565b80601f0160208091040260200160405190810160405280929190818152602001828054611fff90614da1565b801561204c5780601f106120215761010080835404028352916020019161204c565b820191906000526020600020905b81548152906001019060200180831161202f57829003601f168201915b5050505050908060030154908060040154908060050160009054906101000a900460ff16905086565b6001600460008282546120889190614c8d565b925050819055506040518060c0016040528060045481526020013373ffffffffffffffffffffffffffffffffffffffff1681526020018281526020016000815260200160008152602001600015158152506008600060045481526020019081526020016000206000820151816000015560208201518160010160006101000a81548173ffffffffffffffffffffffffffffffffffffffff021916908373ffffffffffffffffffffffffffffffffffffffff160217905550604082015181600201908051906020019061215b929190613cde565b50606082015181600301556080820151816004015560a08201518160050160006101000a81548160ff021916908315150217905550905050600960003373ffffffffffffffffffffffffffffffffffffffff1673ffffffffffffffffffffffffffffffffffffffff16815260200190815260200160002060045490806001815401808255809150506001900390600052602060002001600090919091909150556006600083815260200190815260200160002060050160045490806001815401808255809150506001900390600052602060002001600090919091909150556001600d60003373ffffffffffffffffffffffffffffffffffffffff1673ffffffffffffffffffffffffffffffffffffffff168152602001908152602001600020600201600082825461228d9190614c8d565b925050819055506005600d60003373ffffffffffffffffffffffffffffffffffffffff1673ffffffffffffffffffffffffffffffffffffffff16815260200190815260200160002060040160008282546122e79190614c8d565b925050819055506005600d60003373ffffffffffffffffffffffffffffffffffffffff1673ffffffffffffffffffffffffffffffffffffffff16815260200190815260200160002060050160008282546123419190614c8d565b925050819055505050565b6060600c60008373ffffffffffffffffffffffffffffffffffffffff1673ffffffffffffffffffffffffffffffffffffffff168152602001908152602001600020600401805461239b90614da1565b80601f01602080910402602001604051908101604052809291908181526020018280546123c790614da1565b80156124145780601f106123e957610100808354040283529160200191612414565b820191906000526020600020905b8154815290600101906020018083116123f757829003601f168201915b50505050509050919050565b600c6020528060005260406000206000915090508060000160009054906101000a900473ffffffffffffffffffffffffffffffffffffffff169080600101805461246990614da1565b80601f016020809104026020016040519081016040528092919081815260200182805461249590614da1565b80156124e25780601f106124b7576101008083540402835291602001916124e2565b820191906000526020600020905b8154815290600101906020018083116124c557829003601f168201915b5050505050908060020180546124f790614da1565b80601f016020809104026020016040519081016040528092919081815260200182805461252390614da1565b80156125705780601f1061254557610100808354040283529160200191612570565b820191906000526020600020905b81548152906001019060200180831161255357829003601f168201915b50505050509080600301805461258590614da1565b80601f01602080910402602001604051908101604052809291908181526020018280546125b190614da1565b80156125fe5780601f106125d3576101008083540402835291602001916125fe565b820191906000526020600020905b8154815290600101906020018083116125e157829003601f168201915b50505050509080600401805461261390614da1565b80601f016020809104026020016040519081016040528092919081815260200182805461263f90614da1565b801561268c5780601f106126615761010080835404028352916020019161268c565b820191906000526020600020905b81548152906001019060200180831161266f57829003601f168201915b5050505050908060050180546126a190614da1565b80601f01602080910402602001604051908101604052809291908181526020018280546126cd90614da1565b801561271a5780601f106126ef5761010080835404028352916020019161271a565b820191906000526020600020905b8154815290600101906020018083116126fd57829003601f168201915b5050505050905086565b60066020528060005260406000206000915090508060000154908060010160009054906101000a900473ffffffffffffffffffffffffffffffffffffffff169080600201805461277390614da1565b80601f016020809104026020016040519081016040528092919081815260200182805461279f90614da1565b80156127ec5780601f106127c1576101008083540402835291602001916127ec565b820191906000526020600020905b8154815290600101906020018083116127cf57829003601f168201915b5050505050908060030154908060040154905085565b8060108190555050565b60016006600083815260200190815260200160002060030160008282546128339190614c8d565b9250508190555060006006600083815260200190815260200160002060010160009054906101000a900473ffffffffffffffffffffffffffffffffffffffff1690506005600d60008373ffffffffffffffffffffffffffffffffffffffff1673ffffffffffffffffffffffffffffffffffffffff16815260200190815260200160002060040160008282546128c89190614c8d565b925050819055506005600d60003373ffffffffffffffffffffffffffffffffffffffff1673ffffffffffffffffffffffffffffffffffffffff16815260200190815260200160002060050160008282546129229190614c8d565b925050819055505050565b600b602052816000526040600020818154811061294957600080fd5b90600052602060002001600091509150505481565b60008054906101000a900473ffffffffffffffffffffffffffffffffffffffff1681565b6060600c60008373ffffffffffffffffffffffffffffffffffffffff1673ffffffffffffffffffffffffffffffffffffffff16815260200190815260200160002060030180546129d190614da1565b80601f01602080910402602001604051908101604052809291908181526020018280546129fd90614da1565b8015612a4a5780601f10612a1f57610100808354040283529160200191612a4a565b820191906000526020600020905b815481529060010190602001808311612a2d57829003601f168201915b50505050509050919050565b6000600d60008373ffffffffffffffffffffffffffffffffffffffff1673ffffffffffffffffffffffffffffffffffffffff168152602001908152602001600020600701549050919050565b612aaa613db1565b600860008381526020019081526020016000206040518060c0016040529081600082015481526020016001820160009054906101000a900473ffffffffffffffffffffffffffffffffffffffff1673ffffffffffffffffffffffffffffffffffffffff1673ffffffffffffffffffffffffffffffffffffffff168152602001600282018054612b3890614da1565b80601f0160208091040260200160405190810160405280929190818152602001828054612b6490614da1565b8015612bb15780601f10612b8657610100808354040283529160200191612bb1565b820191906000526020600020905b815481529060010190602001808311612b9457829003601f168201915b5050505050815260200160038201548152602001600482015481526020016005820160009054906101000a900460ff1615151515815250509050919050565b60006008600083815260200190815260200160002060010160009054906101000a900473ffffffffffffffffffffffffffffffffffffffff16905060016008600084815260200190815260200160002060050160006101000a81548160ff0219169083151502179055506005600d60008373ffffffffffffffffffffffffffffffffffffffff1673ffffffffffffffffffffffffffffffffffffffff1681526020019081526020016000206004016000828254612cad9190614c8d565b925050819055506005600d60003373ffffffffffffffffffffffffffffffffffffffff1673ffffffffffffffffffffffffffffffffffffffff1681526020019081526020016000206005016000828254612d079190614c8d565b925050819055505050565b6000600d60008373ffffffffffffffffffffffffffffffffffffffff1673ffffffffffffffffffffffffffffffffffffffff168152602001908152602001600020600501549050919050565b60096020528160005260406000208181548110612d7a57600080fd5b90600052602060002001600091509150505481565b612d97613dff565b600a60008381526020019081526020016000206040518060a0016040529081600082015481526020016001820160009054906101000a900473ffffffffffffffffffffffffffffffffffffffff1673ffffffffffffffffffffffffffffffffffffffff1673ffffffffffffffffffffffffffffffffffffffff168152602001600282018054612e2590614da1565b80601f0160208091040260200160405190810160405280929190818152602001828054612e5190614da1565b8015612e9e5780601f10612e7357610100808354040283529160200191612e9e565b820191906000526020600020905b815481529060010190602001808311612e8157829003601f168201915b50505050508152602001600382015481526020016004820154815250509050919050565b60055481565b6000600d60008373ffffffffffffffffffffffffffffffffffffffff1673ffffffffffffffffffffffffffffffffffffffff168152602001908152602001600020600601549050919050565b80600d60008473ffffffffffffffffffffffffffffffffffffffff1673ffffffffffffffffffffffffffffffffffffffff1681526020019081526020016000206007016000828254612f669190614c8d565b925050819055505050565b80600a6000848152602001908152602001600020600401819055505050565b6000600a6000838152602001908152602001600020600401549050919050565b6001600860008381526020019081526020016000206004016000828254612fd79190614c8d565b9250508190555060006008600083815260200190815260200160002060010160009054906101000a900473ffffffffffffffffffffffffffffffffffffffff1690506005600d60008373ffffffffffffffffffffffffffffffffffffffff1673ffffffffffffffffffffffffffffffffffffffff168152602001908152602001600020600401600082825461306c9190614ce3565b925050819055506005600d60003373ffffffffffffffffffffffffffffffffffffffff1673ffffffffffffffffffffffffffffffffffffffff16815260200190815260200160002060050160008282546130c69190614ce3565b925050819055505050565b6000600d60008373ffffffffffffffffffffffffffffffffffffffff1673ffffffffffffffffffffffffffffffffffffffff168152602001908152602001600020600401549050919050565b6060600c60008373ffffffffffffffffffffffffffffffffffffffff1673ffffffffffffffffffffffffffffffffffffffff168152602001908152602001600020600101805461316c90614da1565b80601f016020809104026020016040519081016040528092919081815260200182805461319890614da1565b80156131e55780601f106131ba576101008083540402835291602001916131e5565b820191906000526020600020905b8154815290600101906020018083116131c857829003601f168201915b50505050509050919050565b6131f9613e44565b600660008381526020019081526020016000206040518060c0016040529081600082015481526020016001820160009054906101000a900473ffffffffffffffffffffffffffffffffffffffff1673ffffffffffffffffffffffffffffffffffffffff1673ffffffffffffffffffffffffffffffffffffffff16815260200160028201805461328790614da1565b80601f01602080910402602001604051908101604052809291908181526020018280546132b390614da1565b80156133005780601f106132d557610100808354040283529160200191613300565b820191906000526020600020905b8154815290600101906020018083116132e357829003601f168201915b5050505050815260200160038201548152602001600482015481526020016005820180548060200260200160405190810160405280929190818152602001828054801561336c57602002820191906000526020600020905b815481526020019060010190808311613358575b5050505050815250509050919050565b6060600180548060200260200160405190810160405280929190818152602001828054801561340057602002820191906000526020600020905b8160009054906101000a900473ffffffffffffffffffffffffffffffffffffffff1673ffffffffffffffffffffffffffffffffffffffff16815260200190600101908083116133b6575b5050505050905090565b6000600a600083815260200190815260200160002060010160009054906101000a900473ffffffffffffffffffffffffffffffffffffffff169050919050565b600d6020528060005260406000206000915090508060000160009054906101000a900473ffffffffffffffffffffffffffffffffffffffff16908060010154908060020154908060030154908060040154908060050154908060060154908060070154908060080154905089565b600260003373ffffffffffffffffffffffffffffffffffffffff1673ffffffffffffffffffffffffffffffffffffffff16815260200190815260200160002060009054906101000a900460ff166135c5576001339080600181540180825580915050600190039060005260206000200160009091909190916101000a81548173ffffffffffffffffffffffffffffffffffffffff021916908373ffffffffffffffffffffffffffffffffffffffff1602179055506001600260003373ffffffffffffffffffffffffffffffffffffffff1673ffffffffffffffffffffffffffffffffffffffff16815260200190815260200160002060006101000a81548160ff0219169083151502179055505b33600c60003373ffffffffffffffffffffffffffffffffffffffff1673ffffffffffffffffffffffffffffffffffffffff16815260200190815260200160002060000160006101000a81548173ffffffffffffffffffffffffffffffffffffffff021916908373ffffffffffffffffffffffffffffffffffffffff16021790555085600c60003373ffffffffffffffffffffffffffffffffffffffff1673ffffffffffffffffffffffffffffffffffffffff168152602001908152602001600020600101908051906020019061369c929190613cde565b5084600c60003373ffffffffffffffffffffffffffffffffffffffff1673ffffffffffffffffffffffffffffffffffffffff16815260200190815260200160002060020190805190602001906136f3929190613cde565b5083600c60003373ffffffffffffffffffffffffffffffffffffffff1673ffffffffffffffffffffffffffffffffffffffff168152602001908152602001600020600301908051906020019061374a929190613cde565b5082600c60003373ffffffffffffffffffffffffffffffffffffffff1673ffffffffffffffffffffffffffffffffffffffff16815260200190815260200160002060040190805190602001906137a1929190613cde565b5081600c60003373ffffffffffffffffffffffffffffffffffffffff1673ffffffffffffffffffffffffffffffffffffffff16815260200190815260200160002060050190805190602001906137f8929190613cde565b5080600c60003373ffffffffffffffffffffffffffffffffffffffff1673ffffffffffffffffffffffffffffffffffffffff168152602001908152602001600020600601908051906020019061384f929190613e90565b5033600d60003373ffffffffffffffffffffffffffffffffffffffff1673ffffffffffffffffffffffffffffffffffffffff16815260200190815260200160002060000160006101000a81548173ffffffffffffffffffffffffffffffffffffffff021916908373ffffffffffffffffffffffffffffffffffffffff1602179055506000600d60003373ffffffffffffffffffffffffffffffffffffffff1673ffffffffffffffffffffffffffffffffffffffff168152602001908152602001600020600101819055506000600d60003373ffffffffffffffffffffffffffffffffffffffff1673ffffffffffffffffffffffffffffffffffffffff168152602001908152602001600020600201819055506000600d60003373ffffffffffffffffffffffffffffffffffffffff1673ffffffffffffffffffffffffffffffffffffffff168152602001908152602001600020600401819055506000600d60003373ffffffffffffffffffffffffffffffffffffffff1673ffffffffffffffffffffffffffffffffffffffff168152602001908152602001600020600501819055506000600d60003373ffffffffffffffffffffffffffffffffffffffff1673ffffffffffffffffffffffffffffffffffffffff168152602001908152602001600020600601819055506000600d60003373ffffffffffffffffffffffffffffffffffffffff1673ffffffffffffffffffffffffffffffffffffffff168152602001908152602001600020600701819055506000600d60003373ffffffffffffffffffffffffffffffffffffffff1673ffffffffffffffffffffffffffffffffffffffff16815260200190815260200160002060080181905550505050505050565b80600d60008473ffffffffffffffffffffffffffffffffffffffff1673ffffffffffffffffffffffffffffffffffffffff168152602001908152602001600020600401819055505050565b6000601054905090565b6000600d60008373ffffffffffffffffffffffffffffffffffffffff1673ffffffffffffffffffffffffffffffffffffffff168152602001908152602001600020600201549050919050565b6001600660008381526020019081526020016000206004016000828254613b999190614c8d565b9250508190555060006006600083815260200190815260200160002060010160009054906101000a900473ffffffffffffffffffffffffffffffffffffffff1690506005600d60008373ffffffffffffffffffffffffffffffffffffffff1673ffffffffffffffffffffffffffffffffffffffff1681526020019081526020016000206004016000828254613c2e9190614ce3565b925050819055506005600d60003373ffffffffffffffffffffffffffffffffffffffff1673ffffffffffffffffffffffffffffffffffffffff1681526020019081526020016000206005016000828254613c889190614ce3565b925050819055505050565b80600d60008473ffffffffffffffffffffffffffffffffffffffff1673ffffffffffffffffffffffffffffffffffffffff168152602001908152602001600020600801819055505050565b828054613cea90614da1565b90600052602060002090601f016020900481019282613d0c5760008555613d53565b82601f10613d2557805160ff1916838001178555613d53565b82800160010185558215613d53579182015b82811115613d52578251825591602001919060010190613d37565b5b509050613d609190613ef0565b5090565b828054828255906000526020600020908101928215613da0579160200282015b82811115613d9f578251825591602001919060010190613d84565b5b509050613dad9190613ef0565b5090565b6040518060c0016040528060008152602001600073ffffffffffffffffffffffffffffffffffffffff1681526020016060815260200160008152602001600081526020016000151581525090565b6040518060a0016040528060008152602001600073ffffffffffffffffffffffffffffffffffffffff1681526020016060815260200160008152602001600081525090565b6040518060c0016040528060008152602001600073ffffffffffffffffffffffffffffffffffffffff168152602001606081526020016000815260200160008152602001606081525090565b828054828255906000526020600020908101928215613edf579160200282015b82811115613ede578251829080519060200190613ece929190613cde565b5091602001919060010190613eb0565b5b509050613eec9190613f0d565b5090565b5b80821115613f09576000816000905550600101613ef1565b5090565b5b80821115613f2d5760008181613f249190613f31565b50600101613f0e565b5090565b508054613f3d90614da1565b6000825580601f10613f4f5750613f6e565b601f016020900490600052602060002090810190613f6d9190613ef0565b5b50565b6000613f84613f7f84614b3c565b614b17565b90508083825260208201905082856020860282011115613fa357600080fd5b60005b85811015613fed57813567ffffffffffffffff811115613fc557600080fd5b808601613fd28982614074565b85526020850194506020840193505050600181019050613fa6565b5050509392505050565b600061400a61400584614b68565b614b17565b90508281526020810184848401111561402257600080fd5b61402d848285614d5f565b509392505050565b60008135905061404481614eeb565b92915050565b600082601f83011261405b57600080fd5b813561406b848260208601613f71565b91505092915050565b600082601f83011261408557600080fd5b8135614095848260208601613ff7565b91505092915050565b6000813590506140ad81614f02565b92915050565b6000602082840312156140c557600080fd5b60006140d384828501614035565b91505092915050565b600080604083850312156140ef57600080fd5b60006140fd85828601614035565b925050602083013567ffffffffffffffff81111561411a57600080fd5b61412685828601614074565b9150509250929050565b6000806040838503121561414357600080fd5b600061415185828601614035565b92505060206141628582860161409e565b9150509250929050565b6000806040838503121561417f57600080fd5b600083013567ffffffffffffffff81111561419957600080fd5b6141a585828601614074565b925050602083013567ffffffffffffffff8111156141c257600080fd5b6141ce8582860161404a565b9150509250929050565b60008060008060008060c087890312156141f157600080fd5b600087013567ffffffffffffffff81111561420b57600080fd5b61421789828a01614074565b965050602087013567ffffffffffffffff81111561423457600080fd5b61424089828a01614074565b955050604087013567ffffffffffffffff81111561425d57600080fd5b61426989828a01614074565b945050606087013567ffffffffffffffff81111561428657600080fd5b61429289828a01614074565b935050608087013567ffffffffffffffff8111156142af57600080fd5b6142bb89828a01614074565b92505060a087013567ffffffffffffffff8111156142d857600080fd5b6142e489828a0161404a565b9150509295509295509295565b60006020828403121561430357600080fd5b60006143118482850161409e565b91505092915050565b6000806040838503121561432d57600080fd5b600061433b8582860161409e565b925050602083013567ffffffffffffffff81111561435857600080fd5b61436485828601614074565b9150509250929050565b6000806040838503121561438157600080fd5b600061438f8582860161409e565b92505060206143a08582860161409e565b9150509250929050565b60006143b683836143ee565b60208301905092915050565b60006143ce83836145b9565b905092915050565b60006143e283836147eb565b60208301905092915050565b6143f781614d17565b82525050565b61440681614d17565b82525050565b600061441782614bc9565b6144218185614c1c565b935061442c83614b99565b8060005b8381101561445d57815161444488826143aa565b975061444f83614bf5565b925050600181019050614430565b5085935050505092915050565b600061447582614bd4565b61447f8185614c2d565b93508360208202850161449185614ba9565b8060005b858110156144cd57848403895281516144ae85826143c2565b94506144b983614c02565b925060208a01995050600181019050614495565b50829750879550505050505092915050565b60006144ea82614bdf565b6144f48185614c3e565b93506144ff83614bb9565b8060005b8381101561453057815161451788826143d6565b975061452283614c0f565b925050600181019050614503565b5085935050505092915050565b600061454882614bdf565b6145528185614c4f565b935061455d83614bb9565b8060005b8381101561458e57815161457588826143d6565b975061458083614c0f565b925050600181019050614561565b5085935050505092915050565b6145a481614d29565b82525050565b6145b381614d29565b82525050565b60006145c482614bea565b6145ce8185614c60565b93506145de818560208601614d6e565b6145e781614eda565b840191505092915050565b60006145fd82614bea565b6146078185614c71565b9350614617818560208601614d6e565b61462081614eda565b840191505092915050565b600061463682614bea565b6146408185614c82565b9350614650818560208601614d6e565b80840191505092915050565b600060c08301600083015161467460008601826147eb565b50602083015161468760208601826143ee565b506040830151848203604086015261469f82826145b9565b91505060608301516146b460608601826147eb565b5060808301516146c760808601826147eb565b5060a08301516146da60a086018261459b565b508091505092915050565b600060a0830160008301516146fd60008601826147eb565b50602083015161471060208601826143ee565b506040830151848203604086015261472882826145b9565b915050606083015161473d60608601826147eb565b50608083015161475060808601826147eb565b508091505092915050565b600060c08301600083015161477360008601826147eb565b50602083015161478660208601826143ee565b506040830151848203604086015261479e82826145b9565b91505060608301516147b360608601826147eb565b5060808301516147c660808601826147eb565b5060a083015184820360a08601526147de82826144df565b9150508091505092915050565b6147f481614d55565b82525050565b61480381614d55565b82525050565b6000614815828461462b565b915081905092915050565b600060208201905061483560008301846143fd565b92915050565b600060c08201905061485060008301896143fd565b818103602083015261486281886145f2565b9050818103604083015261487681876145f2565b9050818103606083015261488a81866145f2565b9050818103608083015261489e81856145f2565b905081810360a08301526148b281846145f2565b9050979650505050505050565b6000610120820190506148d5600083018c6143fd565b6148e2602083018b6147fa565b6148ef604083018a6147fa565b6148fc60608301896147fa565b61490960808301886147fa565b61491660a08301876147fa565b61492360c08301866147fa565b61493060e08301856147fa565b61493e6101008301846147fa565b9a9950505050505050505050565b60006020820190508181036000830152614966818461440c565b905092915050565b60006020820190508181036000830152614988818461446a565b905092915050565b600060208201905081810360008301526149aa818461453d565b905092915050565b600060208201905081810360008301526149cc81846145f2565b905092915050565b600060208201905081810360008301526149ee818461465c565b905092915050565b60006020820190508181036000830152614a1081846146e5565b905092915050565b60006020820190508181036000830152614a32818461475b565b905092915050565b6000602082019050614a4f60008301846147fa565b92915050565b600060a082019050614a6a60008301886147fa565b614a7760208301876143fd565b8181036040830152614a8981866145f2565b9050614a9860608301856147fa565b614aa560808301846147fa565b9695505050505050565b600060c082019050614ac460008301896147fa565b614ad160208301886143fd565b8181036040830152614ae381876145f2565b9050614af260608301866147fa565b614aff60808301856147fa565b614b0c60a08301846145aa565b979650505050505050565b6000614b21614b32565b9050614b2d8282614dd3565b919050565b6000604051905090565b600067ffffffffffffffff821115614b5757614b56614eab565b5b602082029050602081019050919050565b600067ffffffffffffffff821115614b8357614b82614eab565b5b614b8c82614eda565b9050602081019050919050565b6000819050602082019050919050565b6000819050602082019050919050565b6000819050602082019050919050565b600081519050919050565b600081519050919050565b600081519050919050565b600081519050919050565b6000602082019050919050565b6000602082019050919050565b6000602082019050919050565b600082825260208201905092915050565b600082825260208201905092915050565b600082825260208201905092915050565b600082825260208201905092915050565b600082825260208201905092915050565b600082825260208201905092915050565b600081905092915050565b6000614c9882614d55565b9150614ca383614d55565b9250827fffffffffffffffffffffffffffffffffffffffffffffffffffffffffffffffff03821115614cd857614cd7614e4d565b5b828201905092915050565b6000614cee82614d55565b9150614cf983614d55565b925082821015614d0c57614d0b614e4d565b5b828203905092915050565b6000614d2282614d35565b9050919050565b60008115159050919050565b600073ffffffffffffffffffffffffffffffffffffffff82169050919050565b6000819050919050565b82818337600083830152505050565b60005b83811015614d8c578082015181840152602081019050614d71565b83811115614d9b576000848401525b50505050565b60006002820490506001821680614db957607f821691505b60208210811415614dcd57614dcc614e7c565b5b50919050565b614ddc82614eda565b810181811067ffffffffffffffff82111715614dfb57614dfa614eab565b5b80604052505050565b6000614e0f82614d55565b91507fffffffffffffffffffffffffffffffffffffffffffffffffffffffffffffffff821415614e4257614e41614e4d565b5b600182019050919050565b7f4e487b7100000000000000000000000000000000000000000000000000000000600052601160045260246000fd5b7f4e487b7100000000000000000000000000000000000000000000000000000000600052602260045260246000fd5b7f4e487b7100000000000000000000000000000000000000000000000000000000600052604160045260246000fd5b6000601f19601f8301169050919050565b614ef481614d17565b8114614eff57600080fd5b50565b614f0b81614d55565b8114614f1657600080fd5b5056fea2646970667358221220ee3a1ed34642095274065a0f381b9a220125e8ccedd5b6bf4a6a20de6bbeef5a64736f6c63430008040033",
  "linkReferences": {},
  "deployedLinkReferences": {}
}