{
  "_format": "hh-sol-artifact-1",
  "contractName": "Stack",
  "sourceName": "contracts/Stack.sol",
  "abi": [
    {
      "inputs": [],
      "stateMutability": "nonpayable",
      "type": "constructor"
    },
    {
      "inputs": [
        {
          "internalType": "uint256",
          "name": "aid",
          "type": "uint256"
        }
      ],
      "name": "a_downvote",
      "outputs": [],
      "stateMutability": "nonpayable",
      "type": "function"
    },
    {
      "inputs": [],
      "name": "a_id",
      "outputs": [
        {
          "internalType": "uint256",
          "name": "",
          "type": "uint256"
        }
      ],
      "stateMutability": "view",
      "type": "function"
    },
    {
      "inputs": [
        {
          "internalType": "uint256",
          "name": "aid",
          "type": "uint256"
        }
      ],
      "name": "a_upVote",
      "outputs": [],
      "stateMutability": "nonpayable",
      "type": "function"
    },
    {
      "inputs": [
        {
          "internalType": "uint256",
          "name": "qid",
          "type": "uint256"
        },
        {
          "internalType": "string",
          "name": "a_cid",
          "type": "string"
        }
      ],
      "name": "addAnswer",
      "outputs": [],
      "stateMutability": "nonpayable",
      "type": "function"
    },
    {
      "inputs": [
        {
          "internalType": "string",
          "name": "article_cid",
          "type": "string"
        }
      ],
      "name": "addArticle",
      "outputs": [],
      "stateMutability": "nonpayable",
      "type": "function"
    },
    {
      "inputs": [
        {
          "internalType": "uint256",
          "name": "articleid",
          "type": "uint256"
        }
      ],
      "name": "addLike",
      "outputs": [],
      "stateMutability": "nonpayable",
      "type": "function"
    },
    {
      "inputs": [
        {
          "internalType": "string",
          "name": "q_cid",
          "type": "string"
        },
        {
          "internalType": "string[]",
          "name": "tag_name",
          "type": "string[]"
        }
      ],
      "name": "addQuestion",
      "outputs": [],
      "stateMutability": "nonpayable",
      "type": "function"
    },
    {
      "inputs": [
        {
          "internalType": "address",
          "name": "",
          "type": "address"
        },
        {
          "internalType": "string",
          "name": "",
          "type": "string"
        }
      ],
      "name": "addressToTagToScore",
      "outputs": [
        {
          "internalType": "uint256",
          "name": "",
          "type": "uint256"
        }
      ],
      "stateMutability": "view",
      "type": "function"
    },
    {
      "inputs": [
        {
          "internalType": "address",
          "name": "",
          "type": "address"
        }
      ],
      "name": "addressToUser",
      "outputs": [
        {
          "internalType": "address",
          "name": "user",
          "type": "address"
        },
        {
          "internalType": "string",
          "name": "name",
          "type": "string"
        },
        {
          "internalType": "string",
          "name": "email",
          "type": "string"
        },
        {
          "internalType": "string",
          "name": "designation",
          "type": "string"
        },
        {
          "internalType": "uint256",
          "name": "noOfQuestions",
          "type": "uint256"
        },
        {
          "internalType": "uint256",
          "name": "noOfAnswers",
          "type": "uint256"
        },
        {
          "internalType": "uint256",
          "name": "totalScore",
          "type": "uint256"
        },
        {
          "internalType": "uint256",
          "name": "totalReward",
          "type": "uint256"
        },
        {
          "internalType": "uint256",
          "name": "totalRedeem",
          "type": "uint256"
        },
        {
          "internalType": "uint256",
          "name": "totalTip",
          "type": "uint256"
        }
      ],
      "stateMutability": "view",
      "type": "function"
    },
    {
      "inputs": [
        {
          "internalType": "uint256",
          "name": "aid",
          "type": "uint256"
        }
      ],
      "name": "approve",
      "outputs": [],
      "stateMutability": "nonpayable",
      "type": "function"
    },
    {
      "inputs": [],
      "name": "article_id",
      "outputs": [
        {
          "internalType": "uint256",
          "name": "",
          "type": "uint256"
        }
      ],
      "stateMutability": "view",
      "type": "function"
    },
    {
      "inputs": [],
      "name": "claimRewards",
      "outputs": [],
      "stateMutability": "nonpayable",
      "type": "function"
    },
    {
      "inputs": [
        {
          "internalType": "string",
          "name": "name",
          "type": "string"
        },
        {
          "internalType": "string",
          "name": "email",
          "type": "string"
        },
        {
          "internalType": "string",
          "name": "designation",
          "type": "string"
        },
        {
          "internalType": "string[]",
          "name": "listOfTags",
          "type": "string[]"
        }
      ],
      "name": "createProfile",
      "outputs": [],
      "stateMutability": "nonpayable",
      "type": "function"
    },
    {
      "inputs": [],
      "name": "getAllUserAnswersId",
      "outputs": [
        {
          "internalType": "uint256[]",
          "name": "",
          "type": "uint256[]"
        }
      ],
      "stateMutability": "view",
      "type": "function"
    },
    {
      "inputs": [],
      "name": "getAllUserArticlesId",
      "outputs": [
        {
          "internalType": "uint256[]",
          "name": "",
          "type": "uint256[]"
        }
      ],
      "stateMutability": "view",
      "type": "function"
    },
    {
      "inputs": [],
      "name": "getAllUserQuestionsId",
      "outputs": [
        {
          "internalType": "uint256[]",
          "name": "",
          "type": "uint256[]"
        }
      ],
      "stateMutability": "view",
      "type": "function"
    },
    {
      "inputs": [
        {
          "internalType": "uint256",
          "name": "aid",
          "type": "uint256"
        }
      ],
      "name": "getAnswer",
      "outputs": [
        {
          "components": [
            {
              "internalType": "uint256",
              "name": "a_id",
              "type": "uint256"
            },
            {
              "internalType": "address",
              "name": "user",
              "type": "address"
            },
            {
              "internalType": "string",
              "name": "a_cid",
              "type": "string"
            },
            {
              "internalType": "uint256",
              "name": "a_upvote",
              "type": "uint256"
            },
            {
              "internalType": "uint256",
              "name": "a_downvote",
              "type": "uint256"
            },
            {
              "internalType": "bool",
              "name": "isApproved",
              "type": "bool"
            }
          ],
          "internalType": "struct Stack.AnswerInfo",
          "name": "",
          "type": "tuple"
        }
      ],
      "stateMutability": "view",
      "type": "function"
    },
    {
      "inputs": [
        {
          "internalType": "uint256",
          "name": "articleid",
          "type": "uint256"
        }
      ],
      "name": "getArticle",
      "outputs": [
        {
          "components": [
            {
              "internalType": "uint256",
              "name": "article_id",
              "type": "uint256"
            },
            {
              "internalType": "address",
              "name": "user",
              "type": "address"
            },
            {
              "internalType": "string",
              "name": "article_cid",
              "type": "string"
            },
            {
              "internalType": "uint256",
              "name": "noOfLikes",
              "type": "uint256"
            },
            {
              "internalType": "uint256",
              "name": "tip",
              "type": "uint256"
            }
          ],
          "internalType": "struct Stack.ArticleInfo",
          "name": "",
          "type": "tuple"
        }
      ],
      "stateMutability": "view",
      "type": "function"
    },
    {
      "inputs": [
        {
          "internalType": "uint256",
          "name": "qid",
          "type": "uint256"
        }
      ],
      "name": "getQuestion",
      "outputs": [
        {
          "components": [
            {
              "internalType": "uint256",
              "name": "q_id",
              "type": "uint256"
            },
            {
              "internalType": "address",
              "name": "user",
              "type": "address"
            },
            {
              "internalType": "string",
              "name": "q_cid",
              "type": "string"
            },
            {
              "internalType": "uint256",
              "name": "q_upvote",
              "type": "uint256"
            },
            {
              "internalType": "uint256",
              "name": "q_downvote",
              "type": "uint256"
            },
            {
              "internalType": "uint256[]",
              "name": "ans_id",
              "type": "uint256[]"
            }
          ],
          "internalType": "struct Stack.QuestionInfo",
          "name": "",
          "type": "tuple"
        }
      ],
      "stateMutability": "view",
      "type": "function"
    },
    {
      "inputs": [
        {
          "internalType": "uint256",
          "name": "articleid",
          "type": "uint256"
        }
      ],
      "name": "getTipFromArticleId",
      "outputs": [
        {
          "internalType": "uint256",
          "name": "",
          "type": "uint256"
        }
      ],
      "stateMutability": "view",
      "type": "function"
    },
    {
      "inputs": [],
      "name": "getTokensSold",
      "outputs": [
        {
          "internalType": "uint256",
          "name": "",
          "type": "uint256"
        }
      ],
      "stateMutability": "view",
      "type": "function"
    },
    {
      "inputs": [
        {
          "internalType": "uint256",
          "name": "articleid",
          "type": "uint256"
        }
      ],
      "name": "getUserFromArticleId",
      "outputs": [
        {
          "internalType": "address",
          "name": "",
          "type": "address"
        }
      ],
      "stateMutability": "view",
      "type": "function"
    },
    {
      "inputs": [],
      "name": "getUserTage",
      "outputs": [
        {
          "internalType": "string[]",
          "name": "",
          "type": "string[]"
        }
      ],
      "stateMutability": "view",
      "type": "function"
    },
    {
      "inputs": [
        {
          "internalType": "address",
          "name": "user",
          "type": "address"
        }
      ],
      "name": "getUserTotalTip",
      "outputs": [
        {
          "internalType": "uint256",
          "name": "",
          "type": "uint256"
        }
      ],
      "stateMutability": "view",
      "type": "function"
    },
    {
      "inputs": [
        {
          "internalType": "uint256",
          "name": "",
          "type": "uint256"
        }
      ],
      "name": "idToAnswer",
      "outputs": [
        {
          "internalType": "uint256",
          "name": "a_id",
          "type": "uint256"
        },
        {
          "internalType": "address",
          "name": "user",
          "type": "address"
        },
        {
          "internalType": "string",
          "name": "a_cid",
          "type": "string"
        },
        {
          "internalType": "uint256",
          "name": "a_upvote",
          "type": "uint256"
        },
        {
          "internalType": "uint256",
          "name": "a_downvote",
          "type": "uint256"
        },
        {
          "internalType": "bool",
          "name": "isApproved",
          "type": "bool"
        }
      ],
      "stateMutability": "view",
      "type": "function"
    },
    {
      "inputs": [
        {
          "internalType": "uint256",
          "name": "",
          "type": "uint256"
        }
      ],
      "name": "idToArticle",
      "outputs": [
        {
          "internalType": "uint256",
          "name": "article_id",
          "type": "uint256"
        },
        {
          "internalType": "address",
          "name": "user",
          "type": "address"
        },
        {
          "internalType": "string",
          "name": "article_cid",
          "type": "string"
        },
        {
          "internalType": "uint256",
          "name": "noOfLikes",
          "type": "uint256"
        },
        {
          "internalType": "uint256",
          "name": "tip",
          "type": "uint256"
        }
      ],
      "stateMutability": "view",
      "type": "function"
    },
    {
      "inputs": [
        {
          "internalType": "uint256",
          "name": "",
          "type": "uint256"
        }
      ],
      "name": "idToQuestion",
      "outputs": [
        {
          "internalType": "uint256",
          "name": "q_id",
          "type": "uint256"
        },
        {
          "internalType": "address",
          "name": "user",
          "type": "address"
        },
        {
          "internalType": "string",
          "name": "q_cid",
          "type": "string"
        },
        {
          "internalType": "uint256",
          "name": "q_upvote",
          "type": "uint256"
        },
        {
          "internalType": "uint256",
          "name": "q_downvote",
          "type": "uint256"
        }
      ],
      "stateMutability": "view",
      "type": "function"
    },
    {
      "inputs": [],
      "name": "owner",
      "outputs": [
        {
          "internalType": "address",
          "name": "",
          "type": "address"
        }
      ],
      "stateMutability": "view",
      "type": "function"
    },
    {
      "inputs": [
        {
          "internalType": "uint256",
          "name": "qid",
          "type": "uint256"
        }
      ],
      "name": "q_downvote",
      "outputs": [],
      "stateMutability": "nonpayable",
      "type": "function"
    },
    {
      "inputs": [],
      "name": "q_id",
      "outputs": [
        {
          "internalType": "uint256",
          "name": "",
          "type": "uint256"
        }
      ],
      "stateMutability": "view",
      "type": "function"
    },
    {
      "inputs": [
        {
          "internalType": "uint256",
          "name": "qid",
          "type": "uint256"
        }
      ],
      "name": "q_upVote",
      "outputs": [],
      "stateMutability": "nonpayable",
      "type": "function"
    },
    {
      "inputs": [
        {
          "internalType": "uint256",
          "name": "articleid",
          "type": "uint256"
        },
        {
          "internalType": "uint256",
          "name": "tip",
          "type": "uint256"
        }
      ],
      "name": "setTipFromArticleId",
      "outputs": [],
      "stateMutability": "nonpayable",
      "type": "function"
    },
    {
      "inputs": [
        {
          "internalType": "uint256",
          "name": "tokei",
          "type": "uint256"
        }
      ],
      "name": "setTokenSold",
      "outputs": [],
      "stateMutability": "nonpayable",
      "type": "function"
    },
    {
      "inputs": [
        {
          "internalType": "address",
          "name": "user",
          "type": "address"
        },
        {
          "internalType": "uint256",
          "name": "totaltip",
          "type": "uint256"
        }
      ],
      "name": "setUserTotalTip",
      "outputs": [],
      "stateMutability": "nonpayable",
      "type": "function"
    },
    {
      "inputs": [],
      "name": "tokensSold",
      "outputs": [
        {
          "internalType": "uint256",
          "name": "",
          "type": "uint256"
        }
      ],
      "stateMutability": "view",
      "type": "function"
    },
    {
      "inputs": [
        {
          "internalType": "address",
          "name": "",
          "type": "address"
        },
        {
          "internalType": "uint256",
          "name": "",
          "type": "uint256"
        }
      ],
      "name": "userToAnswers",
      "outputs": [
        {
          "internalType": "uint256",
          "name": "",
          "type": "uint256"
        }
      ],
      "stateMutability": "view",
      "type": "function"
    },
    {
      "inputs": [
        {
          "internalType": "address",
          "name": "",
          "type": "address"
        },
        {
          "internalType": "uint256",
          "name": "",
          "type": "uint256"
        }
      ],
      "name": "userToArticle",
      "outputs": [
        {
          "internalType": "uint256",
          "name": "",
          "type": "uint256"
        }
      ],
      "stateMutability": "view",
      "type": "function"
    },
    {
      "inputs": [
        {
          "internalType": "address",
          "name": "",
          "type": "address"
        },
        {
          "internalType": "uint256",
          "name": "",
          "type": "uint256"
        }
      ],
      "name": "userToQuestions",
      "outputs": [
        {
          "internalType": "uint256",
          "name": "",
          "type": "uint256"
        }
      ],
      "stateMutability": "view",
      "type": "function"
    },
    {
      "inputs": [
        {
          "internalType": "uint256",
          "name": "",
          "type": "uint256"
        }
      ],
      "name": "users",
      "outputs": [
        {
          "internalType": "address",
          "name": "",
          "type": "address"
        }
      ],
      "stateMutability": "view",
      "type": "function"
    }
  ],
  "bytecode": "0x60806040526064600d556000600e5534801561001a57600080fd5b50336000806101000a81548173ffffffffffffffffffffffffffffffffffffffff021916908373ffffffffffffffffffffffffffffffffffffffff16021790555061365f8061006a6000396000f3fe608060405234801561001057600080fd5b506004361061023d5760003560e01c80637491995a1161013b578063c757d53c116100b8578063e6bb0c391161007c578063e6bb0c391461070b578063edf538861461073b578063ee7c0db014610774578063f824333a14610792578063f989128c146107ae5761023d565b8063c757d53c14610655578063ce9e793b14610673578063d075d4a61461068f578063d14083fd146106bf578063db88176f146106db5761023d565b80638da5cb5b116100ff5780638da5cb5b1461058b578063b5ab58dc146105a9578063b759f954146105d9578063bc08bdfe146105f5578063bd85d867146106255761023d565b80637491995a146104d35780637ca490dc146104ef5780637efe79391461052357806380acf04f1461053f57806386eeed0f1461055b5761023d565b8063365b98b2116101c95780634d5e42771161018d5780634d5e42771461042a578063518ab2a814610446578063619d40c014610464578063649c8638146104825780636e1467ed1461049e5761023d565b8063365b98b214610370578063372500ab146103a0578063378a35cd146103aa5780633e8f032d146103c657806348500abc146103f65761023d565b80631967accc116102105780631967accc146102ca57806320405979146102e65780632101ca87146103165780632b35b5ae1461033457806333934907146103525761023d565b806301cb3e63146102425780630b43f7c5146102605780630c971a4614610290578063165acb58146102ac575b600080fd5b61024a6107ca565b60405161025791906130fb565b60405180910390f35b61027a60048036038101906102759190612954565b61085f565b6040516102879190613183565b60405180910390f35b6102aa60048036038101906102a591906129e4565b61089a565b005b6102b4610a54565b6040516102c191906130fb565b60405180910390f35b6102e460048036038101906102df9190612b54565b610ae9565b005b61030060048036038101906102fb91906129a8565b610bb0565b60405161030d9190613183565b60405180910390f35b61031e610be1565b60405161032b9190613183565b60405180910390f35b61033c610be7565b60405161034991906130fb565b60405180910390f35b61035a610c7c565b6040516103679190613183565b60405180910390f35b61038a60048036038101906103859190612b54565b610c82565b604051610397919061300d565b60405180910390f35b6103a8610cc1565b005b6103c460048036038101906103bf9190612b54565b610cc3565b005b6103e060048036038101906103db919061292b565b610cf4565b6040516103ed9190613183565b60405180910390f35b610410600480360381019061040b9190612b54565b610d40565b60405161042195949392919061319e565b60405180910390f35b610444600480360381019061043f9190612a91565b610e1e565b005b61044e610fae565b60405161045b9190613183565b60405180910390f35b61046c610fb4565b60405161047991906130d9565b60405180910390f35b61049c60048036038101906104979190612a25565b6110cd565b005b6104b860048036038101906104b39190612b54565b61166b565b6040516104ca969594939291906131f8565b60405180910390f35b6104ed60048036038101906104e89190612b7d565b61175c565b005b61050960048036038101906105049190612b54565b6119d9565b60405161051a95949392919061319e565b60405180910390f35b61053d60048036038101906105389190612b54565b611ab7565b005b61055960048036038101906105549190612b54565b611ac1565b005b610575600480360381019061057091906129a8565b611b88565b6040516105829190613183565b60405180910390f35b610593611bb9565b6040516105a0919061300d565b60405180910390f35b6105c360048036038101906105be9190612b54565b611bdd565b6040516105d0919061311d565b60405180910390f35b6105f360048036038101906105ee9190612b54565b611d2b565b005b61060f600480360381019061060a91906129a8565b611df3565b60405161061c9190613183565b60405180910390f35b61063f600480360381019061063a9190612b54565b611e24565b60405161064c919061313f565b60405180910390f35b61065d611f57565b60405161066a9190613183565b60405180910390f35b61068d60048036038101906106889190612bd1565b611f5d565b005b6106a960048036038101906106a49190612b54565b611f7c565b6040516106b69190613183565b60405180910390f35b6106d960048036038101906106d49190612b54565b611f9c565b005b6106f560048036038101906106f09190612b54565b612063565b6040516107029190613161565b60405180910390f35b61072560048036038101906107209190612b54565b6121ee565b604051610732919061300d565b60405180910390f35b6107556004803603810190610750919061292b565b61222e565b60405161076b9a99989796959493929190613028565b60405180910390f35b61077c61243a565b6040516107899190613183565b60405180910390f35b6107ac60048036038101906107a79190612b54565b612444565b005b6107c860048036038101906107c391906129a8565b61250b565b005b6060600860003373ffffffffffffffffffffffffffffffffffffffff1673ffffffffffffffffffffffffffffffffffffffff16815260200190815260200160002080548060200260200160405190810160405280929190818152602001828054801561085557602002820191906000526020600020905b815481526020019060010190808311610841575b5050505050905090565b600c60205281600052604060002081805160208101820180518482526020830160208501208183528095505050505050600091509150505481565b6001600460008282546108ad919061339d565b925050819055506040518060a0016040528060045481526020013373ffffffffffffffffffffffffffffffffffffffff1681526020018281526020016000815260200160008152506009600060045481526020019081526020016000206000820151816000015560208201518160010160006101000a81548173ffffffffffffffffffffffffffffffffffffffff021916908373ffffffffffffffffffffffffffffffffffffffff1602179055506040820151816002019080519060200190610977929190612556565b506060820151816003015560808201518160040155905050600a60003373ffffffffffffffffffffffffffffffffffffffff1673ffffffffffffffffffffffffffffffffffffffff16815260200190815260200160002060045490806001815401808255809150506001900390600052602060002001600090919091909150556005600b60003373ffffffffffffffffffffffffffffffffffffffff1673ffffffffffffffffffffffffffffffffffffffff1681526020019081526020016000206006016000828254610a4a919061339d565b9250508190555050565b6060600660003373ffffffffffffffffffffffffffffffffffffffff1673ffffffffffffffffffffffffffffffffffffffff168152602001908152602001600020805480602002602001604051908101604052809291908181526020018280548015610adf57602002820191906000526020600020905b815481526020019060010190808311610acb575b5050505050905090565b6001600760008381526020019081526020016000206003016000828254610b10919061339d565b9250508190555060006007600083815260200190815260200160002060010160009054906101000a900473ffffffffffffffffffffffffffffffffffffffff1690506005600b60008373ffffffffffffffffffffffffffffffffffffffff1673ffffffffffffffffffffffffffffffffffffffff1681526020019081526020016000206006016000828254610ba5919061339d565b925050819055505050565b60066020528160005260406000208181548110610bcc57600080fd5b90600052602060002001600091509150505481565b60035481565b6060600a60003373ffffffffffffffffffffffffffffffffffffffff1673ffffffffffffffffffffffffffffffffffffffff168152602001908152602001600020805480602002602001604051908101604052809291908181526020018280548015610c7257602002820191906000526020600020905b815481526020019060010190808311610c5e575b5050505050905090565b60025481565b60018181548110610c9257600080fd5b906000526020600020016000915054906101000a900473ffffffffffffffffffffffffffffffffffffffff1681565b565b6001600960008381526020019081526020016000206003016000828254610cea919061339d565b9250508190555050565b6000600b60008373ffffffffffffffffffffffffffffffffffffffff1673ffffffffffffffffffffffffffffffffffffffff168152602001908152602001600020600901549050919050565b60096020528060005260406000206000915090508060000154908060010160009054906101000a900473ffffffffffffffffffffffffffffffffffffffff1690806002018054610d8f906134b1565b80601f0160208091040260200160405190810160405280929190818152602001828054610dbb906134b1565b8015610e085780601f10610ddd57610100808354040283529160200191610e08565b820191906000526020600020905b815481529060010190602001808311610deb57829003601f168201915b5050505050908060030154908060040154905085565b6001339080600181540180825580915050600190039060005260206000200160009091909190916101000a81548173ffffffffffffffffffffffffffffffffffffffff021916908373ffffffffffffffffffffffffffffffffffffffff1602179055506000600b60003373ffffffffffffffffffffffffffffffffffffffff1673ffffffffffffffffffffffffffffffffffffffff1681526020019081526020016000209050338160000160006101000a81548173ffffffffffffffffffffffffffffffffffffffff021916908373ffffffffffffffffffffffffffffffffffffffff16021790555084816001019080519060200190610f1f929190612556565b5083816002019080519060200190610f38929190612556565b5082816003019080519060200190610f51929190612556565b506000816004018190555060008160050181905550600081600601819055506000816007018190555060008160080181905550600081600901819055508181600a019080519060200190610fa69291906125dc565b505050505050565b600e5481565b6060600b60003373ffffffffffffffffffffffffffffffffffffffff1673ffffffffffffffffffffffffffffffffffffffff168152602001908152602001600020600a01805480602002602001604051908101604052809291908181526020016000905b828210156110c4578382906000526020600020018054611037906134b1565b80601f0160208091040260200160405190810160405280929190818152602001828054611063906134b1565b80156110b05780601f10611085576101008083540402835291602001916110b0565b820191906000526020600020905b81548152906001019060200180831161109357829003601f168201915b505050505081526020019060010190611018565b50505050905090565b6001600260008282546110e0919061339d565b925050819055506040518060c0016040528060025481526020013373ffffffffffffffffffffffffffffffffffffffff1681526020018381526020016000815260200160008152602001600067ffffffffffffffff81111561116b577f4e487b7100000000000000000000000000000000000000000000000000000000600052604160045260246000fd5b6040519080825280602002602001820160405280156111995781602001602082028036833780820191505090505b508152506005600060025481526020019081526020016000206000820151816000015560208201518160010160006101000a81548173ffffffffffffffffffffffffffffffffffffffff021916908373ffffffffffffffffffffffffffffffffffffffff160217905550604082015181600201908051906020019061121f929190612556565b50606082015181600301556080820151816004015560a082015181600501908051906020019061125092919061263c565b50905050600660003373ffffffffffffffffffffffffffffffffffffffff1673ffffffffffffffffffffffffffffffffffffffff16815260200190815260200160002060025490806001815401808255809150506001900390600052602060002001600090919091909150556001600b60003373ffffffffffffffffffffffffffffffffffffffff1673ffffffffffffffffffffffffffffffffffffffff168152602001908152602001600020600401600082825461130f919061339d565b925050819055506005600b60003373ffffffffffffffffffffffffffffffffffffffff1673ffffffffffffffffffffffffffffffffffffffff1681526020019081526020016000206006016000828254611369919061339d565b9250508190555060005b8151811015611666576005600c60003373ffffffffffffffffffffffffffffffffffffffff1673ffffffffffffffffffffffffffffffffffffffff1681526020019081526020016000208383815181106113f6577f4e487b7100000000000000000000000000000000000000000000000000000000600052603260045260246000fd5b602002602001015160405161140b9190612ff6565b90815260200160405180910390206000828254611428919061339d565b9250508190555060001515600b60003373ffffffffffffffffffffffffffffffffffffffff1673ffffffffffffffffffffffffffffffffffffffff168152602001908152602001600020600b018383815181106114ae577f4e487b7100000000000000000000000000000000000000000000000000000000600052603260045260246000fd5b60200260200101516040516114c39190612ff6565b908152602001604051809103902060009054906101000a900460ff161515141561165357600b60003373ffffffffffffffffffffffffffffffffffffffff1673ffffffffffffffffffffffffffffffffffffffff168152602001908152602001600020600a01828281518110611562577f4e487b7100000000000000000000000000000000000000000000000000000000600052603260045260246000fd5b60200260200101519080600181540180825580915050600190039060005260206000200160009091909190915090805190602001906115a2929190612556565b5060011515600b60003373ffffffffffffffffffffffffffffffffffffffff1673ffffffffffffffffffffffffffffffffffffffff168152602001908152602001600020600b01838381518110611622577f4e487b7100000000000000000000000000000000000000000000000000000000600052603260045260246000fd5b60200260200101516040516116379190612ff6565b908152602001604051809103902060009054906101000a905050505b808061165e90613514565b915050611373565b505050565b60076020528060005260406000206000915090508060000154908060010160009054906101000a900473ffffffffffffffffffffffffffffffffffffffff16908060020180546116ba906134b1565b80601f01602080910402602001604051908101604052809291908181526020018280546116e6906134b1565b80156117335780601f1061170857610100808354040283529160200191611733565b820191906000526020600020905b81548152906001019060200180831161171657829003601f168201915b5050505050908060030154908060040154908060050160009054906101000a900460ff16905086565b60016003600082825461176f919061339d565b925050819055506040518060c0016040528060035481526020013373ffffffffffffffffffffffffffffffffffffffff1681526020018281526020016000815260200160008152602001600015158152506007600060035481526020019081526020016000206000820151816000015560208201518160010160006101000a81548173ffffffffffffffffffffffffffffffffffffffff021916908373ffffffffffffffffffffffffffffffffffffffff1602179055506040820151816002019080519060200190611842929190612556565b50606082015181600301556080820151816004015560a08201518160050160006101000a81548160ff021916908315150217905550905050600860003373ffffffffffffffffffffffffffffffffffffffff1673ffffffffffffffffffffffffffffffffffffffff16815260200190815260200160002060035490806001815401808255809150506001900390600052602060002001600090919091909150556005600083815260200190815260200160002060050160035490806001815401808255809150506001900390600052602060002001600090919091909150556001600b60003373ffffffffffffffffffffffffffffffffffffffff1673ffffffffffffffffffffffffffffffffffffffff1681526020019081526020016000206005016000828254611974919061339d565b925050819055506005600b60003373ffffffffffffffffffffffffffffffffffffffff1673ffffffffffffffffffffffffffffffffffffffff16815260200190815260200160002060060160008282546119ce919061339d565b925050819055505050565b60056020528060005260406000206000915090508060000154908060010160009054906101000a900473ffffffffffffffffffffffffffffffffffffffff1690806002018054611a28906134b1565b80601f0160208091040260200160405190810160405280929190818152602001828054611a54906134b1565b8015611aa15780601f10611a7657610100808354040283529160200191611aa1565b820191906000526020600020905b815481529060010190602001808311611a8457829003601f168201915b5050505050908060030154908060040154905085565b80600e8190555050565b6001600560008381526020019081526020016000206003016000828254611ae8919061339d565b9250508190555060006005600083815260200190815260200160002060010160009054906101000a900473ffffffffffffffffffffffffffffffffffffffff1690506005600b60008373ffffffffffffffffffffffffffffffffffffffff1673ffffffffffffffffffffffffffffffffffffffff1681526020019081526020016000206006016000828254611b7d919061339d565b925050819055505050565b600a6020528160005260406000208181548110611ba457600080fd5b90600052602060002001600091509150505481565b60008054906101000a900473ffffffffffffffffffffffffffffffffffffffff1681565b611be5612689565b600760008381526020019081526020016000206040518060c0016040529081600082015481526020016001820160009054906101000a900473ffffffffffffffffffffffffffffffffffffffff1673ffffffffffffffffffffffffffffffffffffffff1673ffffffffffffffffffffffffffffffffffffffff168152602001600282018054611c73906134b1565b80601f0160208091040260200160405190810160405280929190818152602001828054611c9f906134b1565b8015611cec5780601f10611cc157610100808354040283529160200191611cec565b820191906000526020600020905b815481529060010190602001808311611ccf57829003601f168201915b5050505050815260200160038201548152602001600482015481526020016005820160009054906101000a900460ff1615151515815250509050919050565b60006007600083815260200190815260200160002060010160009054906101000a900473ffffffffffffffffffffffffffffffffffffffff16905060016007600084815260200190815260200160002060050160006101000a81548160ff0219169083151502179055506005600b60008373ffffffffffffffffffffffffffffffffffffffff1673ffffffffffffffffffffffffffffffffffffffff1681526020019081526020016000206006016000828254611de8919061339d565b925050819055505050565b60086020528160005260406000208181548110611e0f57600080fd5b90600052602060002001600091509150505481565b611e2c6126d7565b600960008381526020019081526020016000206040518060a0016040529081600082015481526020016001820160009054906101000a900473ffffffffffffffffffffffffffffffffffffffff1673ffffffffffffffffffffffffffffffffffffffff1673ffffffffffffffffffffffffffffffffffffffff168152602001600282018054611eba906134b1565b80601f0160208091040260200160405190810160405280929190818152602001828054611ee6906134b1565b8015611f335780601f10611f0857610100808354040283529160200191611f33565b820191906000526020600020905b815481529060010190602001808311611f1657829003601f168201915b50505050508152602001600382015481526020016004820154815250509050919050565b60045481565b8060096000848152602001908152602001600020600401819055505050565b600060096000838152602001908152602001600020600401549050919050565b6001600760008381526020019081526020016000206004016000828254611fc3919061339d565b9250508190555060006007600083815260200190815260200160002060010160009054906101000a900473ffffffffffffffffffffffffffffffffffffffff1690506005600b60008373ffffffffffffffffffffffffffffffffffffffff1673ffffffffffffffffffffffffffffffffffffffff168152602001908152602001600020600601600082825461205891906133f3565b925050819055505050565b61206b61271c565b600560008381526020019081526020016000206040518060c0016040529081600082015481526020016001820160009054906101000a900473ffffffffffffffffffffffffffffffffffffffff1673ffffffffffffffffffffffffffffffffffffffff1673ffffffffffffffffffffffffffffffffffffffff1681526020016002820180546120f9906134b1565b80601f0160208091040260200160405190810160405280929190818152602001828054612125906134b1565b80156121725780601f1061214757610100808354040283529160200191612172565b820191906000526020600020905b81548152906001019060200180831161215557829003601f168201915b505050505081526020016003820154815260200160048201548152602001600582018054806020026020016040519081016040528092919081815260200182805480156121de57602002820191906000526020600020905b8154815260200190600101908083116121ca575b5050505050815250509050919050565b60006009600083815260200190815260200160002060010160009054906101000a900473ffffffffffffffffffffffffffffffffffffffff169050919050565b600b6020528060005260406000206000915090508060000160009054906101000a900473ffffffffffffffffffffffffffffffffffffffff1690806001018054612277906134b1565b80601f01602080910402602001604051908101604052809291908181526020018280546122a3906134b1565b80156122f05780601f106122c5576101008083540402835291602001916122f0565b820191906000526020600020905b8154815290600101906020018083116122d357829003601f168201915b505050505090806002018054612305906134b1565b80601f0160208091040260200160405190810160405280929190818152602001828054612331906134b1565b801561237e5780601f106123535761010080835404028352916020019161237e565b820191906000526020600020905b81548152906001019060200180831161236157829003601f168201915b505050505090806003018054612393906134b1565b80601f01602080910402602001604051908101604052809291908181526020018280546123bf906134b1565b801561240c5780601f106123e15761010080835404028352916020019161240c565b820191906000526020600020905b8154815290600101906020018083116123ef57829003601f168201915b505050505090806004015490806005015490806006015490806007015490806008015490806009015490508a565b6000600e54905090565b600160056000838152602001908152602001600020600401600082825461246b919061339d565b9250508190555060006005600083815260200190815260200160002060010160009054906101000a900473ffffffffffffffffffffffffffffffffffffffff1690506005600b60008373ffffffffffffffffffffffffffffffffffffffff1673ffffffffffffffffffffffffffffffffffffffff168152602001908152602001600020600601600082825461250091906133f3565b925050819055505050565b80600b60008473ffffffffffffffffffffffffffffffffffffffff1673ffffffffffffffffffffffffffffffffffffffff168152602001908152602001600020600901819055505050565b828054612562906134b1565b90600052602060002090601f01602090048101928261258457600085556125cb565b82601f1061259d57805160ff19168380011785556125cb565b828001600101855582156125cb579182015b828111156125ca5782518255916020019190600101906125af565b5b5090506125d89190612768565b5090565b82805482825590600052602060002090810192821561262b579160200282015b8281111561262a57825182908051906020019061261a929190612556565b50916020019190600101906125fc565b5b5090506126389190612785565b5090565b828054828255906000526020600020908101928215612678579160200282015b8281111561267757825182559160200191906001019061265c565b5b5090506126859190612768565b5090565b6040518060c0016040528060008152602001600073ffffffffffffffffffffffffffffffffffffffff1681526020016060815260200160008152602001600081526020016000151581525090565b6040518060a0016040528060008152602001600073ffffffffffffffffffffffffffffffffffffffff1681526020016060815260200160008152602001600081525090565b6040518060c0016040528060008152602001600073ffffffffffffffffffffffffffffffffffffffff168152602001606081526020016000815260200160008152602001606081525090565b5b80821115612781576000816000905550600101612769565b5090565b5b808211156127a5576000818161279c91906127a9565b50600101612786565b5090565b5080546127b5906134b1565b6000825580601f106127c757506127e6565b601f0160209004906000526020600020908101906127e59190612768565b5b50565b60006127fc6127f784613285565b613260565b9050808382526020820190508285602086028201111561281b57600080fd5b60005b8581101561286557813567ffffffffffffffff81111561283d57600080fd5b80860161284a89826128ec565b8552602085019450602084019350505060018101905061281e565b5050509392505050565b600061288261287d846132b1565b613260565b90508281526020810184848401111561289a57600080fd5b6128a584828561346f565b509392505050565b6000813590506128bc816135fb565b92915050565b600082601f8301126128d357600080fd5b81356128e38482602086016127e9565b91505092915050565b600082601f8301126128fd57600080fd5b813561290d84826020860161286f565b91505092915050565b60008135905061292581613612565b92915050565b60006020828403121561293d57600080fd5b600061294b848285016128ad565b91505092915050565b6000806040838503121561296757600080fd5b6000612975858286016128ad565b925050602083013567ffffffffffffffff81111561299257600080fd5b61299e858286016128ec565b9150509250929050565b600080604083850312156129bb57600080fd5b60006129c9858286016128ad565b92505060206129da85828601612916565b9150509250929050565b6000602082840312156129f657600080fd5b600082013567ffffffffffffffff811115612a1057600080fd5b612a1c848285016128ec565b91505092915050565b60008060408385031215612a3857600080fd5b600083013567ffffffffffffffff811115612a5257600080fd5b612a5e858286016128ec565b925050602083013567ffffffffffffffff811115612a7b57600080fd5b612a87858286016128c2565b9150509250929050565b60008060008060808587031215612aa757600080fd5b600085013567ffffffffffffffff811115612ac157600080fd5b612acd878288016128ec565b945050602085013567ffffffffffffffff811115612aea57600080fd5b612af6878288016128ec565b935050604085013567ffffffffffffffff811115612b1357600080fd5b612b1f878288016128ec565b925050606085013567ffffffffffffffff811115612b3c57600080fd5b612b48878288016128c2565b91505092959194509250565b600060208284031215612b6657600080fd5b6000612b7484828501612916565b91505092915050565b60008060408385031215612b9057600080fd5b6000612b9e85828601612916565b925050602083013567ffffffffffffffff811115612bbb57600080fd5b612bc7858286016128ec565b9150509250929050565b60008060408385031215612be457600080fd5b6000612bf285828601612916565b9250506020612c0385828601612916565b9150509250929050565b6000612c198383612da6565b905092915050565b6000612c2d8383612fd8565b60208301905092915050565b612c4281613427565b82525050565b612c5181613427565b82525050565b6000612c6282613302565b612c6c818561333d565b935083602082028501612c7e856132e2565b8060005b85811015612cba5784840389528151612c9b8582612c0d565b9450612ca683613323565b925060208a01995050600181019050612c82565b50829750879550505050505092915050565b6000612cd78261330d565b612ce1818561334e565b9350612cec836132f2565b8060005b83811015612d1d578151612d048882612c21565b9750612d0f83613330565b925050600181019050612cf0565b5085935050505092915050565b6000612d358261330d565b612d3f818561335f565b9350612d4a836132f2565b8060005b83811015612d7b578151612d628882612c21565b9750612d6d83613330565b925050600181019050612d4e565b5085935050505092915050565b612d9181613439565b82525050565b612da081613439565b82525050565b6000612db182613318565b612dbb8185613370565b9350612dcb81856020860161347e565b612dd4816135ea565b840191505092915050565b6000612dea82613318565b612df48185613381565b9350612e0481856020860161347e565b612e0d816135ea565b840191505092915050565b6000612e2382613318565b612e2d8185613392565b9350612e3d81856020860161347e565b80840191505092915050565b600060c083016000830151612e616000860182612fd8565b506020830151612e746020860182612c39565b5060408301518482036040860152612e8c8282612da6565b9150506060830151612ea16060860182612fd8565b506080830151612eb46080860182612fd8565b5060a0830151612ec760a0860182612d88565b508091505092915050565b600060a083016000830151612eea6000860182612fd8565b506020830151612efd6020860182612c39565b5060408301518482036040860152612f158282612da6565b9150506060830151612f2a6060860182612fd8565b506080830151612f3d6080860182612fd8565b508091505092915050565b600060c083016000830151612f606000860182612fd8565b506020830151612f736020860182612c39565b5060408301518482036040860152612f8b8282612da6565b9150506060830151612fa06060860182612fd8565b506080830151612fb36080860182612fd8565b5060a083015184820360a0860152612fcb8282612ccc565b9150508091505092915050565b612fe181613465565b82525050565b612ff081613465565b82525050565b60006130028284612e18565b915081905092915050565b60006020820190506130226000830184612c48565b92915050565b60006101408201905061303e600083018d612c48565b8181036020830152613050818c612ddf565b90508181036040830152613064818b612ddf565b90508181036060830152613078818a612ddf565b90506130876080830189612fe7565b61309460a0830188612fe7565b6130a160c0830187612fe7565b6130ae60e0830186612fe7565b6130bc610100830185612fe7565b6130ca610120830184612fe7565b9b9a5050505050505050505050565b600060208201905081810360008301526130f38184612c57565b905092915050565b600060208201905081810360008301526131158184612d2a565b905092915050565b600060208201905081810360008301526131378184612e49565b905092915050565b600060208201905081810360008301526131598184612ed2565b905092915050565b6000602082019050818103600083015261317b8184612f48565b905092915050565b60006020820190506131986000830184612fe7565b92915050565b600060a0820190506131b36000830188612fe7565b6131c06020830187612c48565b81810360408301526131d28186612ddf565b90506131e16060830185612fe7565b6131ee6080830184612fe7565b9695505050505050565b600060c08201905061320d6000830189612fe7565b61321a6020830188612c48565b818103604083015261322c8187612ddf565b905061323b6060830186612fe7565b6132486080830185612fe7565b61325560a0830184612d97565b979650505050505050565b600061326a61327b565b905061327682826134e3565b919050565b6000604051905090565b600067ffffffffffffffff8211156132a05761329f6135bb565b5b602082029050602081019050919050565b600067ffffffffffffffff8211156132cc576132cb6135bb565b5b6132d5826135ea565b9050602081019050919050565b6000819050602082019050919050565b6000819050602082019050919050565b600081519050919050565b600081519050919050565b600081519050919050565b6000602082019050919050565b6000602082019050919050565b600082825260208201905092915050565b600082825260208201905092915050565b600082825260208201905092915050565b600082825260208201905092915050565b600082825260208201905092915050565b600081905092915050565b60006133a882613465565b91506133b383613465565b9250827fffffffffffffffffffffffffffffffffffffffffffffffffffffffffffffffff038211156133e8576133e761355d565b5b828201905092915050565b60006133fe82613465565b915061340983613465565b92508282101561341c5761341b61355d565b5b828203905092915050565b600061343282613445565b9050919050565b60008115159050919050565b600073ffffffffffffffffffffffffffffffffffffffff82169050919050565b6000819050919050565b82818337600083830152505050565b60005b8381101561349c578082015181840152602081019050613481565b838111156134ab576000848401525b50505050565b600060028204905060018216806134c957607f821691505b602082108114156134dd576134dc61358c565b5b50919050565b6134ec826135ea565b810181811067ffffffffffffffff8211171561350b5761350a6135bb565b5b80604052505050565b600061351f82613465565b91507fffffffffffffffffffffffffffffffffffffffffffffffffffffffffffffffff8214156135525761355161355d565b5b600182019050919050565b7f4e487b7100000000000000000000000000000000000000000000000000000000600052601160045260246000fd5b7f4e487b7100000000000000000000000000000000000000000000000000000000600052602260045260246000fd5b7f4e487b7100000000000000000000000000000000000000000000000000000000600052604160045260246000fd5b6000601f19601f8301169050919050565b61360481613427565b811461360f57600080fd5b50565b61361b81613465565b811461362657600080fd5b5056fea26469706673582212206beb88cae1a69e5d1dd705c02099812a2b9573d6f1a3d427b8413739f7176edc64736f6c63430008040033",
  "linkReferences": {},
  "deployedLinkReferences": {}
}