{
  "_format": "hh-sol-artifact-1",
  "contractName": "Stack",
  "sourceName": "contracts/Stack.sol",
  "abi": [
    {
      "inputs": [],
      "stateMutability": "nonpayable",
      "type": "constructor"
    },
    {
      "inputs": [
        {
          "internalType": "uint256",
          "name": "aid",
          "type": "uint256"
        }
      ],
      "name": "a_downvote",
      "outputs": [],
      "stateMutability": "nonpayable",
      "type": "function"
    },
    {
      "inputs": [],
      "name": "a_id",
      "outputs": [
        {
          "internalType": "uint256",
          "name": "",
          "type": "uint256"
        }
      ],
      "stateMutability": "view",
      "type": "function"
    },
    {
      "inputs": [
        {
          "internalType": "uint256",
          "name": "aid",
          "type": "uint256"
        }
      ],
      "name": "a_upVote",
      "outputs": [],
      "stateMutability": "nonpayable",
      "type": "function"
    },
    {
      "inputs": [
        {
          "internalType": "uint256",
          "name": "qid",
          "type": "uint256"
        },
        {
          "internalType": "string",
          "name": "a_cid",
          "type": "string"
        }
      ],
      "name": "addAnswer",
      "outputs": [],
      "stateMutability": "nonpayable",
      "type": "function"
    },
    {
      "inputs": [
        {
          "internalType": "string",
          "name": "article_cid",
          "type": "string"
        }
      ],
      "name": "addArticle",
      "outputs": [],
      "stateMutability": "nonpayable",
      "type": "function"
    },
    {
      "inputs": [
        {
          "internalType": "uint256",
          "name": "articleid",
          "type": "uint256"
        }
      ],
      "name": "addLike",
      "outputs": [],
      "stateMutability": "nonpayable",
      "type": "function"
    },
    {
      "inputs": [
        {
          "internalType": "string",
          "name": "q_cid",
          "type": "string"
        },
        {
          "internalType": "string[]",
          "name": "tag_name",
          "type": "string[]"
        }
      ],
      "name": "addQuestion",
      "outputs": [],
      "stateMutability": "nonpayable",
      "type": "function"
    },
    {
      "inputs": [
        {
          "internalType": "address",
          "name": "",
          "type": "address"
        },
        {
          "internalType": "string",
          "name": "",
          "type": "string"
        }
      ],
      "name": "addressToTagToScore",
      "outputs": [
        {
          "internalType": "uint256",
          "name": "",
          "type": "uint256"
        }
      ],
      "stateMutability": "view",
      "type": "function"
    },
    {
      "inputs": [
        {
          "internalType": "address",
          "name": "",
          "type": "address"
        }
      ],
      "name": "addressToUser",
      "outputs": [
        {
          "internalType": "address",
          "name": "user",
          "type": "address"
        },
        {
          "internalType": "string",
          "name": "userImageCID",
          "type": "string"
        },
        {
          "internalType": "string",
          "name": "name",
          "type": "string"
        },
        {
          "internalType": "string",
          "name": "email",
          "type": "string"
        },
        {
          "internalType": "string",
          "name": "designation",
          "type": "string"
        },
        {
          "internalType": "uint256",
          "name": "noOfQuestions",
          "type": "uint256"
        },
        {
          "internalType": "uint256",
          "name": "noOfAnswers",
          "type": "uint256"
        },
        {
          "internalType": "uint256",
          "name": "totalScore",
          "type": "uint256"
        },
        {
          "internalType": "uint256",
          "name": "reputationScore",
          "type": "uint256"
        },
        {
          "internalType": "uint256",
          "name": "totalReward",
          "type": "uint256"
        },
        {
          "internalType": "uint256",
          "name": "totalRedeem",
          "type": "uint256"
        },
        {
          "internalType": "uint256",
          "name": "totalTip",
          "type": "uint256"
        }
      ],
      "stateMutability": "view",
      "type": "function"
    },
    {
      "inputs": [
        {
          "internalType": "uint256",
          "name": "aid",
          "type": "uint256"
        }
      ],
      "name": "approve",
      "outputs": [],
      "stateMutability": "nonpayable",
      "type": "function"
    },
    {
      "inputs": [],
      "name": "article_id",
      "outputs": [
        {
          "internalType": "uint256",
          "name": "",
          "type": "uint256"
        }
      ],
      "stateMutability": "view",
      "type": "function"
    },
    {
      "inputs": [
        {
          "internalType": "string",
          "name": "name",
          "type": "string"
        },
        {
          "internalType": "string",
          "name": "userImageCID",
          "type": "string"
        },
        {
          "internalType": "string",
          "name": "email",
          "type": "string"
        },
        {
          "internalType": "string",
          "name": "designation",
          "type": "string"
        },
        {
          "internalType": "string[]",
          "name": "listOfTags",
          "type": "string[]"
        }
      ],
      "name": "createProfile",
      "outputs": [],
      "stateMutability": "nonpayable",
      "type": "function"
    },
    {
      "inputs": [],
      "name": "getAllUserAnswersId",
      "outputs": [
        {
          "internalType": "uint256[]",
          "name": "",
          "type": "uint256[]"
        }
      ],
      "stateMutability": "view",
      "type": "function"
    },
    {
      "inputs": [],
      "name": "getAllUserArticlesId",
      "outputs": [
        {
          "internalType": "uint256[]",
          "name": "",
          "type": "uint256[]"
        }
      ],
      "stateMutability": "view",
      "type": "function"
    },
    {
      "inputs": [],
      "name": "getAllUserQuestionsId",
      "outputs": [
        {
          "internalType": "uint256[]",
          "name": "",
          "type": "uint256[]"
        }
      ],
      "stateMutability": "view",
      "type": "function"
    },
    {
      "inputs": [
        {
          "internalType": "uint256",
          "name": "aid",
          "type": "uint256"
        }
      ],
      "name": "getAnswer",
      "outputs": [
        {
          "components": [
            {
              "internalType": "uint256",
              "name": "a_id",
              "type": "uint256"
            },
            {
              "internalType": "address",
              "name": "user",
              "type": "address"
            },
            {
              "internalType": "string",
              "name": "a_cid",
              "type": "string"
            },
            {
              "internalType": "uint256",
              "name": "a_upvote",
              "type": "uint256"
            },
            {
              "internalType": "uint256",
              "name": "a_downvote",
              "type": "uint256"
            },
            {
              "internalType": "bool",
              "name": "isApproved",
              "type": "bool"
            }
          ],
          "internalType": "struct Stack.AnswerInfo",
          "name": "",
          "type": "tuple"
        }
      ],
      "stateMutability": "view",
      "type": "function"
    },
    {
      "inputs": [
        {
          "internalType": "uint256",
          "name": "articleid",
          "type": "uint256"
        }
      ],
      "name": "getArticle",
      "outputs": [
        {
          "components": [
            {
              "internalType": "uint256",
              "name": "article_id",
              "type": "uint256"
            },
            {
              "internalType": "address",
              "name": "user",
              "type": "address"
            },
            {
              "internalType": "string",
              "name": "article_cid",
              "type": "string"
            },
            {
              "internalType": "uint256",
              "name": "noOfLikes",
              "type": "uint256"
            },
            {
              "internalType": "uint256",
              "name": "tip",
              "type": "uint256"
            }
          ],
          "internalType": "struct Stack.ArticleInfo",
          "name": "",
          "type": "tuple"
        }
      ],
      "stateMutability": "view",
      "type": "function"
    },
    {
      "inputs": [
        {
          "internalType": "uint256",
          "name": "qid",
          "type": "uint256"
        }
      ],
      "name": "getQuestion",
      "outputs": [
        {
          "components": [
            {
              "internalType": "uint256",
              "name": "q_id",
              "type": "uint256"
            },
            {
              "internalType": "address",
              "name": "user",
              "type": "address"
            },
            {
              "internalType": "string",
              "name": "q_cid",
              "type": "string"
            },
            {
              "internalType": "uint256",
              "name": "q_upvote",
              "type": "uint256"
            },
            {
              "internalType": "uint256",
              "name": "q_downvote",
              "type": "uint256"
            },
            {
              "internalType": "uint256[]",
              "name": "ans_id",
              "type": "uint256[]"
            }
          ],
          "internalType": "struct Stack.QuestionInfo",
          "name": "",
          "type": "tuple"
        }
      ],
      "stateMutability": "view",
      "type": "function"
    },
    {
      "inputs": [
        {
          "internalType": "uint256",
          "name": "articleid",
          "type": "uint256"
        }
      ],
      "name": "getTipFromArticleId",
      "outputs": [
        {
          "internalType": "uint256",
          "name": "",
          "type": "uint256"
        }
      ],
      "stateMutability": "view",
      "type": "function"
    },
    {
      "inputs": [],
      "name": "getTokensSold",
      "outputs": [
        {
          "internalType": "uint256",
          "name": "",
          "type": "uint256"
        }
      ],
      "stateMutability": "view",
      "type": "function"
    },
    {
      "inputs": [
        {
          "internalType": "address",
          "name": "user",
          "type": "address"
        }
      ],
      "name": "getTotalRedeem",
      "outputs": [
        {
          "internalType": "uint256",
          "name": "",
          "type": "uint256"
        }
      ],
      "stateMutability": "view",
      "type": "function"
    },
    {
      "inputs": [
        {
          "internalType": "address",
          "name": "user",
          "type": "address"
        }
      ],
      "name": "getTotalScore",
      "outputs": [
        {
          "internalType": "uint256",
          "name": "",
          "type": "uint256"
        }
      ],
      "stateMutability": "view",
      "type": "function"
    },
    {
      "inputs": [
        {
          "internalType": "uint256",
          "name": "articleid",
          "type": "uint256"
        }
      ],
      "name": "getUserFromArticleId",
      "outputs": [
        {
          "internalType": "address",
          "name": "",
          "type": "address"
        }
      ],
      "stateMutability": "view",
      "type": "function"
    },
    {
      "inputs": [],
      "name": "getUserTage",
      "outputs": [
        {
          "internalType": "string[]",
          "name": "",
          "type": "string[]"
        }
      ],
      "stateMutability": "view",
      "type": "function"
    },
    {
      "inputs": [
        {
          "internalType": "address",
          "name": "user",
          "type": "address"
        }
      ],
      "name": "getUserTotalTip",
      "outputs": [
        {
          "internalType": "uint256",
          "name": "",
          "type": "uint256"
        }
      ],
      "stateMutability": "view",
      "type": "function"
    },
    {
      "inputs": [
        {
          "internalType": "uint256",
          "name": "",
          "type": "uint256"
        }
      ],
      "name": "idToAnswer",
      "outputs": [
        {
          "internalType": "uint256",
          "name": "a_id",
          "type": "uint256"
        },
        {
          "internalType": "address",
          "name": "user",
          "type": "address"
        },
        {
          "internalType": "string",
          "name": "a_cid",
          "type": "string"
        },
        {
          "internalType": "uint256",
          "name": "a_upvote",
          "type": "uint256"
        },
        {
          "internalType": "uint256",
          "name": "a_downvote",
          "type": "uint256"
        },
        {
          "internalType": "bool",
          "name": "isApproved",
          "type": "bool"
        }
      ],
      "stateMutability": "view",
      "type": "function"
    },
    {
      "inputs": [
        {
          "internalType": "uint256",
          "name": "",
          "type": "uint256"
        }
      ],
      "name": "idToArticle",
      "outputs": [
        {
          "internalType": "uint256",
          "name": "article_id",
          "type": "uint256"
        },
        {
          "internalType": "address",
          "name": "user",
          "type": "address"
        },
        {
          "internalType": "string",
          "name": "article_cid",
          "type": "string"
        },
        {
          "internalType": "uint256",
          "name": "noOfLikes",
          "type": "uint256"
        },
        {
          "internalType": "uint256",
          "name": "tip",
          "type": "uint256"
        }
      ],
      "stateMutability": "view",
      "type": "function"
    },
    {
      "inputs": [
        {
          "internalType": "uint256",
          "name": "",
          "type": "uint256"
        }
      ],
      "name": "idToQuestion",
      "outputs": [
        {
          "internalType": "uint256",
          "name": "q_id",
          "type": "uint256"
        },
        {
          "internalType": "address",
          "name": "user",
          "type": "address"
        },
        {
          "internalType": "string",
          "name": "q_cid",
          "type": "string"
        },
        {
          "internalType": "uint256",
          "name": "q_upvote",
          "type": "uint256"
        },
        {
          "internalType": "uint256",
          "name": "q_downvote",
          "type": "uint256"
        }
      ],
      "stateMutability": "view",
      "type": "function"
    },
    {
      "inputs": [],
      "name": "owner",
      "outputs": [
        {
          "internalType": "address",
          "name": "",
          "type": "address"
        }
      ],
      "stateMutability": "view",
      "type": "function"
    },
    {
      "inputs": [
        {
          "internalType": "uint256",
          "name": "qid",
          "type": "uint256"
        }
      ],
      "name": "q_downvote",
      "outputs": [],
      "stateMutability": "nonpayable",
      "type": "function"
    },
    {
      "inputs": [],
      "name": "q_id",
      "outputs": [
        {
          "internalType": "uint256",
          "name": "",
          "type": "uint256"
        }
      ],
      "stateMutability": "view",
      "type": "function"
    },
    {
      "inputs": [
        {
          "internalType": "uint256",
          "name": "qid",
          "type": "uint256"
        }
      ],
      "name": "q_upVote",
      "outputs": [],
      "stateMutability": "nonpayable",
      "type": "function"
    },
    {
      "inputs": [
        {
          "internalType": "uint256",
          "name": "articleid",
          "type": "uint256"
        },
        {
          "internalType": "uint256",
          "name": "tip",
          "type": "uint256"
        }
      ],
      "name": "setTipFromArticleId",
      "outputs": [],
      "stateMutability": "nonpayable",
      "type": "function"
    },
    {
      "inputs": [
        {
          "internalType": "uint256",
          "name": "tokei",
          "type": "uint256"
        }
      ],
      "name": "setTokenSold",
      "outputs": [],
      "stateMutability": "nonpayable",
      "type": "function"
    },
    {
      "inputs": [
        {
          "internalType": "address",
          "name": "user",
          "type": "address"
        },
        {
          "internalType": "uint256",
          "name": "redeem",
          "type": "uint256"
        }
      ],
      "name": "setTotalRedeem",
      "outputs": [],
      "stateMutability": "nonpayable",
      "type": "function"
    },
    {
      "inputs": [
        {
          "internalType": "address",
          "name": "user",
          "type": "address"
        },
        {
          "internalType": "uint256",
          "name": "score",
          "type": "uint256"
        }
      ],
      "name": "setTotalScore",
      "outputs": [],
      "stateMutability": "nonpayable",
      "type": "function"
    },
    {
      "inputs": [
        {
          "internalType": "address",
          "name": "user",
          "type": "address"
        },
        {
          "internalType": "uint256",
          "name": "totaltip",
          "type": "uint256"
        }
      ],
      "name": "setUserTotalTip",
      "outputs": [],
      "stateMutability": "nonpayable",
      "type": "function"
    },
    {
      "inputs": [],
      "name": "tokensSold",
      "outputs": [
        {
          "internalType": "uint256",
          "name": "",
          "type": "uint256"
        }
      ],
      "stateMutability": "view",
      "type": "function"
    },
    {
      "inputs": [
        {
          "internalType": "address",
          "name": "",
          "type": "address"
        },
        {
          "internalType": "uint256",
          "name": "",
          "type": "uint256"
        }
      ],
      "name": "userToAnswers",
      "outputs": [
        {
          "internalType": "uint256",
          "name": "",
          "type": "uint256"
        }
      ],
      "stateMutability": "view",
      "type": "function"
    },
    {
      "inputs": [
        {
          "internalType": "address",
          "name": "",
          "type": "address"
        },
        {
          "internalType": "uint256",
          "name": "",
          "type": "uint256"
        }
      ],
      "name": "userToArticle",
      "outputs": [
        {
          "internalType": "uint256",
          "name": "",
          "type": "uint256"
        }
      ],
      "stateMutability": "view",
      "type": "function"
    },
    {
      "inputs": [
        {
          "internalType": "address",
          "name": "",
          "type": "address"
        },
        {
          "internalType": "uint256",
          "name": "",
          "type": "uint256"
        }
      ],
      "name": "userToQuestions",
      "outputs": [
        {
          "internalType": "uint256",
          "name": "",
          "type": "uint256"
        }
      ],
      "stateMutability": "view",
      "type": "function"
    },
    {
      "inputs": [
        {
          "internalType": "uint256",
          "name": "",
          "type": "uint256"
        }
      ],
      "name": "users",
      "outputs": [
        {
          "internalType": "address",
          "name": "",
          "type": "address"
        }
      ],
      "stateMutability": "view",
      "type": "function"
    }
  ],
  "bytecode": "0x60806040526064600d556000600e5534801561001a57600080fd5b50336000806101000a81548173ffffffffffffffffffffffffffffffffffffffff021916908373ffffffffffffffffffffffffffffffffffffffff160217905550613c278061006a6000396000f3fe608060405234801561001057600080fd5b506004361061025e5760003560e01c806386eeed0f11610146578063d075d4a6116100c3578063e9bf0fad11610087578063e9bf0fad146107b2578063edf53886146107ce578063ee7c0db014610809578063f824333a14610827578063f989128c14610843578063fa2a84a21461085f5761025e565b8063d075d4a6146106d6578063d14083fd14610706578063d283b3c514610722578063db88176f14610752578063e6bb0c39146107825761025e565b8063bc08bdfe1161010a578063bc08bdfe14610620578063bd85d86714610650578063c757d53c14610680578063ca6205ad1461069e578063ce9e793b146106ba5761025e565b806386eeed0f146105565780638da5cb5b1461058657806395a7c4b2146105a4578063b5ab58dc146105d4578063b759f954146106045761025e565b8063378a35cd116101df578063649c8638116101a3578063649c86381461047d5780636e1467ed146104995780637491995a146104ce5780637ca490dc146104ea5780637efe79391461051e57806380acf04f1461053a5761025e565b8063378a35cd146103c15780633e8f032d146103dd57806348500abc1461040d578063518ab2a814610441578063619d40c01461045f5761025e565b8063204059791161022657806320405979146103075780632101ca87146103375780632b35b5ae146103555780633393490714610373578063365b98b2146103915761025e565b806301cb3e63146102635780630b43f7c5146102815780630c971a46146102b1578063165acb58146102cd5780631967accc146102eb575b600080fd5b61026b61087b565b60405161027891906136c3565b60405180910390f35b61029b60048036038101906102969190612ecb565b610910565b6040516102a8919061374b565b60405180910390f35b6102cb60048036038101906102c69190612f5b565b61094b565b005b6102d5610b5f565b6040516102e291906136c3565b60405180910390f35b610305600480360381019061030091906130f7565b610bf4565b005b610321600480360381019061031c9190612f1f565b610d15565b60405161032e919061374b565b60405180910390f35b61033f610d46565b60405161034c919061374b565b60405180910390f35b61035d610d4c565b60405161036a91906136c3565b60405180910390f35b61037b610de1565b604051610388919061374b565b60405180910390f35b6103ab60048036038101906103a691906130f7565b610de7565b6040516103b891906135b0565b60405180910390f35b6103db60048036038101906103d691906130f7565b610e26565b005b6103f760048036038101906103f29190612ea2565b610e57565b604051610404919061374b565b60405180910390f35b610427600480360381019061042291906130f7565b610ea3565b604051610438959493929190613766565b60405180910390f35b610449610f81565b604051610456919061374b565b60405180910390f35b610467610f87565b60405161047491906136a1565b60405180910390f35b61049760048036038101906104929190612f9c565b6110a0565b005b6104b360048036038101906104ae91906130f7565b611698565b6040516104c5969594939291906137c0565b60405180910390f35b6104e860048036038101906104e39190613120565b611789565b005b61050460048036038101906104ff91906130f7565b611a60565b604051610515959493929190613766565b60405180910390f35b610538600480360381019061053391906130f7565b611b3e565b005b610554600480360381019061054f91906130f7565b611b48565b005b610570600480360381019061056b9190612f1f565b611c69565b60405161057d919061374b565b60405180910390f35b61058e611c9a565b60405161059b91906135b0565b60405180910390f35b6105be60048036038101906105b99190612ea2565b611cbe565b6040516105cb919061374b565b60405180910390f35b6105ee60048036038101906105e991906130f7565b611d0a565b6040516105fb91906136e5565b60405180910390f35b61061e600480360381019061061991906130f7565b611e58565b005b61063a60048036038101906106359190612f1f565b611f7a565b604051610647919061374b565b60405180910390f35b61066a600480360381019061066591906130f7565b611fab565b6040516106779190613707565b60405180910390f35b6106886120de565b604051610695919061374b565b60405180910390f35b6106b860048036038101906106b39190612f1f565b6120e4565b005b6106d460048036038101906106cf9190613174565b612141565b005b6106f060048036038101906106eb91906130f7565b612160565b6040516106fd919061374b565b60405180910390f35b610720600480360381019061071b91906130f7565b612180565b005b61073c60048036038101906107379190612ea2565b6122a1565b604051610749919061374b565b60405180910390f35b61076c600480360381019061076791906130f7565b6122ed565b6040516107799190613729565b60405180910390f35b61079c600480360381019061079791906130f7565b612478565b6040516107a991906135b0565b60405180910390f35b6107cc60048036038101906107c79190612f1f565b6124b8565b005b6107e860048036038101906107e39190612ea2565b612503565b6040516108009c9b9a999897969594939291906135cb565b60405180910390f35b6108116127a3565b60405161081e919061374b565b60405180910390f35b610841600480360381019061083c91906130f7565b6127ad565b005b61085d60048036038101906108589190612f1f565b6128ce565b005b61087960048036038101906108749190613008565b612919565b005b6060600860003373ffffffffffffffffffffffffffffffffffffffff1673ffffffffffffffffffffffffffffffffffffffff16815260200190815260200160002080548060200260200160405190810160405280929190818152602001828054801561090657602002820191906000526020600020905b8154815260200190600101908083116108f2575b5050505050905090565b600c60205281600052604060002081805160208101820180518482526020830160208501208183528095505050505050600091509150505481565b60016004600082825461095e9190613965565b925050819055506040518060a0016040528060045481526020013373ffffffffffffffffffffffffffffffffffffffff1681526020018281526020016000815260200160008152506009600060045481526020019081526020016000206000820151816000015560208201518160010160006101000a81548173ffffffffffffffffffffffffffffffffffffffff021916908373ffffffffffffffffffffffffffffffffffffffff1602179055506040820151816002019080519060200190610a28929190612acd565b506060820151816003015560808201518160040155905050600a60003373ffffffffffffffffffffffffffffffffffffffff1673ffffffffffffffffffffffffffffffffffffffff16815260200190815260200160002060045490806001815401808255809150506001900390600052602060002001600090919091909150556005600b60003373ffffffffffffffffffffffffffffffffffffffff1673ffffffffffffffffffffffffffffffffffffffff1681526020019081526020016000206007016000828254610afb9190613965565b925050819055506005600b60003373ffffffffffffffffffffffffffffffffffffffff1673ffffffffffffffffffffffffffffffffffffffff1681526020019081526020016000206008016000828254610b559190613965565b9250508190555050565b6060600660003373ffffffffffffffffffffffffffffffffffffffff1673ffffffffffffffffffffffffffffffffffffffff168152602001908152602001600020805480602002602001604051908101604052809291908181526020018280548015610bea57602002820191906000526020600020905b815481526020019060010190808311610bd6575b5050505050905090565b6001600760008381526020019081526020016000206003016000828254610c1b9190613965565b9250508190555060006007600083815260200190815260200160002060010160009054906101000a900473ffffffffffffffffffffffffffffffffffffffff1690506005600b60008373ffffffffffffffffffffffffffffffffffffffff1673ffffffffffffffffffffffffffffffffffffffff1681526020019081526020016000206007016000828254610cb09190613965565b925050819055506005600b60003373ffffffffffffffffffffffffffffffffffffffff1673ffffffffffffffffffffffffffffffffffffffff1681526020019081526020016000206008016000828254610d0a9190613965565b925050819055505050565b60066020528160005260406000208181548110610d3157600080fd5b90600052602060002001600091509150505481565b60035481565b6060600a60003373ffffffffffffffffffffffffffffffffffffffff1673ffffffffffffffffffffffffffffffffffffffff168152602001908152602001600020805480602002602001604051908101604052809291908181526020018280548015610dd757602002820191906000526020600020905b815481526020019060010190808311610dc3575b5050505050905090565b60025481565b60018181548110610df757600080fd5b906000526020600020016000915054906101000a900473ffffffffffffffffffffffffffffffffffffffff1681565b6001600960008381526020019081526020016000206003016000828254610e4d9190613965565b9250508190555050565b6000600b60008373ffffffffffffffffffffffffffffffffffffffff1673ffffffffffffffffffffffffffffffffffffffff168152602001908152602001600020600b01549050919050565b60096020528060005260406000206000915090508060000154908060010160009054906101000a900473ffffffffffffffffffffffffffffffffffffffff1690806002018054610ef290613a79565b80601f0160208091040260200160405190810160405280929190818152602001828054610f1e90613a79565b8015610f6b5780601f10610f4057610100808354040283529160200191610f6b565b820191906000526020600020905b815481529060010190602001808311610f4e57829003601f168201915b5050505050908060030154908060040154905085565b600e5481565b6060600b60003373ffffffffffffffffffffffffffffffffffffffff1673ffffffffffffffffffffffffffffffffffffffff168152602001908152602001600020600c01805480602002602001604051908101604052809291908181526020016000905b8282101561109757838290600052602060002001805461100a90613a79565b80601f016020809104026020016040519081016040528092919081815260200182805461103690613a79565b80156110835780601f1061105857610100808354040283529160200191611083565b820191906000526020600020905b81548152906001019060200180831161106657829003601f168201915b505050505081526020019060010190610feb565b50505050905090565b6001600260008282546110b39190613965565b925050819055506040518060c0016040528060025481526020013373ffffffffffffffffffffffffffffffffffffffff1681526020018381526020016000815260200160008152602001600067ffffffffffffffff81111561113e577f4e487b7100000000000000000000000000000000000000000000000000000000600052604160045260246000fd5b60405190808252806020026020018201604052801561116c5781602001602082028036833780820191505090505b508152506005600060025481526020019081526020016000206000820151816000015560208201518160010160006101000a81548173ffffffffffffffffffffffffffffffffffffffff021916908373ffffffffffffffffffffffffffffffffffffffff16021790555060408201518160020190805190602001906111f2929190612acd565b50606082015181600301556080820151816004015560a0820151816005019080519060200190611223929190612b53565b50905050600660003373ffffffffffffffffffffffffffffffffffffffff1673ffffffffffffffffffffffffffffffffffffffff16815260200190815260200160002060025490806001815401808255809150506001900390600052602060002001600090919091909150556001600b60003373ffffffffffffffffffffffffffffffffffffffff1673ffffffffffffffffffffffffffffffffffffffff16815260200190815260200160002060050160008282546112e29190613965565b925050819055506005600b60003373ffffffffffffffffffffffffffffffffffffffff1673ffffffffffffffffffffffffffffffffffffffff168152602001908152602001600020600701600082825461133c9190613965565b925050819055506005600b60003373ffffffffffffffffffffffffffffffffffffffff1673ffffffffffffffffffffffffffffffffffffffff16815260200190815260200160002060080160008282546113969190613965565b9250508190555060005b8151811015611693576005600c60003373ffffffffffffffffffffffffffffffffffffffff1673ffffffffffffffffffffffffffffffffffffffff168152602001908152602001600020838381518110611423577f4e487b7100000000000000000000000000000000000000000000000000000000600052603260045260246000fd5b60200260200101516040516114389190613599565b908152602001604051809103902060008282546114559190613965565b9250508190555060001515600b60003373ffffffffffffffffffffffffffffffffffffffff1673ffffffffffffffffffffffffffffffffffffffff168152602001908152602001600020600d018383815181106114db577f4e487b7100000000000000000000000000000000000000000000000000000000600052603260045260246000fd5b60200260200101516040516114f09190613599565b908152602001604051809103902060009054906101000a900460ff161515141561168057600b60003373ffffffffffffffffffffffffffffffffffffffff1673ffffffffffffffffffffffffffffffffffffffff168152602001908152602001600020600c0182828151811061158f577f4e487b7100000000000000000000000000000000000000000000000000000000600052603260045260246000fd5b60200260200101519080600181540180825580915050600190039060005260206000200160009091909190915090805190602001906115cf929190612acd565b5060011515600b60003373ffffffffffffffffffffffffffffffffffffffff1673ffffffffffffffffffffffffffffffffffffffff168152602001908152602001600020600d0183838151811061164f577f4e487b7100000000000000000000000000000000000000000000000000000000600052603260045260246000fd5b60200260200101516040516116649190613599565b908152602001604051809103902060009054906101000a905050505b808061168b90613adc565b9150506113a0565b505050565b60076020528060005260406000206000915090508060000154908060010160009054906101000a900473ffffffffffffffffffffffffffffffffffffffff16908060020180546116e790613a79565b80601f016020809104026020016040519081016040528092919081815260200182805461171390613a79565b80156117605780601f1061173557610100808354040283529160200191611760565b820191906000526020600020905b81548152906001019060200180831161174357829003601f168201915b5050505050908060030154908060040154908060050160009054906101000a900460ff16905086565b60016003600082825461179c9190613965565b925050819055506040518060c0016040528060035481526020013373ffffffffffffffffffffffffffffffffffffffff1681526020018281526020016000815260200160008152602001600015158152506007600060035481526020019081526020016000206000820151816000015560208201518160010160006101000a81548173ffffffffffffffffffffffffffffffffffffffff021916908373ffffffffffffffffffffffffffffffffffffffff160217905550604082015181600201908051906020019061186f929190612acd565b50606082015181600301556080820151816004015560a08201518160050160006101000a81548160ff021916908315150217905550905050600860003373ffffffffffffffffffffffffffffffffffffffff1673ffffffffffffffffffffffffffffffffffffffff16815260200190815260200160002060035490806001815401808255809150506001900390600052602060002001600090919091909150556005600083815260200190815260200160002060050160035490806001815401808255809150506001900390600052602060002001600090919091909150556001600b60003373ffffffffffffffffffffffffffffffffffffffff1673ffffffffffffffffffffffffffffffffffffffff16815260200190815260200160002060060160008282546119a19190613965565b925050819055506005600b60003373ffffffffffffffffffffffffffffffffffffffff1673ffffffffffffffffffffffffffffffffffffffff16815260200190815260200160002060070160008282546119fb9190613965565b925050819055506005600b60003373ffffffffffffffffffffffffffffffffffffffff1673ffffffffffffffffffffffffffffffffffffffff1681526020019081526020016000206008016000828254611a559190613965565b925050819055505050565b60056020528060005260406000206000915090508060000154908060010160009054906101000a900473ffffffffffffffffffffffffffffffffffffffff1690806002018054611aaf90613a79565b80601f0160208091040260200160405190810160405280929190818152602001828054611adb90613a79565b8015611b285780601f10611afd57610100808354040283529160200191611b28565b820191906000526020600020905b815481529060010190602001808311611b0b57829003601f168201915b5050505050908060030154908060040154905085565b80600e8190555050565b6001600560008381526020019081526020016000206003016000828254611b6f9190613965565b9250508190555060006005600083815260200190815260200160002060010160009054906101000a900473ffffffffffffffffffffffffffffffffffffffff1690506005600b60008373ffffffffffffffffffffffffffffffffffffffff1673ffffffffffffffffffffffffffffffffffffffff1681526020019081526020016000206007016000828254611c049190613965565b925050819055506005600b60003373ffffffffffffffffffffffffffffffffffffffff1673ffffffffffffffffffffffffffffffffffffffff1681526020019081526020016000206008016000828254611c5e9190613965565b925050819055505050565b600a6020528160005260406000208181548110611c8557600080fd5b90600052602060002001600091509150505481565b60008054906101000a900473ffffffffffffffffffffffffffffffffffffffff1681565b6000600b60008373ffffffffffffffffffffffffffffffffffffffff1673ffffffffffffffffffffffffffffffffffffffff168152602001908152602001600020600a01549050919050565b611d12612ba0565b600760008381526020019081526020016000206040518060c0016040529081600082015481526020016001820160009054906101000a900473ffffffffffffffffffffffffffffffffffffffff1673ffffffffffffffffffffffffffffffffffffffff1673ffffffffffffffffffffffffffffffffffffffff168152602001600282018054611da090613a79565b80601f0160208091040260200160405190810160405280929190818152602001828054611dcc90613a79565b8015611e195780601f10611dee57610100808354040283529160200191611e19565b820191906000526020600020905b815481529060010190602001808311611dfc57829003601f168201915b5050505050815260200160038201548152602001600482015481526020016005820160009054906101000a900460ff1615151515815250509050919050565b60006007600083815260200190815260200160002060010160009054906101000a900473ffffffffffffffffffffffffffffffffffffffff16905060016007600084815260200190815260200160002060050160006101000a81548160ff0219169083151502179055506005600b60008373ffffffffffffffffffffffffffffffffffffffff1673ffffffffffffffffffffffffffffffffffffffff1681526020019081526020016000206007016000828254611f159190613965565b925050819055506005600b60003373ffffffffffffffffffffffffffffffffffffffff1673ffffffffffffffffffffffffffffffffffffffff1681526020019081526020016000206008016000828254611f6f9190613965565b925050819055505050565b60086020528160005260406000208181548110611f9657600080fd5b90600052602060002001600091509150505481565b611fb3612bee565b600960008381526020019081526020016000206040518060a0016040529081600082015481526020016001820160009054906101000a900473ffffffffffffffffffffffffffffffffffffffff1673ffffffffffffffffffffffffffffffffffffffff1673ffffffffffffffffffffffffffffffffffffffff16815260200160028201805461204190613a79565b80601f016020809104026020016040519081016040528092919081815260200182805461206d90613a79565b80156120ba5780601f1061208f576101008083540402835291602001916120ba565b820191906000526020600020905b81548152906001019060200180831161209d57829003601f168201915b50505050508152602001600382015481526020016004820154815250509050919050565b60045481565b80600b60008473ffffffffffffffffffffffffffffffffffffffff1673ffffffffffffffffffffffffffffffffffffffff168152602001908152602001600020600a0160008282546121369190613965565b925050819055505050565b8060096000848152602001908152602001600020600401819055505050565b600060096000838152602001908152602001600020600401549050919050565b60016007600083815260200190815260200160002060040160008282546121a79190613965565b9250508190555060006007600083815260200190815260200160002060010160009054906101000a900473ffffffffffffffffffffffffffffffffffffffff1690506005600b60008373ffffffffffffffffffffffffffffffffffffffff1673ffffffffffffffffffffffffffffffffffffffff168152602001908152602001600020600701600082825461223c91906139bb565b925050819055506005600b60003373ffffffffffffffffffffffffffffffffffffffff1673ffffffffffffffffffffffffffffffffffffffff168152602001908152602001600020600801600082825461229691906139bb565b925050819055505050565b6000600b60008373ffffffffffffffffffffffffffffffffffffffff1673ffffffffffffffffffffffffffffffffffffffff168152602001908152602001600020600701549050919050565b6122f5612c33565b600560008381526020019081526020016000206040518060c0016040529081600082015481526020016001820160009054906101000a900473ffffffffffffffffffffffffffffffffffffffff1673ffffffffffffffffffffffffffffffffffffffff1673ffffffffffffffffffffffffffffffffffffffff16815260200160028201805461238390613a79565b80601f01602080910402602001604051908101604052809291908181526020018280546123af90613a79565b80156123fc5780601f106123d1576101008083540402835291602001916123fc565b820191906000526020600020905b8154815290600101906020018083116123df57829003601f168201915b5050505050815260200160038201548152602001600482015481526020016005820180548060200260200160405190810160405280929190818152602001828054801561246857602002820191906000526020600020905b815481526020019060010190808311612454575b5050505050815250509050919050565b60006009600083815260200190815260200160002060010160009054906101000a900473ffffffffffffffffffffffffffffffffffffffff169050919050565b80600b60008473ffffffffffffffffffffffffffffffffffffffff1673ffffffffffffffffffffffffffffffffffffffff168152602001908152602001600020600701819055505050565b600b6020528060005260406000206000915090508060000160009054906101000a900473ffffffffffffffffffffffffffffffffffffffff169080600101805461254c90613a79565b80601f016020809104026020016040519081016040528092919081815260200182805461257890613a79565b80156125c55780601f1061259a576101008083540402835291602001916125c5565b820191906000526020600020905b8154815290600101906020018083116125a857829003601f168201915b5050505050908060020180546125da90613a79565b80601f016020809104026020016040519081016040528092919081815260200182805461260690613a79565b80156126535780601f1061262857610100808354040283529160200191612653565b820191906000526020600020905b81548152906001019060200180831161263657829003601f168201915b50505050509080600301805461266890613a79565b80601f016020809104026020016040519081016040528092919081815260200182805461269490613a79565b80156126e15780601f106126b6576101008083540402835291602001916126e1565b820191906000526020600020905b8154815290600101906020018083116126c457829003601f168201915b5050505050908060040180546126f690613a79565b80601f016020809104026020016040519081016040528092919081815260200182805461272290613a79565b801561276f5780601f106127445761010080835404028352916020019161276f565b820191906000526020600020905b81548152906001019060200180831161275257829003601f168201915b50505050509080600501549080600601549080600701549080600801549080600901549080600a01549080600b015490508c565b6000600e54905090565b60016005600083815260200190815260200160002060040160008282546127d49190613965565b9250508190555060006005600083815260200190815260200160002060010160009054906101000a900473ffffffffffffffffffffffffffffffffffffffff1690506005600b60008373ffffffffffffffffffffffffffffffffffffffff1673ffffffffffffffffffffffffffffffffffffffff168152602001908152602001600020600701600082825461286991906139bb565b925050819055506005600b60003373ffffffffffffffffffffffffffffffffffffffff1673ffffffffffffffffffffffffffffffffffffffff16815260200190815260200160002060080160008282546128c391906139bb565b925050819055505050565b80600b60008473ffffffffffffffffffffffffffffffffffffffff1673ffffffffffffffffffffffffffffffffffffffff168152602001908152602001600020600b01819055505050565b6001339080600181540180825580915050600190039060005260206000200160009091909190916101000a81548173ffffffffffffffffffffffffffffffffffffffff021916908373ffffffffffffffffffffffffffffffffffffffff1602179055506000600b60003373ffffffffffffffffffffffffffffffffffffffff1673ffffffffffffffffffffffffffffffffffffffff1681526020019081526020016000209050338160000160006101000a81548173ffffffffffffffffffffffffffffffffffffffff021916908373ffffffffffffffffffffffffffffffffffffffff16021790555085816002019080519060200190612a1a929190612acd565b5084816001019080519060200190612a33929190612acd565b5083816003019080519060200190612a4c929190612acd565b5082816004019080519060200190612a65929190612acd565b506000816005018190555060008160060181905550600081600701819055506000816008018190555060008160090181905550600081600a0181905550600081600b01819055508181600c019080519060200190612ac4929190612c7f565b50505050505050565b828054612ad990613a79565b90600052602060002090601f016020900481019282612afb5760008555612b42565b82601f10612b1457805160ff1916838001178555612b42565b82800160010185558215612b42579182015b82811115612b41578251825591602001919060010190612b26565b5b509050612b4f9190612cdf565b5090565b828054828255906000526020600020908101928215612b8f579160200282015b82811115612b8e578251825591602001919060010190612b73565b5b509050612b9c9190612cdf565b5090565b6040518060c0016040528060008152602001600073ffffffffffffffffffffffffffffffffffffffff1681526020016060815260200160008152602001600081526020016000151581525090565b6040518060a0016040528060008152602001600073ffffffffffffffffffffffffffffffffffffffff1681526020016060815260200160008152602001600081525090565b6040518060c0016040528060008152602001600073ffffffffffffffffffffffffffffffffffffffff168152602001606081526020016000815260200160008152602001606081525090565b828054828255906000526020600020908101928215612cce579160200282015b82811115612ccd578251829080519060200190612cbd929190612acd565b5091602001919060010190612c9f565b5b509050612cdb9190612cfc565b5090565b5b80821115612cf8576000816000905550600101612ce0565b5090565b5b80821115612d1c5760008181612d139190612d20565b50600101612cfd565b5090565b508054612d2c90613a79565b6000825580601f10612d3e5750612d5d565b601f016020900490600052602060002090810190612d5c9190612cdf565b5b50565b6000612d73612d6e8461384d565b613828565b90508083825260208201905082856020860282011115612d9257600080fd5b60005b85811015612ddc57813567ffffffffffffffff811115612db457600080fd5b808601612dc18982612e63565b85526020850194506020840193505050600181019050612d95565b5050509392505050565b6000612df9612df484613879565b613828565b905082815260208101848484011115612e1157600080fd5b612e1c848285613a37565b509392505050565b600081359050612e3381613bc3565b92915050565b600082601f830112612e4a57600080fd5b8135612e5a848260208601612d60565b91505092915050565b600082601f830112612e7457600080fd5b8135612e84848260208601612de6565b91505092915050565b600081359050612e9c81613bda565b92915050565b600060208284031215612eb457600080fd5b6000612ec284828501612e24565b91505092915050565b60008060408385031215612ede57600080fd5b6000612eec85828601612e24565b925050602083013567ffffffffffffffff811115612f0957600080fd5b612f1585828601612e63565b9150509250929050565b60008060408385031215612f3257600080fd5b6000612f4085828601612e24565b9250506020612f5185828601612e8d565b9150509250929050565b600060208284031215612f6d57600080fd5b600082013567ffffffffffffffff811115612f8757600080fd5b612f9384828501612e63565b91505092915050565b60008060408385031215612faf57600080fd5b600083013567ffffffffffffffff811115612fc957600080fd5b612fd585828601612e63565b925050602083013567ffffffffffffffff811115612ff257600080fd5b612ffe85828601612e39565b9150509250929050565b600080600080600060a0868803121561302057600080fd5b600086013567ffffffffffffffff81111561303a57600080fd5b61304688828901612e63565b955050602086013567ffffffffffffffff81111561306357600080fd5b61306f88828901612e63565b945050604086013567ffffffffffffffff81111561308c57600080fd5b61309888828901612e63565b935050606086013567ffffffffffffffff8111156130b557600080fd5b6130c188828901612e63565b925050608086013567ffffffffffffffff8111156130de57600080fd5b6130ea88828901612e39565b9150509295509295909350565b60006020828403121561310957600080fd5b600061311784828501612e8d565b91505092915050565b6000806040838503121561313357600080fd5b600061314185828601612e8d565b925050602083013567ffffffffffffffff81111561315e57600080fd5b61316a85828601612e63565b9150509250929050565b6000806040838503121561318757600080fd5b600061319585828601612e8d565b92505060206131a685828601612e8d565b9150509250929050565b60006131bc8383613349565b905092915050565b60006131d0838361357b565b60208301905092915050565b6131e5816139ef565b82525050565b6131f4816139ef565b82525050565b6000613205826138ca565b61320f8185613905565b935083602082028501613221856138aa565b8060005b8581101561325d578484038952815161323e85826131b0565b9450613249836138eb565b925060208a01995050600181019050613225565b50829750879550505050505092915050565b600061327a826138d5565b6132848185613916565b935061328f836138ba565b8060005b838110156132c05781516132a788826131c4565b97506132b2836138f8565b925050600181019050613293565b5085935050505092915050565b60006132d8826138d5565b6132e28185613927565b93506132ed836138ba565b8060005b8381101561331e57815161330588826131c4565b9750613310836138f8565b9250506001810190506132f1565b5085935050505092915050565b61333481613a01565b82525050565b61334381613a01565b82525050565b6000613354826138e0565b61335e8185613938565b935061336e818560208601613a46565b61337781613bb2565b840191505092915050565b600061338d826138e0565b6133978185613949565b93506133a7818560208601613a46565b6133b081613bb2565b840191505092915050565b60006133c6826138e0565b6133d0818561395a565b93506133e0818560208601613a46565b80840191505092915050565b600060c083016000830151613404600086018261357b565b50602083015161341760208601826131dc565b506040830151848203604086015261342f8282613349565b9150506060830151613444606086018261357b565b506080830151613457608086018261357b565b5060a083015161346a60a086018261332b565b508091505092915050565b600060a08301600083015161348d600086018261357b565b5060208301516134a060208601826131dc565b50604083015184820360408601526134b88282613349565b91505060608301516134cd606086018261357b565b5060808301516134e0608086018261357b565b508091505092915050565b600060c083016000830151613503600086018261357b565b50602083015161351660208601826131dc565b506040830151848203604086015261352e8282613349565b9150506060830151613543606086018261357b565b506080830151613556608086018261357b565b5060a083015184820360a086015261356e828261326f565b9150508091505092915050565b61358481613a2d565b82525050565b61359381613a2d565b82525050565b60006135a582846133bb565b915081905092915050565b60006020820190506135c560008301846131eb565b92915050565b6000610180820190506135e1600083018f6131eb565b81810360208301526135f3818e613382565b90508181036040830152613607818d613382565b9050818103606083015261361b818c613382565b9050818103608083015261362f818b613382565b905061363e60a083018a61358a565b61364b60c083018961358a565b61365860e083018861358a565b61366661010083018761358a565b61367461012083018661358a565b61368261014083018561358a565b61369061016083018461358a565b9d9c50505050505050505050505050565b600060208201905081810360008301526136bb81846131fa565b905092915050565b600060208201905081810360008301526136dd81846132cd565b905092915050565b600060208201905081810360008301526136ff81846133ec565b905092915050565b600060208201905081810360008301526137218184613475565b905092915050565b6000602082019050818103600083015261374381846134eb565b905092915050565b6000602082019050613760600083018461358a565b92915050565b600060a08201905061377b600083018861358a565b61378860208301876131eb565b818103604083015261379a8186613382565b90506137a9606083018561358a565b6137b6608083018461358a565b9695505050505050565b600060c0820190506137d5600083018961358a565b6137e260208301886131eb565b81810360408301526137f48187613382565b9050613803606083018661358a565b613810608083018561358a565b61381d60a083018461333a565b979650505050505050565b6000613832613843565b905061383e8282613aab565b919050565b6000604051905090565b600067ffffffffffffffff82111561386857613867613b83565b5b602082029050602081019050919050565b600067ffffffffffffffff82111561389457613893613b83565b5b61389d82613bb2565b9050602081019050919050565b6000819050602082019050919050565b6000819050602082019050919050565b600081519050919050565b600081519050919050565b600081519050919050565b6000602082019050919050565b6000602082019050919050565b600082825260208201905092915050565b600082825260208201905092915050565b600082825260208201905092915050565b600082825260208201905092915050565b600082825260208201905092915050565b600081905092915050565b600061397082613a2d565b915061397b83613a2d565b9250827fffffffffffffffffffffffffffffffffffffffffffffffffffffffffffffffff038211156139b0576139af613b25565b5b828201905092915050565b60006139c682613a2d565b91506139d183613a2d565b9250828210156139e4576139e3613b25565b5b828203905092915050565b60006139fa82613a0d565b9050919050565b60008115159050919050565b600073ffffffffffffffffffffffffffffffffffffffff82169050919050565b6000819050919050565b82818337600083830152505050565b60005b83811015613a64578082015181840152602081019050613a49565b83811115613a73576000848401525b50505050565b60006002820490506001821680613a9157607f821691505b60208210811415613aa557613aa4613b54565b5b50919050565b613ab482613bb2565b810181811067ffffffffffffffff82111715613ad357613ad2613b83565b5b80604052505050565b6000613ae782613a2d565b91507fffffffffffffffffffffffffffffffffffffffffffffffffffffffffffffffff821415613b1a57613b19613b25565b5b600182019050919050565b7f4e487b7100000000000000000000000000000000000000000000000000000000600052601160045260246000fd5b7f4e487b7100000000000000000000000000000000000000000000000000000000600052602260045260246000fd5b7f4e487b7100000000000000000000000000000000000000000000000000000000600052604160045260246000fd5b6000601f19601f8301169050919050565b613bcc816139ef565b8114613bd757600080fd5b50565b613be381613a2d565b8114613bee57600080fd5b5056fea2646970667358221220cfbb99c032112d33bae4f10ea8e6997002922e265949be8af4369380cfe48bc864736f6c63430008040033",
  "linkReferences": {},
  "deployedLinkReferences": {}
}