{
  "_format": "hh-sol-artifact-1",
  "contractName": "Stack",
  "sourceName": "contracts/Stack.sol",
  "abi": [
    {
      "inputs": [],
      "stateMutability": "nonpayable",
      "type": "constructor"
    },
    {
      "inputs": [
        {
          "internalType": "uint256",
          "name": "aid",
          "type": "uint256"
        }
      ],
      "name": "a_downvote",
      "outputs": [],
      "stateMutability": "nonpayable",
      "type": "function"
    },
    {
      "inputs": [],
      "name": "a_id",
      "outputs": [
        {
          "internalType": "uint256",
          "name": "",
          "type": "uint256"
        }
      ],
      "stateMutability": "view",
      "type": "function"
    },
    {
      "inputs": [
        {
          "internalType": "uint256",
          "name": "aid",
          "type": "uint256"
        }
      ],
      "name": "a_upVote",
      "outputs": [],
      "stateMutability": "nonpayable",
      "type": "function"
    },
    {
      "inputs": [
        {
          "internalType": "uint256",
          "name": "qid",
          "type": "uint256"
        },
        {
          "internalType": "string",
          "name": "a_cid",
          "type": "string"
        }
      ],
      "name": "addAnswer",
      "outputs": [],
      "stateMutability": "nonpayable",
      "type": "function"
    },
    {
      "inputs": [
        {
          "internalType": "string",
          "name": "article_cid",
          "type": "string"
        },
        {
          "internalType": "string[]",
          "name": "tag_name",
          "type": "string[]"
        }
      ],
      "name": "addArticle",
      "outputs": [],
      "stateMutability": "nonpayable",
      "type": "function"
    },
    {
      "inputs": [
        {
          "internalType": "uint256",
          "name": "articleid",
          "type": "uint256"
        }
      ],
      "name": "addLike",
      "outputs": [],
      "stateMutability": "nonpayable",
      "type": "function"
    },
    {
      "inputs": [
        {
          "internalType": "string",
          "name": "q_cid",
          "type": "string"
        },
        {
          "internalType": "string[]",
          "name": "tag_name",
          "type": "string[]"
        }
      ],
      "name": "addQuestion",
      "outputs": [],
      "stateMutability": "nonpayable",
      "type": "function"
    },
    {
      "inputs": [
        {
          "internalType": "address",
          "name": "",
          "type": "address"
        },
        {
          "internalType": "string",
          "name": "",
          "type": "string"
        }
      ],
      "name": "addressToTagToScore",
      "outputs": [
        {
          "internalType": "uint256",
          "name": "",
          "type": "uint256"
        }
      ],
      "stateMutability": "view",
      "type": "function"
    },
    {
      "inputs": [
        {
          "internalType": "address",
          "name": "",
          "type": "address"
        }
      ],
      "name": "addressToUserInfo",
      "outputs": [
        {
          "internalType": "address",
          "name": "user",
          "type": "address"
        },
        {
          "internalType": "uint256",
          "name": "noOfQuestions",
          "type": "uint256"
        },
        {
          "internalType": "uint256",
          "name": "noOfAnswers",
          "type": "uint256"
        },
        {
          "internalType": "uint256",
          "name": "noOfArticles",
          "type": "uint256"
        },
        {
          "internalType": "uint256",
          "name": "totalScore",
          "type": "uint256"
        },
        {
          "internalType": "uint256",
          "name": "reputationScore",
          "type": "uint256"
        },
        {
          "internalType": "uint256",
          "name": "totalReward",
          "type": "uint256"
        },
        {
          "internalType": "uint256",
          "name": "totalRedeem",
          "type": "uint256"
        },
        {
          "internalType": "uint256",
          "name": "totalTip",
          "type": "uint256"
        }
      ],
      "stateMutability": "view",
      "type": "function"
    },
    {
      "inputs": [
        {
          "internalType": "address",
          "name": "",
          "type": "address"
        }
      ],
      "name": "addressToUserProfileInfo",
      "outputs": [
        {
          "internalType": "address",
          "name": "user",
          "type": "address"
        },
        {
          "internalType": "string",
          "name": "name",
          "type": "string"
        },
        {
          "internalType": "string",
          "name": "userImageCID",
          "type": "string"
        },
        {
          "internalType": "string",
          "name": "email",
          "type": "string"
        },
        {
          "internalType": "string",
          "name": "designation",
          "type": "string"
        },
        {
          "internalType": "string",
          "name": "aboutUSer",
          "type": "string"
        }
      ],
      "stateMutability": "view",
      "type": "function"
    },
    {
      "inputs": [
        {
          "internalType": "uint256",
          "name": "aid",
          "type": "uint256"
        }
      ],
      "name": "approve",
      "outputs": [],
      "stateMutability": "nonpayable",
      "type": "function"
    },
    {
      "inputs": [],
      "name": "article_id",
      "outputs": [
        {
          "internalType": "uint256",
          "name": "",
          "type": "uint256"
        }
      ],
      "stateMutability": "view",
      "type": "function"
    },
    {
      "inputs": [
        {
          "internalType": "string",
          "name": "name",
          "type": "string"
        },
        {
          "internalType": "string",
          "name": "cid",
          "type": "string"
        },
        {
          "internalType": "string",
          "name": "email",
          "type": "string"
        },
        {
          "internalType": "string",
          "name": "designation",
          "type": "string"
        },
        {
          "internalType": "string",
          "name": "aboutUser",
          "type": "string"
        },
        {
          "internalType": "string[]",
          "name": "listOfTags",
          "type": "string[]"
        }
      ],
      "name": "createProfile",
      "outputs": [],
      "stateMutability": "nonpayable",
      "type": "function"
    },
    {
      "inputs": [],
      "name": "getAllUserAnswersId",
      "outputs": [
        {
          "internalType": "uint256[]",
          "name": "",
          "type": "uint256[]"
        }
      ],
      "stateMutability": "view",
      "type": "function"
    },
    {
      "inputs": [],
      "name": "getAllUserArticlesId",
      "outputs": [
        {
          "internalType": "uint256[]",
          "name": "",
          "type": "uint256[]"
        }
      ],
      "stateMutability": "view",
      "type": "function"
    },
    {
      "inputs": [],
      "name": "getAllUserQuestionsId",
      "outputs": [
        {
          "internalType": "uint256[]",
          "name": "",
          "type": "uint256[]"
        }
      ],
      "stateMutability": "view",
      "type": "function"
    },
    {
      "inputs": [
        {
          "internalType": "uint256",
          "name": "aid",
          "type": "uint256"
        }
      ],
      "name": "getAnswer",
      "outputs": [
        {
          "components": [
            {
              "internalType": "uint256",
              "name": "a_id",
              "type": "uint256"
            },
            {
              "internalType": "address",
              "name": "user",
              "type": "address"
            },
            {
              "internalType": "string",
              "name": "a_cid",
              "type": "string"
            },
            {
              "internalType": "uint256",
              "name": "a_upvote",
              "type": "uint256"
            },
            {
              "internalType": "uint256",
              "name": "a_downvote",
              "type": "uint256"
            },
            {
              "internalType": "bool",
              "name": "isApproved",
              "type": "bool"
            }
          ],
          "internalType": "struct Stack.AnswerInfo",
          "name": "",
          "type": "tuple"
        }
      ],
      "stateMutability": "view",
      "type": "function"
    },
    {
      "inputs": [
        {
          "internalType": "uint256",
          "name": "articleid",
          "type": "uint256"
        }
      ],
      "name": "getArticle",
      "outputs": [
        {
          "components": [
            {
              "internalType": "uint256",
              "name": "article_id",
              "type": "uint256"
            },
            {
              "internalType": "address",
              "name": "user",
              "type": "address"
            },
            {
              "internalType": "string",
              "name": "article_cid",
              "type": "string"
            },
            {
              "internalType": "uint256",
              "name": "noOfLikes",
              "type": "uint256"
            },
            {
              "internalType": "uint256",
              "name": "tip",
              "type": "uint256"
            }
          ],
          "internalType": "struct Stack.ArticleInfo",
          "name": "",
          "type": "tuple"
        }
      ],
      "stateMutability": "view",
      "type": "function"
    },
    {
      "inputs": [
        {
          "internalType": "uint256",
          "name": "qid",
          "type": "uint256"
        }
      ],
      "name": "getQuestion",
      "outputs": [
        {
          "components": [
            {
              "internalType": "uint256",
              "name": "q_id",
              "type": "uint256"
            },
            {
              "internalType": "address",
              "name": "user",
              "type": "address"
            },
            {
              "internalType": "string",
              "name": "q_cid",
              "type": "string"
            },
            {
              "internalType": "uint256",
              "name": "q_upvote",
              "type": "uint256"
            },
            {
              "internalType": "uint256",
              "name": "q_downvote",
              "type": "uint256"
            },
            {
              "internalType": "uint256[]",
              "name": "ans_id",
              "type": "uint256[]"
            }
          ],
          "internalType": "struct Stack.QuestionInfo",
          "name": "",
          "type": "tuple"
        }
      ],
      "stateMutability": "view",
      "type": "function"
    },
    {
      "inputs": [
        {
          "internalType": "uint256",
          "name": "articleid",
          "type": "uint256"
        }
      ],
      "name": "getTipFromArticleId",
      "outputs": [
        {
          "internalType": "uint256",
          "name": "",
          "type": "uint256"
        }
      ],
      "stateMutability": "view",
      "type": "function"
    },
    {
      "inputs": [],
      "name": "getTokensSold",
      "outputs": [
        {
          "internalType": "uint256",
          "name": "",
          "type": "uint256"
        }
      ],
      "stateMutability": "view",
      "type": "function"
    },
    {
      "inputs": [
        {
          "internalType": "address",
          "name": "user",
          "type": "address"
        }
      ],
      "name": "getTotalRedeem",
      "outputs": [
        {
          "internalType": "uint256",
          "name": "",
          "type": "uint256"
        }
      ],
      "stateMutability": "view",
      "type": "function"
    },
    {
      "inputs": [
        {
          "internalType": "address",
          "name": "user",
          "type": "address"
        }
      ],
      "name": "getTotalScore",
      "outputs": [
        {
          "internalType": "uint256",
          "name": "",
          "type": "uint256"
        }
      ],
      "stateMutability": "view",
      "type": "function"
    },
    {
      "inputs": [
        {
          "internalType": "address",
          "name": "user",
          "type": "address"
        }
      ],
      "name": "getUserDescription",
      "outputs": [
        {
          "internalType": "string",
          "name": "",
          "type": "string"
        }
      ],
      "stateMutability": "view",
      "type": "function"
    },
    {
      "inputs": [
        {
          "internalType": "address",
          "name": "user",
          "type": "address"
        }
      ],
      "name": "getUserDesignation",
      "outputs": [
        {
          "internalType": "string",
          "name": "",
          "type": "string"
        }
      ],
      "stateMutability": "view",
      "type": "function"
    },
    {
      "inputs": [
        {
          "internalType": "address",
          "name": "user",
          "type": "address"
        }
      ],
      "name": "getUserEmail",
      "outputs": [
        {
          "internalType": "string",
          "name": "",
          "type": "string"
        }
      ],
      "stateMutability": "view",
      "type": "function"
    },
    {
      "inputs": [
        {
          "internalType": "uint256",
          "name": "articleid",
          "type": "uint256"
        }
      ],
      "name": "getUserFromArticleId",
      "outputs": [
        {
          "internalType": "address",
          "name": "",
          "type": "address"
        }
      ],
      "stateMutability": "view",
      "type": "function"
    },
    {
      "inputs": [
        {
          "internalType": "address",
          "name": "user",
          "type": "address"
        }
      ],
      "name": "getUserName",
      "outputs": [
        {
          "internalType": "string",
          "name": "",
          "type": "string"
        }
      ],
      "stateMutability": "view",
      "type": "function"
    },
    {
      "inputs": [
        {
          "internalType": "address",
          "name": "user",
          "type": "address"
        }
      ],
      "name": "getUserNoOfAnswers",
      "outputs": [
        {
          "internalType": "uint256",
          "name": "",
          "type": "uint256"
        }
      ],
      "stateMutability": "view",
      "type": "function"
    },
    {
      "inputs": [
        {
          "internalType": "address",
          "name": "user",
          "type": "address"
        }
      ],
      "name": "getUserNoOfArticles",
      "outputs": [
        {
          "internalType": "uint256",
          "name": "",
          "type": "uint256"
        }
      ],
      "stateMutability": "view",
      "type": "function"
    },
    {
      "inputs": [
        {
          "internalType": "address",
          "name": "user",
          "type": "address"
        }
      ],
      "name": "getUserNoOfQuestions",
      "outputs": [
        {
          "internalType": "uint256",
          "name": "",
          "type": "uint256"
        }
      ],
      "stateMutability": "view",
      "type": "function"
    },
    {
      "inputs": [
        {
          "internalType": "address",
          "name": "user",
          "type": "address"
        }
      ],
      "name": "getUserReputation",
      "outputs": [
        {
          "internalType": "uint256",
          "name": "",
          "type": "uint256"
        }
      ],
      "stateMutability": "view",
      "type": "function"
    },
    {
      "inputs": [
        {
          "internalType": "address",
          "name": "user",
          "type": "address"
        }
      ],
      "name": "getUserReward",
      "outputs": [
        {
          "internalType": "uint256",
          "name": "",
          "type": "uint256"
        }
      ],
      "stateMutability": "view",
      "type": "function"
    },
    {
      "inputs": [],
      "name": "getUserTage",
      "outputs": [
        {
          "internalType": "string[]",
          "name": "",
          "type": "string[]"
        }
      ],
      "stateMutability": "view",
      "type": "function"
    },
    {
      "inputs": [
        {
          "internalType": "address",
          "name": "user",
          "type": "address"
        }
      ],
      "name": "getUserTags",
      "outputs": [
        {
          "internalType": "string[]",
          "name": "",
          "type": "string[]"
        }
      ],
      "stateMutability": "view",
      "type": "function"
    },
    {
      "inputs": [
        {
          "internalType": "address",
          "name": "user",
          "type": "address"
        }
      ],
      "name": "getUserTotalTip",
      "outputs": [
        {
          "internalType": "uint256",
          "name": "",
          "type": "uint256"
        }
      ],
      "stateMutability": "view",
      "type": "function"
    },
    {
      "inputs": [
        {
          "internalType": "uint256",
          "name": "",
          "type": "uint256"
        }
      ],
      "name": "idToAnswer",
      "outputs": [
        {
          "internalType": "uint256",
          "name": "a_id",
          "type": "uint256"
        },
        {
          "internalType": "address",
          "name": "user",
          "type": "address"
        },
        {
          "internalType": "string",
          "name": "a_cid",
          "type": "string"
        },
        {
          "internalType": "uint256",
          "name": "a_upvote",
          "type": "uint256"
        },
        {
          "internalType": "uint256",
          "name": "a_downvote",
          "type": "uint256"
        },
        {
          "internalType": "bool",
          "name": "isApproved",
          "type": "bool"
        }
      ],
      "stateMutability": "view",
      "type": "function"
    },
    {
      "inputs": [
        {
          "internalType": "uint256",
          "name": "",
          "type": "uint256"
        }
      ],
      "name": "idToArticle",
      "outputs": [
        {
          "internalType": "uint256",
          "name": "article_id",
          "type": "uint256"
        },
        {
          "internalType": "address",
          "name": "user",
          "type": "address"
        },
        {
          "internalType": "string",
          "name": "article_cid",
          "type": "string"
        },
        {
          "internalType": "uint256",
          "name": "noOfLikes",
          "type": "uint256"
        },
        {
          "internalType": "uint256",
          "name": "tip",
          "type": "uint256"
        }
      ],
      "stateMutability": "view",
      "type": "function"
    },
    {
      "inputs": [
        {
          "internalType": "uint256",
          "name": "",
          "type": "uint256"
        }
      ],
      "name": "idToQuestion",
      "outputs": [
        {
          "internalType": "uint256",
          "name": "q_id",
          "type": "uint256"
        },
        {
          "internalType": "address",
          "name": "user",
          "type": "address"
        },
        {
          "internalType": "string",
          "name": "q_cid",
          "type": "string"
        },
        {
          "internalType": "uint256",
          "name": "q_upvote",
          "type": "uint256"
        },
        {
          "internalType": "uint256",
          "name": "q_downvote",
          "type": "uint256"
        }
      ],
      "stateMutability": "view",
      "type": "function"
    },
    {
      "inputs": [],
      "name": "owner",
      "outputs": [
        {
          "internalType": "address",
          "name": "",
          "type": "address"
        }
      ],
      "stateMutability": "view",
      "type": "function"
    },
    {
      "inputs": [
        {
          "internalType": "uint256",
          "name": "qid",
          "type": "uint256"
        }
      ],
      "name": "q_downvote",
      "outputs": [],
      "stateMutability": "nonpayable",
      "type": "function"
    },
    {
      "inputs": [],
      "name": "q_id",
      "outputs": [
        {
          "internalType": "uint256",
          "name": "",
          "type": "uint256"
        }
      ],
      "stateMutability": "view",
      "type": "function"
    },
    {
      "inputs": [
        {
          "internalType": "uint256",
          "name": "qid",
          "type": "uint256"
        }
      ],
      "name": "q_upVote",
      "outputs": [],
      "stateMutability": "nonpayable",
      "type": "function"
    },
    {
      "inputs": [
        {
          "internalType": "uint256",
          "name": "articleid",
          "type": "uint256"
        },
        {
          "internalType": "uint256",
          "name": "tip",
          "type": "uint256"
        }
      ],
      "name": "setTipFromArticleId",
      "outputs": [],
      "stateMutability": "nonpayable",
      "type": "function"
    },
    {
      "inputs": [
        {
          "internalType": "uint256",
          "name": "tokei",
          "type": "uint256"
        }
      ],
      "name": "setTokenSold",
      "outputs": [],
      "stateMutability": "nonpayable",
      "type": "function"
    },
    {
      "inputs": [
        {
          "internalType": "address",
          "name": "user",
          "type": "address"
        },
        {
          "internalType": "uint256",
          "name": "redeem",
          "type": "uint256"
        }
      ],
      "name": "setTotalRedeem",
      "outputs": [],
      "stateMutability": "nonpayable",
      "type": "function"
    },
    {
      "inputs": [
        {
          "internalType": "address",
          "name": "user",
          "type": "address"
        },
        {
          "internalType": "uint256",
          "name": "score",
          "type": "uint256"
        }
      ],
      "name": "setTotalScore",
      "outputs": [],
      "stateMutability": "nonpayable",
      "type": "function"
    },
    {
      "inputs": [
        {
          "internalType": "address",
          "name": "user",
          "type": "address"
        },
        {
          "internalType": "uint256",
          "name": "totaltip",
          "type": "uint256"
        }
      ],
      "name": "setUserTotalTip",
      "outputs": [],
      "stateMutability": "nonpayable",
      "type": "function"
    },
    {
      "inputs": [],
      "name": "tokensSold",
      "outputs": [
        {
          "internalType": "uint256",
          "name": "",
          "type": "uint256"
        }
      ],
      "stateMutability": "view",
      "type": "function"
    },
    {
      "inputs": [
        {
          "internalType": "address",
          "name": "",
          "type": "address"
        },
        {
          "internalType": "uint256",
          "name": "",
          "type": "uint256"
        }
      ],
      "name": "userToAnswers",
      "outputs": [
        {
          "internalType": "uint256",
          "name": "",
          "type": "uint256"
        }
      ],
      "stateMutability": "view",
      "type": "function"
    },
    {
      "inputs": [
        {
          "internalType": "address",
          "name": "",
          "type": "address"
        },
        {
          "internalType": "uint256",
          "name": "",
          "type": "uint256"
        }
      ],
      "name": "userToArticle",
      "outputs": [
        {
          "internalType": "uint256",
          "name": "",
          "type": "uint256"
        }
      ],
      "stateMutability": "view",
      "type": "function"
    },
    {
      "inputs": [
        {
          "internalType": "address",
          "name": "",
          "type": "address"
        },
        {
          "internalType": "uint256",
          "name": "",
          "type": "uint256"
        }
      ],
      "name": "userToQuestions",
      "outputs": [
        {
          "internalType": "uint256",
          "name": "",
          "type": "uint256"
        }
      ],
      "stateMutability": "view",
      "type": "function"
    },
    {
      "inputs": [
        {
          "internalType": "uint256",
          "name": "",
          "type": "uint256"
        }
      ],
      "name": "users",
      "outputs": [
        {
          "internalType": "address",
          "name": "",
          "type": "address"
        }
      ],
      "stateMutability": "view",
      "type": "function"
    }
  ],
  "bytecode": "0x60806040526064600e556000600f5534801561001a57600080fd5b50336000806101000a81548173ffffffffffffffffffffffffffffffffffffffff021916908373ffffffffffffffffffffffffffffffffffffffff160217905550614d0d8061006a6000396000f3fe608060405234801561001057600080fd5b50600436106103265760003560e01c806380acf04f116101b8578063ce9e793b11610104578063e6df3381116100a2578063ee7c0db01161007c578063ee7c0db014610acf578063f65f580614610aed578063f824333a14610b1d578063f989128c14610b3957610326565b8063e6df338114610a5f578063e935075314610a97578063e9bf0fad14610ab357610326565b8063d283b3c5116100de578063d283b3c51461099f578063d84f55ee146109cf578063db88176f146109ff578063e6bb0c3914610a2f57610326565b8063ce9e793b14610937578063d075d4a614610953578063d14083fd1461098357610326565b8063b759f95411610171578063bd85d8671161014b578063bd85d8671461089d578063c757d53c146108cd578063c75ebb82146108eb578063ca6205ad1461091b57610326565b8063b759f95414610821578063baccbfdb1461083d578063bc08bdfe1461086d57610326565b806380acf04f1461072757806386eeed0f146107435780638da5cb5b146107735780639480e9481461079157806395a7c4b2146107c1578063b5ab58dc146107f157610326565b80633da19f8b11610277578063649c86381161023057806377e997b91161020a57806377e997b91461067257806379589dad146106a25780637ca490dc146106d75780637efe79391461070b57610326565b8063649c8638146106055780636e1467ed146106215780637491995a1461065657610326565b80633da19f8b146105195780633e8f032d1461054957806341adc1831461057957806348500abc14610595578063518ab2a8146105c9578063619d40c0146105e757610326565b806320405979116102e457806333934907116102be578063339349071461047f578063365b98b21461049d578063378a35cd146104cd5780633a21cfb5146104e957610326565b806320405979146104135780632101ca87146104435780632b35b5ae1461046157610326565b8062f2efa01461032b57806301cb3e631461035b5780630b43f7c51461037957806314b8c156146103a9578063165acb58146103d95780631967accc146103f7575b600080fd5b61034560048036038101906103409190613f42565b610b55565b6040516103529190614765565b60405180910390f35b610363610c70565b6040516103709190614787565b60405180910390f35b610393600480360381019061038e9190613f6b565b610d05565b6040516103a09190614831565b60405180910390f35b6103c360048036038101906103be9190613f42565b610d40565b6040516103d09190614831565b60405180910390f35b6103e1610d8c565b6040516103ee9190614787565b60405180910390f35b610411600480360381019061040c9190614180565b610e21565b005b61042d60048036038101906104289190613fbf565b610f42565b60405161043a9190614831565b60405180910390f35b61044b610f73565b6040516104589190614831565b60405180910390f35b610469610f79565b6040516104769190614787565b60405180910390f35b61048761100e565b6040516104949190614831565b60405180910390f35b6104b760048036038101906104b29190614180565b611014565b6040516104c49190614639565b60405180910390f35b6104e760048036038101906104e29190614180565b611053565b005b61050360048036038101906104fe9190613f42565b611084565b60405161051091906147a9565b60405180910390f35b610533600480360381019061052e9190613f42565b611158565b6040516105409190614831565b60405180910390f35b610563600480360381019061055e9190613f42565b6111a4565b6040516105709190614831565b60405180910390f35b610593600480360381019061058e9190613ffb565b6111f0565b005b6105af60048036038101906105aa9190614180565b611756565b6040516105c095949392919061484c565b60405180910390f35b6105d1611834565b6040516105de9190614831565b60405180910390f35b6105ef61183a565b6040516105fc9190614765565b60405180910390f35b61061f600480360381019061061a9190613ffb565b611953565b005b61063b60048036038101906106369190614180565b611f4b565b60405161064d969594939291906148a6565b60405180910390f35b610670600480360381019061066b91906141a9565b61203c565b005b61068c60048036038101906106879190613f42565b612313565b60405161069991906147a9565b60405180910390f35b6106bc60048036038101906106b79190613f42565b6123e7565b6040516106ce96959493929190614654565b60405180910390f35b6106f160048036038101906106ec9190614180565b6126eb565b60405161070295949392919061484c565b60405180910390f35b61072560048036038101906107209190614180565b6127c9565b005b610741600480360381019061073c9190614180565b6127d3565b005b61075d60048036038101906107589190613fbf565b6128f4565b60405161076a9190614831565b60405180910390f35b61077b612925565b6040516107889190614639565b60405180910390f35b6107ab60048036038101906107a69190613f42565b612949565b6040516107b891906147a9565b60405180910390f35b6107db60048036038101906107d69190613f42565b612a1d565b6040516107e89190614831565b60405180910390f35b61080b60048036038101906108069190614180565b612a69565b60405161081891906147cb565b60405180910390f35b61083b60048036038101906108369190614180565b612bb7565b005b61085760048036038101906108529190613f42565b612cd9565b6040516108649190614831565b60405180910390f35b61088760048036038101906108829190613fbf565b612d25565b6040516108949190614831565b60405180910390f35b6108b760048036038101906108b29190614180565b612d56565b6040516108c491906147ed565b60405180910390f35b6108d5612e89565b6040516108e29190614831565b60405180910390f35b61090560048036038101906109009190613f42565b612e8f565b6040516109129190614831565b60405180910390f35b61093560048036038101906109309190613fbf565b612edb565b005b610951600480360381019061094c91906141fd565b612f38565b005b61096d60048036038101906109689190614180565b612f57565b60405161097a9190614831565b60405180910390f35b61099d60048036038101906109989190614180565b612f77565b005b6109b960048036038101906109b49190613f42565b613098565b6040516109c69190614831565b60405180910390f35b6109e960048036038101906109e49190613f42565b6130e4565b6040516109f691906147a9565b60405180910390f35b610a196004803603810190610a149190614180565b6131b8565b604051610a26919061480f565b60405180910390f35b610a496004803603810190610a449190614180565b613343565b604051610a569190614639565b60405180910390f35b610a796004803603810190610a749190613f42565b613383565b604051610a8e999897969594939291906146d8565b60405180910390f35b610ab16004803603810190610aac9190614067565b6133f1565b005b610acd6004803603810190610ac89190613fbf565b613960565b005b610ad76139ab565b604051610ae49190614831565b60405180910390f35b610b076004803603810190610b029190613f42565b6139b5565b604051610b149190614831565b60405180910390f35b610b376004803603810190610b329190614180565b613a01565b005b610b536004803603810190610b4e9190613fbf565b613b22565b005b6060600b60008373ffffffffffffffffffffffffffffffffffffffff1673ffffffffffffffffffffffffffffffffffffffff168152602001908152602001600020600601805480602002602001604051908101604052809291908181526020016000905b82821015610c65578382906000526020600020018054610bd890614b5f565b80601f0160208091040260200160405190810160405280929190818152602001828054610c0490614b5f565b8015610c515780601f10610c2657610100808354040283529160200191610c51565b820191906000526020600020905b815481529060010190602001808311610c3457829003601f168201915b505050505081526020019060010190610bb9565b505050509050919050565b6060600860003373ffffffffffffffffffffffffffffffffffffffff1673ffffffffffffffffffffffffffffffffffffffff168152602001908152602001600020805480602002602001604051908101604052809291908181526020018280548015610cfb57602002820191906000526020600020905b815481526020019060010190808311610ce7575b5050505050905090565b600d60205281600052604060002081805160208101820180518482526020830160208501208183528095505050505050600091509150505481565b6000600c60008373ffffffffffffffffffffffffffffffffffffffff1673ffffffffffffffffffffffffffffffffffffffff168152602001908152602001600020600101549050919050565b6060600660003373ffffffffffffffffffffffffffffffffffffffff1673ffffffffffffffffffffffffffffffffffffffff168152602001908152602001600020805480602002602001604051908101604052809291908181526020018280548015610e1757602002820191906000526020600020905b815481526020019060010190808311610e03575b5050505050905090565b6001600760008381526020019081526020016000206003016000828254610e489190614a4b565b9250508190555060006007600083815260200190815260200160002060010160009054906101000a900473ffffffffffffffffffffffffffffffffffffffff1690506005600c60008373ffffffffffffffffffffffffffffffffffffffff1673ffffffffffffffffffffffffffffffffffffffff1681526020019081526020016000206004016000828254610edd9190614a4b565b925050819055506005600c60003373ffffffffffffffffffffffffffffffffffffffff1673ffffffffffffffffffffffffffffffffffffffff1681526020019081526020016000206005016000828254610f379190614a4b565b925050819055505050565b60066020528160005260406000208181548110610f5e57600080fd5b90600052602060002001600091509150505481565b60035481565b6060600a60003373ffffffffffffffffffffffffffffffffffffffff1673ffffffffffffffffffffffffffffffffffffffff16815260200190815260200160002080548060200260200160405190810160405280929190818152602001828054801561100457602002820191906000526020600020905b815481526020019060010190808311610ff0575b5050505050905090565b60025481565b6001818154811061102457600080fd5b906000526020600020016000915054906101000a900473ffffffffffffffffffffffffffffffffffffffff1681565b600160096000838152602001908152602001600020600301600082825461107a9190614a4b565b9250508190555050565b6060600b60008373ffffffffffffffffffffffffffffffffffffffff1673ffffffffffffffffffffffffffffffffffffffff16815260200190815260200160002060050180546110d390614b5f565b80601f01602080910402602001604051908101604052809291908181526020018280546110ff90614b5f565b801561114c5780601f106111215761010080835404028352916020019161114c565b820191906000526020600020905b81548152906001019060200180831161112f57829003601f168201915b50505050509050919050565b6000600c60008373ffffffffffffffffffffffffffffffffffffffff1673ffffffffffffffffffffffffffffffffffffffff168152602001908152602001600020600301549050919050565b6000600c60008373ffffffffffffffffffffffffffffffffffffffff1673ffffffffffffffffffffffffffffffffffffffff168152602001908152602001600020600801549050919050565b6001600460008282546112039190614a4b565b925050819055506040518060a0016040528060045481526020013373ffffffffffffffffffffffffffffffffffffffff1681526020018381526020016000815260200160008152506009600060045481526020019081526020016000206000820151816000015560208201518160010160006101000a81548173ffffffffffffffffffffffffffffffffffffffff021916908373ffffffffffffffffffffffffffffffffffffffff16021790555060408201518160020190805190602001906112cd929190613b6d565b506060820151816003015560808201518160040155905050600a60003373ffffffffffffffffffffffffffffffffffffffff1673ffffffffffffffffffffffffffffffffffffffff16815260200190815260200160002060045490806001815401808255809150506001900390600052602060002001600090919091909150556001600c60003373ffffffffffffffffffffffffffffffffffffffff1673ffffffffffffffffffffffffffffffffffffffff16815260200190815260200160002060030160008282546113a09190614a4b565b925050819055506005600c60003373ffffffffffffffffffffffffffffffffffffffff1673ffffffffffffffffffffffffffffffffffffffff16815260200190815260200160002060040160008282546113fa9190614a4b565b925050819055506005600c60003373ffffffffffffffffffffffffffffffffffffffff1673ffffffffffffffffffffffffffffffffffffffff16815260200190815260200160002060050160008282546114549190614a4b565b9250508190555060005b8151811015611751576005600d60003373ffffffffffffffffffffffffffffffffffffffff1673ffffffffffffffffffffffffffffffffffffffff1681526020019081526020016000208383815181106114e1577f4e487b7100000000000000000000000000000000000000000000000000000000600052603260045260246000fd5b60200260200101516040516114f69190614622565b908152602001604051809103902060008282546115139190614a4b565b9250508190555060001515600b60003373ffffffffffffffffffffffffffffffffffffffff1673ffffffffffffffffffffffffffffffffffffffff168152602001908152602001600020600701838381518110611599577f4e487b7100000000000000000000000000000000000000000000000000000000600052603260045260246000fd5b60200260200101516040516115ae9190614622565b908152602001604051809103902060009054906101000a900460ff161515141561173e57600b60003373ffffffffffffffffffffffffffffffffffffffff1673ffffffffffffffffffffffffffffffffffffffff16815260200190815260200160002060060182828151811061164d577f4e487b7100000000000000000000000000000000000000000000000000000000600052603260045260246000fd5b602002602001015190806001815401808255809150506001900390600052602060002001600090919091909150908051906020019061168d929190613b6d565b5060011515600b60003373ffffffffffffffffffffffffffffffffffffffff1673ffffffffffffffffffffffffffffffffffffffff16815260200190815260200160002060070183838151811061170d577f4e487b7100000000000000000000000000000000000000000000000000000000600052603260045260246000fd5b60200260200101516040516117229190614622565b908152602001604051809103902060009054906101000a905050505b808061174990614bc2565b91505061145e565b505050565b60096020528060005260406000206000915090508060000154908060010160009054906101000a900473ffffffffffffffffffffffffffffffffffffffff16908060020180546117a590614b5f565b80601f01602080910402602001604051908101604052809291908181526020018280546117d190614b5f565b801561181e5780601f106117f35761010080835404028352916020019161181e565b820191906000526020600020905b81548152906001019060200180831161180157829003601f168201915b5050505050908060030154908060040154905085565b600f5481565b6060600b60003373ffffffffffffffffffffffffffffffffffffffff1673ffffffffffffffffffffffffffffffffffffffff168152602001908152602001600020600601805480602002602001604051908101604052809291908181526020016000905b8282101561194a5783829060005260206000200180546118bd90614b5f565b80601f01602080910402602001604051908101604052809291908181526020018280546118e990614b5f565b80156119365780601f1061190b57610100808354040283529160200191611936565b820191906000526020600020905b81548152906001019060200180831161191957829003601f168201915b50505050508152602001906001019061189e565b50505050905090565b6001600260008282546119669190614a4b565b925050819055506040518060c0016040528060025481526020013373ffffffffffffffffffffffffffffffffffffffff1681526020018381526020016000815260200160008152602001600067ffffffffffffffff8111156119f1577f4e487b7100000000000000000000000000000000000000000000000000000000600052604160045260246000fd5b604051908082528060200260200182016040528015611a1f5781602001602082028036833780820191505090505b508152506005600060025481526020019081526020016000206000820151816000015560208201518160010160006101000a81548173ffffffffffffffffffffffffffffffffffffffff021916908373ffffffffffffffffffffffffffffffffffffffff1602179055506040820151816002019080519060200190611aa5929190613b6d565b50606082015181600301556080820151816004015560a0820151816005019080519060200190611ad6929190613bf3565b50905050600660003373ffffffffffffffffffffffffffffffffffffffff1673ffffffffffffffffffffffffffffffffffffffff16815260200190815260200160002060025490806001815401808255809150506001900390600052602060002001600090919091909150556001600c60003373ffffffffffffffffffffffffffffffffffffffff1673ffffffffffffffffffffffffffffffffffffffff1681526020019081526020016000206001016000828254611b959190614a4b565b925050819055506005600c60003373ffffffffffffffffffffffffffffffffffffffff1673ffffffffffffffffffffffffffffffffffffffff1681526020019081526020016000206004016000828254611bef9190614a4b565b925050819055506005600c60003373ffffffffffffffffffffffffffffffffffffffff1673ffffffffffffffffffffffffffffffffffffffff1681526020019081526020016000206005016000828254611c499190614a4b565b9250508190555060005b8151811015611f46576005600d60003373ffffffffffffffffffffffffffffffffffffffff1673ffffffffffffffffffffffffffffffffffffffff168152602001908152602001600020838381518110611cd6577f4e487b7100000000000000000000000000000000000000000000000000000000600052603260045260246000fd5b6020026020010151604051611ceb9190614622565b90815260200160405180910390206000828254611d089190614a4b565b9250508190555060001515600b60003373ffffffffffffffffffffffffffffffffffffffff1673ffffffffffffffffffffffffffffffffffffffff168152602001908152602001600020600701838381518110611d8e577f4e487b7100000000000000000000000000000000000000000000000000000000600052603260045260246000fd5b6020026020010151604051611da39190614622565b908152602001604051809103902060009054906101000a900460ff1615151415611f3357600b60003373ffffffffffffffffffffffffffffffffffffffff1673ffffffffffffffffffffffffffffffffffffffff168152602001908152602001600020600601828281518110611e42577f4e487b7100000000000000000000000000000000000000000000000000000000600052603260045260246000fd5b6020026020010151908060018154018082558091505060019003906000526020600020016000909190919091509080519060200190611e82929190613b6d565b5060011515600b60003373ffffffffffffffffffffffffffffffffffffffff1673ffffffffffffffffffffffffffffffffffffffff168152602001908152602001600020600701838381518110611f02577f4e487b7100000000000000000000000000000000000000000000000000000000600052603260045260246000fd5b6020026020010151604051611f179190614622565b908152602001604051809103902060009054906101000a905050505b8080611f3e90614bc2565b915050611c53565b505050565b60076020528060005260406000206000915090508060000154908060010160009054906101000a900473ffffffffffffffffffffffffffffffffffffffff1690806002018054611f9a90614b5f565b80601f0160208091040260200160405190810160405280929190818152602001828054611fc690614b5f565b80156120135780601f10611fe857610100808354040283529160200191612013565b820191906000526020600020905b815481529060010190602001808311611ff657829003601f168201915b5050505050908060030154908060040154908060050160009054906101000a900460ff16905086565b60016003600082825461204f9190614a4b565b925050819055506040518060c0016040528060035481526020013373ffffffffffffffffffffffffffffffffffffffff1681526020018281526020016000815260200160008152602001600015158152506007600060035481526020019081526020016000206000820151816000015560208201518160010160006101000a81548173ffffffffffffffffffffffffffffffffffffffff021916908373ffffffffffffffffffffffffffffffffffffffff1602179055506040820151816002019080519060200190612122929190613b6d565b50606082015181600301556080820151816004015560a08201518160050160006101000a81548160ff021916908315150217905550905050600860003373ffffffffffffffffffffffffffffffffffffffff1673ffffffffffffffffffffffffffffffffffffffff16815260200190815260200160002060035490806001815401808255809150506001900390600052602060002001600090919091909150556005600083815260200190815260200160002060050160035490806001815401808255809150506001900390600052602060002001600090919091909150556001600c60003373ffffffffffffffffffffffffffffffffffffffff1673ffffffffffffffffffffffffffffffffffffffff16815260200190815260200160002060020160008282546122549190614a4b565b925050819055506005600c60003373ffffffffffffffffffffffffffffffffffffffff1673ffffffffffffffffffffffffffffffffffffffff16815260200190815260200160002060040160008282546122ae9190614a4b565b925050819055506005600c60003373ffffffffffffffffffffffffffffffffffffffff1673ffffffffffffffffffffffffffffffffffffffff16815260200190815260200160002060050160008282546123089190614a4b565b925050819055505050565b6060600b60008373ffffffffffffffffffffffffffffffffffffffff1673ffffffffffffffffffffffffffffffffffffffff168152602001908152602001600020600401805461236290614b5f565b80601f016020809104026020016040519081016040528092919081815260200182805461238e90614b5f565b80156123db5780601f106123b0576101008083540402835291602001916123db565b820191906000526020600020905b8154815290600101906020018083116123be57829003601f168201915b50505050509050919050565b600b6020528060005260406000206000915090508060000160009054906101000a900473ffffffffffffffffffffffffffffffffffffffff169080600101805461243090614b5f565b80601f016020809104026020016040519081016040528092919081815260200182805461245c90614b5f565b80156124a95780601f1061247e576101008083540402835291602001916124a9565b820191906000526020600020905b81548152906001019060200180831161248c57829003601f168201915b5050505050908060020180546124be90614b5f565b80601f01602080910402602001604051908101604052809291908181526020018280546124ea90614b5f565b80156125375780601f1061250c57610100808354040283529160200191612537565b820191906000526020600020905b81548152906001019060200180831161251a57829003601f168201915b50505050509080600301805461254c90614b5f565b80601f016020809104026020016040519081016040528092919081815260200182805461257890614b5f565b80156125c55780601f1061259a576101008083540402835291602001916125c5565b820191906000526020600020905b8154815290600101906020018083116125a857829003601f168201915b5050505050908060040180546125da90614b5f565b80601f016020809104026020016040519081016040528092919081815260200182805461260690614b5f565b80156126535780601f1061262857610100808354040283529160200191612653565b820191906000526020600020905b81548152906001019060200180831161263657829003601f168201915b50505050509080600501805461266890614b5f565b80601f016020809104026020016040519081016040528092919081815260200182805461269490614b5f565b80156126e15780601f106126b6576101008083540402835291602001916126e1565b820191906000526020600020905b8154815290600101906020018083116126c457829003601f168201915b5050505050905086565b60056020528060005260406000206000915090508060000154908060010160009054906101000a900473ffffffffffffffffffffffffffffffffffffffff169080600201805461273a90614b5f565b80601f016020809104026020016040519081016040528092919081815260200182805461276690614b5f565b80156127b35780601f10612788576101008083540402835291602001916127b3565b820191906000526020600020905b81548152906001019060200180831161279657829003601f168201915b5050505050908060030154908060040154905085565b80600f8190555050565b60016005600083815260200190815260200160002060030160008282546127fa9190614a4b565b9250508190555060006005600083815260200190815260200160002060010160009054906101000a900473ffffffffffffffffffffffffffffffffffffffff1690506005600c60008373ffffffffffffffffffffffffffffffffffffffff1673ffffffffffffffffffffffffffffffffffffffff168152602001908152602001600020600401600082825461288f9190614a4b565b925050819055506005600c60003373ffffffffffffffffffffffffffffffffffffffff1673ffffffffffffffffffffffffffffffffffffffff16815260200190815260200160002060050160008282546128e99190614a4b565b925050819055505050565b600a602052816000526040600020818154811061291057600080fd5b90600052602060002001600091509150505481565b60008054906101000a900473ffffffffffffffffffffffffffffffffffffffff1681565b6060600b60008373ffffffffffffffffffffffffffffffffffffffff1673ffffffffffffffffffffffffffffffffffffffff168152602001908152602001600020600301805461299890614b5f565b80601f01602080910402602001604051908101604052809291908181526020018280546129c490614b5f565b8015612a115780601f106129e657610100808354040283529160200191612a11565b820191906000526020600020905b8154815290600101906020018083116129f457829003601f168201915b50505050509050919050565b6000600c60008373ffffffffffffffffffffffffffffffffffffffff1673ffffffffffffffffffffffffffffffffffffffff168152602001908152602001600020600701549050919050565b612a71613c40565b600760008381526020019081526020016000206040518060c0016040529081600082015481526020016001820160009054906101000a900473ffffffffffffffffffffffffffffffffffffffff1673ffffffffffffffffffffffffffffffffffffffff1673ffffffffffffffffffffffffffffffffffffffff168152602001600282018054612aff90614b5f565b80601f0160208091040260200160405190810160405280929190818152602001828054612b2b90614b5f565b8015612b785780601f10612b4d57610100808354040283529160200191612b78565b820191906000526020600020905b815481529060010190602001808311612b5b57829003601f168201915b5050505050815260200160038201548152602001600482015481526020016005820160009054906101000a900460ff1615151515815250509050919050565b60006007600083815260200190815260200160002060010160009054906101000a900473ffffffffffffffffffffffffffffffffffffffff16905060016007600084815260200190815260200160002060050160006101000a81548160ff0219169083151502179055506005600c60008373ffffffffffffffffffffffffffffffffffffffff1673ffffffffffffffffffffffffffffffffffffffff1681526020019081526020016000206004016000828254612c749190614a4b565b925050819055506005600c60003373ffffffffffffffffffffffffffffffffffffffff1673ffffffffffffffffffffffffffffffffffffffff1681526020019081526020016000206005016000828254612cce9190614a4b565b925050819055505050565b6000600c60008373ffffffffffffffffffffffffffffffffffffffff1673ffffffffffffffffffffffffffffffffffffffff168152602001908152602001600020600501549050919050565b60086020528160005260406000208181548110612d4157600080fd5b90600052602060002001600091509150505481565b612d5e613c8e565b600960008381526020019081526020016000206040518060a0016040529081600082015481526020016001820160009054906101000a900473ffffffffffffffffffffffffffffffffffffffff1673ffffffffffffffffffffffffffffffffffffffff1673ffffffffffffffffffffffffffffffffffffffff168152602001600282018054612dec90614b5f565b80601f0160208091040260200160405190810160405280929190818152602001828054612e1890614b5f565b8015612e655780601f10612e3a57610100808354040283529160200191612e65565b820191906000526020600020905b815481529060010190602001808311612e4857829003601f168201915b50505050508152602001600382015481526020016004820154815250509050919050565b60045481565b6000600c60008373ffffffffffffffffffffffffffffffffffffffff1673ffffffffffffffffffffffffffffffffffffffff168152602001908152602001600020600601549050919050565b80600c60008473ffffffffffffffffffffffffffffffffffffffff1673ffffffffffffffffffffffffffffffffffffffff1681526020019081526020016000206007016000828254612f2d9190614a4b565b925050819055505050565b8060096000848152602001908152602001600020600401819055505050565b600060096000838152602001908152602001600020600401549050919050565b6001600760008381526020019081526020016000206004016000828254612f9e9190614a4b565b9250508190555060006007600083815260200190815260200160002060010160009054906101000a900473ffffffffffffffffffffffffffffffffffffffff1690506005600c60008373ffffffffffffffffffffffffffffffffffffffff1673ffffffffffffffffffffffffffffffffffffffff16815260200190815260200160002060040160008282546130339190614aa1565b925050819055506005600c60003373ffffffffffffffffffffffffffffffffffffffff1673ffffffffffffffffffffffffffffffffffffffff168152602001908152602001600020600501600082825461308d9190614aa1565b925050819055505050565b6000600c60008373ffffffffffffffffffffffffffffffffffffffff1673ffffffffffffffffffffffffffffffffffffffff168152602001908152602001600020600401549050919050565b6060600b60008373ffffffffffffffffffffffffffffffffffffffff1673ffffffffffffffffffffffffffffffffffffffff168152602001908152602001600020600101805461313390614b5f565b80601f016020809104026020016040519081016040528092919081815260200182805461315f90614b5f565b80156131ac5780601f10613181576101008083540402835291602001916131ac565b820191906000526020600020905b81548152906001019060200180831161318f57829003601f168201915b50505050509050919050565b6131c0613cd3565b600560008381526020019081526020016000206040518060c0016040529081600082015481526020016001820160009054906101000a900473ffffffffffffffffffffffffffffffffffffffff1673ffffffffffffffffffffffffffffffffffffffff1673ffffffffffffffffffffffffffffffffffffffff16815260200160028201805461324e90614b5f565b80601f016020809104026020016040519081016040528092919081815260200182805461327a90614b5f565b80156132c75780601f1061329c576101008083540402835291602001916132c7565b820191906000526020600020905b8154815290600101906020018083116132aa57829003601f168201915b5050505050815260200160038201548152602001600482015481526020016005820180548060200260200160405190810160405280929190818152602001828054801561333357602002820191906000526020600020905b81548152602001906001019080831161331f575b5050505050815250509050919050565b60006009600083815260200190815260200160002060010160009054906101000a900473ffffffffffffffffffffffffffffffffffffffff169050919050565b600c6020528060005260406000206000915090508060000160009054906101000a900473ffffffffffffffffffffffffffffffffffffffff16908060010154908060020154908060030154908060040154908060050154908060060154908060070154908060080154905089565b6001339080600181540180825580915050600190039060005260206000200160009091909190916101000a81548173ffffffffffffffffffffffffffffffffffffffff021916908373ffffffffffffffffffffffffffffffffffffffff16021790555033600b60003373ffffffffffffffffffffffffffffffffffffffff1673ffffffffffffffffffffffffffffffffffffffff16815260200190815260200160002060000160006101000a81548173ffffffffffffffffffffffffffffffffffffffff021916908373ffffffffffffffffffffffffffffffffffffffff16021790555085600b60003373ffffffffffffffffffffffffffffffffffffffff1673ffffffffffffffffffffffffffffffffffffffff168152602001908152602001600020600101908051906020019061352b929190613b6d565b5084600b60003373ffffffffffffffffffffffffffffffffffffffff1673ffffffffffffffffffffffffffffffffffffffff1681526020019081526020016000206002019080519060200190613582929190613b6d565b5083600b60003373ffffffffffffffffffffffffffffffffffffffff1673ffffffffffffffffffffffffffffffffffffffff16815260200190815260200160002060030190805190602001906135d9929190613b6d565b5082600b60003373ffffffffffffffffffffffffffffffffffffffff1673ffffffffffffffffffffffffffffffffffffffff1681526020019081526020016000206004019080519060200190613630929190613b6d565b5081600b60003373ffffffffffffffffffffffffffffffffffffffff1673ffffffffffffffffffffffffffffffffffffffff1681526020019081526020016000206005019080519060200190613687929190613b6d565b5080600b60003373ffffffffffffffffffffffffffffffffffffffff1673ffffffffffffffffffffffffffffffffffffffff16815260200190815260200160002060060190805190602001906136de929190613d1f565b5033600c60003373ffffffffffffffffffffffffffffffffffffffff1673ffffffffffffffffffffffffffffffffffffffff16815260200190815260200160002060000160006101000a81548173ffffffffffffffffffffffffffffffffffffffff021916908373ffffffffffffffffffffffffffffffffffffffff1602179055506000600c60003373ffffffffffffffffffffffffffffffffffffffff1673ffffffffffffffffffffffffffffffffffffffff168152602001908152602001600020600101819055506000600c60003373ffffffffffffffffffffffffffffffffffffffff1673ffffffffffffffffffffffffffffffffffffffff168152602001908152602001600020600201819055506000600c60003373ffffffffffffffffffffffffffffffffffffffff1673ffffffffffffffffffffffffffffffffffffffff168152602001908152602001600020600401819055506000600c60003373ffffffffffffffffffffffffffffffffffffffff1673ffffffffffffffffffffffffffffffffffffffff168152602001908152602001600020600501819055506000600c60003373ffffffffffffffffffffffffffffffffffffffff1673ffffffffffffffffffffffffffffffffffffffff168152602001908152602001600020600601819055506000600c60003373ffffffffffffffffffffffffffffffffffffffff1673ffffffffffffffffffffffffffffffffffffffff168152602001908152602001600020600701819055506000600c60003373ffffffffffffffffffffffffffffffffffffffff1673ffffffffffffffffffffffffffffffffffffffff16815260200190815260200160002060080181905550505050505050565b80600c60008473ffffffffffffffffffffffffffffffffffffffff1673ffffffffffffffffffffffffffffffffffffffff168152602001908152602001600020600401819055505050565b6000600f54905090565b6000600c60008373ffffffffffffffffffffffffffffffffffffffff1673ffffffffffffffffffffffffffffffffffffffff168152602001908152602001600020600201549050919050565b6001600560008381526020019081526020016000206004016000828254613a289190614a4b565b9250508190555060006005600083815260200190815260200160002060010160009054906101000a900473ffffffffffffffffffffffffffffffffffffffff1690506005600c60008373ffffffffffffffffffffffffffffffffffffffff1673ffffffffffffffffffffffffffffffffffffffff1681526020019081526020016000206004016000828254613abd9190614aa1565b925050819055506005600c60003373ffffffffffffffffffffffffffffffffffffffff1673ffffffffffffffffffffffffffffffffffffffff1681526020019081526020016000206005016000828254613b179190614aa1565b925050819055505050565b80600c60008473ffffffffffffffffffffffffffffffffffffffff1673ffffffffffffffffffffffffffffffffffffffff168152602001908152602001600020600801819055505050565b828054613b7990614b5f565b90600052602060002090601f016020900481019282613b9b5760008555613be2565b82601f10613bb457805160ff1916838001178555613be2565b82800160010185558215613be2579182015b82811115613be1578251825591602001919060010190613bc6565b5b509050613bef9190613d7f565b5090565b828054828255906000526020600020908101928215613c2f579160200282015b82811115613c2e578251825591602001919060010190613c13565b5b509050613c3c9190613d7f565b5090565b6040518060c0016040528060008152602001600073ffffffffffffffffffffffffffffffffffffffff1681526020016060815260200160008152602001600081526020016000151581525090565b6040518060a0016040528060008152602001600073ffffffffffffffffffffffffffffffffffffffff1681526020016060815260200160008152602001600081525090565b6040518060c0016040528060008152602001600073ffffffffffffffffffffffffffffffffffffffff168152602001606081526020016000815260200160008152602001606081525090565b828054828255906000526020600020908101928215613d6e579160200282015b82811115613d6d578251829080519060200190613d5d929190613b6d565b5091602001919060010190613d3f565b5b509050613d7b9190613d9c565b5090565b5b80821115613d98576000816000905550600101613d80565b5090565b5b80821115613dbc5760008181613db39190613dc0565b50600101613d9d565b5090565b508054613dcc90614b5f565b6000825580601f10613dde5750613dfd565b601f016020900490600052602060002090810190613dfc9190613d7f565b5b50565b6000613e13613e0e84614933565b61490e565b90508083825260208201905082856020860282011115613e3257600080fd5b60005b85811015613e7c57813567ffffffffffffffff811115613e5457600080fd5b808601613e618982613f03565b85526020850194506020840193505050600181019050613e35565b5050509392505050565b6000613e99613e948461495f565b61490e565b905082815260208101848484011115613eb157600080fd5b613ebc848285614b1d565b509392505050565b600081359050613ed381614ca9565b92915050565b600082601f830112613eea57600080fd5b8135613efa848260208601613e00565b91505092915050565b600082601f830112613f1457600080fd5b8135613f24848260208601613e86565b91505092915050565b600081359050613f3c81614cc0565b92915050565b600060208284031215613f5457600080fd5b6000613f6284828501613ec4565b91505092915050565b60008060408385031215613f7e57600080fd5b6000613f8c85828601613ec4565b925050602083013567ffffffffffffffff811115613fa957600080fd5b613fb585828601613f03565b9150509250929050565b60008060408385031215613fd257600080fd5b6000613fe085828601613ec4565b9250506020613ff185828601613f2d565b9150509250929050565b6000806040838503121561400e57600080fd5b600083013567ffffffffffffffff81111561402857600080fd5b61403485828601613f03565b925050602083013567ffffffffffffffff81111561405157600080fd5b61405d85828601613ed9565b9150509250929050565b60008060008060008060c0878903121561408057600080fd5b600087013567ffffffffffffffff81111561409a57600080fd5b6140a689828a01613f03565b965050602087013567ffffffffffffffff8111156140c357600080fd5b6140cf89828a01613f03565b955050604087013567ffffffffffffffff8111156140ec57600080fd5b6140f889828a01613f03565b945050606087013567ffffffffffffffff81111561411557600080fd5b61412189828a01613f03565b935050608087013567ffffffffffffffff81111561413e57600080fd5b61414a89828a01613f03565b92505060a087013567ffffffffffffffff81111561416757600080fd5b61417389828a01613ed9565b9150509295509295509295565b60006020828403121561419257600080fd5b60006141a084828501613f2d565b91505092915050565b600080604083850312156141bc57600080fd5b60006141ca85828601613f2d565b925050602083013567ffffffffffffffff8111156141e757600080fd5b6141f385828601613f03565b9150509250929050565b6000806040838503121561421057600080fd5b600061421e85828601613f2d565b925050602061422f85828601613f2d565b9150509250929050565b600061424583836143d2565b905092915050565b60006142598383614604565b60208301905092915050565b61426e81614ad5565b82525050565b61427d81614ad5565b82525050565b600061428e826149b0565b61429881856149eb565b9350836020820285016142aa85614990565b8060005b858110156142e657848403895281516142c78582614239565b94506142d2836149d1565b925060208a019950506001810190506142ae565b50829750879550505050505092915050565b6000614303826149bb565b61430d81856149fc565b9350614318836149a0565b8060005b83811015614349578151614330888261424d565b975061433b836149de565b92505060018101905061431c565b5085935050505092915050565b6000614361826149bb565b61436b8185614a0d565b9350614376836149a0565b8060005b838110156143a757815161438e888261424d565b9750614399836149de565b92505060018101905061437a565b5085935050505092915050565b6143bd81614ae7565b82525050565b6143cc81614ae7565b82525050565b60006143dd826149c6565b6143e78185614a1e565b93506143f7818560208601614b2c565b61440081614c98565b840191505092915050565b6000614416826149c6565b6144208185614a2f565b9350614430818560208601614b2c565b61443981614c98565b840191505092915050565b600061444f826149c6565b6144598185614a40565b9350614469818560208601614b2c565b80840191505092915050565b600060c08301600083015161448d6000860182614604565b5060208301516144a06020860182614265565b50604083015184820360408601526144b882826143d2565b91505060608301516144cd6060860182614604565b5060808301516144e06080860182614604565b5060a08301516144f360a08601826143b4565b508091505092915050565b600060a0830160008301516145166000860182614604565b5060208301516145296020860182614265565b506040830151848203604086015261454182826143d2565b91505060608301516145566060860182614604565b5060808301516145696080860182614604565b508091505092915050565b600060c08301600083015161458c6000860182614604565b50602083015161459f6020860182614265565b50604083015184820360408601526145b782826143d2565b91505060608301516145cc6060860182614604565b5060808301516145df6080860182614604565b5060a083015184820360a08601526145f782826142f8565b9150508091505092915050565b61460d81614b13565b82525050565b61461c81614b13565b82525050565b600061462e8284614444565b915081905092915050565b600060208201905061464e6000830184614274565b92915050565b600060c0820190506146696000830189614274565b818103602083015261467b818861440b565b9050818103604083015261468f818761440b565b905081810360608301526146a3818661440b565b905081810360808301526146b7818561440b565b905081810360a08301526146cb818461440b565b9050979650505050505050565b6000610120820190506146ee600083018c614274565b6146fb602083018b614613565b614708604083018a614613565b6147156060830189614613565b6147226080830188614613565b61472f60a0830187614613565b61473c60c0830186614613565b61474960e0830185614613565b614757610100830184614613565b9a9950505050505050505050565b6000602082019050818103600083015261477f8184614283565b905092915050565b600060208201905081810360008301526147a18184614356565b905092915050565b600060208201905081810360008301526147c3818461440b565b905092915050565b600060208201905081810360008301526147e58184614475565b905092915050565b6000602082019050818103600083015261480781846144fe565b905092915050565b600060208201905081810360008301526148298184614574565b905092915050565b60006020820190506148466000830184614613565b92915050565b600060a0820190506148616000830188614613565b61486e6020830187614274565b8181036040830152614880818661440b565b905061488f6060830185614613565b61489c6080830184614613565b9695505050505050565b600060c0820190506148bb6000830189614613565b6148c86020830188614274565b81810360408301526148da818761440b565b90506148e96060830186614613565b6148f66080830185614613565b61490360a08301846143c3565b979650505050505050565b6000614918614929565b90506149248282614b91565b919050565b6000604051905090565b600067ffffffffffffffff82111561494e5761494d614c69565b5b602082029050602081019050919050565b600067ffffffffffffffff82111561497a57614979614c69565b5b61498382614c98565b9050602081019050919050565b6000819050602082019050919050565b6000819050602082019050919050565b600081519050919050565b600081519050919050565b600081519050919050565b6000602082019050919050565b6000602082019050919050565b600082825260208201905092915050565b600082825260208201905092915050565b600082825260208201905092915050565b600082825260208201905092915050565b600082825260208201905092915050565b600081905092915050565b6000614a5682614b13565b9150614a6183614b13565b9250827fffffffffffffffffffffffffffffffffffffffffffffffffffffffffffffffff03821115614a9657614a95614c0b565b5b828201905092915050565b6000614aac82614b13565b9150614ab783614b13565b925082821015614aca57614ac9614c0b565b5b828203905092915050565b6000614ae082614af3565b9050919050565b60008115159050919050565b600073ffffffffffffffffffffffffffffffffffffffff82169050919050565b6000819050919050565b82818337600083830152505050565b60005b83811015614b4a578082015181840152602081019050614b2f565b83811115614b59576000848401525b50505050565b60006002820490506001821680614b7757607f821691505b60208210811415614b8b57614b8a614c3a565b5b50919050565b614b9a82614c98565b810181811067ffffffffffffffff82111715614bb957614bb8614c69565b5b80604052505050565b6000614bcd82614b13565b91507fffffffffffffffffffffffffffffffffffffffffffffffffffffffffffffffff821415614c0057614bff614c0b565b5b600182019050919050565b7f4e487b7100000000000000000000000000000000000000000000000000000000600052601160045260246000fd5b7f4e487b7100000000000000000000000000000000000000000000000000000000600052602260045260246000fd5b7f4e487b7100000000000000000000000000000000000000000000000000000000600052604160045260246000fd5b6000601f19601f8301169050919050565b614cb281614ad5565b8114614cbd57600080fd5b50565b614cc981614b13565b8114614cd457600080fd5b5056fea26469706673582212205ddeb618bafb5baa35cce31de61d46df7132c48071bbb27dd541e5e1b5a1071d64736f6c63430008040033",
  "linkReferences": {},
  "deployedLinkReferences": {}
}