{
  "_format": "hh-sol-artifact-1",
  "contractName": "Stack",
  "sourceName": "contracts/Stack.sol",
  "abi": [
    {
      "inputs": [],
      "stateMutability": "nonpayable",
      "type": "constructor"
    },
    {
      "inputs": [
        {
          "internalType": "uint256",
          "name": "aid",
          "type": "uint256"
        }
      ],
      "name": "a_downvote",
      "outputs": [],
      "stateMutability": "nonpayable",
      "type": "function"
    },
    {
      "inputs": [],
      "name": "a_id",
      "outputs": [
        {
          "internalType": "uint256",
          "name": "",
          "type": "uint256"
        }
      ],
      "stateMutability": "view",
      "type": "function"
    },
    {
      "inputs": [
        {
          "internalType": "uint256",
          "name": "aid",
          "type": "uint256"
        }
      ],
      "name": "a_upVote",
      "outputs": [],
      "stateMutability": "nonpayable",
      "type": "function"
    },
    {
      "inputs": [
        {
          "internalType": "uint256",
          "name": "qid",
          "type": "uint256"
        },
        {
          "internalType": "string",
          "name": "a_cid",
          "type": "string"
        }
      ],
      "name": "addAnswer",
      "outputs": [],
      "stateMutability": "nonpayable",
      "type": "function"
    },
    {
      "inputs": [
        {
          "internalType": "string",
          "name": "article_cid",
          "type": "string"
        }
      ],
      "name": "addArticle",
      "outputs": [],
      "stateMutability": "nonpayable",
      "type": "function"
    },
    {
      "inputs": [
        {
          "internalType": "uint256",
          "name": "articleid",
          "type": "uint256"
        }
      ],
      "name": "addLike",
      "outputs": [],
      "stateMutability": "nonpayable",
      "type": "function"
    },
    {
      "inputs": [
        {
          "internalType": "string",
          "name": "q_cid",
          "type": "string"
        },
        {
          "internalType": "string[]",
          "name": "tag_name",
          "type": "string[]"
        }
      ],
      "name": "addQuestion",
      "outputs": [],
      "stateMutability": "nonpayable",
      "type": "function"
    },
    {
      "inputs": [
        {
          "internalType": "address",
          "name": "",
          "type": "address"
        },
        {
          "internalType": "string",
          "name": "",
          "type": "string"
        }
      ],
      "name": "addressToTagToScore",
      "outputs": [
        {
          "internalType": "uint256",
          "name": "",
          "type": "uint256"
        }
      ],
      "stateMutability": "view",
      "type": "function"
    },
    {
      "inputs": [
        {
          "internalType": "address",
          "name": "",
          "type": "address"
        }
      ],
      "name": "addressToUser",
      "outputs": [
        {
          "internalType": "address",
          "name": "user",
          "type": "address"
        },
        {
          "internalType": "string",
          "name": "name",
          "type": "string"
        },
        {
          "internalType": "string",
          "name": "email",
          "type": "string"
        },
        {
          "internalType": "string",
          "name": "designation",
          "type": "string"
        },
        {
          "internalType": "string",
          "name": "aboutUSer",
          "type": "string"
        },
        {
          "internalType": "uint256",
          "name": "noOfQuestions",
          "type": "uint256"
        },
        {
          "internalType": "uint256",
          "name": "noOfAnswers",
          "type": "uint256"
        },
        {
          "internalType": "uint256",
          "name": "totalScore",
          "type": "uint256"
        },
        {
          "internalType": "uint256",
          "name": "reputationScore",
          "type": "uint256"
        },
        {
          "internalType": "uint256",
          "name": "totalReward",
          "type": "uint256"
        },
        {
          "internalType": "uint256",
          "name": "totalRedeem",
          "type": "uint256"
        },
        {
          "internalType": "uint256",
          "name": "totalTip",
          "type": "uint256"
        }
      ],
      "stateMutability": "view",
      "type": "function"
    },
    {
      "inputs": [
        {
          "internalType": "uint256",
          "name": "aid",
          "type": "uint256"
        }
      ],
      "name": "approve",
      "outputs": [],
      "stateMutability": "nonpayable",
      "type": "function"
    },
    {
      "inputs": [],
      "name": "article_id",
      "outputs": [
        {
          "internalType": "uint256",
          "name": "",
          "type": "uint256"
        }
      ],
      "stateMutability": "view",
      "type": "function"
    },
    {
      "inputs": [
        {
          "internalType": "string",
          "name": "name",
          "type": "string"
        },
        {
          "internalType": "string",
          "name": "email",
          "type": "string"
        },
        {
          "internalType": "string",
          "name": "designation",
          "type": "string"
        },
        {
          "internalType": "string",
          "name": "aboutUser",
          "type": "string"
        },
        {
          "internalType": "string[]",
          "name": "listOfTags",
          "type": "string[]"
        }
      ],
      "name": "createProfile",
      "outputs": [],
      "stateMutability": "nonpayable",
      "type": "function"
    },
    {
      "inputs": [],
      "name": "getAllUserAnswersId",
      "outputs": [
        {
          "internalType": "uint256[]",
          "name": "",
          "type": "uint256[]"
        }
      ],
      "stateMutability": "view",
      "type": "function"
    },
    {
      "inputs": [],
      "name": "getAllUserArticlesId",
      "outputs": [
        {
          "internalType": "uint256[]",
          "name": "",
          "type": "uint256[]"
        }
      ],
      "stateMutability": "view",
      "type": "function"
    },
    {
      "inputs": [],
      "name": "getAllUserQuestionsId",
      "outputs": [
        {
          "internalType": "uint256[]",
          "name": "",
          "type": "uint256[]"
        }
      ],
      "stateMutability": "view",
      "type": "function"
    },
    {
      "inputs": [
        {
          "internalType": "uint256",
          "name": "aid",
          "type": "uint256"
        }
      ],
      "name": "getAnswer",
      "outputs": [
        {
          "components": [
            {
              "internalType": "uint256",
              "name": "a_id",
              "type": "uint256"
            },
            {
              "internalType": "address",
              "name": "user",
              "type": "address"
            },
            {
              "internalType": "string",
              "name": "a_cid",
              "type": "string"
            },
            {
              "internalType": "uint256",
              "name": "a_upvote",
              "type": "uint256"
            },
            {
              "internalType": "uint256",
              "name": "a_downvote",
              "type": "uint256"
            },
            {
              "internalType": "bool",
              "name": "isApproved",
              "type": "bool"
            }
          ],
          "internalType": "struct Stack.AnswerInfo",
          "name": "",
          "type": "tuple"
        }
      ],
      "stateMutability": "view",
      "type": "function"
    },
    {
      "inputs": [
        {
          "internalType": "uint256",
          "name": "articleid",
          "type": "uint256"
        }
      ],
      "name": "getArticle",
      "outputs": [
        {
          "components": [
            {
              "internalType": "uint256",
              "name": "article_id",
              "type": "uint256"
            },
            {
              "internalType": "address",
              "name": "user",
              "type": "address"
            },
            {
              "internalType": "string",
              "name": "article_cid",
              "type": "string"
            },
            {
              "internalType": "uint256",
              "name": "noOfLikes",
              "type": "uint256"
            },
            {
              "internalType": "uint256",
              "name": "tip",
              "type": "uint256"
            }
          ],
          "internalType": "struct Stack.ArticleInfo",
          "name": "",
          "type": "tuple"
        }
      ],
      "stateMutability": "view",
      "type": "function"
    },
    {
      "inputs": [
        {
          "internalType": "uint256",
          "name": "qid",
          "type": "uint256"
        }
      ],
      "name": "getQuestion",
      "outputs": [
        {
          "components": [
            {
              "internalType": "uint256",
              "name": "q_id",
              "type": "uint256"
            },
            {
              "internalType": "address",
              "name": "user",
              "type": "address"
            },
            {
              "internalType": "string",
              "name": "q_cid",
              "type": "string"
            },
            {
              "internalType": "uint256",
              "name": "q_upvote",
              "type": "uint256"
            },
            {
              "internalType": "uint256",
              "name": "q_downvote",
              "type": "uint256"
            },
            {
              "internalType": "uint256[]",
              "name": "ans_id",
              "type": "uint256[]"
            }
          ],
          "internalType": "struct Stack.QuestionInfo",
          "name": "",
          "type": "tuple"
        }
      ],
      "stateMutability": "view",
      "type": "function"
    },
    {
      "inputs": [
        {
          "internalType": "uint256",
          "name": "articleid",
          "type": "uint256"
        }
      ],
      "name": "getTipFromArticleId",
      "outputs": [
        {
          "internalType": "uint256",
          "name": "",
          "type": "uint256"
        }
      ],
      "stateMutability": "view",
      "type": "function"
    },
    {
      "inputs": [],
      "name": "getTokensSold",
      "outputs": [
        {
          "internalType": "uint256",
          "name": "",
          "type": "uint256"
        }
      ],
      "stateMutability": "view",
      "type": "function"
    },
    {
      "inputs": [
        {
          "internalType": "address",
          "name": "user",
          "type": "address"
        }
      ],
      "name": "getTotalRedeem",
      "outputs": [
        {
          "internalType": "uint256",
          "name": "",
          "type": "uint256"
        }
      ],
      "stateMutability": "view",
      "type": "function"
    },
    {
      "inputs": [
        {
          "internalType": "address",
          "name": "user",
          "type": "address"
        }
      ],
      "name": "getTotalScore",
      "outputs": [
        {
          "internalType": "uint256",
          "name": "",
          "type": "uint256"
        }
      ],
      "stateMutability": "view",
      "type": "function"
    },
    {
      "inputs": [
        {
          "internalType": "address",
          "name": "user",
          "type": "address"
        }
      ],
      "name": "getUserDescription",
      "outputs": [
        {
          "internalType": "string",
          "name": "",
          "type": "string"
        }
      ],
      "stateMutability": "view",
      "type": "function"
    },
    {
      "inputs": [
        {
          "internalType": "address",
          "name": "user",
          "type": "address"
        }
      ],
      "name": "getUserDesignation",
      "outputs": [
        {
          "internalType": "string",
          "name": "",
          "type": "string"
        }
      ],
      "stateMutability": "view",
      "type": "function"
    },
    {
      "inputs": [
        {
          "internalType": "address",
          "name": "user",
          "type": "address"
        }
      ],
      "name": "getUserEmail",
      "outputs": [
        {
          "internalType": "string",
          "name": "",
          "type": "string"
        }
      ],
      "stateMutability": "view",
      "type": "function"
    },
    {
      "inputs": [
        {
          "internalType": "uint256",
          "name": "articleid",
          "type": "uint256"
        }
      ],
      "name": "getUserFromArticleId",
      "outputs": [
        {
          "internalType": "address",
          "name": "",
          "type": "address"
        }
      ],
      "stateMutability": "view",
      "type": "function"
    },
    {
      "inputs": [
        {
          "internalType": "address",
          "name": "user",
          "type": "address"
        }
      ],
      "name": "getUserName",
      "outputs": [
        {
          "internalType": "string",
          "name": "",
          "type": "string"
        }
      ],
      "stateMutability": "view",
      "type": "function"
    },
    {
      "inputs": [
        {
          "internalType": "address",
          "name": "user",
          "type": "address"
        }
      ],
      "name": "getUserNoOfAnswers",
      "outputs": [
        {
          "internalType": "uint256",
          "name": "",
          "type": "uint256"
        }
      ],
      "stateMutability": "view",
      "type": "function"
    },
    {
      "inputs": [
        {
          "internalType": "address",
          "name": "user",
          "type": "address"
        }
      ],
      "name": "getUserNoOfQuestions",
      "outputs": [
        {
          "internalType": "uint256",
          "name": "",
          "type": "uint256"
        }
      ],
      "stateMutability": "view",
      "type": "function"
    },
    {
      "inputs": [
        {
          "internalType": "address",
          "name": "user",
          "type": "address"
        }
      ],
      "name": "getUserReputation",
      "outputs": [
        {
          "internalType": "uint256",
          "name": "",
          "type": "uint256"
        }
      ],
      "stateMutability": "view",
      "type": "function"
    },
    {
      "inputs": [
        {
          "internalType": "address",
          "name": "user",
          "type": "address"
        }
      ],
      "name": "getUserReward",
      "outputs": [
        {
          "internalType": "uint256",
          "name": "",
          "type": "uint256"
        }
      ],
      "stateMutability": "view",
      "type": "function"
    },
    {
      "inputs": [],
      "name": "getUserTage",
      "outputs": [
        {
          "internalType": "string[]",
          "name": "",
          "type": "string[]"
        }
      ],
      "stateMutability": "view",
      "type": "function"
    },
    {
      "inputs": [
        {
          "internalType": "address",
          "name": "user",
          "type": "address"
        }
      ],
      "name": "getUserTags",
      "outputs": [
        {
          "internalType": "string[]",
          "name": "",
          "type": "string[]"
        }
      ],
      "stateMutability": "view",
      "type": "function"
    },
    {
      "inputs": [
        {
          "internalType": "address",
          "name": "user",
          "type": "address"
        }
      ],
      "name": "getUserTotalTip",
      "outputs": [
        {
          "internalType": "uint256",
          "name": "",
          "type": "uint256"
        }
      ],
      "stateMutability": "view",
      "type": "function"
    },
    {
      "inputs": [
        {
          "internalType": "uint256",
          "name": "",
          "type": "uint256"
        }
      ],
      "name": "idToAnswer",
      "outputs": [
        {
          "internalType": "uint256",
          "name": "a_id",
          "type": "uint256"
        },
        {
          "internalType": "address",
          "name": "user",
          "type": "address"
        },
        {
          "internalType": "string",
          "name": "a_cid",
          "type": "string"
        },
        {
          "internalType": "uint256",
          "name": "a_upvote",
          "type": "uint256"
        },
        {
          "internalType": "uint256",
          "name": "a_downvote",
          "type": "uint256"
        },
        {
          "internalType": "bool",
          "name": "isApproved",
          "type": "bool"
        }
      ],
      "stateMutability": "view",
      "type": "function"
    },
    {
      "inputs": [
        {
          "internalType": "uint256",
          "name": "",
          "type": "uint256"
        }
      ],
      "name": "idToArticle",
      "outputs": [
        {
          "internalType": "uint256",
          "name": "article_id",
          "type": "uint256"
        },
        {
          "internalType": "address",
          "name": "user",
          "type": "address"
        },
        {
          "internalType": "string",
          "name": "article_cid",
          "type": "string"
        },
        {
          "internalType": "uint256",
          "name": "noOfLikes",
          "type": "uint256"
        },
        {
          "internalType": "uint256",
          "name": "tip",
          "type": "uint256"
        }
      ],
      "stateMutability": "view",
      "type": "function"
    },
    {
      "inputs": [
        {
          "internalType": "uint256",
          "name": "",
          "type": "uint256"
        }
      ],
      "name": "idToQuestion",
      "outputs": [
        {
          "internalType": "uint256",
          "name": "q_id",
          "type": "uint256"
        },
        {
          "internalType": "address",
          "name": "user",
          "type": "address"
        },
        {
          "internalType": "string",
          "name": "q_cid",
          "type": "string"
        },
        {
          "internalType": "uint256",
          "name": "q_upvote",
          "type": "uint256"
        },
        {
          "internalType": "uint256",
          "name": "q_downvote",
          "type": "uint256"
        }
      ],
      "stateMutability": "view",
      "type": "function"
    },
    {
      "inputs": [],
      "name": "owner",
      "outputs": [
        {
          "internalType": "address",
          "name": "",
          "type": "address"
        }
      ],
      "stateMutability": "view",
      "type": "function"
    },
    {
      "inputs": [
        {
          "internalType": "uint256",
          "name": "qid",
          "type": "uint256"
        }
      ],
      "name": "q_downvote",
      "outputs": [],
      "stateMutability": "nonpayable",
      "type": "function"
    },
    {
      "inputs": [],
      "name": "q_id",
      "outputs": [
        {
          "internalType": "uint256",
          "name": "",
          "type": "uint256"
        }
      ],
      "stateMutability": "view",
      "type": "function"
    },
    {
      "inputs": [
        {
          "internalType": "uint256",
          "name": "qid",
          "type": "uint256"
        }
      ],
      "name": "q_upVote",
      "outputs": [],
      "stateMutability": "nonpayable",
      "type": "function"
    },
    {
      "inputs": [
        {
          "internalType": "uint256",
          "name": "articleid",
          "type": "uint256"
        },
        {
          "internalType": "uint256",
          "name": "tip",
          "type": "uint256"
        }
      ],
      "name": "setTipFromArticleId",
      "outputs": [],
      "stateMutability": "nonpayable",
      "type": "function"
    },
    {
      "inputs": [
        {
          "internalType": "uint256",
          "name": "tokei",
          "type": "uint256"
        }
      ],
      "name": "setTokenSold",
      "outputs": [],
      "stateMutability": "nonpayable",
      "type": "function"
    },
    {
      "inputs": [
        {
          "internalType": "address",
          "name": "user",
          "type": "address"
        },
        {
          "internalType": "uint256",
          "name": "redeem",
          "type": "uint256"
        }
      ],
      "name": "setTotalRedeem",
      "outputs": [],
      "stateMutability": "nonpayable",
      "type": "function"
    },
    {
      "inputs": [
        {
          "internalType": "address",
          "name": "user",
          "type": "address"
        },
        {
          "internalType": "uint256",
          "name": "score",
          "type": "uint256"
        }
      ],
      "name": "setTotalScore",
      "outputs": [],
      "stateMutability": "nonpayable",
      "type": "function"
    },
    {
      "inputs": [
        {
          "internalType": "address",
          "name": "user",
          "type": "address"
        },
        {
          "internalType": "uint256",
          "name": "totaltip",
          "type": "uint256"
        }
      ],
      "name": "setUserTotalTip",
      "outputs": [],
      "stateMutability": "nonpayable",
      "type": "function"
    },
    {
      "inputs": [],
      "name": "tokensSold",
      "outputs": [
        {
          "internalType": "uint256",
          "name": "",
          "type": "uint256"
        }
      ],
      "stateMutability": "view",
      "type": "function"
    },
    {
      "inputs": [
        {
          "internalType": "address",
          "name": "",
          "type": "address"
        },
        {
          "internalType": "uint256",
          "name": "",
          "type": "uint256"
        }
      ],
      "name": "userToAnswers",
      "outputs": [
        {
          "internalType": "uint256",
          "name": "",
          "type": "uint256"
        }
      ],
      "stateMutability": "view",
      "type": "function"
    },
    {
      "inputs": [
        {
          "internalType": "address",
          "name": "",
          "type": "address"
        },
        {
          "internalType": "uint256",
          "name": "",
          "type": "uint256"
        }
      ],
      "name": "userToArticle",
      "outputs": [
        {
          "internalType": "uint256",
          "name": "",
          "type": "uint256"
        }
      ],
      "stateMutability": "view",
      "type": "function"
    },
    {
      "inputs": [
        {
          "internalType": "address",
          "name": "",
          "type": "address"
        },
        {
          "internalType": "uint256",
          "name": "",
          "type": "uint256"
        }
      ],
      "name": "userToQuestions",
      "outputs": [
        {
          "internalType": "uint256",
          "name": "",
          "type": "uint256"
        }
      ],
      "stateMutability": "view",
      "type": "function"
    },
    {
      "inputs": [
        {
          "internalType": "uint256",
          "name": "",
          "type": "uint256"
        }
      ],
      "name": "users",
      "outputs": [
        {
          "internalType": "address",
          "name": "",
          "type": "address"
        }
      ],
      "stateMutability": "view",
      "type": "function"
    }
  ],
  "bytecode": "0x60806040526064600d556000600e5534801561001a57600080fd5b50336000806101000a81548173ffffffffffffffffffffffffffffffffffffffff021916908373ffffffffffffffffffffffffffffffffffffffff1602179055506147088061006a6000396000f3fe608060405234801561001057600080fd5b50600436106102f05760003560e01c806386eeed0f1161019d578063d075d4a6116100e9578063e9bf0fad116100a2578063f65f58061161007c578063f65f580614610a39578063f824333a14610a69578063f989128c14610a85578063fa2a84a214610aa1576102f0565b8063e9bf0fad146109c4578063edf53886146109e0578063ee7c0db014610a1b576102f0565b8063d075d4a6146108b8578063d14083fd146108e8578063d283b3c514610904578063d84f55ee14610934578063db88176f14610964578063e6bb0c3914610994576102f0565b8063baccbfdb11610156578063c757d53c11610130578063c757d53c14610832578063c75ebb8214610850578063ca6205ad14610880578063ce9e793b1461089c576102f0565b8063baccbfdb146107a2578063bc08bdfe146107d2578063bd85d86714610802576102f0565b806386eeed0f146106a85780638da5cb5b146106d85780639480e948146106f657806395a7c4b214610726578063b5ab58dc14610756578063b759f95414610786576102f0565b8063378a35cd1161025c578063649c86381161021557806377e997b9116101ef57806377e997b91461060c5780637ca490dc1461063c5780637efe79391461067057806380acf04f1461068c576102f0565b8063649c86381461059f5780636e1467ed146105bb5780637491995a146105f0576102f0565b8063378a35cd146104b35780633a21cfb5146104cf5780633e8f032d146104ff57806348500abc1461052f578063518ab2a814610563578063619d40c014610581576102f0565b80631967accc116102ae5780631967accc146103dd57806320405979146103f95780632101ca87146104295780632b35b5ae146104475780633393490714610465578063365b98b214610483576102f0565b8062f2efa0146102f557806301cb3e63146103255780630b43f7c5146103435780630c971a461461037357806314b8c1561461038f578063165acb58146103bf575b600080fd5b61030f600480360381019061030a9190613961565b610abd565b60405161031c9190614160565b60405180910390f35b61032d610bd8565b60405161033a9190614182565b60405180910390f35b61035d6004803603810190610358919061398a565b610c6d565b60405161036a919061422c565b60405180910390f35b61038d60048036038101906103889190613a1a565b610ca8565b005b6103a960048036038101906103a49190613961565b610ebc565b6040516103b6919061422c565b60405180910390f35b6103c7610f08565b6040516103d49190614182565b60405180910390f35b6103f760048036038101906103f29190613bb6565b610f9d565b005b610413600480360381019061040e91906139de565b6110be565b604051610420919061422c565b60405180910390f35b6104316110ef565b60405161043e919061422c565b60405180910390f35b61044f6110f5565b60405161045c9190614182565b60405180910390f35b61046d61118a565b60405161047a919061422c565b60405180910390f35b61049d60048036038101906104989190613bb6565b611190565b6040516104aa919061406f565b60405180910390f35b6104cd60048036038101906104c89190613bb6565b6111cf565b005b6104e960048036038101906104e49190613961565b611200565b6040516104f691906141a4565b60405180910390f35b61051960048036038101906105149190613961565b6112d4565b604051610526919061422c565b60405180910390f35b61054960048036038101906105449190613bb6565b611320565b60405161055a959493929190614247565b60405180910390f35b61056b6113fe565b604051610578919061422c565b60405180910390f35b610589611404565b6040516105969190614160565b60405180910390f35b6105b960048036038101906105b49190613a5b565b61151d565b005b6105d560048036038101906105d09190613bb6565b611b15565b6040516105e7969594939291906142a1565b60405180910390f35b61060a60048036038101906106059190613bdf565b611c06565b005b61062660048036038101906106219190613961565b611edd565b60405161063391906141a4565b60405180910390f35b61065660048036038101906106519190613bb6565b611fb1565b604051610667959493929190614247565b60405180910390f35b61068a60048036038101906106859190613bb6565b61208f565b005b6106a660048036038101906106a19190613bb6565b612099565b005b6106c260048036038101906106bd91906139de565b6121ba565b6040516106cf919061422c565b60405180910390f35b6106e06121eb565b6040516106ed919061406f565b60405180910390f35b610710600480360381019061070b9190613961565b61220f565b60405161071d91906141a4565b60405180910390f35b610740600480360381019061073b9190613961565b6122e3565b60405161074d919061422c565b60405180910390f35b610770600480360381019061076b9190613bb6565b61232f565b60405161077d91906141c6565b60405180910390f35b6107a0600480360381019061079b9190613bb6565b61247d565b005b6107bc60048036038101906107b79190613961565b61259f565b6040516107c9919061422c565b60405180910390f35b6107ec60048036038101906107e791906139de565b6125eb565b6040516107f9919061422c565b60405180910390f35b61081c60048036038101906108179190613bb6565b61261c565b60405161082991906141e8565b60405180910390f35b61083a61274f565b604051610847919061422c565b60405180910390f35b61086a60048036038101906108659190613961565b612755565b604051610877919061422c565b60405180910390f35b61089a600480360381019061089591906139de565b6127a1565b005b6108b660048036038101906108b19190613c33565b6127fe565b005b6108d260048036038101906108cd9190613bb6565b61281d565b6040516108df919061422c565b60405180910390f35b61090260048036038101906108fd9190613bb6565b61283d565b005b61091e60048036038101906109199190613961565b61295e565b60405161092b919061422c565b60405180910390f35b61094e60048036038101906109499190613961565b6129aa565b60405161095b91906141a4565b60405180910390f35b61097e60048036038101906109799190613bb6565b612a7e565b60405161098b919061420a565b60405180910390f35b6109ae60048036038101906109a99190613bb6565b612c09565b6040516109bb919061406f565b60405180910390f35b6109de60048036038101906109d991906139de565b612c49565b005b6109fa60048036038101906109f59190613961565b612c94565b604051610a129c9b9a9998979695949392919061408a565b60405180910390f35b610a23612f34565b604051610a30919061422c565b60405180910390f35b610a536004803603810190610a4e9190613961565b612f3e565b604051610a60919061422c565b60405180910390f35b610a836004803603810190610a7e9190613bb6565b612f8a565b005b610a9f6004803603810190610a9a91906139de565b6130ab565b005b610abb6004803603810190610ab69190613ac7565b6130f6565b005b6060600b60008373ffffffffffffffffffffffffffffffffffffffff1673ffffffffffffffffffffffffffffffffffffffff168152602001908152602001600020600c01805480602002602001604051908101604052809291908181526020016000905b82821015610bcd578382906000526020600020018054610b409061455a565b80601f0160208091040260200160405190810160405280929190818152602001828054610b6c9061455a565b8015610bb95780601f10610b8e57610100808354040283529160200191610bb9565b820191906000526020600020905b815481529060010190602001808311610b9c57829003601f168201915b505050505081526020019060010190610b21565b505050509050919050565b6060600860003373ffffffffffffffffffffffffffffffffffffffff1673ffffffffffffffffffffffffffffffffffffffff168152602001908152602001600020805480602002602001604051908101604052809291908181526020018280548015610c6357602002820191906000526020600020905b815481526020019060010190808311610c4f575b5050505050905090565b600c60205281600052604060002081805160208101820180518482526020830160208501208183528095505050505050600091509150505481565b600160046000828254610cbb9190614446565b925050819055506040518060a0016040528060045481526020013373ffffffffffffffffffffffffffffffffffffffff1681526020018281526020016000815260200160008152506009600060045481526020019081526020016000206000820151816000015560208201518160010160006101000a81548173ffffffffffffffffffffffffffffffffffffffff021916908373ffffffffffffffffffffffffffffffffffffffff1602179055506040820151816002019080519060200190610d8592919061358c565b506060820151816003015560808201518160040155905050600a60003373ffffffffffffffffffffffffffffffffffffffff1673ffffffffffffffffffffffffffffffffffffffff16815260200190815260200160002060045490806001815401808255809150506001900390600052602060002001600090919091909150556005600b60003373ffffffffffffffffffffffffffffffffffffffff1673ffffffffffffffffffffffffffffffffffffffff1681526020019081526020016000206007016000828254610e589190614446565b925050819055506005600b60003373ffffffffffffffffffffffffffffffffffffffff1673ffffffffffffffffffffffffffffffffffffffff1681526020019081526020016000206008016000828254610eb29190614446565b9250508190555050565b6000600b60008373ffffffffffffffffffffffffffffffffffffffff1673ffffffffffffffffffffffffffffffffffffffff168152602001908152602001600020600501549050919050565b6060600660003373ffffffffffffffffffffffffffffffffffffffff1673ffffffffffffffffffffffffffffffffffffffff168152602001908152602001600020805480602002602001604051908101604052809291908181526020018280548015610f9357602002820191906000526020600020905b815481526020019060010190808311610f7f575b5050505050905090565b6001600760008381526020019081526020016000206003016000828254610fc49190614446565b9250508190555060006007600083815260200190815260200160002060010160009054906101000a900473ffffffffffffffffffffffffffffffffffffffff1690506005600b60008373ffffffffffffffffffffffffffffffffffffffff1673ffffffffffffffffffffffffffffffffffffffff16815260200190815260200160002060070160008282546110599190614446565b925050819055506005600b60003373ffffffffffffffffffffffffffffffffffffffff1673ffffffffffffffffffffffffffffffffffffffff16815260200190815260200160002060080160008282546110b39190614446565b925050819055505050565b600660205281600052604060002081815481106110da57600080fd5b90600052602060002001600091509150505481565b60035481565b6060600a60003373ffffffffffffffffffffffffffffffffffffffff1673ffffffffffffffffffffffffffffffffffffffff16815260200190815260200160002080548060200260200160405190810160405280929190818152602001828054801561118057602002820191906000526020600020905b81548152602001906001019080831161116c575b5050505050905090565b60025481565b600181815481106111a057600080fd5b906000526020600020016000915054906101000a900473ffffffffffffffffffffffffffffffffffffffff1681565b60016009600083815260200190815260200160002060030160008282546111f69190614446565b9250508190555050565b6060600b60008373ffffffffffffffffffffffffffffffffffffffff1673ffffffffffffffffffffffffffffffffffffffff168152602001908152602001600020600401805461124f9061455a565b80601f016020809104026020016040519081016040528092919081815260200182805461127b9061455a565b80156112c85780601f1061129d576101008083540402835291602001916112c8565b820191906000526020600020905b8154815290600101906020018083116112ab57829003601f168201915b50505050509050919050565b6000600b60008373ffffffffffffffffffffffffffffffffffffffff1673ffffffffffffffffffffffffffffffffffffffff168152602001908152602001600020600b01549050919050565b60096020528060005260406000206000915090508060000154908060010160009054906101000a900473ffffffffffffffffffffffffffffffffffffffff169080600201805461136f9061455a565b80601f016020809104026020016040519081016040528092919081815260200182805461139b9061455a565b80156113e85780601f106113bd576101008083540402835291602001916113e8565b820191906000526020600020905b8154815290600101906020018083116113cb57829003601f168201915b5050505050908060030154908060040154905085565b600e5481565b6060600b60003373ffffffffffffffffffffffffffffffffffffffff1673ffffffffffffffffffffffffffffffffffffffff168152602001908152602001600020600c01805480602002602001604051908101604052809291908181526020016000905b828210156115145783829060005260206000200180546114879061455a565b80601f01602080910402602001604051908101604052809291908181526020018280546114b39061455a565b80156115005780601f106114d557610100808354040283529160200191611500565b820191906000526020600020905b8154815290600101906020018083116114e357829003601f168201915b505050505081526020019060010190611468565b50505050905090565b6001600260008282546115309190614446565b925050819055506040518060c0016040528060025481526020013373ffffffffffffffffffffffffffffffffffffffff1681526020018381526020016000815260200160008152602001600067ffffffffffffffff8111156115bb577f4e487b7100000000000000000000000000000000000000000000000000000000600052604160045260246000fd5b6040519080825280602002602001820160405280156115e95781602001602082028036833780820191505090505b508152506005600060025481526020019081526020016000206000820151816000015560208201518160010160006101000a81548173ffffffffffffffffffffffffffffffffffffffff021916908373ffffffffffffffffffffffffffffffffffffffff160217905550604082015181600201908051906020019061166f92919061358c565b50606082015181600301556080820151816004015560a08201518160050190805190602001906116a0929190613612565b50905050600660003373ffffffffffffffffffffffffffffffffffffffff1673ffffffffffffffffffffffffffffffffffffffff16815260200190815260200160002060025490806001815401808255809150506001900390600052602060002001600090919091909150556001600b60003373ffffffffffffffffffffffffffffffffffffffff1673ffffffffffffffffffffffffffffffffffffffff168152602001908152602001600020600501600082825461175f9190614446565b925050819055506005600b60003373ffffffffffffffffffffffffffffffffffffffff1673ffffffffffffffffffffffffffffffffffffffff16815260200190815260200160002060070160008282546117b99190614446565b925050819055506005600b60003373ffffffffffffffffffffffffffffffffffffffff1673ffffffffffffffffffffffffffffffffffffffff16815260200190815260200160002060080160008282546118139190614446565b9250508190555060005b8151811015611b10576005600c60003373ffffffffffffffffffffffffffffffffffffffff1673ffffffffffffffffffffffffffffffffffffffff1681526020019081526020016000208383815181106118a0577f4e487b7100000000000000000000000000000000000000000000000000000000600052603260045260246000fd5b60200260200101516040516118b59190614058565b908152602001604051809103902060008282546118d29190614446565b9250508190555060001515600b60003373ffffffffffffffffffffffffffffffffffffffff1673ffffffffffffffffffffffffffffffffffffffff168152602001908152602001600020600d01838381518110611958577f4e487b7100000000000000000000000000000000000000000000000000000000600052603260045260246000fd5b602002602001015160405161196d9190614058565b908152602001604051809103902060009054906101000a900460ff1615151415611afd57600b60003373ffffffffffffffffffffffffffffffffffffffff1673ffffffffffffffffffffffffffffffffffffffff168152602001908152602001600020600c01828281518110611a0c577f4e487b7100000000000000000000000000000000000000000000000000000000600052603260045260246000fd5b6020026020010151908060018154018082558091505060019003906000526020600020016000909190919091509080519060200190611a4c92919061358c565b5060011515600b60003373ffffffffffffffffffffffffffffffffffffffff1673ffffffffffffffffffffffffffffffffffffffff168152602001908152602001600020600d01838381518110611acc577f4e487b7100000000000000000000000000000000000000000000000000000000600052603260045260246000fd5b6020026020010151604051611ae19190614058565b908152602001604051809103902060009054906101000a905050505b8080611b08906145bd565b91505061181d565b505050565b60076020528060005260406000206000915090508060000154908060010160009054906101000a900473ffffffffffffffffffffffffffffffffffffffff1690806002018054611b649061455a565b80601f0160208091040260200160405190810160405280929190818152602001828054611b909061455a565b8015611bdd5780601f10611bb257610100808354040283529160200191611bdd565b820191906000526020600020905b815481529060010190602001808311611bc057829003601f168201915b5050505050908060030154908060040154908060050160009054906101000a900460ff16905086565b600160036000828254611c199190614446565b925050819055506040518060c0016040528060035481526020013373ffffffffffffffffffffffffffffffffffffffff1681526020018281526020016000815260200160008152602001600015158152506007600060035481526020019081526020016000206000820151816000015560208201518160010160006101000a81548173ffffffffffffffffffffffffffffffffffffffff021916908373ffffffffffffffffffffffffffffffffffffffff1602179055506040820151816002019080519060200190611cec92919061358c565b50606082015181600301556080820151816004015560a08201518160050160006101000a81548160ff021916908315150217905550905050600860003373ffffffffffffffffffffffffffffffffffffffff1673ffffffffffffffffffffffffffffffffffffffff16815260200190815260200160002060035490806001815401808255809150506001900390600052602060002001600090919091909150556005600083815260200190815260200160002060050160035490806001815401808255809150506001900390600052602060002001600090919091909150556001600b60003373ffffffffffffffffffffffffffffffffffffffff1673ffffffffffffffffffffffffffffffffffffffff1681526020019081526020016000206006016000828254611e1e9190614446565b925050819055506005600b60003373ffffffffffffffffffffffffffffffffffffffff1673ffffffffffffffffffffffffffffffffffffffff1681526020019081526020016000206007016000828254611e789190614446565b925050819055506005600b60003373ffffffffffffffffffffffffffffffffffffffff1673ffffffffffffffffffffffffffffffffffffffff1681526020019081526020016000206008016000828254611ed29190614446565b925050819055505050565b6060600b60008373ffffffffffffffffffffffffffffffffffffffff1673ffffffffffffffffffffffffffffffffffffffff1681526020019081526020016000206003018054611f2c9061455a565b80601f0160208091040260200160405190810160405280929190818152602001828054611f589061455a565b8015611fa55780601f10611f7a57610100808354040283529160200191611fa5565b820191906000526020600020905b815481529060010190602001808311611f8857829003601f168201915b50505050509050919050565b60056020528060005260406000206000915090508060000154908060010160009054906101000a900473ffffffffffffffffffffffffffffffffffffffff16908060020180546120009061455a565b80601f016020809104026020016040519081016040528092919081815260200182805461202c9061455a565b80156120795780601f1061204e57610100808354040283529160200191612079565b820191906000526020600020905b81548152906001019060200180831161205c57829003601f168201915b5050505050908060030154908060040154905085565b80600e8190555050565b60016005600083815260200190815260200160002060030160008282546120c09190614446565b9250508190555060006005600083815260200190815260200160002060010160009054906101000a900473ffffffffffffffffffffffffffffffffffffffff1690506005600b60008373ffffffffffffffffffffffffffffffffffffffff1673ffffffffffffffffffffffffffffffffffffffff16815260200190815260200160002060070160008282546121559190614446565b925050819055506005600b60003373ffffffffffffffffffffffffffffffffffffffff1673ffffffffffffffffffffffffffffffffffffffff16815260200190815260200160002060080160008282546121af9190614446565b925050819055505050565b600a60205281600052604060002081815481106121d657600080fd5b90600052602060002001600091509150505481565b60008054906101000a900473ffffffffffffffffffffffffffffffffffffffff1681565b6060600b60008373ffffffffffffffffffffffffffffffffffffffff1673ffffffffffffffffffffffffffffffffffffffff168152602001908152602001600020600201805461225e9061455a565b80601f016020809104026020016040519081016040528092919081815260200182805461228a9061455a565b80156122d75780601f106122ac576101008083540402835291602001916122d7565b820191906000526020600020905b8154815290600101906020018083116122ba57829003601f168201915b50505050509050919050565b6000600b60008373ffffffffffffffffffffffffffffffffffffffff1673ffffffffffffffffffffffffffffffffffffffff168152602001908152602001600020600a01549050919050565b61233761365f565b600760008381526020019081526020016000206040518060c0016040529081600082015481526020016001820160009054906101000a900473ffffffffffffffffffffffffffffffffffffffff1673ffffffffffffffffffffffffffffffffffffffff1673ffffffffffffffffffffffffffffffffffffffff1681526020016002820180546123c59061455a565b80601f01602080910402602001604051908101604052809291908181526020018280546123f19061455a565b801561243e5780601f106124135761010080835404028352916020019161243e565b820191906000526020600020905b81548152906001019060200180831161242157829003601f168201915b5050505050815260200160038201548152602001600482015481526020016005820160009054906101000a900460ff1615151515815250509050919050565b60006007600083815260200190815260200160002060010160009054906101000a900473ffffffffffffffffffffffffffffffffffffffff16905060016007600084815260200190815260200160002060050160006101000a81548160ff0219169083151502179055506005600b60008373ffffffffffffffffffffffffffffffffffffffff1673ffffffffffffffffffffffffffffffffffffffff168152602001908152602001600020600701600082825461253a9190614446565b925050819055506005600b60003373ffffffffffffffffffffffffffffffffffffffff1673ffffffffffffffffffffffffffffffffffffffff16815260200190815260200160002060080160008282546125949190614446565b925050819055505050565b6000600b60008373ffffffffffffffffffffffffffffffffffffffff1673ffffffffffffffffffffffffffffffffffffffff168152602001908152602001600020600801549050919050565b6008602052816000526040600020818154811061260757600080fd5b90600052602060002001600091509150505481565b6126246136ad565b600960008381526020019081526020016000206040518060a0016040529081600082015481526020016001820160009054906101000a900473ffffffffffffffffffffffffffffffffffffffff1673ffffffffffffffffffffffffffffffffffffffff1673ffffffffffffffffffffffffffffffffffffffff1681526020016002820180546126b29061455a565b80601f01602080910402602001604051908101604052809291908181526020018280546126de9061455a565b801561272b5780601f106127005761010080835404028352916020019161272b565b820191906000526020600020905b81548152906001019060200180831161270e57829003601f168201915b50505050508152602001600382015481526020016004820154815250509050919050565b60045481565b6000600b60008373ffffffffffffffffffffffffffffffffffffffff1673ffffffffffffffffffffffffffffffffffffffff168152602001908152602001600020600901549050919050565b80600b60008473ffffffffffffffffffffffffffffffffffffffff1673ffffffffffffffffffffffffffffffffffffffff168152602001908152602001600020600a0160008282546127f39190614446565b925050819055505050565b8060096000848152602001908152602001600020600401819055505050565b600060096000838152602001908152602001600020600401549050919050565b60016007600083815260200190815260200160002060040160008282546128649190614446565b9250508190555060006007600083815260200190815260200160002060010160009054906101000a900473ffffffffffffffffffffffffffffffffffffffff1690506005600b60008373ffffffffffffffffffffffffffffffffffffffff1673ffffffffffffffffffffffffffffffffffffffff16815260200190815260200160002060070160008282546128f9919061449c565b925050819055506005600b60003373ffffffffffffffffffffffffffffffffffffffff1673ffffffffffffffffffffffffffffffffffffffff1681526020019081526020016000206008016000828254612953919061449c565b925050819055505050565b6000600b60008373ffffffffffffffffffffffffffffffffffffffff1673ffffffffffffffffffffffffffffffffffffffff168152602001908152602001600020600701549050919050565b6060600b60008373ffffffffffffffffffffffffffffffffffffffff1673ffffffffffffffffffffffffffffffffffffffff16815260200190815260200160002060010180546129f99061455a565b80601f0160208091040260200160405190810160405280929190818152602001828054612a259061455a565b8015612a725780601f10612a4757610100808354040283529160200191612a72565b820191906000526020600020905b815481529060010190602001808311612a5557829003601f168201915b50505050509050919050565b612a866136f2565b600560008381526020019081526020016000206040518060c0016040529081600082015481526020016001820160009054906101000a900473ffffffffffffffffffffffffffffffffffffffff1673ffffffffffffffffffffffffffffffffffffffff1673ffffffffffffffffffffffffffffffffffffffff168152602001600282018054612b149061455a565b80601f0160208091040260200160405190810160405280929190818152602001828054612b409061455a565b8015612b8d5780601f10612b6257610100808354040283529160200191612b8d565b820191906000526020600020905b815481529060010190602001808311612b7057829003601f168201915b50505050508152602001600382015481526020016004820154815260200160058201805480602002602001604051908101604052809291908181526020018280548015612bf957602002820191906000526020600020905b815481526020019060010190808311612be5575b5050505050815250509050919050565b60006009600083815260200190815260200160002060010160009054906101000a900473ffffffffffffffffffffffffffffffffffffffff169050919050565b80600b60008473ffffffffffffffffffffffffffffffffffffffff1673ffffffffffffffffffffffffffffffffffffffff168152602001908152602001600020600701819055505050565b600b6020528060005260406000206000915090508060000160009054906101000a900473ffffffffffffffffffffffffffffffffffffffff1690806001018054612cdd9061455a565b80601f0160208091040260200160405190810160405280929190818152602001828054612d099061455a565b8015612d565780601f10612d2b57610100808354040283529160200191612d56565b820191906000526020600020905b815481529060010190602001808311612d3957829003601f168201915b505050505090806002018054612d6b9061455a565b80601f0160208091040260200160405190810160405280929190818152602001828054612d979061455a565b8015612de45780601f10612db957610100808354040283529160200191612de4565b820191906000526020600020905b815481529060010190602001808311612dc757829003601f168201915b505050505090806003018054612df99061455a565b80601f0160208091040260200160405190810160405280929190818152602001828054612e259061455a565b8015612e725780601f10612e4757610100808354040283529160200191612e72565b820191906000526020600020905b815481529060010190602001808311612e5557829003601f168201915b505050505090806004018054612e879061455a565b80601f0160208091040260200160405190810160405280929190818152602001828054612eb39061455a565b8015612f005780601f10612ed557610100808354040283529160200191612f00565b820191906000526020600020905b815481529060010190602001808311612ee357829003601f168201915b50505050509080600501549080600601549080600701549080600801549080600901549080600a01549080600b015490508c565b6000600e54905090565b6000600b60008373ffffffffffffffffffffffffffffffffffffffff1673ffffffffffffffffffffffffffffffffffffffff168152602001908152602001600020600601549050919050565b6001600560008381526020019081526020016000206004016000828254612fb19190614446565b9250508190555060006005600083815260200190815260200160002060010160009054906101000a900473ffffffffffffffffffffffffffffffffffffffff1690506005600b60008373ffffffffffffffffffffffffffffffffffffffff1673ffffffffffffffffffffffffffffffffffffffff1681526020019081526020016000206007016000828254613046919061449c565b925050819055506005600b60003373ffffffffffffffffffffffffffffffffffffffff1673ffffffffffffffffffffffffffffffffffffffff16815260200190815260200160002060080160008282546130a0919061449c565b925050819055505050565b80600b60008473ffffffffffffffffffffffffffffffffffffffff1673ffffffffffffffffffffffffffffffffffffffff168152602001908152602001600020600b01819055505050565b6001339080600181540180825580915050600190039060005260206000200160009091909190916101000a81548173ffffffffffffffffffffffffffffffffffffffff021916908373ffffffffffffffffffffffffffffffffffffffff16021790555033600b60003373ffffffffffffffffffffffffffffffffffffffff1673ffffffffffffffffffffffffffffffffffffffff16815260200190815260200160002060000160006101000a81548173ffffffffffffffffffffffffffffffffffffffff021916908373ffffffffffffffffffffffffffffffffffffffff16021790555084600b60003373ffffffffffffffffffffffffffffffffffffffff1673ffffffffffffffffffffffffffffffffffffffff168152602001908152602001600020600101908051906020019061323092919061358c565b5083600b60003373ffffffffffffffffffffffffffffffffffffffff1673ffffffffffffffffffffffffffffffffffffffff168152602001908152602001600020600201908051906020019061328792919061358c565b5082600b60003373ffffffffffffffffffffffffffffffffffffffff1673ffffffffffffffffffffffffffffffffffffffff16815260200190815260200160002060030190805190602001906132de92919061358c565b5081600b60003373ffffffffffffffffffffffffffffffffffffffff1673ffffffffffffffffffffffffffffffffffffffff168152602001908152602001600020600401908051906020019061333592919061358c565b506000600b60003373ffffffffffffffffffffffffffffffffffffffff1673ffffffffffffffffffffffffffffffffffffffff168152602001908152602001600020600501819055506000600b60003373ffffffffffffffffffffffffffffffffffffffff1673ffffffffffffffffffffffffffffffffffffffff168152602001908152602001600020600601819055506000600b60003373ffffffffffffffffffffffffffffffffffffffff1673ffffffffffffffffffffffffffffffffffffffff168152602001908152602001600020600701819055506000600b60003373ffffffffffffffffffffffffffffffffffffffff1673ffffffffffffffffffffffffffffffffffffffff168152602001908152602001600020600801819055506000600b60003373ffffffffffffffffffffffffffffffffffffffff1673ffffffffffffffffffffffffffffffffffffffff168152602001908152602001600020600901819055506000600b60003373ffffffffffffffffffffffffffffffffffffffff1673ffffffffffffffffffffffffffffffffffffffff168152602001908152602001600020600a01819055506000600b60003373ffffffffffffffffffffffffffffffffffffffff1673ffffffffffffffffffffffffffffffffffffffff168152602001908152602001600020600b018190555080600b60003373ffffffffffffffffffffffffffffffffffffffff1673ffffffffffffffffffffffffffffffffffffffff168152602001908152602001600020600c01908051906020019061358492919061373e565b505050505050565b8280546135989061455a565b90600052602060002090601f0160209004810192826135ba5760008555613601565b82601f106135d357805160ff1916838001178555613601565b82800160010185558215613601579182015b828111156136005782518255916020019190600101906135e5565b5b50905061360e919061379e565b5090565b82805482825590600052602060002090810192821561364e579160200282015b8281111561364d578251825591602001919060010190613632565b5b50905061365b919061379e565b5090565b6040518060c0016040528060008152602001600073ffffffffffffffffffffffffffffffffffffffff1681526020016060815260200160008152602001600081526020016000151581525090565b6040518060a0016040528060008152602001600073ffffffffffffffffffffffffffffffffffffffff1681526020016060815260200160008152602001600081525090565b6040518060c0016040528060008152602001600073ffffffffffffffffffffffffffffffffffffffff168152602001606081526020016000815260200160008152602001606081525090565b82805482825590600052602060002090810192821561378d579160200282015b8281111561378c57825182908051906020019061377c92919061358c565b509160200191906001019061375e565b5b50905061379a91906137bb565b5090565b5b808211156137b757600081600090555060010161379f565b5090565b5b808211156137db57600081816137d291906137df565b506001016137bc565b5090565b5080546137eb9061455a565b6000825580601f106137fd575061381c565b601f01602090049060005260206000209081019061381b919061379e565b5b50565b600061383261382d8461432e565b614309565b9050808382526020820190508285602086028201111561385157600080fd5b60005b8581101561389b57813567ffffffffffffffff81111561387357600080fd5b8086016138808982613922565b85526020850194506020840193505050600181019050613854565b5050509392505050565b60006138b86138b38461435a565b614309565b9050828152602081018484840111156138d057600080fd5b6138db848285614518565b509392505050565b6000813590506138f2816146a4565b92915050565b600082601f83011261390957600080fd5b813561391984826020860161381f565b91505092915050565b600082601f83011261393357600080fd5b81356139438482602086016138a5565b91505092915050565b60008135905061395b816146bb565b92915050565b60006020828403121561397357600080fd5b6000613981848285016138e3565b91505092915050565b6000806040838503121561399d57600080fd5b60006139ab858286016138e3565b925050602083013567ffffffffffffffff8111156139c857600080fd5b6139d485828601613922565b9150509250929050565b600080604083850312156139f157600080fd5b60006139ff858286016138e3565b9250506020613a108582860161394c565b9150509250929050565b600060208284031215613a2c57600080fd5b600082013567ffffffffffffffff811115613a4657600080fd5b613a5284828501613922565b91505092915050565b60008060408385031215613a6e57600080fd5b600083013567ffffffffffffffff811115613a8857600080fd5b613a9485828601613922565b925050602083013567ffffffffffffffff811115613ab157600080fd5b613abd858286016138f8565b9150509250929050565b600080600080600060a08688031215613adf57600080fd5b600086013567ffffffffffffffff811115613af957600080fd5b613b0588828901613922565b955050602086013567ffffffffffffffff811115613b2257600080fd5b613b2e88828901613922565b945050604086013567ffffffffffffffff811115613b4b57600080fd5b613b5788828901613922565b935050606086013567ffffffffffffffff811115613b7457600080fd5b613b8088828901613922565b925050608086013567ffffffffffffffff811115613b9d57600080fd5b613ba9888289016138f8565b9150509295509295909350565b600060208284031215613bc857600080fd5b6000613bd68482850161394c565b91505092915050565b60008060408385031215613bf257600080fd5b6000613c008582860161394c565b925050602083013567ffffffffffffffff811115613c1d57600080fd5b613c2985828601613922565b9150509250929050565b60008060408385031215613c4657600080fd5b6000613c548582860161394c565b9250506020613c658582860161394c565b9150509250929050565b6000613c7b8383613e08565b905092915050565b6000613c8f838361403a565b60208301905092915050565b613ca4816144d0565b82525050565b613cb3816144d0565b82525050565b6000613cc4826143ab565b613cce81856143e6565b935083602082028501613ce08561438b565b8060005b85811015613d1c5784840389528151613cfd8582613c6f565b9450613d08836143cc565b925060208a01995050600181019050613ce4565b50829750879550505050505092915050565b6000613d39826143b6565b613d4381856143f7565b9350613d4e8361439b565b8060005b83811015613d7f578151613d668882613c83565b9750613d71836143d9565b925050600181019050613d52565b5085935050505092915050565b6000613d97826143b6565b613da18185614408565b9350613dac8361439b565b8060005b83811015613ddd578151613dc48882613c83565b9750613dcf836143d9565b925050600181019050613db0565b5085935050505092915050565b613df3816144e2565b82525050565b613e02816144e2565b82525050565b6000613e13826143c1565b613e1d8185614419565b9350613e2d818560208601614527565b613e3681614693565b840191505092915050565b6000613e4c826143c1565b613e56818561442a565b9350613e66818560208601614527565b613e6f81614693565b840191505092915050565b6000613e85826143c1565b613e8f818561443b565b9350613e9f818560208601614527565b80840191505092915050565b600060c083016000830151613ec3600086018261403a565b506020830151613ed66020860182613c9b565b5060408301518482036040860152613eee8282613e08565b9150506060830151613f03606086018261403a565b506080830151613f16608086018261403a565b5060a0830151613f2960a0860182613dea565b508091505092915050565b600060a083016000830151613f4c600086018261403a565b506020830151613f5f6020860182613c9b565b5060408301518482036040860152613f778282613e08565b9150506060830151613f8c606086018261403a565b506080830151613f9f608086018261403a565b508091505092915050565b600060c083016000830151613fc2600086018261403a565b506020830151613fd56020860182613c9b565b5060408301518482036040860152613fed8282613e08565b9150506060830151614002606086018261403a565b506080830151614015608086018261403a565b5060a083015184820360a086015261402d8282613d2e565b9150508091505092915050565b6140438161450e565b82525050565b6140528161450e565b82525050565b60006140648284613e7a565b915081905092915050565b60006020820190506140846000830184613caa565b92915050565b6000610180820190506140a0600083018f613caa565b81810360208301526140b2818e613e41565b905081810360408301526140c6818d613e41565b905081810360608301526140da818c613e41565b905081810360808301526140ee818b613e41565b90506140fd60a083018a614049565b61410a60c0830189614049565b61411760e0830188614049565b614125610100830187614049565b614133610120830186614049565b614141610140830185614049565b61414f610160830184614049565b9d9c50505050505050505050505050565b6000602082019050818103600083015261417a8184613cb9565b905092915050565b6000602082019050818103600083015261419c8184613d8c565b905092915050565b600060208201905081810360008301526141be8184613e41565b905092915050565b600060208201905081810360008301526141e08184613eab565b905092915050565b600060208201905081810360008301526142028184613f34565b905092915050565b600060208201905081810360008301526142248184613faa565b905092915050565b60006020820190506142416000830184614049565b92915050565b600060a08201905061425c6000830188614049565b6142696020830187613caa565b818103604083015261427b8186613e41565b905061428a6060830185614049565b6142976080830184614049565b9695505050505050565b600060c0820190506142b66000830189614049565b6142c36020830188613caa565b81810360408301526142d58187613e41565b90506142e46060830186614049565b6142f16080830185614049565b6142fe60a0830184613df9565b979650505050505050565b6000614313614324565b905061431f828261458c565b919050565b6000604051905090565b600067ffffffffffffffff82111561434957614348614664565b5b602082029050602081019050919050565b600067ffffffffffffffff82111561437557614374614664565b5b61437e82614693565b9050602081019050919050565b6000819050602082019050919050565b6000819050602082019050919050565b600081519050919050565b600081519050919050565b600081519050919050565b6000602082019050919050565b6000602082019050919050565b600082825260208201905092915050565b600082825260208201905092915050565b600082825260208201905092915050565b600082825260208201905092915050565b600082825260208201905092915050565b600081905092915050565b60006144518261450e565b915061445c8361450e565b9250827fffffffffffffffffffffffffffffffffffffffffffffffffffffffffffffffff0382111561449157614490614606565b5b828201905092915050565b60006144a78261450e565b91506144b28361450e565b9250828210156144c5576144c4614606565b5b828203905092915050565b60006144db826144ee565b9050919050565b60008115159050919050565b600073ffffffffffffffffffffffffffffffffffffffff82169050919050565b6000819050919050565b82818337600083830152505050565b60005b8381101561454557808201518184015260208101905061452a565b83811115614554576000848401525b50505050565b6000600282049050600182168061457257607f821691505b6020821081141561458657614585614635565b5b50919050565b61459582614693565b810181811067ffffffffffffffff821117156145b4576145b3614664565b5b80604052505050565b60006145c88261450e565b91507fffffffffffffffffffffffffffffffffffffffffffffffffffffffffffffffff8214156145fb576145fa614606565b5b600182019050919050565b7f4e487b7100000000000000000000000000000000000000000000000000000000600052601160045260246000fd5b7f4e487b7100000000000000000000000000000000000000000000000000000000600052602260045260246000fd5b7f4e487b7100000000000000000000000000000000000000000000000000000000600052604160045260246000fd5b6000601f19601f8301169050919050565b6146ad816144d0565b81146146b857600080fd5b50565b6146c48161450e565b81146146cf57600080fd5b5056fea2646970667358221220705b81c8f6e7107221b9991e4210e1310869110b46d7bff8b7756587bf4d899b64736f6c63430008040033",
  "linkReferences": {},
  "deployedLinkReferences": {}
}